:020000041000EA
:1000000000B5324B212058609868022188439860DF
:10001000D860186158612E4B002199600221596106
:100020000121F02299502B49196001219960352056
:1000300000F044F80222904214D00621196600F024
:1000400034F8196E01211966002018661A6600F04E
:100050002CF8196E196E196E052000F02FF8012189
:100060000842F9D1002199601B49196000215960AB
:100070001A491B48016001219960EB211966A021F2
:10008000196600F012F800219960164914480160C1
:100090000121996001BC002800D000471248134993
:1000A000086003C880F30888084703B5996A0420EC
:1000B0000142FBD001200142F8D103BD02B5186610
:1000C0001866FFF7F2FF186E186E02BD00000240BE
:1000D000000000180000070000035F00212200005C
:1000E000F4000018222000A00001001008ED00E03C
:1000F00000000000000000000000000074B24E7A12
:1001000000200420F7010010CB010010CD010010E9
:10011000C9010010C9010010C9010010C901001077
:10012000C9010010C9010010C9010010CF01001061
:10013000C9010010C9010010D1010010D301001045
:10014000C1010010C1010010C1010010C101001067
:10015000C1010010C1010010C1010010C101001057
:10016000C1010010C1010010C1010010C101001047
:10017000C1010010C1010010C1010010C101001037
:10018000C1010010C1010010C1010010C101001027
:10019000C1010010C1010010C1010010C101001017
:1001A000C1010010C1010010C1010010C101001007
:1001B000C1010010C1010010C1010010C1010010F7
:1001C000EFF30580103800BE00BE00BE00BE00BECA
:1001D00000BE00BEF2EB887128880110488801102B
:1001E0003802001090A31AE71E481F49086006C88D
:1001F00081F3088810471D480068002801D019487D
:10020000F3E70DA40ECC002902D000F012F8F9E7B4
:100210001749184A002000E001C19142FCD116495B
:100220008847164988471649884700BEFDE701C937
:1002300001C29A42FBD3704748880110C0000020D9
:1002400034280020BCAF011000000420000004206E
:10025000BCAF0110001004200010042000000000BA
:10026000704700000000000008ED00E0000000D032
:10027000342800208848032079FF00104103001033
:1002800071FF0010F8B5C0460448054B10B5834215
:1002900003D0044B002B00D0984710BD3428002019
:1002A000342800200000000006480749091A8B1076
:1002B000C90FC91810B5491003D0044B002B00D04A
:1002C000984710BD3428002034280020000000008A
:1002D00010B5074C2378002B09D1FFF7D5FF054B4C
:1002E000002B02D0044800E000BF0123237010BDA2
:1002F000D02D002000000000D06A0110054B10B581
:10030000002B03D00449054800E000BFFFF7CCFFF5
:1003100010BDC04600000000D42D0020D06A01109E
:1003200010B504001F210BF0F7F900222000002176
:100330000BF00CFA002120000BF01CFA10BDC04697
:10034000F8B519200BF02AFAD02380221B0692045C
:100350005A6234480FF0DEFF0FF08EFF32480FF084
:10036000D9FF0CF0A5FE1A20FFF7DAFF1B20FFF7DC
:10037000D7FF00F077F82D480FF0CCFF06F042FCD5
:100380002B480FF0C7FF07F0D5FA2A480FF0C2FF3D
:1003900006F0F8FE01F066FC27480FF0BBFF09F0FD
:1003A00031FE00220524254B1A7006F00BF8244874
:1003B0000FF0B0FF234D013C2100280010F02EF873
:1003C000FA2080000BF054FF002CF4D10A200FF02B
:1003D00057FF012200211C480BF0DEFB1B4812F0E6
:1003E0004BFC09F0F1FF0122194B1A4D1A4E1B4C20
:1003F0001B4F1A700AF004F8A36A2A689B1ABB42C2
:1004000001D9A36A2B603378012BF3D107F03EFCAE
:100410003378012BEED107F039FC3378012BE9D189
:10042000F4E7C046D06A0110E06A0110EC6A0110DE
:10043000F86A0110086B0110186B01107048032056
:10044000286B0110346B011054470320D57E001037
:100450006F4803202C2603207448032000400540E9
:1004600020A10700092370B586B0059304330493D7
:10047000023B0393013B0293023B324D324C01930A
:10048000324B22003249334800932B0005F054FCD4
:10049000142005F04DFCFA2080000BF0E9FE2E4EF2
:1004A00021003200280005F065FE3378682B08D063
:1004B0002A4C20000FF02EFFFA2080000BF0D8FE0F
:1004C000F7E773783D2BF3D101222100280005F0D6
:1004D00075FE234E32002100280005F0A7FE337878
:1004E000002BF7D101222100280005F025FD012174
:1004F000200005F003FD0321200005F08FFC0321FF
:10050000280005F0C5FD1321200005F0FDFE122195
:10051000200005F037FF0021200005F015FF032122
:10052000200005F09FFE0221200005F0B7FE5521B6
:10053000200005F091FC1821280005F03FFD06B0D1
:1005400070BDC046D82203205436002040420F0020
:10055000A8210020B021002024480320486B01106E
:1005600085480320F0B5C646334C344E344D220046
:100570003100280000B505F00FFE6378DB439B07D0
:1005800020D023781B0702D480BCB846F0BD2D4C88
:100590000622002120000EF01DF82100280005F0A1
:1005A000CDFD0023E05E05F02FFC274D28600223DF
:1005B000E05E05F029FC68600423E05E05F024FCA1
:1005C000A860E1E7214B06229846180000210EF0B2
:1005D00001F81F4F0622002138000DF0FBFF4146B5
:1005E000300005F08FFD3900300005F06FFD434607
:1005F0000020185E05F0F4FB4346164E30600220E2
:10060000185E05F0EDFB434670600420185E05F0AF
:10061000E7FBB0600023F85E05F0ECFB0E4E3060A7
:100620000223F85E05F0E6FB70600423F85E05F037
:10063000E1FBB060A5E7C046683D032054360020CA
:10064000D8220320642D032070320320542D032070
:100650005C2D0320EC2B0320FC2B0320F0B545463A
:10066000DE4657464E46E0B58BB0049015000800B4
:1006700001920321DC172140C9188A109100894694
:10068000002900DC8CE01599159C89008A46149994
:100690000892091B491B89008C46416852460C018F
:1006A000A0468C0007944C006418CF00A900056890
:1006B0000591AB4659440E00002102926246069510
:1006C000B4460025079E8B460790CA460800A40042
:1006D000009103920993029B9946019B4844002B89
:1006E00017DD0499830089464B448146069A5A4493
:1006F00011681960A918885904325860C85998605F
:100700000959D96010336245F2D1059B4846994694
:100710004844039B42469946009B48440433009357
:10072000C3444644AD1A47444444C4449A45D2DCC9
:10073000D1460100089A0798099B4B4529DD149C76
:10074000159D0668671B019C40683F1B002C20DD3F
:10075000850050430001AC463618A20020003C0042
:100760000D0004996746884615999A468B464B4674
:10077000A446814600215D44AC004444705860505A
:1007800004319142FAD14D4401336544F6199A453A
:10079000F0D10BB0F0BCBB46B246A946A046F0BDB6
:1007A0000021CAE7F0B5CE4647469C4680B5002BEF
:1007B0001ADD002A18DD930098460300086800251A
:1007C00081464C68D2004344A400574241465E1A19
:1007D0003100AA004A441068121901C18B42FAD1B3
:1007E0000135F31B6545F1D1C0BCB946B046F0BD3B
:1007F000F0B557464E46DE464546E0B591B00D9100
:100800000F92110000220A6002680C900B9282681D
:100810000A920022089205329146CA46063A0E9282
:10082000052352469F1A089B0A9C9C467C430B9BBF
:10083000A40064449C4664442668656876006D00A4
:1008400076086D08311C281C0DF08EFC01235344E2
:100850009946002800D15AE153462E1C0125012B50
:1008600000D1A4E1A368311C5B005B08181C98460A
:100870000DF07AFC002800D169E14B46464602257E
:10088000032B00DCA2E1E368311C5B005B08181C51
:1008900098460DF069FC002800D15DE14B464646C4
:1008A0000325042B00D19FE12369301C5B005B080A
:1008B000191C98460DF052FC002800D151E14B461E
:1008C00046460425062B00D096E16069311C4000A5
:1008D00040080DF049FC002800D11DE10A235246D2
:1008E0009C1A0D9B089A9C50062352469D1AA846B6
:1008F0000C9B9B680A930B9AA300944610006344D8
:100900001968089C1259A446015101001A600A9AFC
:100910006144920089189B1808681C680C60186074
:1009200089189B1808681C680C60186089189B1847
:1009300008681C680C60186089189B1808681C6897
:100940000C60186089189B1818680A6808601A609B
:100950000F9A1368013313600C9B0B9A9B680A93E0
:100960007B43DF19BF005B19BE589C00171938681C
:10097000311C0DF0A8FB53463860012B2CD00B9B8B
:1009800027009C4667447868311C0DF09CFB534659
:100990007860022B20D00B9B27009C466744B868E8
:1009A000311C0DF090FB5346B860032B14D00B9B09
:1009B00027009C466744F868311C0DF084FB5346C1
:1009C000F860052B08D10B9A2700944667443869D4
:1009D000311C0DF078FB386147460A9A0899574355
:1009E00092008C4605920B9ABB0091466344EF1926
:1009F000BF009C460693231D99443B1D0193230091
:100A00009046083316009844082366449C46BC442C
:100A100063460293230094460C33634407930C23EC
:100A20009C46BC4463469346944603931023A344D8
:100A3000103464449C46BC44634604935B4630686F
:100A400019681500099414000DF051FB011CE859B8
:100A50000DF033FB5346E851012B00D186E0002511
:100A6000BA462F001D000DE0069B3068F41A5B4665
:100A700019680DF03CFB5346011CE0580DF01DFBBE
:100A80005346E0504B46306819680DF030FB019B2F
:100A9000011CE0580DF011FB019BE050022D27D006
:100AA0004346306819680DF022FB029B011CE05898
:100AB0000DF003FB029BE050032D19D0079B30681B
:100AC00019680DF014FB039B011CE0580DF0F5FABA
:100AD000039BE050052D0BD1099B316818680DF080
:100AE00006FB049B011CE0580DF0E7FA049BE05064
:100AF000059B01379C466644BD42B5D101235B424C
:100B00009C46AA46089BE2440433089388E6534671
:100B10000025012B00D0A5E60D9B089A7C199C505E
:100B2000062352469D1A0C9B00219B68301CA84648
:100B30000A930DF00BFB002844D00A9B7B435B1902
:100B40009C000E9B013300D046E70E9744E74B46CE
:100B5000032B00DD97E6DFE74B46042B00D0A3E62E
:100B6000DAE74B46062B00D1AFE6D5E7069BD14628
:100B70009A46059B002498460BE05346F51A5B46BF
:100B8000306819680DF0B3FA011CE8590DF095FAB8
:100B9000E85101344644A145EFD105230D9A536134
:100BA00011B0F0BCBB46B246A946A046F0BD052137
:100BB0000D9B089A052499500C9B04359B680A9359
:100BC00005239846BC4200D1C6E694E65346072466
:100BD000089AE41A0D9B04359C505346ED1A0C9B61
:100BE000A8469B680A93EDE753460824089AE41A3E
:100BF0000D9B03359C50F0E753460924089AE41AEC
:100C00000D9B02359C50E8E7F0B55746DE464E4650
:100C10004546E0B59BB0070026981593279B451CD9
:100C200000D124985D1C00D1249B0325259CA4465B
:100C3000E617354007266544AD10AC000C94249CA3
:100C4000B443159E002E00DC97E204911901119126
:100C500028998000090151181791611EC908169042
:100C6000480183469800109028986B4384469B0067
:100C700063449B00D518002301310A93CB011393E1
:100C80005B46009418931995189B20330E930C9B88
:100C9000002B00DC84E20F97049A002494460E9BFC
:100CA00063441293179B019321000A980F9B84467B
:100CB0000CCB5943614489008A46611C5943614405
:100CC00089008946A11C594393466144890088469E
:100CD000E11C4B4363449B009B44009B019E924458
:100CE00091449044002B00DC4EE200250023049F39
:100CF00008950795069509950595029503950B931B
:100D00003B683168181C0D930DF0F1F903990DF053
:100D1000D7F9716803900D980DF0E9F902990DF07B
:100D2000CFF9B16814900D980DF0E1F905990DF027
:100D3000C7F9F16805900D980DF0D9F909990DF0F2
:100D4000BFF909907B683169181C02930DF0CFF947
:100D500006990DF0B5F97169069002980DF0C7F982
:100D600007990DF0ADF9B169079002980DF0BFF940
:100D700008990DF0A5F9F169089002980DF0B7F9FE
:100D8000291C0DF09DF90290BD68316A281C0DF0F8
:100D9000AEF903990DF094F9716A0390281C0DF0D7
:100DA000A6F914990DF08CF9B16A0D90281C0DF07C
:100DB0009EF905990DF084F9F16A0590281C0DF053
:100DC00096F909990DF07CF90990FD68316B281CA2
:100DD0000DF08DF906990DF073F9716B0690281CD2
:100DE0000DF085F907990DF06BF9B16B0790281C90
:100DF0000DF07DF908990DF063F9F16B0890281C4E
:100E00000DF075F902990DF05BF902903D69316CB6
:100E1000281C0DF06CF903990DF052F9716C0390D8
:100E2000281C0DF064F90D990DF04AF9B16C0D9084
:100E3000281C0DF05CF905990DF042F9F16C059054
:100E4000281C0DF054F909990DF03AF909907D69C3
:100E5000316D281C0DF04BF906990DF031F9716DCB
:100E60000690281C0DF043F907990DF029F9B16D92
:100E70000790281C0DF03BF908990DF021F9F16D50
:100E80000890281C0DF033F902990DF019F914900F
:100E9000BD69316E281C0DF02AF903990DF010F987
:100EA000716E0390281C0DF022F90D990DF008F9D0
:100EB000B16E0290281C0DF01AF905990DF000F999
:100EC000F16E0590281C0DF012F909990DF0F8F853
:100ED0000990FD69316F281C0DF009F906990DF094
:100EE000EFF8716F0690281C0DF001F907990DF0CD
:100EF000E7F8B16F0790281C0DF0F9F808990DF08C
:100F0000DFF8F16F0890281C0DF0F1F814990DF03E
:100F1000D7F8051C803620370B9B009A08330B93BB
:100F20009A4200DDECE6019B139E9C4603990698CD
:100F300066440DF0C5F80299039007980DF0C0F8CB
:100F40000599029008980DF0BBF80999071C281C18
:100F50000DF0B6F8129B051C0593249A009B9A424B
:100F60002FDD0693059B316804CB101C0593079277
:100F70000DF0BDF8011C03980DF0A2F87168039004
:100F800007980DF0B4F8011C02980DF099F8B168BB
:100F9000029007980DF0ABF8011C381C0DF090F88A
:100FA000F168071C07980DF0A2F8011C281C0DF031
:100FB00087F8051C069B249A0133103606939A4243
:100FC000D0D14B46029918680DF077F85346039933
:100FD000061C18680DF071F8534618604B461E60E9
:100FE0005B46291C18680DF068F84346051C391C3F
:100FF00018680DF062F84346119A18605B469446F3
:101000001D60019B0434634401930C9BA34200DDEB
:101010004AE61A00259B934200DCC7E00F9F0E9A18
:10102000049B944663440293199B0C9E98463B0094
:1010300037004646984643460A9A5B6894464246BD
:101040007B43146863449B00E418009B3500002B2D
:1010500000DCA0E0049B994600239A4600239B46AF
:101060004B46296818680DF042F859460DF028F8EB
:1010700083464B46696858680DF039F859460DF0BB
:101080001FF883464B46A96898680DF030F859461A
:101090000DF016F883464B46E968D8680DF027F83E
:1010A00059460DF00DF883464B46296918690DF035
:1010B0001EF859460DF004F883464B466969586995
:1010C0000DF015F859460CF0FBFF83464B46A96915
:1010D00098690DF00CF859460CF0F2FF83464B4628
:1010E000E969D8690DF003F859460CF0E9FF834629
:1010F00020239C462035E144183B9C46009BE2445B
:10110000534500DDACE70E9B9D19029B0193249A89
:10111000009B9A4217DD9A46002399464B464A4661
:10112000E958019B98580CF0E2FF011C58460CF05E
:10113000C7FF834601239C460333E2449C46249B1D
:10114000E1445345EAD1206859460CF0B6FF109BA4
:1011500001379C46259B20606644BB4200D06AE76D
:1011600047461699049A8C460A9B62440492159A43
:1011700001330A939A4200D086E51BB0F0BCBB460F
:10118000B246A946A046F0BD0025049B2F1C05933E
:1011900002950395E1E6049B019300239B46B6E785
:1011A0001A00259B934200DD39E7DAE71699049A85
:1011B0008C460A9B62440492159A01330A939A4220
:1011C00000D069E5D9E7C046F0B55746DE464E4641
:1011D0004546E0B513689BB006AF9A46786339621E
:1011E000002B00D10CE15668002E00D112E1954D84
:1011F000280011F06DFD944C002800D017E160210B
:1012000060680CF0DFF883109B00042B00DA0423E5
:101210000622554693461C0000227E615B463B63D6
:10122000A34500DD3C6353009B185900B9617969FF
:10123000DB008C469C4461467962396A0626894601
:1012400099443B6B3C619C46944463463B645B46DB
:101250003400AB46FB60BA62BC63042C00DC91E056
:101260000423BB634B46A046FB614346BA6B9C1A02
:101270009B00043B99464346551E7A6B5B009246A1
:101280003A6A434494465B00063B1B199B009A4410
:10129000BB694E461B199B006344FB62A3005B4283
:1012A000FB635B46BB604346AB467B603C60FE2015
:1012B0007A6BF3009B1BD15880050CF004FFBD6ACC
:1012C000B1462E00FC6A7864FB6B4A469846A044FF
:1012D0004346786C99580CF00AFF43464A469850AA
:1012E0005B46051C002B22DD534619680CF0FFFEFF
:1012F000011C20680CF0E1FE5B462060012B16D03B
:101300005346281C59680CF0F2FE011C60680CF072
:10131000D4FE5B466060022B09D05346281C9968B6
:101320000CF0E5FE011CA0680CF0C7FEA0603B6C51
:1013300001361834B342C7DC18235B429C464E4644
:101340005B46043EE244013B01D39B46AFE7BB68EA
:1013500048219B467B683C689846FB6A7918BB64C9
:101360000623FB64019400933B6BBA6B786AFFF72A
:1013700075F9002C0ADC4346022B2FD00223984635
:10138000BB6372E74B46A046FB616EE726007A6BB3
:10139000FB699446BA6B4821062599464446904617
:1013A00073009B19DB0063445846BB647918330013
:1013B000FD64FFF7F7F9434649464820B964FD64E8
:1013C0000293049603953A6B0093019233005946B9
:1013D0007A6A3818FFF718FC043C3DE73C69FB6863
:1013E000BA6A1B1B12195D469B46052A00DC15E7ED
:1013F000BD4615B0F0BCBB46B246A946A046F0BDFE
:101400000F21A8B027336B4456688B439A46002EB1
:1014100000D0ECE60F220B4DA8B0273628006E4412
:10142000964311F055FC084C002800D1E7E68023D4
:10143000DB012360802328001B036360A36011F09D
:1014400063FCDCE6D425032030260320F0B55746A4
:10145000DE464E464546E0B5136897B006AFF861E4
:10146000B9617B62002B00D1E1E053689846002B04
:1014700000D1E7E0834D280011F02AFC824C0028BF
:1014800000D0EDE0602160680BF09CFF8510AD009E
:10149000042D00DA042506239A46002356467E636F
:1014A000AE4200DD7D635A00D2185100D20039618E
:1014B000110041443962796BBD608946B96999442C
:1014C0008C4662443A6300229246424654469A460B
:1014D000FA607E6006231B1B1E007B61042B00DD6F
:1014E0000426731E9B46FB69E2009846121B92007D
:1014F00090443A6B3C605B4615005446002B3DDD42
:10150000B2462600FC62BA6243462C685968201C29
:101510000CF0EDFD011C68680CF0CFFD5B466860C7
:10152000012B16D04346201C99680CF0E0FD011CED
:10153000A8680CF0C2FD5B46A860022B09D04346A8
:10154000201CD9680CF0D3FD011CE8680CF0B5FD37
:10155000E86001361835B145D6DCFB6A56469A4636
:1015600001235B429C461D33E3449C465B46BA6ABA
:10157000544604321500E044002BC1DC013B00D38B
:1015800079E07B6938219D1B3B6B3C68BB6306237C
:10159000FB630194009332007B6B386A7918FFF784
:1015A0005DF8002D2ADDA3199846FA696300944678
:1015B0001B195B0043449B006344BB633821062333
:1015C000786A3200FB6379182B008346FFF7EAF84C
:1015D0003A69382042449300BA69594694466344B4
:1015E000BB630623FB630494039302967B6B009614
:1015F00001933A6A2B003818FFF706FB3B6B103358
:101600003B63002C01D1042464E7FB68BD68984665
:1016100053467E685B19761B052B00DC3FE7BD4611
:1016200011B0F0BCBB46B246A946A046F0BD0F21A2
:10163000A8B027336B448B437B6253689846002BDA
:1016400000D017E70F220F4DA8B027336B44934308
:101650002800984611F03CFB0B4C002800D111E704
:101660008023DB012360802328001B036360A360C9
:1016700011F04AFB06E79B461C239C460432E044DB
:1016800039E7C046D425032030260320F0B5DE46D6
:1016900057464E464546E0B5E04AE14B8BB01768E9
:1016A00018600C1CDF4B51681F605960DE4B884688
:1016B0009B460890594658461E684D68DB4B896822
:1016C000C0681E605D609960D860D94B0692059035
:1016D0005A6898680491019019680092DB68381C78
:1016E000029303910CF003FD0199814640460CF0F2
:1016F000FEFC011C48460CF0E3FCCE4B8146196809
:10170000201C9A460CF0F3FC011C48460CF0D8FC57
:10171000C94B009918600790381C99460CF0E7FCFB
:101720000299071C40460CF0E2FC011C381C0CF02E
:10173000C7FC5346071C5968201C0CF0D8FC011C40
:10174000381C0CF0BDFC4F46039909907860301CA2
:101750000CF0CDFC019F041C391C281C0CF0C7FCAC
:10176000011C201C0CF0ACFC009A041C111C301C49
:1017700091460CF0BCFC029A061C111C281C9046D9
:101780000CF0B5FC011C301C0CF09AFC039982464D
:1017900004980CF0ACFC391C051C05980CF0A7FC57
:1017A000011C281C0CF08CFC4D463E1C291C071CFF
:1017B00004980CF09CFC4246051C111C05980CF08A
:1017C00096FC011C281C0CF07BFC80460398211C15
:1017D00081460CF08CFC391C051C301C0CF087FC7D
:1017E000011C281C0CF06CFC944E31680CF068FC59
:1017F000934D51460390286048460CF078FC4146D2
:10180000814601980CF073FC011C48460CF058FC12
:1018100071680CF055FC211C0190686000980CF078
:1018200066FC391C029F041C381C0CF060FC011C77
:10183000201C0CF045FCB1680CF042FC5146041C25
:10184000A86000980CF053FCB9464146071C484676
:101850000CF04DFC011C381C0CF032FCF1680CF053
:101860002FFCE860774D071C2E680398311C0CF0A4
:101870003EFC6D688146291C381C00970CF037FC33
:10188000291C804601980CF032FC49460CF018FCEB
:10189000311C0CF02CFC311C071C201C0CF027FC0C
:1018A00041460CF00DFC291C0CF021FC011C381CDD
:1018B0000CF006FC644B19680CF002FC634B071C2F
:1018C0001860291C201C0CF012FC49460CF0F8FB97
:1018D000391C0CF0F8FB5E4981468A460860019885
:1018E000311C0CF004FC41460CF0EAFB391C0CF0F6
:1018F000EAFB5146804648600798311C0CF0F7FB24
:10190000099B071C291C181C9A460CF0F0FB011CB3
:10191000381C0CF0D5FB011C08980CF0CEFB494696
:10192000071C0CF0E4FB07990CF0CAFB069A414631
:101930001060381C0CF0DBFB51460CF0C1FB069A22
:1019400082465060311C48460CF0D1FB414F011CCF
:1019500038680CF0B2FB311C029040460CF0C7FB1B
:10196000011C78680CF0A9FB291C061C48460CF0E9
:10197000BEFB011CB8680CF0A0FB291C8146404648
:101980000CF0B5FB011CF8680CF097FB0299051CE4
:1019900003980CF0ACFB019F80464946381C0CF0C4
:1019A000A6FB011C40460CF08BFB5A46311C106014
:1019B00003980CF09CFB291C8046381C0CF097FB0C
:1019C000011C40460CF07CFB5B4602995860201CD1
:1019D0000CF08DFB009B4946071C181C98460CF028
:1019E00086FB011C381C0CF06BFB5B46311C9860BD
:1019F000201C0CF07CFB291C041C40460CF077FBDF
:101A0000011C201C0CF05CFB5B46D86050460BB000
:101A1000F0BCBB46B246A946A046F0BD403C032000
:101A2000504803201832032080290020C0290020BC
:101A3000E0290020442D0320503C0320D028002022
:101A4000A0290020643C0320182403200C3203202A
:101A500060360020002A0020F0B5DE4657464E468C
:101A60004546E0B56A4B85B0596898460CF025FBB1
:101A7000684B041C1860684B99461B689B46674B73
:101A800059461D680CF01CFB291C0CF030FB644B04
:101A9000061C1868011C0CF013FB011C301C0CF018
:101AA00012FB604E31680CF00BFB5F4B0190306015
:101AB0001868011C0CF004FB5C4B02901F68391C79
:101AC0000CF015FB8246011C281C0CF0F9FA291CAD
:101AD000061C50460CF0F1FA554A116892460CF07B
:101AE00006FB311C0CF0EFFA391C0390381C0CF08B
:101AF000E7FA5946071C201C0CF0DFFA011C381CC1
:101B00000CF0F5FA311C0CF0DEFA011C03980CF015
:101B1000D7FA524601991060061C201C0CF0D0FA2E
:101B2000311C0CF0CDFA434B19680CF0E0FA424B33
:101B30001860424B18604B461C60434619680CF015
:101B4000BCFA3F4B041C18603E4B99461B68191C9D
:101B50009A460CF0B5FA291C0CF0C9FA3A4B071C4E
:101B60001868011C0CF0ACFA011C381C0CF0ABFA24
:101B7000364B984619680CF0A3FA43461860344B6C
:101B8000071C1B680298191C98460CF0B0FA0190CB
:101B9000011C281C0CF094FA4146834640460CF088
:101BA0008FFA51468046201C0CF087FA011C4046F3
:101BB0000CF09DFA59460CF086FA291C80460198D3
:101BC0000CF07BFA311C0CF092FA59460CF07BFABF
:101BD000011C40460CF074FA1E4B051C1860391CA1
:101BE000201C0CF06DFA291C0CF06AFA1A4B1968CB
:101BF0000CF07DFA194B1860194B18604B461C60AD
:101C000005B0F0BCBB46B246A946A046F0BDC046F2
:101C1000403C0320BC2D032010320320DC21002097
:101C2000E821002004320320D02100207836002053
:101C3000A02D0320EC210020A84703209847032073
:101C4000C02D032014320320E0210020083203209D
:101C50007C360020A42D0320E4210020AC47032083
:101C6000D8470320F8B5FE250024194BAD051D60AB
:101C70009C605C60DD60174B174F1D609C605C6072
:101C8000DD60164B1E68164B301C19680CF01BFAF1
:101C9000144B38601D605C609C60DD60124B7C60A2
:101CA0001D605E609C60DD60104B1C605D60104BD1
:101CB000104D1868011C0CF01AFA0F4A0F4B1268ED
:101CC00028601A600E4A9C6012685C60DA60F8BD99
:101CD00080290020A0290020442D0320DC210020A1
:101CE000D8210020002A0020E0290020643C0320A5
:101CF000D42100201824032008240320D028002009
:101D000004240320F0B5DE4657464E464546E0B56E
:101D10000E0001688DB08946416887688B46056969
:101D2000C1680893436980690491079011685068FD
:101D3000926809910A90291C30680B9206930595C8
:101D40000CF0BBF90699824670680CF0B6F9079959
:101D5000051CB0680CF0B1F9804608980CF04CFAFC
:101D600080231B06534400900191180059460CF043
:101D7000BEF9391C061C281C03970CF0B8F9011C8D
:101D8000301C0CF09AF90499061C40460CF0AFF98F
:101D9000011C301C0CF091F90CF02EFA0022684B5B
:101DA000169C0BF07AFD009A019B0BF076FD060065
:101DB00048460F000CF020FA02000B0030003900FA
:101DC0000BF044FD0BF020FE4946206050460CF01D
:101DD0008EF90399061C40460CF089F9011C301C51
:101DE0000CF06EF90499061C281C0CF080F9011CFB
:101DF000301C0CF062F90CF0FFF90022504B0BF094
:101E00004CFD009A019B0BF048FD060058460F0060
:101E10000CF0F2F902000B00300039000BF016FD57
:101E20000BF0F2FD49466060281C0CF060F9594641
:101E3000061C40460CF05BF9011C301C0CF03DF90F
:101E40000499061C50460CF052F9011C301C0CF091
:101E500037F90CF0D1F90022394B0BF01EFD009A36
:101E6000019B0BF01AFD060003980F000CF0C4F95B
:101E700002000B00300039000BF0E8FC0BF0C4FD51
:101E80004946A06040460CF032F95946061C281C11
:101E90000CF02DF9011C301C0CF012F90399051CF3
:101EA00050460CF024F9011C281C0CF006F90CF02B
:101EB000A3F90022224B0BF0F0FC009A019B0BF0DF
:101EC000ECFC060004980F000CF096F902000B00E1
:101ED000300039000BF0BAFC0BF096FD059B099918
:101EE000E060181C98460CF002F9089D291C0CF0C3
:101EF000FEF8011C40460CF0E0F8069F0A992061AC
:101F0000381C0CF0F4F8291C0CF0F1F8011C381CFA
:101F10000CF0D3F8079E0B996061301C0CF0E7F8C9
:101F2000291C0CF0E4F8011C301C0CF0C6F8A06170
:101F300000200DB0F0BCBB46B246A946A046F0BD9D
:101F40000000E03FF0B5DE4657464E464546E0B558
:101F5000C568466893B0046887688846301C291CA9
:101F6000934602930CF0C3F88146391C201C0CF0F8
:101F7000BEF84A460890011C101C05920CF09DF812
:101F80000CF03AF902000B000BF060FC0690079190
:101F900058460CF031F902000B00069807990092A0
:101FA00001930BF07AFC0BF02FFD4346291C1860BF
:101FB000381C0CF09CF88146311C201C0CF097F862
:101FC0004B460C90011C181C09930CF079F80CF08E
:101FD00013F902000B000BF039FC02000B00009813
:101FE00001990A920B930BF058FC0BF00DFD434640
:101FF000211C5860201C0CF07AF88146311C301CE2
:102000000CF075F84B460E90011C181C0D930CF04B
:1020100054F8391C0F90381C0CF069F8291C8246C2
:10202000281C0CF064F8814651460F980CF045F8D6
:1020300049460CF045F8594610900CF058F84346C4
:10204000391C9860301C0CF052F8291C8346201C67
:102050000CF04DF811901C980CF0CEF806001D986D
:102060000F000CF0C9F8009001910E990D980CF03A
:1020700027F851460CF021F849460CF01EF8029959
:102080000CF035F80CF0B8F804000D005846119922
:102090000CF016F80CF0B0F802000B000BF0D6FBB9
:1020A00032003B000BF0F9FB02000B00200029007E
:1020B0000BF0CCFB009A019B04000D0006980799D9
:1020C0000BF0EBFB02000B00200029000BF0BEFB25
:1020D0000BF09AFC4346D86002980CF08DF804008F
:1020E0000D00584611990BF0E8FF0CF085F802003E
:1020F0000B000BF0ABFB22002B00029403950BF0BE
:10210000CCFB04000D000F9851460BF0D9FF494657
:102110000BF0D3FF1C990BF0EAFF0CF06DF80200F6
:102120000B00200029000BF091FB009A019B04009A
:102130000D000A980B990BF0B0FB02000B00200079
:1021400029000BF083FB0BF05FFC434608991861F4
:1021500005980BF0B5FF0CF04FF802000B000BF0E8
:1021600075FB029A039B0BF098FB04000D00099885
:102170000C990BF0A2FF0CF03FF802000B000BF0E3
:1021800065FB32003B000BF088FB02000B002000D7
:1021900029000BF05BFB04000D0010981D990BF05B
:1021A000A6FF0CF029F802000B00200029000BF01C
:1021B0004DFB0BF029FC43465861002013B0F0BCE6
:1021C000BB46B246A946A046F0BDC046F0B5DE46C5
:1021D00057464E464546E0B50700101C4A689946EA
:1021E00090460B688A688BB0CE68934606930CF0D5
:1021F00003F8040058460D000BF0FEFFC023002238
:102200001B060BF04AFB22002B000BF046FB009054
:1022100001910BF0F9FB07903860301C0BF0ECFFDC
:1022200002000B000BF012FB22002B000BF035FB21
:102230000BF0EAFB8246B86106980BF0DDFFC02385
:1022400000221B060BF029FB22002B000BF025FBC4
:1022500002000B00029203930BF0D6FB386340465A
:102260000BF0CAFF02000B000BF0F0FA22002B006B
:102270000BF013FB80250C0003002D06049305943E
:1022800000240BF0C1FB9023AC46039AB8643C6673
:10229000BC67FC50029B62441100786018000BF090
:1022A000B3FB009B051CF8611800802352461B06F7
:1022B0009C467A63019A624411000BF0A5FB9423BB
:1022C000F8647C66FC67FC50BD6080252D06AC463A
:1022D000059A049B6244110018000BF095FB079BC4
:1022E0005246BB6380233A653862BC66FC501833A3
:1022F000FC50069B4946181C9A460BF0F8FE1499B0
:102300000290301C0BF0F3FE1599049058460BF028
:10231000EEFE0499051C02980BF0D2FE291C0795CD
:102320000BF0CBFE011C0BF0CBFE49460890F86089
:1023300040460BF0DCFE1499051C58460BF0D7FE06
:10234000011C281C0BF0BCFE1599051C301C0BF061
:10235000CEFE011C281C0BF0B3FE8025011C0BF0E7
:10236000AFFE2D065D4449460090786228000BF0D0
:10237000BEFE1499051C40460BF0B9FE5346834639
:102380001599181C0BF0B3FE82465946281C099576
:102390000BF096FE51460BF090FE8025011C0BF0D1
:1023A0008FFE2D064946F86370190BF0A0FE1499B4
:1023B000051C06980BF09BFE1599814640460BF0D4
:1023C00096FE4946061C281C0BF07AFE311C0BF0C9
:1023D00077FE011C0BF074FE84237865FC66FC50CC
:1023E0001833FC503861802000068446099A59460B
:1023F000624410000BF061FE51460BF061FE011CBF
:102400000BF05EFE802212069446009B8246B86264
:1024100002983B64604404990BF04FFE07990BF05F
:102420004FFE011C0BF04CFE88238021B8655046FE
:102430003C670906FC501833FC507861681849461F
:102440000BF03BFE311C0BF038FE011C0BF038FE8C
:10245000009BF862FB658C230020089A7C677A64F5
:10246000FC501833FC500BB0F0BCBB46B246A9463A
:10247000A046F0BDF0B557464E46DE464546E0B5AF
:10248000EFB00B000AA98C46D7226244120915014D
:102490009A685E680D920EAA9246C4229446B4448D
:1024A00062460192942293460C329146524603951D
:1024B000554682461F6802920493F168B86C0BF08F
:1024C00016FE3169041C386E0BF011FE011C201C35
:1024D0000BF0F6FD7169041CB86F0BF008FE902339
:1024E000B1698046F8580BF002FE011C40460BF023
:1024F000E7FD011C201C0BF0E3FD7168041CB869AA
:102500000BF0F5FDB1688046386B0BF0F0FD011C57
:1025100040460BF0D5FD3168804638680BF0E7FD8A
:10252000011C40460BF0CCFD011C201C0BF0C8FD2B
:102530002860F168F86C0BF0DAFD3169041C786EE4
:102540000BF0D5FD011C201C0BF0BAFD7169041CB9
:10255000F86F0BF0CCFD5B46B1698046F8580BF084
:10256000C6FD011C40460BF0ABFD011C201C0BF00E
:10257000A7FD7168041CF8690BF0B9FDB1688046CD
:10258000786B0BF0B4FD011C40460BF099FD3168EF
:10259000804678680BF0ABFD011C40460BF090FDC7
:1025A000011C201C0BF08CFD6860F168386D0BF08D
:1025B0009EFD3169041CB86E0BF099FD011C201CB6
:1025C0000BF07EFD80237169041CF8580BF08FFD21
:1025D0009823B1698046F8580BF089FD011C4046EC
:1025E0000BF06EFD011C201C0BF06AFD7168041CD1
:1025F000386A0BF07CFDB1688046B86B0BF077FD54
:10260000011C40460BF05CFD31688046B8680BF059
:102610006EFD011C40460BF053FD011C201C0BF00D
:102620004FFDA860F168786D0BF061FD3169041C05
:10263000F86E0BF05CFD011C201C0BF041FD8423A7
:102640007169041CF8580BF052FD9C23B169804657
:10265000F8580BF04CFD011C40460BF031FD011CFD
:10266000201C0BF02DFD7168041C786A0BF03FFDF7
:10267000B1688046F86B0BF03AFD011C40460BF048
:102680001FFD31688046F8680BF031FD011C4046A3
:102690000BF016FD011C201C0BF012FDE860F16828
:1026A000B86D0BF024FD3169041C386F0BF01FFD71
:1026B000011C201C0BF004FD88237169041CF858D0
:1026C0000BF015FD4B46B1698046F8580BF00FFD35
:1026D000011C40460BF0F4FC011C201C0BF0F0FC2C
:1026E0007168041CB86A0BF002FDB1688046386C52
:1026F0000BF0FDFC011C40460BF0E2FC316880460B
:1027000038690BF0F4FC011C40460BF0D9FC011CAD
:10271000201C0BF0D5FC2861F168F86D0BF0E7FC8C
:102720003169041C786F0BF0E2FC011C201C0BF0DB
:10273000C7FC8C237169041CF8580BF0D8FCA42347
:10274000B1698046F8580BF0D2FC011C40460BF0F2
:10275000B7FC011C201C0BF0B3FC7168041CF86A68
:102760000BF0C5FCB1688046786C0BF0C0FC011C16
:1027700040460BF0A5FC3168804678690BF0B7FC49
:10278000011C40460BF09CFC011C201C0BF098FC2B
:10279000019B1C3668611835B34200D08DE62022BB
:1027A000029B914654469A46039D0894A944079576
:1027B00054464D4632AA049B0D9E059214AA3896A3
:1027C00006920993A06C236881460193206E059BB5
:1027D0008046216B01CBA26903910490B16C4846FD
:1027E000029205930BF083FC316E824640460BF05B
:1027F0007EFC011C50460BF063FCA76F8246B16F54
:10280000381C0BF074FC90238346F15804980BF0AD
:102810006EFC011C58460BF053FC011C50460BF09B
:102820004FFCB169824602980BF061FC316B834624
:1028300003980BF05CFC011C58460BF041FC31681E
:10284000834601980BF053FC011C58460BF038FCF2
:10285000011C50460BF034FC2860F16C48460BF02C
:1028600046FC716E824640460BF041FC011C50460E
:102870000BF026FCF16F8246381C0BF038FC9423D9
:102880008346F15804980BF032FC011C58460BF0BB
:1028900017FC011C50460BF013FCF16982460298AC
:1028A0000BF025FC716B834603980BF020FC011C98
:1028B00058460BF005FC7168834601980BF017FC35
:1028C000011C58460BF0FCFB011C50460BF0F8FBBA
:1028D0006860316D48460BF00AFCB16E8246404696
:1028E0000BF005FC011C50460BF0EAFB80238246EE
:1028F000F158381C0BF0FBFB98238346F1580498E1
:102900000BF0F5FB011C58460BF0DAFB011C50469E
:102910000BF0D6FB316A824602980BF0E8FBB16BF4
:10292000834603980BF0E3FB011C58460BF0C8FBF1
:10293000B168834601980BF0DAFB011C58460BF096
:10294000BFFB011C50460BF0BBFBA860716D4846F5
:102950000BF0CDFBF16E824640460BF0C8FB011C2C
:1029600050460BF0ADFB84238246F158381C0BF027
:10297000BEFB9C238346F15804980BF0B8FB011C66
:1029800058460BF09DFB011C50460BF099FB716AF9
:10299000824602980BF0ABFBF16B834603980BF079
:1029A000A6FB011C58460BF08BFBF168834601988F
:1029B0000BF09DFB011C58460BF082FB011C50469E
:1029C0000BF07EFBE860B16D48460BF090FB316F79
:1029D000824640460BF08BFB011C50460BF070FB0F
:1029E00088238246F158381C0BF081FBA0238346D4
:1029F000F15804980BF07BFB011C58460BF060FB70
:102A0000011C50460BF05CFBB16A824602980BF049
:102A10006EFB316C834603980BF069FB011C584632
:102A20000BF04EFB3169834601980BF060FB011CF3
:102A300058460BF045FB011C50460BF041FB28614A
:102A4000F16D48460BF053FB716F814640460BF029
:102A50004EFB011C48460BF033FB8C238046F1589B
:102A6000381C0BF044FBA423071CF15804989B4628
:102A70000BF03DFB011C381C0BF022FB011C4046F7
:102A80000BF01EFBF16A071C02980BF030FB716C17
:102A9000804603980BF02BFB011C40460BF010FB0B
:102AA0007169804601980BF022FB011C40460BF037
:102AB00007FB011C381C0BF003FB069B0434686108
:102AC00018359C4200D07DE6099B079DDE68296A87
:102AD00030680BF0F5FA089CA96B206070680BF069
:102AE000EFFA6060B068296D0BF0EAFAA060F06858
:102AF000A96E0BF0E5FA8027E0603069E9590BF028
:102B0000DFFA98232061E95870690BF0D9FA606107
:102B1000B069696A0BF0D4FAA061F069E96B0BF057
:102B2000CFFAE061306A696D0BF0CAFA2062E96E93
:102B3000706A0BF0C5FA84236062E958B06A0BF042
:102B4000BFFA9C22A062F06AA9580BF0B9FAE062C1
:102B5000306BA96A0BF0B4FA2063706B296C0BF030
:102B6000AFFA6063B06BA96D0BF0AAFAA063F06BCB
:102B7000296F0BF0A5FA8822E063A958306C0BF09E
:102B80009FFAA0212064706C69580BF099FA606478
:102B9000E96AB06C0BF094FAA064696CF06C0BF00D
:102BA0008FFAE064306DE96D0BF08AFA2065716D83
:102BB000686F0BF085FA60658C20B16D28580BF0BA
:102BC0007FFA5B46A065F16DE8580BF079FAE06595
:102BD000316E286B0BF074FA2066716EA86C0BF0E6
:102BE0006FFA6066B16E286E0BF06AFAA066F16E3D
:102BF000A86F0BF065FA9023E066316FE8580BF090
:102C00005FFAA8232067716FE8580BF059FA6067E4
:102C1000B16F686B0BF054FAA067F16FE86C0BF0C2
:102C20004FFAE067F159686E0BF04AFAE051043749
:102C3000F159E86F0BF044FA9423E0510437F1594D
:102C4000E8580BF03DFAAC23E0510437F159E8584D
:102C50000BF036FAE0516FB0F0BCBB46B246A94665
:102C6000A046F0BDF0B5DE4657464E464546040048
:102C7000E0B5006961694000490089B04908400831
:102C80000BF01EFAE168490049080BF019FA636875
:102C9000A1685B004900051C490858080BF010FAB0
:102CA0002168490049080BF00BFA011C281C0BF0A5
:102CB00007FAE16A071CA06A490040004908400879
:102CC0000BF0FEF9616A490049080BF0F9F9216A35
:102CD000051CE06949004000490840080BF0F0F984
:102CE000A169490049080BF0EBF9011C281C0BF005
:102CF000E7F9616C061C206C490040004908400857
:102D00000BF0DEF9E16B490049080BF0D9F9A16B32
:102D1000051C606B49004000490840080BF0D0F9E1
:102D2000216B490049080BF0CBF9011C281C0BF062
:102D3000C7F9051C011C301C0BF010FA002800D14B
:102D4000351C291C381C0BF009FA2E1C002800D158
:102D50003E1CA06DE16D40004900490840080BF0A1
:102D6000AFF9616D490049080BF0AAF9216D051C06
:102D7000E06C49004000490840080BF0A1F9A16C43
:102D8000490049080BF09CF9011C281C0BF098F92C
:102D9000616F071C206F49004000490840080BF094
:102DA0008FF9E16E490049080BF08AF9A16E051C04
:102DB000606E49004000490840080BF081F9216E1F
:102DC000490049080BF07CF9011C281C0BF078F92C
:102DD00088238046E0580433E15840004900490800
:102DE00040080BF06DF98423E158490049080BF0C5
:102DF00067F98023051CE158E06F4900400049084D
:102E000040080BF05DF9A16F490049080BF058F933
:102E1000011C281C0BF054F9051C011C40460BF04A
:102E20009DF9002800D14546291C381C0BF096F965
:102E3000002800D13D1C291C301C0BF08FF9002804
:102E400000D1351CC0232100E55003AABA3B04A8D9
:102E5000A83106930494FDF7CBFC01239B465A4608
:102E6000C4200025982659469C27039B1340013B0C
:102E700001321340013B23543438255094356151BD
:102E8000A2510132E2519D32944661469C3A625011
:102E9000A03291469F3A90464A4641462300A150AF
:102EA0001832A258903392009918019109688A4605
:102EB000494652466250424601990A60B332A258CE
:102EC0006146920092469A4452466158884611687B
:102ED000894661464A466250424651460A60B422DB
:102EE000E159A2588C4692009A181168E151614646
:102EF0001160B022A258A75992009A181168A151E6
:102F00001760AC22A258665992009A181768675148
:102F10001660A822A25892009B181D6822582550BE
:102F20001A60C5235A46E25409B0F0BCBB46B2460B
:102F3000A946A046F0BDC046C023002210B5C2502D
:102F400000220433C2520B68040003604B684360E4
:102F50008B688360CB68C3600B6903614B69436115
:102F60008B698361CB69C3610B6A03624B6A4362FD
:102F70008B6A8362CB6AC3620B6B03634B6B4363E5
:102F80008B6B8363CB6BC3630B6C03644B6C4364CD
:102F90008B6C8364CB6CC3640B6D03654B6D4365B5
:102FA0008B6D8365CB6DC3650B6E03664B6E43669D
:102FB0008B6E8366CB6EC3660B6F03674B6F436785
:102FC0008B6F8367CB6FC3678023CA58C2500433AB
:102FD000CA58C2500433CA58C2500433CA58C250E7
:102FE000FFF740FE200010BDF0B5DE464E465746C6
:102FF0004546E0B5214C1500A5443EAA94460A007A
:1030000036931F4B359063441B091E011B910A9692
:10301000A1AB13CA13C313CA13C3126819491A60A8
:103020000A68194B3891194937931B6801920A684D
:1030300046AC894620000092A1A9154AFFF7C6F8C0
:103040003EABEB229C463E95A295D200862562447B
:10305000B4461268ED0065442800A492A1A970AAA4
:10306000A194A394FFF706FA4B460B953500270071
:1030700034946AAA3E9C09920C930BE0DCF7FFFFA4
:103080006F020000CC220320D4220320D022032090
:103090000AE81C413B68B86C02938146099B386E74
:1030A000396B804601CBBA690993A8230691E15890
:1030B000049208900BF01BF88C23BE6FE1588246F7
:1030C000301C0BF014F8011C50460AF0F9FF216F78
:1030D000824640460BF00BF8616D834648460BF084
:1030E00006F8011C58460AF0EBFF011C50460AF096
:1030F000E7FFA16B824606980AF0F9FFE169834673
:1031000004980AF0F4FF011C58460AF0D9FF216820
:10311000834602980AF0EBFF011C58460AF0D0FFE4
:10312000011C50460AF0CCFFAC232860E1580898F7
:103130000AF0DDFF90238246E158301C0AF0D7FFE9
:10314000011C50460AF0BCFF616F824640460AF0FF
:10315000CEFFA16D834648460AF0C9FF011C5846C0
:103160000AF0AEFF011C50460AF0AAFFE16B82464E
:1031700006980AF0BCFF216A834604980AF0B7FF5C
:10318000011C58460AF09CFF6168834602980AF0C9
:10319000AEFF011C58460AF093FF011C50460AF08E
:1031A0008FFFB0236860E15808980AF0A0FF9423CD
:1031B0008246E158301C0AF09AFF011C50460AF082
:1031C0007FFFA16F824640460AF091FFE16D834682
:1031D00048460AF08CFF011C58460AF071FF011C9A
:1031E00050460AF06DFF216C824606980AF07FFF78
:1031F000616A834604980AF07AFF011C58460AF077
:103200005FFFA168834602980AF071FF011C5846CF
:103210000AF056FF011C50460AF052FFB423A86082
:10322000E15808980AF063FF98238246E158301C61
:103230000AF05DFF011C50460AF042FFE16F824632
:1032400040460AF054FF216E834648460AF04FFF7D
:10325000011C58460AF034FF011C50460AF030FFAA
:10326000616C824606980AF042FFA16A8346049880
:103270000AF03DFF011C58460AF022FFE168834630
:1032800002980AF034FF011C58460AF019FF011C8D
:1032900050460AF015FFB823E860E15808980AF094
:1032A00026FF9C238246E158301C0AF020FF011CB7
:1032B00050460AF005FF80238246E15840460AF056
:1032C00016FF616E834648460AF011FF011C5846FE
:1032D0000AF0F6FE011C50460AF0F2FEA16C82468E
:1032E00006980AF004FFE16A834604980AF0FFFE9C
:1032F000011C58460AF0E4FE2169834602980AF050
:10330000F6FE011C58460AF0DBFE011C50460AF08E
:10331000D7FEBC232861E15808980AF0E8FEA023F4
:103320008246E158301C0AF0E2FE011C50460AF0C9
:10333000C7FE84238246E15840460AF0D8FEA16EBB
:10334000834648460AF0D3FE011C58460AF0B8FEF0
:10335000011C50460AF0B4FEE16C824606980AF061
:10336000C6FE216B834604980AF0C1FE011C584634
:103370000AF0A6FE6169834602980AF0B8FE011CB5
:1033800058460AF09DFE011C50460AF099FEE16E77
:10339000686148460AF0ABFE88238146E158404602
:1033A0009B460AF0A4FE011C48460AF089FEA423AD
:1033B0008046E158301C0AF09AFEC023061CE158F2
:1033C00008980AF094FE011C301C0AF079FE011CDA
:1033D00040460AF075FE616B061C04980AF087FEF1
:1033E000216D804606980AF082FE011C40460AF0D4
:1033F00067FEA169804602980AF079FE011C4046EA
:103400000AF05EFE011C301C0AF05AFE04374CAB79
:10341000A8611C359F4200D03CE60C9B0A9E994651
:10342000D8239B009C4634000B9D64442900200057
:10343000FFF782FDA42292009446330063442100EA
:10344000902218009A460BF0CBF8C8239B009C46AC
:103450003400D033644431009C461822614420007B
:103460000BF0BEF8CE239B009C463000D0333100D9
:1034700060449C46182261440BF0B2F8D4228421A7
:10348000920094463300C900634432008C46624483
:1034900012687A491A60D5229200944633003200AD
:1034A00063448C4630006244B03012888446FE216A
:1034B000C9251A8000232268890592006244AD0064
:1034C000116093611363936413669367AC46320093
:1034D000CA25624484461268AD00920062441360BB
:1034E00091611363936413669367AC463200CB25F6
:1034F000624484461268AD00920062441360936196
:103500001163936413669367AC463200CC25624422
:1035100084461268AD00920062441360AC46936129
:1035200013639164136693673200CD256244844629
:103530001268AD0092006244136093611363936458
:1035400011669367AC4632006244844634001268C8
:10355000A82692006244916721001360936113636F
:10356000936413660622062376000F008025A419B3
:103570008C46A260E36006237137AD006544FF37D7
:10358000236122008F510A9165600100029050462C
:103590009846FDF75BFF06220623A260E3604246E1
:1035A0000A9B22619F5122006560029C50462100C7
:1035B000FDF70AFE0A9BA1AF1A680692DA69089223
:1035C0009A6B09925A6D0A921A6F0B928C229A5832
:1035D0000C925A680D921A6A0E92DA6B0F929A6DDB
:1035E00010925A6F119290229A5812929A681692DB
:1035F0005A6A14921A6C1792DA6D18929A6F19928D
:1036000094229A581A92DA681C929A6A1D925A6CFD
:103610001E921A6E1F92DA6F209298229A58219267
:103620001A692292DA6A23929A6C24925A6E25922F
:1036300080229A5826929C229A5827925A69289258
:103640001A6B2992DA6C2A929A6E2B9284229A58DB
:103650002C92A0229A582D929A692E925A6B2F92F0
:103660001A6D3092DA6E31925A469A583292A422EA
:103670009B5833934B46399302E0C0462404000024
:10368000636862699946A36849469846E368089862
:10369000029304920AF02BFD4146824609980AF0F3
:1036A00026FD011C50460AF00BFD26688246311C9F
:1036B00006980AF01CFD011C50460AF001FD256920
:1036C0008246291C0B980AF012FD049983460C9837
:1036D0000AF00DFD011C58460AF0F2FC02998346DF
:1036E0000A980AF004FD011C58460AF0E9FC011C86
:1036F00050460AF0E5FC0E99386048460AF0F7FC9F
:103700000F99824640460AF0F2FC011C50460AF02E
:10371000D7FC0D998246301C0AF0E9FC011C50468A
:103720000AF0CEFC11998246281C0AF0E0FC12999E
:10373000834604980AF0DBFC011C58460AF0C0FCE2
:103740001099834602980AF0D2FC011C58460AF0F0
:10375000B7FC011C50460AF0B3FC14997860484647
:103760000AF0C5FC1799824640460AF0C0FC011CCD
:1037700050460AF0A5FC16998246301C0AF0B7FCA8
:10378000011C50460AF09CFC19998246281C0AF03C
:10379000AEFC1A99834604980AF0A9FC011C58460D
:1037A0000AF08EFC1899834602980AF0A0FC011CCE
:1037B00058460AF085FC011C50460AF081FCB860AE
:1037C0001D9948460AF093FC1E99824640460AF02D
:1037D0008EFC011C50460AF073FC1C998246301C7A
:1037E0000AF085FC011C50460AF06AFC20998246CA
:1037F000281C0AF07CFC2199834604980AF077FC87
:10380000011C58460AF05CFC1F99834602980AF096
:103810006EFC011C58460AF053FC011C50460AF08D
:103820004FFC2399F86048460AF061FC24998246CF
:1038300040460AF05CFC011C50460AF041FC22990B
:103840008246301C0AF053FC011C50460AF038FC3A
:1038500026998246281C0AF04AFC27998346049838
:103860000AF045FC011C58460AF02AFC25998346BB
:1038700002980AF03CFC011C58460AF021FC011C8D
:1038800050460AF01DFC2999386148460AF02FFC81
:103890002A99824640460AF02AFC011C50460AF04A
:1038A0000FFC28998246301C0AF021FC011C50466E
:1038B0000AF006FC2C998246281C0AF018FC2D9967
:1038C000834604980AF013FC011C58460AF0F8FBE2
:1038D0002B99834602980AF00AFC011C58460AF00C
:1038E000EFFB011C50460AF0EBFB2F99786148462C
:1038F0000AF0FDFB3099814640460AF0F8FB011CB6
:1039000048460AF0DDFB2E998046301C0AF0EFFB9A
:10391000011C40460AF0D4FB3299061C281C0AF010
:10392000E6FB3399051C04980AF0E1FB011C281CF6
:103930000AF0C6FB3199051C02980AF0D8FB011C5D
:10394000281C0AF0BDFB011C301C0AF0B9FBCBABF4
:10395000B8611C3718349F4200D091E6399BA29A77
:103960009946A19BA399A49CA59DA69EA79F06935B
:103970000892A89BA99A09910A94AA99AB9C0B95C5
:103980000C96AC9DAD9E0D970E93AE9FAF9B0F9284
:10399000B09A109111941295169614971793189245
:1039A000B199B29CB39DB49EB59FB69BB79A19913D
:1039B0001A94B899B99C1C951D96BA9DBB9E1E97EA
:1039C0001F93BC9FBD9B20922191BE9ABF992294C8
:1039D000C09C249625972693279228912994239575
:1039E000C19DC29EC39FC69AC49BC799C89C2A9575
:1039F0002B96C99DCA9E2C97C59F2E921B9A2D93DC
:103A000033972F91309431953296A1AB13CA13C3DB
:103A100013CA13C31268A1AC1A603899379B0A689D
:103A200049461B6801920A682000009240A9FE4A9C
:103A3000FEF788FA369E409930680AF03EFB4199BD
:103A4000834670680AF039FB42998246B0680AF0F2
:103A500034FB43998146F0680AF02FFB4499041C1B
:103A600030690AF02AFB4599051C70690AF025FBAC
:103A7000061C011C381C0AF03AFB291C071C27985D
:103A80000AF035FB011C381C0AF01AFB211C071C2C
:103A900020980AF02CFB011C381C0AF011FB494647
:103AA000071C18980AF023FB514680460F980AF02D
:103AB0001EFB011C40460AF003FB5946804608984D
:103AC0000AF015FB011C40460AF0FAFA011C381CEA
:103AD0000AF0F6FA1B9A51680AF0F2FA311C0290C9
:103AE0002E980AF004FB291C071C28980AF0FFFAFC
:103AF000011C381C0AF0E4FA211C071C21980AF06A
:103B0000F6FA011C381C0AF0DBFA4946071C199822
:103B10000AF0EDFA5146804610980AF0E8FA011CC6
:103B200040460AF0CDFA5946804609980AF0DFFA75
:103B3000011C40460AF0C4FA011C381C0AF0C0FA05
:103B40001B9A91680AF0BCFA311C04902F980AF075
:103B5000CEFA291C071C29980AF0C9FA011C381C46
:103B60000AF0AEFA211C071C22980AF0C0FA011CC8
:103B7000381C0AF0A5FA4946071C1A980AF0B7FA49
:103B80005146804611980AF0B2FA011C40460AF0EC
:103B900097FA594680460A980AF0A9FA011C40464D
:103BA0000AF08EFA011C381C0AF08AFA1B9AD168B6
:103BB0000AF086FA311C369030980AF098FA291CDF
:103BC000071C2A980AF093FA011C381C0AF078FAAC
:103BD000211C071C23980AF08AFA011C381C0AF0E1
:103BE0006FFA4946071C1C980AF081FA5146804634
:103BF00012980AF07CFA011C40460AF061FA594614
:103C000080460B980AF073FA011C40460AF058FAF5
:103C1000011C381C0AF054FA1B9A11690AF050FA78
:103C2000311C379031980AF062FA291C071C2B9836
:103C30000AF05DFA011C381C0AF042FA211C071C2C
:103C400024980AF054FA011C381C0AF039FA494643
:103C5000071C1D980AF04BFA5146804616980AF048
:103C600046FA011C40460AF02BFA594680460C9849
:103C70000AF03DFA011C40460AF022FA011C381CE9
:103C80000AF01EFA1B9A51690AF01AFA5146389046
:103C900014980AF02CFA4946071C1E980AF027FAD5
:103CA000011C381C0AF00CFA5946071C0D980AF042
:103CB0001EFA011C381C0AF003FA291C071C2C9858
:103CC0000AF015FA311C804632980AF010FA011CED
:103CD00040460AF0F5F9211C804625980AF007FABB
:103CE000011C40460AF0ECF9011C381C0AF0E8F906
:103CF0001B9A91690AF0E4F9311C071C2D980AF00F
:103D0000F6F9291C061C26980AF0F1F9011C301C52
:103D10000AF0D6F9211C051C1F980AF0E8F9011CCD
:103D2000281C0AF0CDF94946041C17980AF0DFF95F
:103D30005146051C0E980AF0DAF9011C281C0AF0FD
:103D4000BFF95946051C06980AF0D1F9011C281C38
:103D50000AF0B6F9011C201C0AF0B2F91B9AA1ACBA
:103D600011680AF0ADF9359B1860029A9F615A609C
:103D7000049A9A60369ADA60379A1A61389A5A61C8
:103D80003E9A136870935368719393687293D368E3
:103D90007393136974935369759393697693D36995
:103DA0007793136A7893536A7993936A7A93D36A71
:103DB0007B93136B7C93536B7D93936B7E93D36B4D
:103DC0007F93136C8093536C8193936C8293D36C29
:103DD0008393136D8493536D8593936D8693D36D05
:103DE0008793136E8893536E8993936E8A93D36EE1
:103DF0008B93136F8C93536F8D93936F8E93D36FBD
:103E00008F938023D35890938423D35891938823FE
:103E1000D35892938C23D35893939023D35894934D
:103E20009423D358959301E00AE81C419823D35872
:103E300096939C23D3589793A023D3589893A42365
:103E4000D3589993A823D358349D9A93AC23D3582D
:103E50009B93B023D3589C93B423D3589D93B823FA
:103E6000D3589E93BC23D3589F93C023D358A09379
:103E70006B686A699946AB6849469846EB680E9844
:103E8000029304920AF033F94146824617980AF0E9
:103E90002EF9011C50460AF013F92F688246391C8E
:103EA00006980AF024F9011C50460AF009F92E6917
:103EB0008246311C26980AF01AF9049983462D98F7
:103EC0000AF015F9011C58460AF0FAF802998346DF
:103ED0001F980AF00CF9011C58460AF0F1F8011C71
:103EE00050460AF0EDF8494620600F980AF0FFF8B6
:103EF0004146824618980AF0FAF8011C50460AF02A
:103F0000DFF8391C824608980AF0F1F8011C504687
:103F10000AF0D6F8311C824627980AF0E8F804998E
:103F2000834633980AF0E3F8011C58460AF0C8F8B3
:103F30000299834620980AF0DAF8011C58460AF0E4
:103F4000BFF8011C50460AF0BBF849466060109863
:103F50000AF0CDF84146824619980AF0C8F8011CCB
:103F600050460AF0ADF8391C824609980AF0BFF8AD
:103F7000011C50460AF0A4F8311C824628980AF029
:103F8000B6F8049983462E980AF0B1F8011C5846F9
:103F90000AF096F80299834621980AF0A8F8011CC5
:103FA00058460AF08DF8011C50460AF089F8494637
:103FB000A06011980AF09BF8414682461A980AF0D0
:103FC00096F8011C50460AF07BF8391C82460A9884
:103FD0000AF08DF8011C50460AF072F8311C824636
:103FE00029980AF084F8049983462F980AF07FF8FC
:103FF000011C58460AF064F80299834622980AF098
:1040000076F8011C58460AF05BF8011C50460AF08D
:1040100057F84946E06012980AF069F8414682462E
:104020001C980AF064F8011C50460AF049F8391C43
:1040300082460B980AF05BF8011C50460AF040F8E3
:10404000311C82462A980AF052F804998346309827
:104050000AF04DF8011C58460AF032F802998346DE
:1040600023980AF044F8011C58460AF029F8011C6C
:1040700050460AF025F84946206116980AF037F8AC
:10408000414682461D980AF032F8011C50460AF05B
:1040900017F8391C82460C980AF029F8011C504682
:1040A0000AF00EF8311C82462B980AF020F8049989
:1040B000834631980AF01BF8011C58460AF000F8B4
:1040C0000299834624980AF012F8011C584609F018
:1040D000F7FF011C504609F0F3FF49466061149850
:1040E0000AF005F8414681461E980AF000F8011CC6
:1040F000484609F0E5FF391C80460D9809F0F7FFA6
:10410000011C404609F0DCFF311C071C2C9809F00B
:10411000EEFF0499061C329809F0E9FF011C301CDF
:1041200009F0CEFF0299061C259809F0E0FF011C5A
:10413000301C09F0C5FF011C381C09F0C1FFD2ABCF
:10414000A0611C3418359C4200D091E63E9C70AFB3
:104150002300C4330993A19B3F943D93A89B3C93B8
:10416000AF9B3B93B69B3A93BD9B3993C49B3893CB
:10417000CB9B3793A29B3693A99B3493B09B3393ED
:10418000B79B3293BE9B3193C59B3093CC9B2F93AF
:10419000A39B2E93AA9B2D93B19B2C93B89B2B93FF
:1041A000BF9B2A93C69B2993CD9B2893A49B2793BF
:1041B000AB9B2693B29B2593B99B2493C09B2393DF
:1041C000C79B2293CE9B2193A59B2093AC9B1F93CF
:1041D000B39B1E93BA9B1D93C19B1C93C89B1A93C0
:1041E000CF9B1993A69B1893AD9B1793B49B1493E5
:1041F000BB9B1693C29B1293C99B1193D09B1093A8
:10420000A79B0893AE9B0A93B59B0B93BC9B0C9307
:10421000C39B0D93CA9B0E93D19B0F93E068A56936
:104220008146A16820692368626880460691281C3F
:1042300037990293049209F05AFF666982463899C9
:10424000301C09F054FF011C504609F039FF399920
:104250008246404609F04BFF3A998346484609F0AA
:1042600046FF011C584609F02BFF011C504609F07F
:1042700027FF3B998246069809F039FF3C9983460F
:10428000049809F034FF011C584609F019FF3D99C4
:104290008346029809F02BFF011C584609F010FFD5
:1042A000011C504609F00CFF011C386809F005FF9D
:1042B00038602F99281C09F01AFF30998246301C6B
:1042C00009F015FF011C504609F0FAFE31998246AB
:1042D000404609F00CFF32998346484609F007FF33
:1042E000011C584609F0ECFE011C504609F0E8FE9E
:1042F00033998246069809F0FAFE34998346049869
:1043000009F0F5FE011C584609F0DAFE369983469D
:10431000029809F0ECFE011C584609F0D1FE011C80
:10432000504609F0CDFE011C786809F0C6FE2899B8
:104330007860281C09F0DBFE29998246301C09F0C0
:10434000D6FE011C504609F0BBFE2A998246404623
:1043500009F0CDFE2B998346484609F0C8FE011CA2
:10436000584609F0ADFE011C504609F0A9FE2C99F3
:104370008246069809F0BBFE2D998346049809F001
:10438000B6FE011C584609F09BFE2E998346029802
:1043900009F0ADFE011C584609F092FE011C504682
:1043A00009F08EFE011CB86809F087FE2199B860FB
:1043B000281C09F09CFE22998246301C09F097FEC9
:1043C000011C504609F07CFE23998246404609F0C4
:1043D0008EFE24998346484609F089FE011C584602
:1043E00009F06EFE011C504609F06AFE25998246CE
:1043F000069809F07CFE26998346049809F077FE1A
:10440000011C584609F05CFE27998346029809F082
:104410006EFE011C584609F053FE011C504609F07F
:104420004FFE011CF86809F048FE1999F860281C35
:1044300009F05DFE1A998246301C09F058FE011CF5
:10444000504609F03DFE1C998246404609F04FFE59
:104450001D998346484609F04AFE011C584609F05A
:104460002FFE011C504609F02BFE1E99824606982D
:1044700009F03DFE1F998346049809F038FE011C9F
:10448000584609F01DFE20998346029809F02FFE38
:10449000011C584609F014FE011C504609F010FE9C
:1044A000011C386909F009FE10993861281C09F0CF
:1044B0001EFE11998246301C09F019FE011C50465F
:1044C00009F0FEFD12998246404609F010FE169949
:1044D0008346484609F00BFE011C584609F0F0FDE2
:1044E000011C504609F0ECFD14998246069809F02B
:1044F000FEFD17998346049809F0F9FD011C584602
:1045000009F0DEFD18998346029809F0F0FD011CC0
:10451000584609F0D5FD011C504609F0D1FD011C9B
:10452000786909F0CAFD494678610C9809F0DFFD09
:10453000414681460D9809F0DAFD011C484609F014
:10454000BFFD311C80460E9809F0D1FD291C061CC8
:104550000F9809F0CCFD011C301C09F0B1FD011CC5
:10456000404609F0ADFD0499051C0A9809F0BFFD0D
:104570000699061C0B9809F0BAFD011C301C09F0C5
:104580009FFD0299061C089809F0B1FD011C301C22
:1045900009F096FD011C281C09F092FD011CB86968
:1045A00009F08BFD099B1C34B8611C379C4200D07C
:1045B00034E63E99709B0B60719B4B60729B8B60E5
:1045C000739BCB60749B0B61759B4B61769B8B617E
:1045D000779BCB61789B0B62799B4B627A9B8B625A
:1045E0007B9BCB627C9B0B637D9B4B637E9B8B6336
:1045F0007F9BCB63809B0B64819B4B64829B8B6412
:10460000839BCB64849B0B65859B4B65869B8B65ED
:10461000879BCB65889B0B66899B4B668A9B8B66C9
:104620008B9BCB668C9B0B678D9B4B678E9B8B67A5
:104630008F9BCB678023909ACA50919A0433CA50BB
:10464000929A0433CA50939A0433CA50949A04330A
:10465000CA50959A0433CA50969A0433CA50979A0E
:104660000433CA50989A0433CA50999A0433CA50F2
:104670009A9A0433CA509B9A0433CA509C9A0433C2
:10468000CA509D9A0433CA509E9A0433CA509F9AC6
:104690000433CA50A09A0433CA503EAAEA2394466F
:1046A000DB0063441B6870AA13CB13C2EC23DB004E
:1046B00063441B68A1AA13CB13C21B9B359C0093B8
:1046C0008F4B200063441B68A1AA70A9FDF71AFB59
:1046D0003EAA94468A4B6344186809F08DFD3EAAB1
:1046E000EA23944606000F00DB0063441B6821693F
:1046F000186809F0E2FC09F07FFD0022814B09F007
:10470000CCF832003B0009F0C8F80290039109F0A0
:104710007BF93EAAEA239446DB0063441B68616987
:104720000A90586809F0C9FC09F066FD0022754B33
:1047300009F0B3F832003B0009F0AFF8049005919E
:1047400009F062F93EABEA229C46D200624412684C
:10475000A1690B909068359409F0AFFC09F04CFD0D
:104760000022684B09F099F832003B0009F095F8F7
:104770000D00040009F048F9359B0C90586809F0C9
:104780003BFD0022604B09F088F832003B0009F045
:1047900084F80690079109F037F9359B0D909868D9
:1047A00009F02AFD0022584B09F077F832003B004F
:1047B00009F073F802000B001292139309F024F928
:1047C000359B0E90D86809F017FD00224E4B09F07A
:1047D00064F832003B0009F060F80B00020014920C
:1047E000159309F011F9029B0F90180080231B0606
:1047F0009C46039A6244110009F006F980221206D1
:10480000A9181090200009F0FFF8359B1190186846
:1048100009F0F2FC00223B4B09F03FF83B008027F7
:10482000320009F03AF83F0609F0EEF8129C139DA9
:10483000BC462B00634419000890200009F0E4F8FE
:10484000049E059F1690300080263606B4463B0035
:104850006344190009F0D8F8149D159E80221206B1
:1048600094463300634419001290280009F0CCF8F4
:10487000069C079D8022120694462B006344190073
:104880001490200009F0C0F83EAAEC239446DB0007
:10489000634417901B681968194B6344186809F042
:1048A00026FC011CFE20800509F007FC3EAAEC2333
:1048B0009446DB0063441B6818905968104B6344AE
:1048C000186809F014FC011CFE20800509F0F5FBB6
:1048D0003EAAEC239446DB0063441B681990996858
:1048E000074B6344186809F002FC011CFE20800598
:1048F00009F0E3FBA1AB1C003F9D1A901D9305E05E
:10490000640700000000E0BF0000E03F2B682A6958
:104910009B46AB68A9699846EB680F98069302928C
:10492000049109F0E4FB6E698146311C0E9809F090
:10493000DEFB011C484609F0C3FB029981460D9835
:1049400009F0D5FB069982460C9809F0D0FB011CB2
:10495000504609F0B5FB011C484609F0B1FB414641
:1049600081460B9809F0C3FB6F688246391C0A9890
:1049700009F0BDFB011C504609F0A2FB594609F0A5
:104980009FFB011C484609F09BFB04992060169888
:1049900009F0ADFB311C81460F9809F0A8FB011C02
:1049A000484609F08DFB02998146089809F09FFB63
:1049B000069982460B9809F09AFB011C504609F0B3
:1049C0007FFB011C484609F07BFB4146814611985C
:1049D00009F08DFB391C09F073FB5946824610988B
:1049E00009F085FB011C504609F06AFB011C484692
:1049F00009F066FB049960600D9809F078FB311CA2
:104A00008146089809F073FB011C484609F058FBE1
:104A100002998146149809F06AFB0699824610981B
:104A200009F065FB011C504609F04AFB011C484691
:104A300009F046FB391C81460C9809F058FB4146A9
:104A400009F03EFB59468246129809F050FB011CC2
:104A5000504609F035FB011C484609F031FB04992A
:104A6000A060089809F043FB311C8146179809F0B3
:104A70003EFB011C484609F023FB029981460E9833
:104A800009F035FB069909F01BFB011C484609F0AB
:104A900017FB414681460A9809F029FB391C8246DA
:104AA000129809F024FB011C504609F009FB5946F5
:104AB0008246119809F01BFB011C504609F000FBCF
:104AC000011C484609F0FCFA0021E060404609F06C
:104AD0000EFB00218046381C09F009FB011C4046F2
:104AE00009F0EEFA0021071C584609F000FB011CF2
:104AF000381C09F0E5FA0021071C069809F0F7FABE
:104B000000218246301C09F0F2FA00218046049808
:104B100009F0EDFA02998146189809F0E8FA514631
:104B200009F0CEFA41468346484609F0C9FA011C0D
:104B3000584609F0C5FA391C09F0C2FA0021206173
:104B4000029809F0D4FA514609F0BAFA8246311CAB
:104B5000199809F0CCFA494609F0B2FA514609F021
:104B6000AFFA391C09F0ACFA049960611A9809F09F
:104B7000BEFA414609F0A4FA514609F0A1FA391CDF
:104B800009F09EFA099B1C35A0611C349D4200D09F
:104B9000BCE670ADA8AB1D9C3795C4AE1C932368D2
:104BA00031689B46E369F0699846636D226F049112
:104BB0000690191C0C980292099309F098FA029930
:104BC00081460D9809F093FA011C484609F078FADD
:104BD000049981460E9809F08AFA069982460F9840
:104BE00009F085FA011C504609F06AFA011C484692
:104BF00009F066FA414681460A9809F078FAA76BEF
:104C00008246391C0B9809F072FA011C504609F0D3
:104C100057FA594609F054FA011C484609F050FA6F
:104C2000099928600B9809F062FA02998146089860
:104C300009F05DFA011C484609F042FA04998146E0
:104C40000F9809F054FA06998246169809F04FFA1F
:104C5000011C504609F034FA011C484609F030FAAC
:104C6000391C8146119809F042FA414609F028FAA8
:104C700059468246109809F03AFA011C504609F04C
:104C80001FFA011C484609F01BFA09996860109840
:104C900009F02DFA02998146149809F028FA011CAE
:104CA000484609F00DFA04998146089809F01FFA60
:104CB000069982460D9809F01AFA011C504609F02F
:104CC000FFF9011C484609F0FBF9414681460C9862
:104CD00009F00DFA391C09F0F3F959468246129889
:104CE00009F005FA011C504609F0EAF9011C484692
:104CF00009F0E6F90499A860179809F0F8F90699FF
:104D00008146089809F0F3F9011C484609F0D8F9E2
:104D1000029981460E9809F0EAF9099909F0D0F94B
:104D2000011C484609F0CCF941468146129809F029
:104D3000DEF9391C82460A9809F0D9F9011C50465F
:104D400009F0BEF959468246119809F0D0F9011CC4
:104D5000504609F0B5F9011C484609F0B1F90021A7
:104D6000E860404609F0C3F900218046381C09F08C
:104D7000BEF9011C404609F0A3F90021071C584662
:104D800009F0B5F9011C381C09F09AF90021071C3B
:104D9000099809F0ACF900218246049809F0A7F9B6
:104DA00000218046069809F0A2F9029981461898D8
:104DB00009F09DF9514609F083F94946834640467A
:104DC00009F07EF9011C584609F07AF9391C09F0FE
:104DD00077F900212861029809F089F9514609F014
:104DE0006FF982460499199809F081F9494609F04A
:104DF00067F9514609F064F9391C09F061F906991F
:104E000068611A9809F073F9414609F059F9514659
:104E100009F056F9391C09F053F9A8611C9B0434B8
:104E20001C3504369C4200D0B9E63EAA9446744B29
:104E3000734A63441B6862441B6812680893704B92
:104E4000A1AD63441B68DB6909936D4B63441B6828
:104E50009B6B0A936A4B63441B685B6D0B93684BB7
:104E600063441B681B6F0C938C23D358644A0D93C7
:104E7000634B624463441B685B680E93604B6344FE
:104E80001B681B6A0F935E4B63441B68DB6B1093BC
:104E90005B4B63441B689B6D1193594B63441B68C8
:104EA0005B6F129390231268D358554A1693544B54
:104EB000624463441B6812689B681493504B6344BC
:104EC0001B685B6A17934E4B63441B681B6C1893FB
:104ED0004B4B63441B68DB6D1993494B63441B6860
:104EE0009B6F1A939423D358454A1C93444B6244B6
:104EF00063441B68DB681D93414B63441B689B6ADA
:104F00001E933F4B63441B685B6C1F933C4B634495
:104F10001B681B6E20933A4B126863441B68DB6F5F
:104F200021939823D358364A2293354B62446344E5
:104F30001B6812681B692393314B63441B68DB6A4F
:104F400024932F4B63441B689B6C25932C4B634429
:104F50001B685B6E26938023D358294A27939C2392
:104F600062441268D358264A2893254B624463440E
:104F70001B685B692993224B63441B681B6B2A9354
:104F80001F4B63441B68DB6C2B931D4B12686344FF
:104F90001B689B6E2C938423D358194A2D93A0230E
:104FA00062441268D358164A2E93154B62446344E8
:104FB0001B6812689B692F93114B63441B685B6BE2
:104FC00030930F4B63441B681B6D31930C4B634450
:104FD0001B68DB6E32938823D358094A3393A4238A
:104FE00062441268D3583493064B63441F68A1ABE4
:104FF000389390239C46BC446346069304E0C04625
:105000005C070000540700007B687A699946BB681A
:1050100049469846FB6809980293049209F067F89C
:10502000414682460A9809F062F8011C504609F090
:1050300047F83E688246311C089809F058F8011C70
:10504000504609F03DF83C698246211C0C9809F055
:105050004EF8049983460D9809F049F8011C58460A
:1050600009F02EF8029983460B9809F040F8011CCC
:10507000584609F025F8011C504609F021F80F990F
:105080002860484609F033F810998246404609F0F6
:105090002EF8011C504609F013F80E998246301C78
:1050A00009F025F8011C504609F00AF812998246C9
:1050B000201C09F01CF816998346049809F017F88B
:1050C000011C584608F0FCFF11998346029809F02C
:1050D0000EF8011C584608F0F3FF011C504608F07A
:1050E000EFFF17996860484609F001F81899824661
:1050F000404608F0FCFF011C504608F0E1FF1499FF
:105100008246301C08F0F3FF011C504608F0D8FF1F
:105110001A998246201C08F0EAFF1C9983460498DD
:1051200008F0E5FF011C584608F0CAFF19998346AC
:10513000029808F0DCFF011C584608F0C1FF011C72
:10514000504608F0BDFFA8601E99484608F0CFFF02
:105150001F998246404608F0CAFF011C504608F0DD
:10516000AFFF1D998246301C08F0C1FF011C50465C
:1051700008F0A6FF21998246201C08F0B8FF22996A
:105180008346049808F0B3FF011C584608F098FFC6
:1051900020998346029808F0AAFF011C584608F09F
:1051A0008FFF011C504608F08BFF2499E8604846A9
:1051B00008F09DFF25998246404608F098FF011CA3
:1051C000504608F07DFF23998246301C08F08FFF7F
:1051D000011C504608F074FF27998246201C08F0F5
:1051E00086FF28998346049808F081FF011C5846E1
:1051F00008F066FF26998346029808F078FF011CA4
:10520000584608F05DFF011C504608F059FF2A99E6
:105210002861484608F06BFF2B998246404608F00B
:1052200066FF011C504608F04BFF29998246301C4E
:1052300008F05DFF011C504608F042FF2D998246A0
:10524000201C08F054FF2E998346049808F04FFF65
:10525000011C584608F034FF2C998346029808F048
:1052600046FF011C584608F02BFF011C504608F071
:1052700027FF30996861484608F039FF3199814627
:10528000404608F034FF011C484608F019FF2F99EA
:105290008046301C08F02BFF011C404608F010FF30
:1052A0003399061C201C08F022FF3499041C049832
:1052B00008F01DFF011C201C08F002FF3299041C9D
:1052C000029808F014FF011C201C08F0F9FE011CD4
:1052D000301C08F0F5FE069B1837A8611C35BB4250
:1052E00000D091E6C4AB0693379CA8AB389D3693AB
:1052F000EB690D999946AB6B2E6F98466B6D2F68D5
:105300000493069B043504CB101C0292069308F00C
:10531000EEFE0C998246301C08F0E9FE011C504656
:1053200008F0CEFE0B998246049808F0E0FE011CBE
:10533000504608F0C5FE0A998246404608F0D7FE5E
:1053400009998346484608F0D2FE011C584608F0E9
:10535000B7FE08998346381C08F0C9FE011C584660
:1053600008F0AEFE011C504608F0AAFE011C2068A1
:1053700008F0A6FE10992060404608F0B8FE0F998C
:105380008246484608F0B3FE011C504608F098FEDD
:105390000E998246381C08F0AAFE011C504608F0FF
:1053A0008FFE12998246301C08F0A1FE16998346A2
:1053B000029808F09CFE011C584608F081FE1199E5
:1053C0008346049808F093FE011C584608F078FEC6
:1053D000011C504608F074FE011C606808F070FE65
:1053E00017996060484608F082FE18998246404648
:1053F00008F07DFE011C504608F062FE14998246BA
:10540000381C08F074FE011C504608F059FE1A9929
:105410008246301C08F06BFE1C998346029808F007
:1054200066FE011C584608F04BFE19998346049805
:1054300008F05DFE011C584608F042FE011C504673
:1054400008F03EFE011CA06808F03AFE1E99A0601C
:10545000484608F04CFE1F998246404608F047FE39
:10546000011C504608F02CFE1D998246381C08F09D
:105470003EFE011C504608F023FE21998246301C56
:1054800008F035FE22998346029808F030FE011C90
:10549000584608F015FE20998346049808F027FE28
:1054A000011C584608F00CFE011C504608F008FE8E
:1054B000011CE06808F004FE2499E060484608F00A
:1054C00016FE25998246404608F011FE011C504602
:1054D00008F0F6FD23998246381C08F008FE011CEE
:1054E000504608F0EDFD27998246301C08F0FFFD7C
:1054F00028998346029808F0FAFD011C584608F0E6
:10550000DFFD26998346049808F0F1FD011C5846FA
:1055100008F0D6FD011C504608F0D2FD011C2069A0
:1055200008F0CEFD2A992061484608F0E0FD2B994D
:105530008246404608F0DBFD011C504608F0C0FDE5
:1055400029998246381C08F0D2FD011C504608F00B
:10555000B7FD2D998246301C08F0C9FD2E9983466F
:10556000029808F0C4FD011C584608F0A9FD2C99CA
:105570008346049808F0BBFD011C584608F0A0FDC6
:10558000011C504608F09CFD011C606908F098FD64
:1055900030996061484608F0AAFD3199814640463D
:1055A00008F0A5FD011C484608F08AFD2F998046A9
:1055B000381C08F09CFD011C404608F081FD339921
:1055C000071C301C08F093FD3499061C029808F063
:1055D0008EFD011C301C08F073FD3299061C0498E6
:1055E00008F085FD011C301C08F06AFD011C381C08
:1055F00008F066FD011CA06908F062FD369BA06101
:105600001C349D4200D073E63E99709B0B60779BE3
:105610004B607E9B8B60859BCB608C9B0B61939BCF
:105620004B619A9B8B61719BCB61789B0B627F9BDB
:105630004B62869B8B628D9BCB62949B0B639B9B87
:105640004B63729B8B63799BCB63809B0B64879BC3
:105650004B648E9B8B64959BCB649C9B0B65739B6F
:105660004B657A9B8B65819BCB65889B0B668F9B7B
:105670004B66969B8B669D9BCB66749B0B677B9B57
:105680004B67829B8B67899BCB678023909ACA501C
:10569000979A0433CA509E9A0433CA50759A0433B9
:1056A000CA507C9A0433CA50839A0433CA508A9AE7
:1056B0000433CA50919A0433CA50989A0433CA509A
:1056C0009F9A0433CA50769A0433CA507D9A0433A1
:1056D000CA50849A0433CA508B9A0433CA50929A9F
:1056E0000433CA50999A0433CA50A09A0433CA505A
:1056F000359B1A685F68111C101C90469E68DD6817
:1057000008F0F5FC391C041C381C08F0F0FC011CE6
:10571000201C08F0D5FC311C041C301C08F0E7FCF0
:10572000011C201C08F0CCFC291C041C281C08F0BF
:10573000DEFC011C201C08F0C3FC08F067FD041C03
:10574000011C404608F0BFFC359B211C1860381C2A
:1057500008F0B9FC359F211C7860301C08F0B3FCC0
:10576000211CB860281C08F0AEFC1B9BF8601A686E
:105770005F68111C101C90469E68DD6808F0B7FC3D
:10578000391C041C381C08F0B2FC011C201C08F059
:1057900097FC311C041C301C08F0A9FC011C201CC7
:1057A00008F08EFC291C041C281C08F0A0FC011C1D
:1057B000201C08F085FC08F029FD041C011C404653
:1057C00008F081FC1B9B211C1860381C08F07BFC36
:1057D0001B9F211C7860301C08F075FC211CB860F0
:1057E000281C08F070FCF8600020044B9D44F0BCBD
:1057F000BB46B246A946A046F0BDC04624080000FC
:10580000F0B5D6464F464646C0B586B0A14B02AC71
:1058100000941A68A04D02929A882800A2809B7971
:105820006A46A3710723019300236946D3730DF0E1
:10583000F9FB0098A04203D00299013108F0E2FE82
:1058400028000DF037FC954E9C2431000122944D28
:1058500001C1A400830F43406B439818013201C17A
:10586000A242F7D19C230024002000211B01F2500A
:105870008C4D00228C4B9C60DD60002418605960C8
:1058800018615961FE201A76884B80051C605C60A7
:105890009C60DC60864B1C605C609C60DC60854BBF
:1058A0001C605C60844B1C605C60844B1C605C60B2
:1058B000834B1C605C609C60DC60824B1C605C60A5
:1058C000814D9C60DC60814B29681C6008F0FBFB0B
:1058D0007F4E804B3060FE201C605C609C60DC6012
:1058E0007D4B80051C605C607C4B1C605C607C4B6D
:1058F0001C605C607B4B1C605C609C60DC607A4B75
:105900001C605C609C60DC60784B1C605C609C6030
:10591000DC60774B29681C605C60764B764E1C60BF
:105920005C60764B1C605C60754B1C605C609C60CE
:10593000DC60744B1C605C609C60DC60724B1C60C3
:1059400008F0C1FB714B30601C605C609C60DC60E7
:105950006F4B1C605C606F4B1C605C606E4B1C602E
:105960005C606E4B1C605C609C60DC606C4B1C601F
:105970006C4B1C606C4B6D4C1868011C08F0B7FB3D
:105980006B4B206018686B4C011C08F0B0FB6A4B35
:1059900020601C68694B6A4D1868011C08F090FB78
:1059A000684B196808F0A3FB211C08F0A0FB664BAC
:1059B000196808F088FB011CFE20800508F07DFBBB
:1059C000624B28601C60624B1E68301C08F02EFC85
:1059D000604B051C301C1F6808F03AFC5E4B824689
:1059E0001E685E4B391C281C994608F080FB311C50
:1059F0008046504608F07BFB011C404608F060FBE7
:105A0000211C08F074FB4B461860554B1B689846E8
:105A1000544B41461B689946534B9A4680231B06BC
:105A2000F81808F064FB514B071C1968301C08F08B
:105A30005EFB011C381C08F043FB4D4B071C19682A
:105A4000281C08F054FB494608F051FB011C381C87
:105A500008F036FB211C08F04AFB802352461B0647
:105A600010604946F01808F042FB211C08F03FFB8B
:105A7000404F41463860201C08F039FB291C08F0D3
:105A800022FB3D4E306006B0E0BCBA46B146A846A7
:105A9000F0BDC0465C6B0110743D03207C320320D6
:105AA0006589076C0000F03FB02B00209029002092
:105AB000B02900207C3C0320743C03204C2D0320A3
:105AC000102A0020F0290020683600201C24032022
:105AD00070360020D0290020583C032020320320BB
