:020000041000EA
:1000000000B5324B212058609868022188439860DF
:10001000D860186158612E4B002199600221596106
:100020000121F02299502B49196001219960352056
:1000300000F044F80222904214D00621196600F024
:1000400034F8196E01211966002018661A6600F04E
:100050002CF8196E196E196E052000F02FF8012189
:100060000842F9D1002199601B49196000215960AB
:100070001A491B48016001219960EB211966A021F2
:10008000196600F012F800219960164914480160C1
:100090000121996001BC002800D000471248134993
:1000A000086003C880F30888084703B5996A0420EC
:1000B0000142FBD001200142F8D103BD02B5186610
:1000C0001866FFF7F2FF186E186E02BD00000240BE
:1000D000000000180000070000035F00212200005C
:1000E000F4000018222000A00001001008ED00E03C
:1000F00000000000000000000000000074B24E7A12
:1001000000200420F7010010CB010010CD010010E9
:10011000C9010010C9010010C9010010C901001077
:10012000C9010010C9010010C9010010CF01001061
:10013000C9010010C9010010D1010010D301001045
:10014000C1010010C1010010C1010010C101001067
:10015000C1010010C1010010C1010010C101001057
:10016000C1010010C1010010C1010010C101001047
:10017000C1010010C1010010C1010010C101001037
:10018000C1010010C1010010C1010010C101001027
:10019000C1010010C1010010C1010010C101001017
:1001A000C1010010C1010010C1010010C101001007
:1001B000C1010010C1010010C1010010C1010010F7
:1001C000EFF30580103800BE00BE00BE00BE00BECA
:1001D00000BE00BEF2EB887148660110686601102F
:1001E0003802001090A31AE71E481F49086006C88D
:1001F00081F3088810471D480068002801D019487D
:10020000F3E70DA40ECC002902D000F012F8F9E7B4
:100210001749184A002000E001C19142FCD116495B
:100220008847164988471649884700BEFDE701C937
:1002300001C29A42FBD3704768660110C0000020DB
:100240009C270020448D01100000042000000420A1
:10025000448D011000100420001004200000000054
:10026000704700000000000008ED00E0000000D032
:100270009C2700207C47032071F5001041030010EB
:1002800069F50010F8B5C0460448054B10B5834227
:1002900003D0044B002B00D0984710BD9C270020B2
:1002A0009C2700200000000006480749091A8B100F
:1002B000C90FC91810B5491003D0044B002B00D04A
:1002C000984710BD9C2700209C27002000000000BC
:1002D00010B5074C2378002B09D1FFF7D5FF054B4C
:1002E000002B02D0044800E000BF0123237010BDA2
:1002F000282D002000000000F4540110054B10B51B
:10030000002B03D00449054800E000BFFFF7CCFFF5
:1003100010BDC046000000002C2D0020F454011038
:1003200010B504001F210AF0C9FD002220000021A1
:100330000AF0DEFD002120000AF0EEFD10BDC046EF
:10034000F0B5DE46454657464E46E0B5192089B021
:100350000AF0F6FDD02380221B0692045A624B4815
:100360000FF0CAFA0FF078FA49480FF0C5FA0CF00E
:1003700069FA1A20FFF7D4FF1B20FFF7D1FF00F026
:10038000ABF844480FF0B8FA06F0B2FA42480FF062
:10039000B3FA06F0B3FF41480FF0AEFA06F048FD9D
:1003A00009F07AFA002205243D4B1A7005F062FE2E
:1003B0003C480FF0A1FA3C4D013C210028000FF011
:1003C00023FBFA2080000BF091FB002CF4D10A20D3
:1003D0000FF046FA0122002134480AF0AFFF3448FA
:1003E00011F05AFF09F03AFC0122324B324D1A70DB
:1003F00006AB9C1D314B324E9B46324B324F9A46D8
:10040000324B0493324B059300239846314B994667
:1004100009F040FC43462000238009F049FCBA6AF9
:100420002B68D31A4B451FD92A6000282AD05A4678
:100430002388106801930DF0C3FA524602901068A9
:100440000DF0BEFA039001980DF05DFA02990DF0DF
:1004500018FA03990DF015FA0DF098FA02000B0046
:10046000049801990FF0D0FA3378012BD0D107F01E
:1004700001F93378012BCBD107F0FCF83378012B4D
:10048000C6D1F4E705980FF037FAEDE7F8540110FC
:100490000855011014550110205501103055011058
:1004A00062470320405501104C5501105C46032063
:1004B000BD780010614703206C250320242303200E
:1004C0006647032094230320004005406055011037
:1004D0008855011040420F00092370B586B005937E
:1004E00004330493023B0393013B0293023B324DDE
:1004F000324C0193324B22003249334800932B0097
:1005000005F06CFA142005F065FAFA2080000BF073
:10051000EDFA2E4E21003200280005F081FC3378E0
:10052000682B08D02A4C20000FF0E6F9FA20800052
:100530000BF0DCFAF7E773783D2BF3D101222100B1
:10054000280005F091FC234E32002100280005F020
:10055000C5FC3378002BF7D101222100280005F0DB
:100560003DFB0121200005F01BFB0321200005F0CD
:10057000A7FA0321280005F0DBFB1321200005F07A
:100580001BFD1221200005F055FD0021200005F083
:1005900033FD0321200005F0BDFC0221200005F001
:1005A000D5FC5521200005F0A9FA1821280005F0F6
:1005B00055FB06B070BDC0461C220320AC350020A0
:1005C00040420F002C21002034210020244703202A
:1005D0009855011079470320F0B5C646334C344E88
:1005E000344D22003100280000B505F02BFC637863
:1005F000DB439B0720D023781B0702D480BCB8467E
:10060000F0BD2D4C0622002120000DF0ABFB210097
:10061000280005F0E7FB0023E05E05F047FA274DD0
:1006200028600223E05E05F041FA68600423E05E82
:1006300005F03CFAA860E1E7214B06229846180035
:1006400000210DF08FFB1F4F0622002138000DF016
:1006500089FB4146300005F0A7FB3900300005F06A
:1006600085FB43460020185E05F00CFA4346164E03
:1006700030600220185E05F005FA434670600420E1
:10068000185E05F0FFF9B0600023F85E05F004FA8B
:100690000E4E30600223F85E05F0FEF97060042310
:1006A000F85E05F0F9F9B060A5E7C046703C03209C
:1006B000AC3500201C220320A02C0320783103201D
:1006C000902C0320982C03202C2B03203C2B032060
:1006D000F0B54E46DE4657464546E0B58BB0049031
:1006E0001600080001920322D9170A40D21894106C
:1006F0000994A400A146002C00DC89E0159C159DFE
:10070000A4000294149C0021621B921B920003928D
:100710004268B5001401A0469400A4465400A418F1
:10072000D7000268079092460692721E92000592C8
:1007300000225544934600922A0000266546080090
:100740009446A4000893029B9A46019B5044002BB8
:1007500018DD049983008A4653448246069A5A4417
:1007600011681960B118485904325860C859986026
:100770000959D96010336245F2D1059B50469A461B
:1007800004305044039B42469A46009B5044043335
:100790000093C3444544B61A47444444C44499456D
:1007A000D1DC0100089B07984B452ADD05684268AB
:1007B000159C1498061B0198361A002821DD940018
:1007C000A446099C870062431201AD180200300064
:1007D0000C009A4604994B469146159A66468846FF
:1007E0009346844600225C44A0004044A9588150AE
:1007F0000432BA42FAD14C4401336444AD199A45EB
:10080000F0D10BB0F0BCBB46B246A946A046F0BD45
:100810000021C9E7F0B5CE4647469C4680B5002B7F
:100820001ADD002A18DD93009846030008680025A9
:1008300081464C68D2004344A400574241465E1AA8
:100840003100AA004A441068121901C18B42FAD142
:100850000135F31B6545F1D1C0BCB946B046F0BDCA
:10086000F0B55746DE464E464546E0B58BB006919C
:100870000992110000220A60026805270592826829
:100880000790049200220392013A08920523049DE6
:10089000DB1B5D439A46039BAD009C46059B65446C
:1008A0009C4665442C686E6864007600640876088F
:1008B000211C301C0DF022F8002800D159E1341C15
:1008C00001267B1C9B46012F00D137E1AB68211C20
:1008D0005B005B08181C98460DF010F8002800D04B
:1008E00049E15B46032B00D128E1A046EB68414675
:1008F0005B005B08181C99460DF000F8002800D03A
:1009000048E15B46042B00D117E1C1462C694946FA
:1009100064006408201C0CF0F1FF002800D048E1BE
:100920005B464C46062B00D008E16869211C40005C
:1009300040080CF0E3FF002800D1FFE00521069BF2
:10094000039A05269950079B01259B680493012370
:100950009946059AB3009446100063441968039CB5
:1009600056461259A446015101001A60049A614486
:10097000920089189B1808681C680C601860891818
:100980009B1808681C680C60186089189B18086818
:100990001C680C60186089189B1808681C680C603B
:1009A000186089189B1818680A6808601A60099A04
:1009B000136801331360079B9B6804935E4353469F
:1009C0000598F3189B001B589A46030098464E441E
:1009D000B400A0444246514610680CF03EFF424627
:1009E0001060012F31D0059A231D9046984443464C
:1009F000514618680CF031FF43461860022F24D08E
:100A0000059A230090460833984443465146186897
:100A10000CF023FF43461860032F16D0059A2300DD
:100A200090460C3398444346514618680CF015FF25
:100A300043461860052F08D1059B1034984644445E
:100A4000206851460CF009FF2060049BB6001C0092
:100A50009B000193039B6C439C46059BA5001A00D9
:100A60004C4491469B4692469046331D6544A400F3
:100A7000994404335D445C449A44B34404331036CF
:100A80009446984433000026634402935B462968E9
:100A900018680CF0F6FE011C20680CF0D8FE2060EF
:100AA000012F39D04B46286819680CF0EAFE011C6A
:100AB00060680CF0CCFE6060022F21D0534628689D
:100AC00019680CF0DEFE011CA0680CF0C0FEA060EE
:100AD000032F15D04346286819680CF0D2FE011C7C
:100AE000E0680CF0B4FEE060052F09D1029B296894
:100AF00018680CF0C6FE011C20690CF0A8FE2061ED
:100B0000019B01369C4665446444B742BED1039BB9
:100B1000013F04330393B9E6019B01369C466544CB
:100B20006444012EB2D10523069A53610BB0F0BC88
:100B3000BB46B246A946A046F0BD4446069B039A72
:100B400056449E5006230021DB1B201C99461D00A5
:100B50000CF0C6FE079B9B680493002838D05646CD
:100B60005E43089B4E44013300D06EE75346089322
:100B70006BE70026A5E65B460226032B00D0B5E610
:100B800005260425069B039AA9469E50079B9B6851
:100B90000493DEE65B460326042B00D0B6E605266A
:100BA0000325069B039AA9469E50079B9B680493C6
:100BB000CFE65B460426062B00D1B6E605260225C5
:100BC000069B039AA9469E50079B9B680493C0E628
:100BD000564500D0BDE656465E435346059A9B19DE
:100BE0009B009B589A461300F0E6C046F0B5574666
:100BF0004546DE464E46E0B599B01500249A0700FA
:100C000014932698259B541C00D1229A5C1C00D179
:100C1000229B239CE61703243440239EB4460726D8
:100C20006444A410A446A4000D94229CB443149ED2
:100C3000002E00DC8AE2920016921A011192020143
:100C40009346621ED20801320591D10152010F92E2
:100C50009A001092624653439B001B189B00EB18AE
:100C600015930023AB440A935B46B8461391009456
:100C700017930D9B002B00DCC2E10F9A059B944655
:100C800063441293179B019300231E0043460E9367
:100C900031000A980E9B84460CCB5943614489006D
:100CA00051180B91711C5943614489008B46B11C4A
:100CB00059439146614489008A46F11C4B43634481
:100CC0009B00019F9944009B3C0093449244002B5D
:100CD00000DC42E2059B0025984600234446079528
:100CE0000495039506950995029508950C9323683C
:100CF0003968181C98460CF0C4FD08990CF0AAFD40
:100D00007968089040460CF0BCFD02990CF0A2FDF9
:100D1000B968029040460CF0B4FD09990CF09AFDB8
:100D2000F968099040460CF0ACFD06990CF092FD74
:100D3000069063683969181C98460CF0A2FD039967
:100D40000CF088FD7969039040460CF09AFD0499F7
:100D50000CF080FDB969049040460CF092FD0799B3
:100D60000CF078FDF969079040460CF08AFD291CCB
:100D70000CF070FD8046A568396A281C0CF081FDD6
:100D800008990CF067FD796A0890281C0CF079FD31
:100D900002990CF05FFDB96A0290281C0CF071FDFD
:100DA00009990CF057FDF96A0990281C0CF069FDAF
:100DB00006990CF04FFD0690E568396B281C0CF085
:100DC00060FD03990CF046FD796B0390281C0CF034
:100DD00058FD04990CF03EFDB96B0490281C0CF0F2
:100DE00050FD07990CF036FDF96B0790281C0CF0AC
:100DF00048FD41460CF02EFD80462569396C281CC3
:100E00000CF03FFD08990CF025FD796C0890281C2A
:100E10000CF037FD02990CF01DFDB96C0290281CF6
:100E20000CF02FFD09990CF015FDF96C0990281CA8
:100E30000CF027FD06990CF00DFD06906569396DE3
:100E4000281C0CF01EFD03990CF004FD796D039035
:100E5000281C0CF016FD04990CF0FCFCB96D0490F4
:100E6000281C0CF00EFD07990CF0F4FCF96D0790AE
:100E7000281C0CF006FD41460CF0ECFC8046A569F0
:100E8000396E281C0CF0FDFC08990CF0E3FC796E1F
:100E90000890281C0CF0F5FC02990CF0DBFCB96EF4
:100EA0000290281C0CF0EDFC09990CF0D3FCF96EB3
:100EB0000990281C0CF0E5FC06990CF0CBFC069080
:100EC000E569396F281C0CF0DCFC03990CF0C2FCBE
:100ED000796F0390281C0CF0D4FC04990CF0BAFC38
:100EE000B96F0490281C0CF0CCFC07990CF0B2FCF4
:100EF000F96F0790281C0CF0C4FC41460CF0AAFCCA
:100F0000051C803720340C9B009A08330C939A42BE
:100F100000DDECE6139B019C9C4608990398644411
:100F20000CF098FC0299039004980CF093FC09993A
:100F3000029007980CF08EFC06990490281C0CF087
:100F400089FC129B051C0693229A009B9A422EDD77
:100F50009846069B216880CB381C06930CF091FCC8
:100F6000011C03980CF076FC61680390381C0CF0AF
:100F700088FC011C02980CF06DFCA1680290381CE2
:100F80000CF07FFC011C04980CF064FCE1680490F8
:100F9000381C0CF076FC011C281C0CF05BFC051CBA
:100FA00001239C46229BE04410344345D1D15B464B
:100FB000029918680CF04BFC0B9F041C03993868CD
:100FC0000CF045FC5B4638601C604B46291C1868D9
:100FD0000CF03DFC5346041C049918680CF037FCD7
:100FE0005346119A18604B4694461C60019B043688
:100FF000634401930D9BB34200DD49E60E9B984686
:101000000F9A059B944663440D9A0293239B160006
:10101000159D934200DC8DE043460A9A5B68944636
:1010200042467343146863449B00E418009B2F00FE
:10103000002B00DC98E000239A460023059F9B4686
:101040003B00A1462F001C00396820680CF019FCF9
:1010500059460CF0FFFB8346796860680CF011FC80
:1010600059460CF0F7FB8346B968A0680CF009FC00
:1010700059460CF0EFFB8346F968E0680CF001FC80
:1010800059460CF0E7FB8346396920690CF0F9FBFF
:1010900059460CF0DFFB8346796960690CF0F1FB7F
:1010A00059460CF0D7FB8346B969A0690CF0E9FBFF
:1010B00059460CF0CFFB8346F969E0690CF0E1FB7F
:1010C00059460CF0C7FB83462037203408239C4642
:1010D000009BE2445345B7DC4C460F9BEF18029B44
:1010E0000193229A009B9A4217DD9A460023994663
:1010F0004B464A46F958019B98580CF0C2FB011C1C
:1011000058460CF0A7FB834601239C460333E24478
:101110009C46229BE1445345EAD1206859460CF095
:1011200096FB109B01369C46239B20606544B3428E
:1011300000D071E71699059A8C460A9B6244059285
:10114000149A01330A939A4200D092E519B0F0BC88
:10115000BB46B246A946A046F0BD0025059B0495B6
:10116000069302950395EFE6059B019300239B46AA
:10117000B7E7C046F0B55746DE464E464546E0B5B1
:1011800013689BB006AFB86339627B62002B00D155
:10119000FEE053689846002B00D104E18E4D2800F4
:1011A00011F0A6F88D4C002800D00AE1602160689B
:1011B0000BF0D2FC801083009946042B01DA042343
:1011C000994606239B4600239A4643464E46D146FF
:1011D0003B615B46FB62B34500DDFE624B465B0054
:1011E0004B445A007A613A69DB0094469C4462465B
:1011F000FA613A6AFE6094466344BB61FB6A4B4401
:101200003B64062398464B463B635B464446BB60C3
:101210000223BB62042C01DD0233BB62BA6AA30065
:10122000043B9A46531E984663001B195B00A61A9E
:10123000063BBA6B9B199B00D5183A6A7B699446AA
:101240009B199B0063447B633E60B300AB465646EC
:101250005B42FB637C60FE20BA6BF3009B1BD158A2
:1012600080050CF0FAFA3D6BB2462E007C6B786478
:10127000FB6B52469946A1444B46786C99580CF04A
:1012800000FB4B46524698504346051C002B22DD7E
:101290005B4619680CF0F5FA011C20680CF0D7FACF
:1012A00043462060012B16D05B46281C59680CF081
:1012B000E8FA011C60680CF0CAFA43466060022B31
:1012C00009D05B46281C99680CF0DBFA011CA06869
:1012D0000CF0BDFAA0603B6C013618349E42C7DBAF
:1012E00018235B429C4656464346043EE344013B7A
:1012F0009846B0D2062548217B6B3E68BB647C686B
:10130000FD6401960095FB6ABA6AF86979189B46F4
:1013100090468246FFF7DCF9002E16DC043CA31C45
:1013200000D075E73B6BFE689946BB68B1449B1BD8
:101330009B464B46052B00DC4BE7BD4615B0F0BC89
:10134000BB46B246A946A046F0BDB96B73008C46B9
:1013500048219B19DB006344786A4246BB647918D4
:1013600033008146FD64FFF755FABB69FD64BB6439
:1013700048205B4603954546019352463300494653
:101380000496029500953818FFF730FC043C3FE7BF
:101390000F21A8B027336B448B437B625368984678
:1013A000002B00D0FAE60F220B4DA8B027336B4478
:1013B00093432800984610F09BFF084C002800D16A
:1013C000F4E68023DB012360802328001B03636095
:1013D000A36010F0A9FFE9E618250320702503207B
:1013E000F0B55746DE464E464546E0B5136897B021
:1013F00006AFB86179613B62002B00D1ECE0566822
:10140000002E00D1F2E0854D280010F071FF844CD1
:10141000002800D0F7E0602160680BF09DFB801091
:1014200083009946042B01DA0423994606239B4640
:101430000023BE605C464E463B63A046B44200DDDE
:10144000B0463A6BC3469446530063445900F96072
:10145000B968DB008C469C446146F9617969424475
:101460008C4663447B62002392461A007C60BB6218
:101470003E6006239B1A3B61FB62042B01DD0423C3
:10148000FB62FB6ABA6A013B9946D3009B1ABA69B0
:101490009B00D518C8462C007B6A4246002A38DDDE
:1014A0003D6BA1461E002C007B634B463568596896
:1014B000281C0CF0E6F9011C70680CF0C8F94346D2
:1014C0007060012B16D04B46281C99680CF0D9F996
:1014D000011CB0680CF0BBF94346B060022B09D088
:1014E0004B46281CD9680CF0CCF9011CF0680CF0B4
:1014F000AEF9F06001341836A245D6DC0122524222
:101500009446E0444C4642467B6B1C340433002A2C
:10151000C6DC013A904649D2062438213B69FA6A72
:10152000BD6A9E1A7B6AFC63BB63019500945B46AF
:10153000F86979189046FFF7CBF8002E2CDD42466B
:10154000AC46110061448846B9696B0063448C461F
:1015500038215B0043449B006344386ABB637918BD
:1015600033008146FC63FA62FFF754F97969FB683E
:101570008C4643449B006344BB63FC6303945C461A
:1015800038200495FB6A0194029300934946330086
:10159000FA693818FFF72AFB7B6A10337B62BB6A53
:1015A000042B06D004231A00BB6262E71C34043308
:1015B00073E73B6B3E689C46B44463467C683B6380
:1015C000A41B052B00DC38E7BD4611B0F0BCBB46C0
:1015D000B246A946A046F0BD0F21A8B027336B4400
:1015E00056688B433B62002E00D00CE70F220B4D58
:1015F000A8B0273628006E44964310F079FE084CB8
:10160000002800D107E78023DB0123608023280026
:101610001B036360A36010F087FEFCE6182503201F
:1016200070250320F0B5DE4657464E464546E0B5E8
:101630000E0001688DB08946416887688B46056950
:10164000C1680793436980690391069011685068E7
:10165000926809910A90291C30680B9205930895AD
:101660000CF0F5F80599824670680CF0F0F80699D0
:10167000051CB0680CF0EBF8804607980CF086F972
:1016800080231B06534400900191180059460CF02A
:10169000F8F8391C061C281C04970CF0F2F8011C01
:1016A000301C0CF0D4F80399061C40460CF0E9F805
:1016B000011C301C0CF0CBF80CF068F90022684BD0
:1016C0000BF0B5FC009A019B0BF0B1FC06004846FC
:1016D0000F000CF05BF902000B0030003900169C83
:1016E0000BF07EFC0BF05AFD4946206050460CF092
:1016F000C8F80499061C40460CF0C3F8011C301CC5
:101700000CF0A8F80399061C281C0CF0BAF8011C70
:10171000301C0CF09CF80CF039F90022504B0BF007
:1017200086FC009A019B0BF082FC060058460F00D5
:101730000CF02CF902000B00300039000BF050FCCB
:101740000BF02CFD49466060281C0CF09AF85946B5
:10175000061C40460CF095F8011C301C0CF077F884
:101760000399061C50460CF08CF8011C301C0CF040
:1017700071F80CF00BF90022394B0BF058FC009A71
:10178000019B0BF054FC060004980F000CF0FEF8CF
:1017900002000B00300039000BF022FC0BF0FEFCC5
:1017A0004946A06040460CF06CF85946061C281CBF
:1017B0000CF067F8011C301C0CF04CF80499051C67
:1017C00050460CF05EF8011C281C0CF040F80CF0A0
:1017D000DDF80022224B0BF02AFC009A019B0BF053
:1017E00026FC060003980F000CF0D0F802000B0056
:1017F000300039000BF0F4FB0BF0D0FC089B09998A
:10180000E060181C98460CF03CF8079D291C0CF071
:1018100038F8011C40460CF01AF8059F0A9920611F
:10182000381C0CF02EF8291C0CF02BF8011C381C6D
:101830000CF00DF8069E0B996061301C0CF021F83D
:10184000291C0CF01EF8011C301C0CF000F8A061E3
:1018500000200DB0F0BCBB46B246A946A046F0BD84
:101860000000E03FF0B5DE4657464E464546E0B53F
:10187000C568466893B0046887688846301C291C90
:10188000934602930BF0FDFF8146391C201C0BF0A0
:10189000F8FF4A460A90011C484609920BF0D7FF10
:1018A0000CF074F802000B000BF09AFB0490059109
:1018B00058460CF06BF802000B0004980599009252
:1018C00001930BF0B4FB0BF069FC4346291C186034
:1018D000381C0BF0D6FF8146311C201C0BF0D1FFC9
:1018E0004A460E90011C48460B920BF0B3FF0CF0D9
:1018F0004DF802000B000BF073FB02000B00009888
:1019000001990C920D930BF092FB0BF047FC4346B0
:10191000211C5860201C0BF0B4FF8146311C301C88
:101920000BF0AFFF4A461090011C48460F920BF097
:101930008EFF391C0790381C0BF0A3FF291C824630
:10194000281C0BF09EFF8146514607980BF07FFF45
:1019500049460BF07FFF594611900BF092FF43462A
:10196000391C9860301C0BF08CFF291C8346201C0E
:101970000BF087FF08901C980CF008F806001D98E3
:101980000F000CF003F80090019110990F980BF0E4
:1019900061FF51460BF05BFF49460BF058FF02997F
:1019A0000BF06FFF0BF0F2FF04000D005846089992
:1019B0000BF050FF0BF0EAFF02000B000BF010FBE6
:1019C00032003B000BF033FB02000B00200029002B
:1019D0000BF006FB009A019B04000D00049805998A
:1019E0000BF025FB02000B00200029000BF0F8FA99
:1019F0000BF0D4FB4346D86002980BF0C7FF0400FD
:101A00000D00584608990BF022FF0BF0BFFF0200B3
:101A10000B000BF0E5FA22002B00029403950BF06B
:101A200006FB04000D00079851460BF013FF4946D2
:101A30000BF00DFF1C990BF024FF0BF0A7FF020029
:101A40000B00200029000BF0CBFA009A019B040048
:101A50000D000C980D990BF0EAFA02000B00200023
:101A600029000BF0BDFA0BF099FB43460A99186167
:101A700009980BF0EFFE0BF089FF02000B000BF052
:101A8000AFFA029A039B0BF0D2FA04000D000B98F8
:101A90000E990BF0DCFE0BF079FF02000B000BF04F
:101AA0009FFA32003B000BF0C2FA02000B0020004C
:101AB00029000BF095FA04000D0011981D990BF008
:101AC000E0FE0BF063FF02000B00200029000BF08A
:101AD00087FA0BF063FB43465861002013B0F0BC5B
:101AE000BB46B246A946A046F0BDC046F0B5DE46AC
:101AF00057464E464546E0B54D6895B007950D6989
:101B00000400AB464D690868A94615688E68AA4668
:101B100055689268A8465D68CF680E95FE2589696C
:101B2000AD0506921A689B680C9025601E980D9270
:101B30000F9308960A9702910BF028FF06000F00FA
:101B4000504659460BF083FE0BF020FF0022964BC7
:101B50000BF06DFA32003B000BF069FA0B0002004B
:101B6000009201930BF01AFB49460590E061404654
:101B70000BF06DFE0BF00AFF00228B4B0BF057FAB7
:101B800032003B000BF053FA0B000200109211934D
:101B90000BF004FB02998046A06306980BF057FEF9
:101BA0000BF0F4FE0022804B0BF041FA3B003200B8
:101BB0000BF03DFA0A0001000291039211000BF0B4
:101BC000EDFA0690606507980BF0E0FE0022774B77
:101BD0000BF02DFA32003B000BF029FA02000B004B
:101BE000129213930BF0DAFA8146206708980BF0F3
:101BF000CDFE00226D4B0BF01AFA3B0032000BF0C9
:101C000016FA0A0001000891099211000BF0C6FAB9
:101C10008C230790E0500A980BF0B8FE0022634B2B
:101C20000BF005FA3B0032000BF001FA0A0001004C
:101C30000A910B9211000BF0B1FA8022A823120630
:101C40009446E050009B83461800019B63441900B2
:101C50000BF0A4FA802212069446029B8246606032
:101C60001800039B2562634419000BF097FA424663
:101C70000090E063A2650C980BF088FE00224A4BAE
:101C80000BF0D5F932003B000BF0D1F90BF086FADE
:101C90005F46902380466067E750089E099F3000AA
:101CA00080263606B446674439000BF077FA109E5A
:101CB000119FAC23E050300080263606B4466744BE
:101CC00039000BF06BFAA060069F834667625746A7
:101CD000E7650A9E0B9F300080263606B4466744AF
:101CE000390025640BF05AFA47469423A067E75061
:101CF0004F461C33E750129E139F30008026059BF1
:101D000000996364079B3606B446E3673B00E160D5
:101D100059466344A162256619000BF03FFA9823E7
:101D200000264146E0501C33E1500D981E99266173
:101D3000E662A66466660BF0A4FD011C281C0BF08D
:101D400086FD8023E0501C33E6501C33E650343BC4
:101D50001E9966612663E664A6660E98E6500BF04F
:101D600090FD011C281C0BF072FDA023E0501C33D9
:101D7000E650343BA66166632665E666E6501C3392
:101D8000E6501E990F980BF07CFD011C281C0BF0EF
:101D90005EFDC023E050002015B0F0BCBB46B2464B
:101DA000A946A046F0BDC0460000E0BF0000E03FED
:101DB000F0B5DE4657464E464546E0B50700101CD6
:101DC0004A68994690460B688A688BB0CE689346FD
:101DD00006930BF0DBFD040058460D000BF0D6FD1A
:101DE000C02300221B060BF022F922002B000BF06F
:101DF0001EF9009001910BF0D1F907903860301C6A
:101E00000BF0C4FD02000B000BF0EAF822002B00DF
:101E10000BF00DF90BF0C2F98246B86106980BF091
:101E2000B5FDC02300221B060BF001F922002B0098
:101E30000BF0FDF802000B00029203930BF0AEF9D9
:101E4000386340460BF0A2FD02000B000BF0C8F80F
:101E500022002B000BF0EBF880250C0003002D0670
:101E6000049305940BF09AF900249023AC46039A4E
:101E7000B8643C66BC67FC50029B62441100786009
:101E800018000BF08BF9009B051CF86118008023EB
:101E900052461B069C467A63019A624411000BF07D
:101EA0007DF99423F8647C66FC67FC50BD60802556
:101EB0002D06AC46059A049B6244110018000BF0F5
:101EC0006DF9079B5246BB6380233A653862BC6656
:101ED000FC501833FC50069B4946181C9A460BF0E0
:101EE000D0FC14990090301C0BF0CBFC159902909B
:101EF00058460BF0C6FC0299051C00980BF0AAFC92
:101F0000291C07950BF0A3FC011C0BF0A3FC494610
:101F10000890F86040460BF0B4FC1499051C584634
:101F20000BF0AFFC011C281C0BF094FC1599051C50
:101F3000301C0BF0A6FC011C281C0BF08BFC802530
:101F4000011C0BF087FC2D065D4449460490786225
:101F500028000BF096FC1499051C40460BF091FCF0
:101F60001599834650460BF08CFC82465946281C36
:101F700009950BF06FFC51460BF069FC8025011CA4
:101F80000BF068FC2D064946F86370190BF079FCDC
:101F90001499051C06980BF074FC1599814640466F
:101FA0000BF06FFC4946061C281C0BF053FC311C3F
:101FB0000BF050FC011C0BF04DFC84237865FC6693
:101FC000FC501833FC503861802000068446099A82
:101FD0005946624410000BF03AFC51460BF03AFCB3
:101FE000011C0BF037FC802212069446049B8246AB
:101FF000B86200983B64604402990BF028FC079992
:102000000BF028FC011C0BF025FC88238021B8650F
:1020100050463C670906FC501833FC50786168183C
:1020200049460BF014FC311C0BF011FC011C0BF0A9
:1020300011FC049BF862FB658C230020089A7C67E6
:102040007A64FC501833FC500BB0F0BCBB46B2466F
:10205000A946A046F0BDC046F0B557464E46DE46FE
:102060004546E0B5EFB00B000AA98C46D722624482
:10207000120915019A685E680D920EAA9246C42252
:102080009446B44462460192942293460C3291469F
:1020900052460395554682461F6802920493F168A2
:1020A000B86C0BF0EEFB3169041C386E0BF0E9FBE9
:1020B000011C201C0BF0CEFB7169041CB86F0BF0E7
:1020C000E0FB9023B1698046F8580BF0DAFB011C65
:1020D00040460BF0BFFB011C201C0BF0BBFB7168E2
:1020E000041CB8690BF0CDFBB1688046386B0BF06F
:1020F000C8FB011C40460BF0ADFB316880463868D8
:102100000BF0BFFB011C40460BF0A4FB011C201C84
:102110000BF0A0FB2860F168F86C0BF0B2FB3169A2
:10212000041C786E0BF0ADFB011C201C0BF092FB25
:102130007169041CF86F0BF0A4FB5B46B169804623
:10214000F8580BF09EFB011C40460BF083FB011C72
:10215000201C0BF07FFB7168041CF8690BF091FBED
:10216000B1688046786B0BF08CFB011C40460BF08D
:1021700071FB3168804678680BF083FB011C404698
:102180000BF068FB011C201C0BF064FB6860F1681D
:10219000386D0BF076FB3169041CB86E0BF071FBE7
:1021A000011C201C0BF056FB80237169041CF8589D
:1021B0000BF067FB9823B1698046F8580BF061FB80
:1021C000011C40460BF046FB011C201C0BF042FB9F
:1021D0007168041C386A0BF054FBB1688046B86B18
:1021E0000BF04FFB011C40460BF034FB316880467E
:1021F000B8680BF046FB011C40460BF02BFB011CA2
:10220000201C0BF027FBA860F168786D0BF039FB00
:102210003169041CF86E0BF034FB011C201C0BF020
:1022200019FB84237169041CF8580BF02AFB9C23CA
:10223000B1698046F8580BF024FB011C40460BF0B6
:1022400009FB011C201C0BF005FB7168041C786A5B
:102250000BF017FBB1688046F86B0BF012FB011C0A
:1022600040460BF0F7FA31688046F8680BF009FB3E
:10227000011C40460BF0EEFA011C201C0BF0EAFAA0
:10228000E860F168B86D0BF0FCFA3169041C386F36
:102290000BF0F7FA011C201C0BF0DCFA88237169A3
:1022A000041CF8580BF0EDFA4B46B1698046F8581B
:1022B0000BF0E7FA011C40460BF0CCFA011C201C85
:1022C0000BF0C8FA7168041CB86A0BF0DAFAB1684E
:1022D0008046386C0BF0D5FA011C40460BF0BAFA78
:1022E0003168804638690BF0CCFA011C40460BF08F
:1022F000B1FA011C201C0BF0ADFA2861F168F86DF1
:102300000BF0BFFA3169041C786F0BF0BAFA011CAC
:10231000201C0BF09FFA8C237169041CF8580BF0F9
:10232000B0FAA423B1698046F8580BF0AAFA011C50
:1023300040460BF08FFA011C201C0BF08BFA7168E1
:10234000041CF86A0BF09DFAB1688046786C0BF0BB
:1023500098FA011C40460BF07DFA31688046786996
:102360000BF08FFA011C40460BF074FA011C201C84
:102370000BF070FA019B1C3668611835B34200D02F
:102380008DE62022029B914654469A46039D08946E
:10239000A944079554464D4632AA049B0D9E0592CA
:1023A00014AA389606920993A06C2368814601937B
:1023B000206E059B8046216B01CBA269039104909E
:1023C000B16C4846029205930BF05BFA316E82467F
:1023D00040460BF056FA011C50460BF03BFAA76F33
:1023E0008246B16F381C0BF04CFA90238346F158AB
:1023F00004980BF046FA011C58460BF02BFA011C0E
:1024000050460BF027FAB169824602980BF039FA70
:10241000316B834603980BF034FA011C58460BF0DD
:1024200019FA3168834601980BF02BFA011C5846C3
:102430000BF010FA011C50460BF00CFA2860F16CFE
:1024400048460BF01EFA716E824640460BF019FAB0
:10245000011C50460BF0FEF9F16F8246381C0BF060
:1024600010FA94238346F15804980BF00AFA011CE1
:1024700058460BF0EFF9011C50460BF0EBF9F169EF
:10248000824602980BF0FDF9716B834603980BF0BE
:10249000F8F9011C58460BF0DDF971688346019884
:1024A0000BF0EFF9011C58460BF0D4F9011C504613
:1024B0000BF0D0F96860316D48460BF0E2F9B16E6F
:1024C000824640460BF0DDF9011C50460BF0C2F984
:1024D00080238246F158381C0BF0D3F998238346A9
:1024E000F15804980BF0CDF9011C58460BF0B2F9E5
:1024F000011C50460BF0AEF9316A824602980BF08F
:10250000C0F9B16B834603980BF0BBF9011C584628
:102510000BF0A0F9B168834601980BF0B2F9011CE9
:1025200058460BF097F9011C50460BF093F9A86040
:10253000716D48460BF0A5F9F16E824640460BF0EE
:10254000A0F9011C50460BF085F984238246F1580E
:10255000381C0BF096F99C238346F15804980BF035
:1025600090F9011C58460BF075F9011C50460BF010
:1025700071F9716A824602980BF083F9F16B834618
:1025800003980BF07EF9011C58460BF063F9F168D3
:10259000834601980BF075F9011C58460BF05AF967
:1025A000011C50460BF056F9E860B16D48460BF03F
:1025B00068F9316F824640460BF063F9011C5046C2
:1025C0000BF048F988238246F158381C0BF059F972
:1025D000A0238346F15804980BF053F9011C584688
:1025E0000BF038F9011C50460BF034F9B16A824601
:1025F00002980BF046F9316C834603980BF041F9D1
:10260000011C58460BF026F93169834601980BF0FE
:1026100038F9011C58460BF01DF9011C50460BF00F
:1026200019F92861F16D48460BF02BF9716F81465D
:1026300040460BF026F9011C48460BF00BF98C23A1
:102640008046F158381C0BF01CF9A423071CF158E4
:1026500004989B460BF015F9011C381C0BF0FAF896
:10266000011C40460BF0F6F8F16A071C02980BF0CB
:1026700008F9716C804603980BF003F9011C404681
:102680000BF0E8F87169804601980BF0FAF8011C2C
:1026900040460BF0DFF8011C381C0BF0DBF8069B02
:1026A0000434686118359C4200D07DE6099B079D83
:1026B000DE68296A30680BF0CDF8089CA96B2060B1
:1026C00070680BF0C7F86060B068296D0BF0C2F855
:1026D000A060F068A96E0BF0BDF88027E06030695B
:1026E000E9590BF0B7F898232061E95870690BF0AD
:1026F000B1F86061B069696A0BF0ACF8A061F0698B
:10270000E96B0BF0A7F8E061306A696D0BF0A2F895
:102710002062E96E706A0BF09DF884236062E958CC
:10272000B06A0BF097F89C22A062F06AA9580BF0EF
:1027300091F8E062306BA96A0BF08CF82063706B43
:10274000296C0BF087F86063B06BA96D0BF082F811
:10275000A063F06B296F0BF07DF88822E063A95825
:10276000306C0BF077F8A0212064706C69580BF086
:1027700071F86064E96AB06C0BF06CF8A064696C85
:10278000F06C0BF067F8E064306DE96D0BF062F807
:102790002065716D686F0BF05DF860658C20B16D20
:1027A00028580BF057F85B46A065F16DE8580BF020
:1027B00051F8E065316E286B0BF04CF82066716EB5
:1027C000A86C0BF047F86066B16E286E0BF042F80B
:1027D000A066F16EA86F0BF03DF89023E066316FB4
:1027E000E8580BF037F8A8232067716FE8580BF012
:1027F00031F86067B16F686B0BF02CF8A067F16F70
:10280000E86C0BF027F8E067F159686E0BF022F8DE
:10281000E0510437F159E86F0BF01CF89423E051B4
:102820000437F159E8580BF015F8AC23E0510437A0
:10283000F159E8580BF00EF8E0516FB0F0BCBB4610
:10284000B246A946A046F0BDF0B5DE4657464E4614
:1028500045460400E0B5006961694000490089B05F
:10286000490840080AF0F6FFE168490049080AF003
:10287000F1FF6368A1685B004900051C490858081E
:102880000AF0E8FF2168490049080AF0E3FF011C4B
:10289000281C0AF0DFFFE16A051CA06A490040001D
:1028A000490840080AF0D6FF616A490049080AF061
:1028B000D1FF216A061CE069490040004908400830
:1028C0000AF0C8FFA169490049080AF0C3FF011CCA
:1028D000301C0AF0BFFF616C061C206C49004000F0
:1028E000490840080AF0B6FFE16B490049080AF0C0
:1028F000B1FFA16B071C606B49004000490840080C
:102900000AF0A8FF216B490049080AF0A3FF011C47
:10291000381C0AF09FFF071C011C301C0AF0E8FF5E
:10292000002800D03E1C311C281C0AF0E1FF0028C2
:1029300000D0351CA06DE16D4000490049084008F9
:102940000AF088FF616D490049080AF083FF216D94
:10295000061CE06C49004000490840080AF07AFF74
:10296000A16C490049080AF075FF011C301C0AF0EF
:1029700071FF616F061C206F490040004908400844
:102980000AF068FFE16E490049080AF063FFA16E92
:10299000071C606E49004000490840080AF05AFFD1
:1029A000216E490049080AF055FF011C381C0AF045
:1029B00051FF8823071CE0580433E15840004900C8
:1029C000490840080AF046FF8423E15849004908B5
:1029D0000AF040FF80238046E158E06F4900400044
:1029E000490840080AF036FFA16F490049080AF07B
:1029F00031FF011C40460AF02DFF8046011C381CA7
:102A00000AF076FF002800D04746391C301C0AF037
:102A10006FFF002800D03E1C311C281C0AF068FF04
:102A2000002800D0351CC0232100E55003AABA3B82
:102A300004A8A83106930494FDF712FF01239B46D6
:102A40005A46C4200025982659469C27039B1340CC
:102A5000013B01321340013B235434382550943557
:102A60006151A2510132E2519D32944661469C3A35
:102A70006250A03291469F3A90464A464146230012
:102A8000A1501832A2589033920099180191096808
:102A90008A46494652466250424601990A60B3321C
:102AA000A2586146920092469A445246615888461E
:102AB0001168894661464A466250424651460A605C
:102AC000B422E159A2588C4692009A181168E1513B
:102AD00061461160B022A258A75992009A18116855
:102AE000A1511760AC22A258665992009A18176833
:102AF00067511660A822A25892009B181D682258A0
:102B000025501A60C5235A46E25409B0F0BCBB46B2
:102B1000B246A946A046F0BDC023002210B5C2505F
:102B200000220433C2520B68040003604B68436008
:102B30008B688360CB68C3600B6903614B69436139
:102B40008B698361CB69C3610B6A03624B6A436221
:102B50008B6A8362CB6AC3620B6B03634B6B436309
:102B60008B6B8363CB6BC3630B6C03644B6C4364F1
:102B70008B6C8364CB6CC3640B6D03654B6D4365D9
:102B80008B6D8365CB6DC3650B6E03664B6E4366C1
:102B90008B6E8366CB6EC3660B6F03674B6F4367A9
:102BA0008B6F8367CB6FC3678023CA58C2500433CF
:102BB000CA58C2500433CA58C2500433CA58C2500B
:102BC000FFF742FE200010BDF0B5DE464E465746E8
:102BD0004546E0B5214C1500A5443B923CAA9446DD
:102BE0000A0030931E4B3A9063441B091E01389132
:102BF0000896D3AB13CA13C313CA13C31268194977
:102C00001A600A68184B3291184931931B68019277
:102C10000A6889460092D3A9154A47A8FFF7C8F861
:102C20003CAA944647ABD393D593124BD4952C0032
:102C300086256344B446ED0065441B682800A2AABB
:102C4000D3A9D693FFF708FA6BAB07934B460995C8
:102C5000350047AF2F970A930EE0C04614F7FFFFE9
:102C60003F03000010220320182203201422032017
:102C70000AE81C41280800003B68B86C03938146B1
:102C8000079B386E396B804601CBBA690793A8233E
:102C90000591E158049206900AF0F3FD8C23BE6F73
:102CA000E1588246301C0AF0ECFD011C50460AF047
:102CB000D1FD216F824640460AF0E3FD616D8346F7
:102CC00048460AF0DEFD011C58460AF0C3FD011C0F
:102CD00050460AF0BFFDA16B824605980AF0D1FD6F
:102CE000E169834604980AF0CCFD011C58460AF0BD
:102CF000B1FD2168834603980AF0C3FD011C5846C4
:102D00000AF0A8FD011C50460AF0A4FDAC2328607F
:102D1000E15806980AF0B5FD90238246E158301C30
:102D20000AF0AFFD011C50460AF094FD616F824627
:102D300040460AF0A6FDA16D834648460AF0A1FD73
:102D4000011C58460AF086FD011C50460AF082FD1F
:102D5000E16B824605980AF094FD216A8346049847
:102D60000AF08FFD011C58460AF074FD6168834625
:102D700003980AF086FD011C58460AF06BFD011C01
:102D800050460AF067FDB0236860E15806980AF0E3
:102D900078FD94238246E158301C0AF072FD011C34
:102DA00050460AF057FDA16F824640460AF069FD81
:102DB000E16D834648460AF064FD011C58460AF05E
:102DC00049FD011C50460AF045FD216C82460598DC
:102DD0000AF057FD616A834604980AF052FD011C0F
:102DE00058460AF037FDA168834603980AF049FD6A
:102DF000011C58460AF02EFD011C50460AF02AFD1F
:102E0000B423A860E15806980AF03BFD9823824657
:102E1000E158301C0AF035FD011C50460AF01AFD3D
:102E2000E16F824640460AF02CFD216E83464846FB
:102E30000AF027FD011C58460AF00CFD011C504603
:102E40000AF008FD616C824605980AF01AFDA16A35
:102E5000834604980AF015FD011C58460AF0FAFC56
:102E6000E168834603980AF00CFD011C58460AF0FD
:102E7000F1FC011C50460AF0EDFCB823E860E15873
:102E800006980AF0FEFC9C238246E158301C0AF0AA
:102E9000F8FC011C50460AF0DDFC80238246E15814
:102EA00040460AF0EEFC616E834648460AF0E9FCB3
:102EB000011C58460AF0CEFC011C50460AF0CAFC20
:102EC000A16C824605980AF0DCFCE16A834604980E
:102ED0000AF0D7FC011C58460AF0BCFC2169834665
:102EE00003980AF0CEFC011C58460AF0B3FC011C02
:102EF00050460AF0AFFCBC232861E15806980AF05E
:102F0000C0FCA0238246E158301C0AF0BAFC011C28
:102F100050460AF09FFC84238246E15840460AF05E
:102F2000B0FCA16E834648460AF0ABFC011C584633
:102F30000AF090FC011C50460AF08CFCE16C8246C1
:102F400005980AF09EFC216B834604980AF099FCD0
:102F5000011C58460AF07EFC6169834603980AF01A
:102F600090FC011C58460AF075FC011C50460AF002
:102F700071FCE16E686148460AF083FC8823814653
:102F8000E15840469B460AF07CFC011C48460AF08A
:102F900061FCA4238046E158301C0AF072FCC02377
:102FA000061CE15806980AF06CFC011C301C0AF063
:102FB00051FC011C40460AF04DFC616B061C049854
:102FC0000AF05FFC216D804605980AF05AFC011C4E
:102FD00040460AF03FFCA169804603980AF051FC84
:102FE000011C40460AF036FC011C301C0AF032FC81
:102FF00004374DABA8611C359F4200D03CE60A9BCC
:10300000089E9946D8239B009C463400099D644441
:1030100029002000FFF780FDA4229200944633008F
:1030200063442100902218009A460AF0A1FEC823AA
:103030009B009C463400D033644431009C461822E7
:10304000614420000AF094FECE239B009C46300091
:10305000D033310060449C46182261440AF088FE57
:10306000D4228421920094463300C9006344320084
:103070008C46624412687A491A60D52292009446BE
:103080003300320063448C4630006244B030128812
:103090008446FE21C9251A800023226889059200F2
:1030A0006244AD0011609361136393641366936788
:1030B000AC463200CA25624484461268AD009200D4
:1030C0006244136091611363936413669367AC4623
:1030D0003200CB25624484461268AD0092006244FF
:1030E000136093611163936413669367AC46320077
:1030F000CC25624484461268AD009200624413609D
:10310000AC46936113639164136693673200CD25D7
:10311000624484461268AD00920062441360936179
:103120001363936411669367AC463200624484462D
:1031300034001268A826920062449167210013604F
:1031400093611363936413660622062376000F00CF
:103150008025A4198C46A260E36006237137AD0078
:103160006544FF37236122008F510891656001009B
:10317000039050469846FEF733F906220623A260D4
:10318000E3604246089B22619F5122006560039CD8
:1031900050462100FDF7EEFF089BD3AF1A68059259
:1031A000DA6906929A6B07925A6D08921A6F099221
:1031B0008C229A580A925A680B921A6A0C92DA6B0D
:1031C0000D929A6D0E925A6F0F9290229A58109209
:1031D0009A6811925A6A12921A6C1392DA6D1492CA
:1031E0009A6F159294229A581692DA6817929A6AF0
:1031F00018925A6C19921A6E1A92DA6F1B929822D0
:103200009A581C921A691D92DA6A1E929A6C1F9241
:103210005A6E209280229A5821929C229A58229289
:103220005A6923921A6B2492DA6C25929A6E26922E
:1032300084229A582792A0229A5828929A69299211
:103240005A6B2A921A6D2B92DA6E2C925A469A5821
:103250002D92A4229B582E934B46339302E0C046F6
:1032600024040000636862699946A3684946984649
:10327000E3680698039304920AF003FB41468246F2
:1032800007980AF0FEFA011C50460AF0E3FA266895
:103290008246311C05980AF0F4FA011C50460AF0E7
:1032A000D9FA25698246291C09980AF0EAFA049994
:1032B00083460A980AF0E5FA011C58460AF0CAFA51
:1032C0000399834608980AF0DCFA011C58460AF074
:1032D000C1FA011C50460AF0BDFA0C993860484604
:1032E0000AF0CFFA0D99824640460AF0CAFA011C4C
:1032F00050460AF0AFFA0B998246301C0AF0C1FA28
:10330000011C50460AF0A6FA0F998246281C0AF0C2
:10331000B8FA1099834604980AF0B3FA011C58468B
:103320000AF098FA0E99834603980AF0AAFA011C4B
:1033300058460AF08FFA011C50460AF08BFA12998F
:10334000786048460AF09DFA1399824640460AF092
:1033500098FA011C50460AF07DFA11998246301CF9
:103360000AF08FFA011C50460AF074FA1599824649
:10337000281C0AF086FA1699834604980AF081FA06
:10338000011C58460AF066FA1499834603980AF01D
:1033900078FA011C58460AF05DFA011C50460AF002
:1033A00059FAB860189948460AF06BFA199982469A
:1033B00040460AF066FA011C50460AF04BFA17998B
:1033C0008246301C0AF05DFA011C50460AF042FAAF
:1033D0001B998246281C0AF054FA1C9983460498CB
:1033E0000AF04FFA011C58460AF034FA1A9983463B
:1033F00003980AF046FA011C58460AF02BFA011C01
:1034000050460AF027FA1E99F86048460AF039FA41
:103410001F99824640460AF034FA011C50460AF0D1
:1034200019FA1D998246301C0AF02BFA011C5046ED
:103430000AF010FA21998246281C0AF022FA2299F1
:10344000834604980AF01DFA011C58460AF002FA55
:103450002099834603980AF014FA011C58460AF092
:10346000F9F9011C50460AF0F5F9249938614846EB
:103470000AF007FA2599824640460AF002FA011C32
:1034800050460AF0E7F923998246301C0AF0F9F910
:10349000011C50460AF0DEF927998246281C0AF0E2
:1034A000F0F92899834604980AF0EBF9011C584674
:1034B0000AF0D0F92699834603980AF0E2F9011C34
:1034C00058460AF0C7F9011C50460AF0C3F92A9978
:1034D000786148460AF0D5F92B99814640460AF0B2
:1034E000D0F9011C48460AF0B5F929998046301CEC
:1034F0000AF0C7F9011C40460AF0ACF92D99061CE8
:10350000281C0AF0BEF92E99051C04980AF0B9F996
:10351000011C281C0AF09EF92C99051C03980AF03E
:10352000B0F9011C281C0AF095F9011C301C0AF0A6
:1035300091F9FDABB8611C3718349F4200D091E679
:10354000339BD49A9946D39BD599D69CD79DD89E28
:10355000D99F05930692DA9BDB9A07910894DC9930
:10356000DD9C09950A96DE9DDF9E0B970C93E09FEC
:10357000E19B0D92E29A0E910F941095119612977D
:1035800013931492E399E49CE59DE69EE79FE89BE4
:10359000E99A15911694EA99EB9C17951896EC9D6B
:1035A000ED9E19971A93EE9FEF9B1B921C91F09A38
:1035B000F1991D94F29C1F962097219322922391BA
:1035C00024941E95F39DF49EF59FF89AF69BF99925
:1035D000FA9C25952696FB9DFC9E2797F79F29929E
:1035E000389A28932E972A912B942C952D96D3AB0D
:1035F00013CA13C313CA13C31268D3AC1A60329927
:10360000319B0A6849461B6801920A6820000092B3
:1036100041A9FE4AFEF726F9309E419930680AF02A
:1036200016F94299834670680AF011F94399824667
:10363000B0680AF00CF944998146F0680AF007F97D
:103640004599041C30690AF002F94699051C706915
:103650000AF0FDF8061C011C381C0AF012F9291C9E
:10366000071C22980AF00DF9011C381C0AF0F2F828
:10367000211C071C1B980AF004F9011C381C0AF0D5
:10368000E9F84946071C14980AF0FBF851468046B1
:103690000D980AF0F6F8011C40460AF0DBF859468E
:1036A000804606980AF0EDF8011C40460AF0D2F870
:1036B000011C381C0AF0CEF8389A51680AF0CAF892
:1036C000311C039029980AF0DCF8291C071C239868
:1036D0000AF0D7F8011C381C0AF0BCF8211C071CA2
:1036E0001C980AF0CEF8011C381C0AF0B3F84946C1
:1036F000071C15980AF0C5F8514680460E980AF046
:10370000C0F8011C40460AF0A5F8594680460798C3
:103710000AF0B7F8011C40460AF09CF8011C381C5E
:103720000AF098F8389A91680AF094F8311C0490DD
:103730002A980AF0A6F8291C071C24980AF0A1F878
:10374000011C381C0AF086F8211C071C1D980AF081
:1037500098F8011C381C0AF07DF84946071C169899
:103760000AF08FF8514680460F980AF08AF8011C3B
:1037700040460AF06FF85946804608980AF081F8EA
:10378000011C40460AF066F8011C381C0AF062F879
:10379000389AD1680AF05EF8311C30902B980AF004
:1037A00070F8291C071C25980AF06BF8011C381CBE
:1037B0000AF050F8211C071C1E980AF062F8011C40
:1037C000381C0AF047F84946071C17980AF059F8C0
:1037D0005146804610980AF054F8011C40460AF001
:1037E00039F85946804609980AF04BF8011C4046C2
:1037F0000AF030F8011C381C0AF02CF8389A1169CC
:103800000AF028F8311C31902C980AF03AF8291C5B
:10381000071C26980AF035F8011C381C0AF01AF823
:10382000211C071C1F980AF02CF8011C381C0AF0F8
:1038300011F84946071C18980AF023F851468046AB
:1038400011980AF01EF8011C40460AF003F8594688
:1038500080460A980AF015F8011C404609F0FAFF64
:10386000011C381C09F0F6FF389A516909F0F2FF83
:103870005146329012980AF004F84946071C1998EC
:1038800009F0FFFF011C381C09F0E4FF5946071C32
:103890000B9809F0F6FF011C381C09F0DBFF291C0E
:1038A000071C279809F0EDFF311C80462D9809F080
:1038B000E8FF011C404609F0CDFF211C80462098FE
:1038C00009F0DFFF011C404609F0C4FF011C381C51
:1038D00009F0C0FF389A916909F0BCFF311C071C40
:1038E000289809F0CEFF291C061C219809F0C9FF71
:1038F000011C301C09F0AEFF211C051C1A9809F0B0
:10390000C0FF011C281C09F0A5FF4946041C1398A0
:1039100009F0B7FF5146051C0C9809F0B2FF011CD5
:10392000281C09F097FF5946051C059809F0A9FFC6
:10393000011C281C09F08EFF011C201C09F08AFFC5
:10394000389AD3AC116809F085FF3A9B1860039A46
:103950009F615A60049A9A60309ADA60319A1A61CB
:10396000329A5A613B9A1368A2935368A39393685F
:10397000A493D368A5931369A6935369A7939369F6
:10398000A893D369A993136AAA93536AAB93936AD2
:10399000AC93D36AAD93136BAE93536BAF93936BAE
:1039A000B093D36BB193136CB293536CB393936C8A
:1039B000B493D36CB593136DB693536DB793936D66
:1039C000B893D36DB993136EBA93536EBB93936E42
:1039D000BC93D36EBD93136FBE93536FBF93936F1E
:1039E000C093D36FC1938023D358C2938423D358F9
:1039F000C3938823D358C4938C23D358C59390235F
:103A0000D358C6939423D358C79301E00AE81C41C6
:103A10009823D358C8939C23D358C993A023D35831
:103A2000CA93A423D358CB93A823D3582F9DCC93C8
:103A3000AC23D358CD93B023D358CE93B423D358CB
:103A4000CF93B823D358D093BC23D358D193C0235A
:103A5000D358D2936B686A699946AB6849469846D1
:103A6000EB680C980393049209F00BFF41468246E1
:103A7000139809F006FF011C504609F0EBFE2F6871
:103A80008246391C059809F0FCFE011C504609F0DD
:103A9000E1FE2E698246311C219809F0F2FE04995C
:103AA0008346289809F0EDFE011C584609F0D2FE25
:103AB000039983461A9809F0E4FE011C584609F060
:103AC000C9FE011C504609F0C5FE494620600D980C
:103AD00009F0D7FE41468246149809F0D2FE011C37
:103AE000504609F0B7FE391C8246069809F0C9FE17
:103AF000011C504609F0AEFE311C8246229809F0A6
:103B0000C0FE049983462E9809F0BBFE011C58465E
:103B100009F0A0FE039983461B9809F0B2FE011C30
:103B2000584609F097FE011C504609F093FE49469D
:103B300060600E9809F0A5FE41468246159809F08E
:103B4000A0FE011C504609F085FE391C82460798EC
:103B500009F097FE011C504609F07CFE311C82469C
:103B6000239809F08EFE04998346299809F089FE6E
:103B7000011C584609F06EFE039983461C9809F013
:103B800080FE011C584609F065FE011C504609F0F4
:103B900061FE4946A0600F9809F073FE41468246D7
:103BA000169809F06EFE011C504609F053FE391CB0
:103BB0008246089809F065FE011C504609F04AFE4D
:103BC000311C8246249809F05CFE049983462A98A9
:103BD00009F057FE011C584609F03CFE0399834644
:103BE0001D9809F04EFE011C584609F033FE011CD9
:103BF000504609F02FFE4946E060109809F041FE5A
:103C000041468246179809F03CFE011C504609F0D7
:103C100021FE391C8246099809F033FE011C5046EA
:103C200009F018FE311C8246259809F02AFE0499F5
:103C300083462B9809F025FE011C584609F00AFE20
:103C4000039983461E9809F01CFE011C584609F092
:103C500001FE011C504609F0FDFD49462061119806
:103C600009F00FFE41468246189809F00AFE011C31
:103C7000504609F0EFFD391C82460A9809F001FE12
:103C8000011C504609F0E6FD311C8246269809F0D9
:103C9000F8FD049983462C9809F0F3FD011C584661
:103CA00009F0D8FD039983461F9809F0EAFD011C2D
:103CB000584609F0CFFD011C504609F0CBFD49469E
:103CC0006061129809F0DDFD41468146199809F0BE
:103CD000D8FD011C484609F0BDFD391C80460B98F3
:103CE00009F0CFFD011C404609F0B4FD311C071C52
:103CF000279809F0C6FD0499061C2D9809F0C1FD0E
:103D0000011C301C09F0A6FD0399061C209809F03F
:103D1000B8FD011C301C09F09DFD011C381C09F088
:103D200099FDFFABA06114331C341835A34200D0B9
:103D300090E63B9CA2AF2300C4330693D39B3994F7
:103D40003793DA9B3693E19B3593E89B3493EF9B53
:103D50003393F69B3293FD9B3193D49B3093DB9B43
:103D60002F93E29B2E93E99B2D93F09B2C93F79B33
:103D70002B93FE9B2A93D59B2993DC9B2893E39B53
:103D80002793EA9B2693F19B2593F89B2493FF9B13
:103D90002393D69B2293DD9B2193E49B2093EB9B63
:103DA0001F93F29B1E93F99B1D93FFAB04331B687B
:103DB0001C93D79B1B93DE9B1A93E59B1993EC9B5B
:103DC0001893F39B1793FA9B1693FFAB08331B686A
:103DD0001593D89B1493DF9B1393E69B1293ED9B53
:103DE0001193F49B1093FB9B0F93FFAB0C331B6859
:103DF0000E93D99B0793E09B0893E79B0993EE9B57
:103E00000A93F59B0B93FC9B0C93FFAB10331B6841
:103E10000D93E068A5698146A168206923686268FE
:103E200080460591281C31990393049209F029FDDD
:103E3000666982463299301C09F023FD011C504608
:103E400009F008FD33998246404609F01AFD34997D
:103E50008346484609F015FD011C584609F0FAFC56
:103E6000011C504609F0F6FC35998246059809F088
:103E700008FD36998346049809F003FD011C584655
:103E800009F0E8FC37998346039809F0FAFC011C15
:103E9000584609F0DFFC011C504609F0DBFC011C10
:103EA000386809F0D4FC38602A99281C09F0E9FC2C
:103EB0002B998246301C09F0E4FC011C504609F0A5
:103EC000C9FC2C998246404609F0DBFC2D998346BB
:103ED000484609F0D6FC011C584609F0BBFC011C01
:103EE000504609F0B7FC2E998246059809F0C9FCA6
:103EF0002F998346049809F0C4FC011C584609F028
:103F0000A9FC30998346039809F0BBFC011C584674
:103F100009F0A0FC011C504609F09CFC011C7868CB
:103F200009F095FC23997860281C09F0AAFC2499D3
:103F30008246301C09F0A5FC011C504609F08AFCA1
:103F400025998246404609F09CFC269983464846BE
:103F500009F097FC011C584609F07CFC011C5046F6
:103F600009F078FC27998246059809F08AFC28997F
:103F70008346049809F085FC011C584609F06AFC48
:103F800029998346039809F07CFC011C584609F0E6
:103F900061FC011C504609F05DFC011CB86809F089
:103FA00056FC1C99B860281C09F06BFC1D998246D0
:103FB000301C09F066FC011C504609F04BFC1E99B0
:103FC0008246404609F05DFC1F998346484609F049
:103FD00058FC011C584609F03DFC011C504609F0F4
:103FE00039FC20998246059809F04BFC21998346BB
:103FF000049809F046FC011C584609F02BFC229954
:104000008346039809F03DFC011C584609F022FC48
:10401000011C504609F01EFC011CF86809F017FC51
:104020001599F860281C09F02CFC16998246301C62
:1040300009F027FC011C504609F00CFC1799824638
:10404000404609F01EFC18998346484609F019FCC1
:10405000011C584609F0FEFB011C504609F0FAFB12
:1040600019998246059809F00CFC1A998346049820
:1040700009F007FC011C584609F0ECFB1B9983462C
:10408000039809F0FEFB011C584609F0E3FB011CF4
:10409000504609F0DFFB011C386909F0D8FB0E9986
:1040A0003861281C09F0EDFB0F998246301C09F09D
:1040B000E8FB011C504609F0CDFB109982464046B2
:1040C00009F0DFFB11998346484609F0DAFB011C31
:1040D000584609F0BFFB011C504609F0BBFB129982
:1040E0008246059809F0CDFB13998346049809F0A0
:1040F000C8FB011C584609F0ADFB14998346039890
:1041000009F0BFFB011C584609F0A4FB011C5046F6
:1041100009F0A0FB011C786909F099FB4946786118
:104120000A9809F0AEFB414681460B9809F0A9FBBD
:10413000011C484609F08EFB311C80460C9809F0A2
:10414000A0FB291C061C0D9809F09BFB011C301CD0
:1041500009F080FB011C404609F07CFB0499051C1A
:10416000089809F08EFB0599061C099809F089FB4F
:10417000011C301C09F06EFB0399061C079809F01E
:1041800080FB011C301C09F065FB011C281C09F098
:1041900061FB011CB86909F05AFB069B1C34B8612D
:1041A0001C379C4200D034E63B99A29B0B60A39B3A
:1041B0004B60A49B8B60A59BCB60A69B0B61A79BD0
:1041C0004B61A89B8B61A99BCB61AA9B0B62AB9BAC
:1041D0004B62AC9B8B62AD9BCB62AE9B0B63AF9B88
:1041E0004B63B09B8B63B19BCB63B29B0B64B39B64
:1041F0004B64B49B8B64B59BCB64B69B0B65B79B40
:104200004B65B89B8B65B99BCB65BA9B0B66BB9B1B
:104210004B66BC9B8B66BD9BCB66BE9B0B67BF9BF7
:104220004B67C09B8B67C19BCB678023C29ACA50E8
:10423000C39A0433CA50C49A0433CA50C59A04338B
:10424000CA50C69A0433CA50C79A0433CA50C89A8F
:104250000433CA50C99A0433CA50CA9A0433CA50A4
:10426000CB9A0433CA50CC9A0433CA50CD9A043343
:10427000CA50CE9A0433CA50CF9A0433CA50D09A47
:104280000433CA50D19A0433CA50D29A0433CA5064
:104290003CAA822394461B0163441B68A2AA13CB49
:1042A00013C283231B0163441B68D3AC07CB07C431
:1042B000389B3A9D0093484B28006344A2A91B6891
:1042C000D3AAFDF7AFF92B00D3AA23CB23C223CB6C
:1042D00023C21B683CA9136082238C463EAA1100AE
:1042E0001B0163441B6831CB31C183231B01634431
:1042F0001B68A2A931CB31C1374BD3A963441B68DA
:1043000071A80093A2ABFDF7F1FBD3AB3C93719B7B
:10431000D3AC0F93789B07937F9B3793869B369301
:104320008D9B3593949B34939B9B3393729B3293D9
:10433000799B3193809B3093879B2F938E9B2E93F9
:10434000959B2D939C9B2C93739B2B937A9B2A93E9
:10435000819B2993889B28938F9B2793969B2693D9
:104360009D9B2593749B24937B9B2393829B2293F9
:10437000899B2193909B2093979B1F939E9B1E93B9
:10438000759B1D937C9B1C93839B1B938A9B1A9309
:10439000919B1993989B18939F9B1793769B1693C9
:1043A0007D9B1593849B14938B9B1393929B1293E9
:1043B000999B1193A09B1093779B08937E9B0993E5
:1043C000859B0A938C9B0B93939B0C939A9B0D93C9
:1043D000A19B399D0E9301E034080000E9682B6829
:1043E00089462969AA688846A9690393081C3399F4
:1043F0000492059009F045FA6F6982463499381C99
:1044000009F03FFA011C504609F024FA359982461A
:10441000404609F036FA36998346484609F031FAA3
:10442000011C584609F016FA011C504609F012FA10
:1044300037998246049809F024FA6E688346311C45
:10444000079809F01EFA011C584609F003FA0F9963
:104450008346039809F015FA011C584609F0FAF949
:10446000011C504609F0F6F92C992060059809F0D6
:1044700008FA2D998246381C09F003FA011C5046AF
:1044800009F0E8F92E998246404609F0FAF92F9989
:104490008346484609F0F5F9011C584609F0DAF957
:1044A000011C504609F0D6F930998246049809F06B
:1044B000E8F931998346301C09F0E3F9011C5846AC
:1044C00009F0C8F932998346039809F0DAF9011C1A
:1044D000584609F0BFF9011C504609F0BBF925996F
:1044E0006060059809F0CDF926998246381C09F0DC
:1044F000C8F9011C504609F0ADF92799824640469B
:1045000009F0BFF928998346484609F0BAF9011C19
:10451000584609F09FF9011C504609F09BF929996A
:104520008246049809F0ADF92A998346301C09F0B7
:10453000A8F9011C584609F08DF92B998346039878
:1045400009F09FF9011C584609F084F9011C5046F6
:1045500009F080F91E99A060059809F092F91F9959
:104560008246381C09F08DF9011C504609F072F999
:1045700020998246404609F084F9219983464846AD
:1045800009F07FF9011C584609F064F9011C5046F6
:1045900009F060F922998246049809F072F923998A
:1045A0008346301C09F06DF9011C584609F052F998
:1045B00024998346039809F064F9011C584609F0D0
:1045C00049F9011C504609F045F91799E060059832
:1045D00009F057F918998246381C09F052F9011C64
:1045E000504609F037F919998246404609F049F9D1
:1045F0001A998346484609F044F9011C584609F0C7
:1046000029F9011C504609F025F91B9982460498A6
:1046100009F037F91C998346301C09F032F9011C66
:10462000584609F017F91D998346039809F029F9AE
:10463000011C584609F00EF9011C504609F00AF910
:1046400010992061059809F01CF911998246381CCF
:1046500009F017F9011C504609F0FCF8129982463E
:10466000404609F00EF913998346484609F009F9C6
:10467000011C584609F0EEF8011C504609F0EAF812
:1046800014998246049809F0FCF815998346301C69
:1046900009F0F7F8011C584609F0DCF81699834632
:1046A000039809F0EEF8011C584609F0D3F8011CF4
:1046B000504609F0CFF8494660610B9809F0E1F8DF
:1046C000414681460C9809F0DCF8011C484609F087
:1046D000C1F8391C80460D9809F0D3F80599071CDC
:1046E0000E9809F0CEF8011C381C09F0B3F8011C33
:1046F000404609F0AFF8311C071C099809F0C1F8D1
:104700000499061C0A9809F0BCF8011C301C09F039
:10471000A1F80399061C089809F0B3F8011C301C95
:1047200009F098F8011C381C09F094F8069B1C3518
:10473000A0611C349D4200D050E6F6ABA2AD0693BA
:104740003C9CDAAB3D953993626DA36B9146039324
:10475000069B226FD96990461A684846059136999A
:10476000049209F08EF835998246404609F089F89E
:10477000011C504609F06EF834998246049809F0FD
:1047800080F833998346059809F07BF8011C584658
:1047900009F060F8011C504609F05CF8E7698246B0
:1047A000391C079809F06DF837998346039809F08A
:1047B00068F8011C584609F04DF826688346311CFC
:1047C0000F9809F05EF8011C584609F043F8011CE7
:1047D000504609F03FF828602F99484609F051F8F3
:1047E0002E998246404609F04CF8011C504609F0CB
:1047F00031F82D998246049809F043F82C998346A4
:10480000059809F03EF8011C584609F023F8011CF0
:10481000504609F01FF831998246381C09F031F8EA
:1048200030998346039809F02CF8011C584609F08A
:1048300011F832998346301C09F023F8011C5846C0
:1048400009F008F8011C504609F004F8289968603E
:10485000484609F016F827998246404609F011F8B3
:10486000011C504608F0F6FF26998246049809F08C
:1048700008F825998346059809F003F8011C584665
:1048800008F0E8FF011C504608F0E4FF2A99824630
:10489000381C08F0F6FF29998346039808F0F1FFC9
:1048A000011C584608F0D6FF2B998346301C08F0AF
:1048B000E8FF011C584608F0CDFF011C504608F0E7
:1048C000C9FF2199A860484608F0DBFF209982467D
:1048D000404608F0D6FF011C504608F0BBFF1F9968
:1048E0008246049808F0CDFF1E998346059808F08B
:1048F000C8FF011C584608F0ADFF011C504608F0E7
:10490000A9FF23998246381C08F0BBFF22998346F1
:10491000039808F0B6FF011C584608F09BFF249945
:104920008346301C08F0ADFF011C584608F092FF8A
:10493000011C504608F08EFF1A99E860484608F0BE
:10494000A0FF19998246404608F09BFF011C504683
:1049500008F080FF18998246049808F092FF179992
:104960008346059808F08DFF011C584608F072FF39
:10497000011C504608F06EFF1C998246381C08F056
:1049800080FF1B998346039808F07BFF011C584663
:1049900008F060FF1D998346301C08F072FF011C6F
:1049A000584608F057FF011C504608F053FF139972
:1049B0002861484608F065FF12998246404608F093
:1049C00060FF011C504608F045FF1199824604988B
:1049D00008F057FF10998346059808F052FF011C14
:1049E000584608F037FF011C504608F033FF159970
:1049F0008246381C08F045FF14998346039808F056
:104A000040FF011C584608F025FF16998346301CCC
:104A100008F037FF011C584608F01CFF011C5046E7
:104A200008F018FF494668610B9808F02AFF4146D4
:104A300081460C9808F025FF011C484608F00AFF43
:104A4000049980460D9808F01CFF059981460E9840
:104A500008F017FF011C484608F0FCFE011C404608
:104A600008F0F8FE391C8046099808F00AFF0399FF
:104A7000071C0A9808F005FF011C381C08F0EAFE24
:104A8000311C071C089808F0FCFE011C381C08F0BB
:104A9000E1FE011C404608F0DDFE069B04340433B1
:104AA0000693399BA8611C359C4200D04CE63CAA79
:104AB0009446744B734A63441B6862441B681268D3
:104AC0000693704BD3AD63441B68DB6907936D4B52
:104AD00063441B689B6B08936A4B63441B685B6D64
:104AE0000993684B63441B681B6F0A938C23D3584C
:104AF000644A0B93634B624463441B685B680C938A
:104B0000604B63441B681B6A0D935E4B63441B68D8
:104B1000DB6B0E935B4B63441B689B6D0F93594B90
:104B200063441B685B6F109390231268D358554AF7
:104B30001193544B624463441B6812689B68129340
:104B4000504B63441B685B6A13934E4B63441B6872
:104B50001B6C14934B4B63441B68DB6D1593494BE3
:104B600063441B689B6F16939423D358454A17934D
:104B7000444B624463441B68DB681893414B6344B5
:104B80001B689B6A19933F4B63441B685B6C1A93C9
:104B90003C4B63441B681B6E1B933A4B1268634487
:104BA0001B68DB6F1C939823D358364A1D93354BF3
:104BB000624463441B6812681B691E93314B634453
:104BC0001B68DB6A1F932F4B63441B689B6C20930D
:104BD0002C4B63441B685B6E21938023D358294A76
:104BE00022939C2362441268D358264A2393254B70
:104BF000624463441B685B692493224B63441B68D3
:104C00001B6B25931F4B63441B68DB6C26931D4B6A
:104C1000126863441B689B6E27938423D358194AF8
:104C20002893A02362441268D358164A2993154B3F
:104C3000624463441B6812689B692A93114B634466
:104C40001B685B6B2B930F4B63441B681B6D2C9392
:104C50000C4B63441B68DB6E2D938823D358094AA1
:104C60002E93A42362441268D3582F93064B6344B7
:104C70001F68D3AB319390239C46BC446346059395
:104C800004E0C0462C080000240800007B687A6914
:104C90009946BB6849469846FB6807980393049277
:104CA00008F0EFFD41468246089808F0EAFD011C35
:104CB000504608F0CFFD3E688246311C069808F049
:104CC000E0FD011C504608F0C5FD3C698246211CF0
:104CD0000A9808F0D6FD049983460B9808F0D1FD98
:104CE000011C584608F0B6FD03998346099808F060
:104CF000C8FD011C584608F0ADFD011C504608F0E7
:104D0000A9FD0D992860484608F0BBFD0E99824622
:104D1000404608F0B6FD011C504608F09BFD0C997A
:104D20008246301C08F0ADFD011C504608F092FD93
:104D300010998246201C08F0A4FD1199834604981E
:104D400008F09FFD011C584608F084FD0F9983462A
:104D5000039808F096FD011C584608F07BFD011CE5
:104D6000504608F077FD13996860484608F089FDC1
:104D700014998246404608F084FD011C504608F014
:104D800069FD12998246301C08F07BFD011C5046DB
:104D900008F060FD16998246201C08F072FD1799F4
:104DA0008346049808F06DFD011C584608F052FD3A
:104DB00015998346039808F064FD011C584608F0D5
:104DC00049FD011C504608F045FDA8601999484668
:104DD00008F057FD1A998246404608F052FD011C22
:104DE000504608F037FD18998246301C08F049FDFE
:104DF000011C504608F02EFD1C998246201C08F02C
:104E000040FD1D998346049808F03BFD011C58465F
:104E100008F020FD1B998346039808F032FD011C21
:104E2000584608F017FD011C504608F013FD1F9965
:104E3000E860484608F025FD20998246404608F083
:104E400020FD011C504608F005FD1E998246301CCD
:104E500008F017FD011C504608F0FCFC2299824620
:104E6000201C08F00EFD23998346049808F009FDE4
:104E7000011C584608F0EEFC21998346039808F07F
:104E800000FD011C584608F0E5FC011C504608F0E6
:104E9000E1FC25992861484608F0F3FC26998246F2
:104EA000404608F0EEFC011C504608F0D3FC249963
:104EB0008246301C08F0E5FC011C504608F0CAFC94
:104EC00028998246201C08F0DCFC29998346049826
:104ED00008F0D7FC011C584608F0BCFC2799834613
:104EE000039808F0CEFC011C584608F0B3FC011CE6
:104EF000504608F0AFFC2B996861484608F0C1FCA9
:104F00002C998146404608F0BCFC011C484608F03C
:104F1000A1FC2A998046301C08F0B3FC011C4046D5
:104F200008F098FC2E99061C201C08F0AAFC2F996A
:104F3000041C049808F0A5FC011C201C08F08AFC45
:104F40002D99041C039808F09CFC011C201C08F0FF
:104F500081FC011C301C08F07DFC059B1837A86102
:104F60001C35BB4200D091E6F6AB05933D9CDAAB15
:104F7000319D3093EB6907999946AB6B484698464B
:104F80006B6D2F680493059B2E6F04CB0435039241
:104F9000059308F076FC08998246404608F071FCBB
:104FA000011C504608F056FC06998246381C08F051
:104FB00068FC011C504608F04DFC0A998246301CE2
:104FC00008F05FFC0B998346039808F05AFC011C1B
:104FD000584608F03FFC09998346049808F051FCB4
:104FE000011C584608F036FC011C504608F032FC03
:104FF000011C206808F02EFC0E992060404608F045
:1050000040FC0D998246484608F03BFC011C504686
:1050100008F020FC0C998246381C08F032FC011C78
:10502000504608F017FC10998246301C08F029FC05
:1050300011998346039808F024FC011C584608F097
:1050400009FC0F998346049808F01BFC011C584684
:1050500008F000FC011C504608F0FCFB011C6068D5
:1050600008F0F8FB13996060484608F00AFC1499B0
:105070008246404608F005FC011C504608F0EAFB59
:1050800012998246381C08F0FCFB011C504608F0BF
:10509000E1FB16998246301C08F0F3FB1799834612
:1050A000039808F0EEFB011C584608F0D3FB159955
:1050B0008346049808F0E5FB011C584608F0CAFB3B
:1050C000011C504608F0C6FB011CA06808F0C2FB9A
:1050D0001999A060484608F0D4FB1A9982464046C8
:1050E00008F0CFFB011C504608F0B4FB189982462B
:1050F000381C08F0C6FB011C504608F0ABFB1C999D
:105100008246301C08F0BDFB1D998346039808F0C9
:10511000B8FB011C584608F09DFB1B998346049878
:1051200008F0AFFB011C584608F094FB011C5046E8
:1051300008F090FB011CE06808F08CFB1F99E06010
:10514000484608F09EFB20998246404608F099FBAD
:10515000011C504608F07EFB1E998246381C08F060
:1051600090FB011C504608F075FB22998246301CCA
:1051700008F087FB23998346039808F082FB011C03
:10518000584608F067FB21998346049808F079FB9C
:10519000011C584608F05EFB011C504608F05AFB03
:1051A000011C206908F056FB25992061484608F04B
:1051B00068FB26998246404608F063FB011C504676
:1051C00008F048FB24998246381C08F05AFB011C61
:1051D000504608F03FFB28998246301C08F051FBEE
:1051E00029998346039808F04CFB011C584608F0A7
:1051F00031FB27998346049808F043FB011C58466D
:1052000008F028FB011C504608F024FB011C6069D3
:1052100008F020FB2B996061484608F032FB2C997E
:105220008146404608F02DFB011C484608F012FB61
:105230002A998046381C08F024FB011C404608F0DF
:1052400009FB2E99071C301C08F01BFB2F99061C2C
:10525000039808F016FB011C301C08F0FBFA2D998E
:10526000061C049808F00DFB011C301C08F0F2FA33
:10527000011C381C08F0EEFA011CA06908F0EAFADB
:10528000309BA0611C349D4200D073E63B99A29BE9
:105290000B60A99B4B60B09B8B60B79BCB60BE9BA8
:1052A0000B61C59B4B61CC9B8B61A39BCB61AA9B84
:1052B0000B62B19B4B62B89B8B62BF9BCB62C69B60
:1052C0000B63CD9B4B63A49B8B63AB9BCB63B29B6C
:1052D0000B64B99B4B64C09B8B64C79BCB64CE9B18
:1052E0000B65A59B4B65AC9B8B65B39BCB65BA9B54
:1052F0000B66C19B4B66C89B8B66CF9BCB66A69B00
:105300000B67AD9B4B67B49B8B67BB9BCB678023C5
:10531000C29ACA50C99A0433CA50D09A0433CA50A8
:10532000A79A0433CA50AE9A0433CA50B59A0433CC
:10533000CA50BC9A0433CA50C39A0433CA50CA9A9A
:105340000433CA50D19A0433CA50A89A0433CA50BD
:10535000AF9A0433CA50B69A0433CA50BD9A043384
:10536000CA50C49A0433CA50CB9A0433CA50D29A52
:105370000433CA503A9B1A685F68111C101C90468F
:105380009E68DD6808F07DFA391C041C381C08F0A2
:1053900078FA011C201C08F05DFA311C041C301C3A
:1053A00008F06FFA011C201C08F054FA291C041C98
:1053B000281C08F066FA011C201C08F04BFA08F0C3
:1053C000EFFA041C011C404608F047FA3A9B211CE6
:1053D0001860381C08F041FA3A9F211C7860301C94
:1053E00008F03BFA211CB860281C08F036FA389BFC
:1053F000F8601A685F68111C101C90469E68DD6892
:1054000008F03FFA391C041C381C08F03AFA011C59
:10541000201C08F01FFA311C041C301C08F031FA63
:10542000011C201C08F016FA291C041C281C08F07A
:1054300028FA011C201C08F00DFA08F0B1FA041C2F
:10544000011C404608F009FA389B211C1860381CE2
:1054500008F003FA389F211C7860301C08F0FDF931
:10546000211CB860281C08F0F8F9F8600020044BF3
:105470009D44F0BCBB46B246A946A046F0BDC0461E
:10548000EC080000F0B5D6464F464646C0B586B09B
:10549000A14B02AC00941A68A04D02929A88280091
:1054A000A2809B796A46A371072301930023694672
:1054B000D3730DF015F80098A04203D00299013182
:1054C00008F068FC28000DF051F8954E9C2431003E
:1054D0000122944D01C1A400830F43406B439818EF
:1054E000013201C1A242F7D19C23002400200021F7
:1054F0001B01F2508C4D00228C4B9C60DD6000241F
:105500001860596018615961FE201A76884B800531
:105510001C605C609C60DC60864B1C605C609C6016
:10552000DC60854B1C605C60844B1C605C60844B61
:105530001C605C60834B1C605C609C60DC60824B28
:105540001C605C60814D9C60DC60814B29681C6044
:1055500008F083F97F4E804B3060FE201C605C6059
:105560009C60DC607D4B80051C605C607C4B1C603B
:105570005C607C4B1C605C607B4B1C605C609C6076
:10558000DC607A4B1C605C609C60DC60784B1C606B
:105590005C609C60DC60774B29681C605C60764BCB
:1055A000764E1C605C60764B1C605C60754B1C60CA
:1055B0005C609C60DC60744B1C605C609C60DC60C8
:1055C000724B1C6008F049F9714B30601C605C60E4
:1055D0009C60DC606F4B1C605C606F4B1C605C60AF
:1055E0006E4B1C605C606E4B1C605C609C60DC60A1
:1055F0006C4B1C606C4B1C606C4B6D4C1868011C38
:1056000008F03FF96B4B206018686B4C011C08F0E8
:1056100038F96A4B20601C68694B6A4D1868011C98
:1056200008F018F9684B196808F02BF9211C08F0EC
:1056300028F9664B196808F010F9011CFE20800556
:1056400008F005F9624B28601C60624B1E68301C34
:1056500008F0B6F9604B051C301C1F6808F0C2F951
:105660005E4B82461E685E4B391C281C994608F02A
:1056700008F9311C8046504608F003F9011C4046E9
:1056800008F0E8F8211C08F0FCF84B461860554B70
:105690001B689846544B41461B689946534B9A46A3
:1056A00080231B06F81808F0ECF8514B071C19680A
:1056B000301C08F0E6F8011C381C08F0CBF84D4B04
:1056C000071C1968281C08F0DCF8494608F0D9F8CE
:1056D000011C381C08F0BEF8211C08F0D2F8802309
:1056E00052461B0610604946F01808F0CAF8211C03
:1056F00008F0C7F8404F41463860201C08F0C1F858
:10570000291C08F0AAF83D4E306006B0E0BCBA464D
:10571000B146A846F0BDC046AC5501107C3C032004
:10572000843103206589076C0000F03F082B0020BE
:10573000F028002010290020843B03207C3B03201C
:10574000882C03207029002050290020B835002023
:1057500060230320C035002030290020603B032057
:105760002C310320503B032040280020E02800205B
:10577000002900206C3B0320743B0320BC35002033
:10578000802C032060290020402900205C23032076
:1057900020290020583B032024310320483B0320CC
:1057A00030280020AC460320B04603205C210020B6
:1057B00048230320582100204C230320502100209F
:1057C00040210020F02C0320A4230320542100209A
:1057D000F42C03203C2100204821002044210020FB
:1057E000F82C0320B02C0320AC2C0320A04603206F
:1057F000A82C03204C210020A4460320A846032007
:10580000F0B54746CE4680B583B01F006B46D971D0
:105810001600073305008288C046C046C0460124F2
:10582000210091400A00D021090688468A61C046BD
:10583000C046C0460D4A19009146012248460FF065
:10584000C3FD3A00310048460FF0BEFDAB88C046AC
:10585000C046C0469C4043465C61C046C046C04608
:10586000002003B0C0BCB946B046F0BD0000044003
:10587000F0B54746CE4680B583B01F006B460500A5
:10588000D81D40230B4303701600AB88C046C046AA
:10589000C046012422009A401300D02212069046EE
:1058A0009361C046C046C0460D4B010099461800A2
:1058B00001220FF089FD3A00310048460FF084FDC7
:1058C000AB88C046C046C0469C4043465C61C0466B
:1058D000C046C046002003B0C0BCB946B046F0BDCB
:1058E00000000440F0B54746CE4680B583B01F00A7
:1058F0006B4605000800D91D80235B4203430B70F3
:105900001600AB88C046C046C046012422009A401B
:105910001300D022120690469361C046C046C0468E
:105920000D4B0122994618000FF04EFD3B0032004E
:10593000002148460FF0D8FCAB88C046C046C046A0
:105940009C4043465C61C046C046C046002003B050
:10595000C0BCB946B046F0BD00000440F0B54746B3
:10596000CE4680B583B01F006B4605000800D91DE8
:1059700040235B4203430B701600AB88C046C04611
:10598000C046012422009A401300D02212069046FD
:105990009361C046C046C0460D4B0122994618008F
:1059A0000FF012FD3B003200002148460FF09CFC36
:1059B000AB88C046C046C0469C4043465C61C0467A
:1059C000C046C046002003B0C0BCB946B046F0BDDA
:1059D0000000044010B506F089F810BDF0B5D646B9
:1059E0004F464646C0B50C0008A980C990600978AA
:1059F00000688A460AA9097889460BA90978884669
:105A00000CA90E780DA90D781A4911601A49516038
:105A10001A4A9C601A601A4A39005A6004F0ECFF76
:105A20003900206804F0E8FF5046012105F046FAED
:105A30004846012105F042FA0121404605F03EFAB0
:105A4000300005F07DFA280005F07AFA01231900EC
:105A5000D022B140AB40FA2012065162800053625E
:105A60005161536106F042F8E0BCBA46B146A8461F
:105A7000F0BDC04601580010E558001071580010E4
:105A80005D59001010B507F043FF024907F0F9FE19
:105A900010BDC0465A643B3F10B507F039FF0249BC
:105AA00007F0EFFE10BDC04600008C4210B507F0B5
:105AB0002FFF024907F0E5FE10BDC046E17A143F12
:105AC000F0B5040083B001AD0E0001232A001021BF
:105AD00080686768B84700280DD1032218212B7809
