:020000041000EA
:1000000000B5324B212058609868022188439860DF
:10001000D860186158612E4B002199600221596106
:100020000121F02299502B49196001219960352056
:1000300000F044F80222904214D00621196600F024
:1000400034F8196E01211966002018661A6600F04E
:100050002CF8196E196E196E052000F02FF8012189
:100060000842F9D1002199601B49196000215960AB
:100070001A491B48016001219960EB211966A021F2
:10008000196600F012F800219960164914480160C1
:100090000121996001BC002800D000471248134993
:1000A000086003C880F30888084703B5996A0420EC
:1000B0000142FBD001200142F8D103BD02B5186610
:1000C0001866FFF7F2FF186E186E02BD00000240BE
:1000D000000000180000070000035F00212200005C
:1000E000F4000018222000A00001001008ED00E03C
:1000F00000000000000000000000000074B24E7A12
:1001000000200420F7010010CB010010CD010010E9
:10011000C9010010C9010010C9010010C901001077
:10012000C9010010C9010010C9010010CF01001061
:10013000C9010010C9010010D1010010D301001045
:10014000C1010010C1010010C1010010C101001067
:10015000C1010010C1010010C1010010C101001057
:10016000C1010010C1010010C1010010C101001047
:10017000C1010010C1010010C1010010C101001037
:10018000C1010010C1010010C1010010C101001027
:10019000C1010010C1010010C1010010C101001017
:1001A000C1010010C1010010C1010010C101001007
:1001B000C1010010C1010010C1010010C1010010F7
:1001C000EFF30580103800BE00BE00BE00BE00BECA
:1001D00000BE00BEF2EB8871A8850110C885011031
:1001E0003802001090A31AE71E481F49086006C88D
:1001F00081F3088810471D480068002801D019487D
:10020000F3E70DA40ECC002902D000F012F8F9E7B4
:100210001749184A002000E001C19142FCD116495B
:100220008847164988471649884700BEFDE701C937
:1002300001C29A42FBD37047C8850110C00000205C
:10024000342800203CAD01100000042000000420F0
:100250003CAD01100010042000100420000000003C
:10026000704700000000000008ED00E0000000D032
:10027000342800207C480320F9FC001041030010C2
:10028000F1FC0010F8B5C0460448054B10B5834298
:1002900003D0044B002B00D0984710BD3428002019
:1002A000342800200000000006480749091A8B1076
:1002B000C90FC91810B5491003D0044B002B00D04A
:1002C000984710BD3428002034280020000000008A
:1002D00010B5074C2378002B09D1FFF7D5FF054B4C
:1002E000002B02D0044800E000BF0123237010BDA2
:1002F000D02D00200000000050680110054B10B503
:10030000002B03D00449054800E000BFFFF7CCFFF5
:1003100010BDC04600000000D42D00205068011020
:1003200010B504001F210BF0B7F8002220000021B7
:100330000BF0CCF8002120000BF0DCF810BDC0461B
:10034000F8B519200BF0EAF8D02380221B0692049E
:100350005A6234480FF09EFE0FF04EFE32480FF006
:1003600099FE0CF065FD1A20FFF7DAFF1B20FFF75E
:10037000D7FF00F077F82D480FF08CFE06F032FC26
:100380002B480FF087FE08F0EBF92A480FF082FEA9
:1003900006F0E8FE01F066FC27480FF07BFE09F04E
:1003A000F1FC00220524254B1A7006F00BF82448B6
:1003B0000FF070FE234D013C210028000FF0EEFEEF
:1003C000FA2080000BF014FE002CF4D10A200FF06C
:1003D00017FE012200211C480BF09EFA1B4812F068
:1003E0000BFB09F0B1FE0122194B1A4D1A4E1B4CA2
:1003F0001B4F1A7009F0C4FEA36A2A689B1ABB42FD
:1004000001D9A36A2B603378012BF3D108F054FB98
:100410003378012BEED108F04FFB3378012BE9D173
:10042000F4E7C04650680110606801106C68011064
:1004300078680110886801109868011064480320EA
:10044000A8680110B468011048470320018D00100E
:10045000634803202C260320684803200040054001
:1004600020A10700092370B586B0059304330493D7
:10047000023B0393013B0293023B324D324C01930A
:10048000324B22003249334800932B0005F054FCD4
:10049000142005F04DFCFA2080000BF0A9FD2E4E33
:1004A00021003200280005F065FE3378682B08D063
:1004B0002A4C20000FF0EEFDFA2080000BF098FD92
:1004C000F7E773783D2BF3D101222100280005F0D6
:1004D00075FE234E32002100280005F0A7FE337878
:1004E000002BF7D101222100280005F025FD012174
:1004F000200005F003FD0321200005F08FFC0321FF
:10050000280005F0C5FD1321200005F0FDFE122195
:10051000200005F037FF0021200005F015FF032122
:10052000200005F09FFE0221200005F0B7FE5521B6
:10053000200005F091FC1821280005F03FFD06B0D1
:1005400070BDC046D82203205436002040420F0020
:10055000A8210020B021002018480320C8680110FD
:1005600079480320F0B5C646334C344E344D220052
:100570003100280000B505F00FFE6378DB439B07D0
:1005800020D023781B0702D480BCB846F0BD2D4C88
:100590000622002120000DF0DDFE2100280005F0DC
:1005A000CDFD0023E05E05F02FFC274D28600223DF
:1005B000E05E05F029FC68600423E05E05F024FCA1
:1005C000A860E1E7214B06229846180000210DF0B3
:1005D000C1FE1F4F0622002138000DF0BBFE414630
:1005E000300005F08FFD3900300005F06FFD434607
:1005F0000020185E05F0F4FB4346164E30600220E2
:10060000185E05F0EDFB434670600420185E05F0AF
:10061000E7FBB0600023F85E05F0ECFB0E4E3060A7
:100620000223F85E05F0E6FB70600423F85E05F037
:10063000E1FBB060A5E7C0465C3D032054360020D6
:10064000D8220320642D032064320320542D03207C
:100650005C2D0320EC2B0320FC2B0320F0B545463A
:10066000DE4657464E46E0B58BB0049015000800B4
:1006700001920321DC172140C9188A109100894694
:10068000002900DC8CE01599159C89008A46149994
:100690000892091B491B89008C46416852460C018F
:1006A000A0468C0007944C006418CF00A900056890
:1006B0000591AB4659440E00002102926246069510
:1006C000B4460025079E8B460790CA460800A40042
:1006D000009103920993029B9946019B4844002B89
:1006E00017DD0499830089464B448146069A5A4493
:1006F00011681960A918885904325860C85998605F
:100700000959D96010336245F2D1059B4846994694
:100710004844039B42469946009B48440433009357
:10072000C3444644AD1A47444444C4449A45D2DCC9
:10073000D1460100089A0798099B4B4529DD149C76
:10074000159D0668671B019C40683F1B002C20DD3F
:10075000850050430001AC463618A20020003C0042
:100760000D0004996746884615999A468B464B4674
:10077000A446814600215D44AC004444705860505A
:1007800004319142FAD14D4401336544F6199A453A
:10079000F0D10BB0F0BCBB46B246A946A046F0BDB6
:1007A0000021CAE7F0B5CE4647469C4680B5002BEF
:1007B0001ADD002A18DD930098460300086800251A
:1007C00081464C68D2004344A400574241465E1A19
:1007D0003100AA004A441068121901C18B42FAD1B3
:1007E0000135F31B6545F1D1C0BCB946B046F0BD3B
:1007F000F0B557464E46DE464546E0B591B00D9100
:100800000F92110000220A6002680C900B9282681D
:100810000A920022089205329146CA46063A0E9282
:10082000052352469F1A089B0A9C9C467C430B9BBF
:10083000A40064449C4664442668656876006D00A4
:1008400076086D08311C281C0DF04EFB0123534423
:100850009946002800D15AE153462E1C0125012B50
:1008600000D1A4E1A368311C5B005B08181C98460A
:100870000DF03AFB002800D169E14B4646460225BF
:10088000032B00DCA2E1E368311C5B005B08181C51
:1008900098460DF029FB002800D15DE14B46464605
:1008A0000325042B00D19FE12369301C5B005B080A
:1008B000191C98460DF012FB002800D151E14B465F
:1008C00046460425062B00D096E16069311C4000A5
:1008D00040080DF009FB002800D11DE10A23524613
:1008E0009C1A0D9B089A9C50062352469D1AA846B6
:1008F0000C9B9B680A930B9AA300944610006344D8
:100900001968089C1259A446015101001A600A9AFC
:100910006144920089189B1808681C680C60186074
:1009200089189B1808681C680C60186089189B1847
:1009300008681C680C60186089189B1808681C6897
:100940000C60186089189B1818680A6808601A609B
:100950000F9A1368013313600C9B0B9A9B680A93E0
:100960007B43DF19BF005B19BE589C00171938681C
:10097000311C0DF068FA53463860012B2CD00B9BCC
:1009800027009C4667447868311C0DF05CFA53469A
:100990007860022B20D00B9B27009C466744B868E8
:1009A000311C0DF050FA5346B860032B14D00B9B4A
:1009B00027009C466744F868311C0DF044FA534602
:1009C000F860052B08D10B9A2700944667443869D4
:1009D000311C0DF038FA386147460A9A0899574396
:1009E00092008C4605920B9ABB0091466344EF1926
:1009F000BF009C460693231D99443B1D0193230091
:100A00009046083316009844082366449C46BC442C
:100A100063460293230094460C33634407930C23EC
:100A20009C46BC4463469346944603931023A344D8
:100A3000103464449C46BC44634604935B4630686F
:100A400019681500099414000DF011FA011CE859F9
:100A50000DF0F3F95346E851012B00D186E0002553
:100A6000BA462F001D000DE0069B3068F41A5B4665
:100A700019680DF0FCF95346011CE0580DF0DDF942
:100A80005346E0504B46306819680DF0F0F9019B71
:100A9000011CE0580DF0D1F9019BE050022D27D048
:100AA0004346306819680DF0E2F9029B011CE058DA
:100AB0000DF0C3F9029BE050032D19D0079B30685D
:100AC00019680DF0D4F9039B011CE0580DF0B5F93D
:100AD000039BE050052D0BD1099B316818680DF080
:100AE000C6F9049B011CE0580DF0A7F9049BE050E7
:100AF000059B01379C466644BD42B5D101235B424C
:100B00009C46AA46089BE2440433089388E6534671
:100B10000025012B00D0A5E60D9B089A7C199C505E
:100B2000062352469D1A0C9B00219B68301CA84648
:100B30000A930DF0CBF9002844D00A9B7B435B1944
:100B40009C000E9B013300D046E70E9744E74B46CE
:100B5000032B00DD97E6DFE74B46042B00D0A3E62E
:100B6000DAE74B46062B00D1AFE6D5E7069BD14628
:100B70009A46059B002498460BE05346F51A5B46BF
:100B8000306819680DF073F9011CE8590DF055F93A
:100B9000E85101344644A145EFD105230D9A536134
:100BA00011B0F0BCBB46B246A946A046F0BD052137
:100BB0000D9B089A052499500C9B04359B680A9359
:100BC00005239846BC4200D1C6E694E65346072466
:100BD000089AE41A0D9B04359C505346ED1A0C9B61
:100BE000A8469B680A93EDE753460824089AE41A3E
:100BF0000D9B03359C50F0E753460924089AE41AEC
:100C00000D9B02359C50E8E7F0B55746DE464E4650
:100C10004546E0B59BB0070026981593279B451CD9
:100C200000D124985D1C00D1249B0325259CA4465B
:100C3000E617354007266544AD10AC000C94249CA3
:100C4000B443159E002E00DC97E204911901119126
:100C500028998000090151181791611EC908169042
:100C6000480183469800109028986B4384469B0067
:100C700063449B00D518002301310A93CB011393E1
:100C80005B46009418931995189B20330E930C9B88
:100C9000002B00DC84E20F97049A002494460E9BFC
:100CA00063441293179B019321000A980F9B84467B
:100CB0000CCB5943614489008A46611C5943614405
:100CC00089008946A11C594393466144890088469E
:100CD000E11C4B4363449B009B44009B019E924458
:100CE00091449044002B00DC4EE200250023049F39
:100CF00008950795069509950595029503950B931B
:100D00003B683168181C0D930DF0B1F803990DF094
:100D100097F8716803900D980DF0A9F802990DF0FD
:100D20008FF8B16814900D980DF0A1F805990DF0A9
:100D300087F8F16805900D980DF099F809990DF074
:100D40007FF809907B683169181C02930DF08FF8C9
:100D500006990DF075F87169069002980DF087F804
:100D600007990DF06DF8B169079002980DF07FF8C2
:100D700008990DF065F8F169089002980DF077F880
:100D8000291C0DF05DF80290BD68316A281C0DF039
:100D90006EF803990DF054F8716A0390281C0DF059
:100DA00066F814990DF04CF8B16A0D90281C0DF0FE
:100DB0005EF805990DF044F8F16A0590281C0DF0D5
:100DC00056F809990DF03CF80990FD68316B281C24
:100DD0000DF04DF806990DF033F8716B0690281C54
:100DE0000DF045F807990DF02BF8B16B0790281C12
:100DF0000DF03DF808990DF023F8F16B0890281CD0
:100E00000DF035F802990DF01BF802903D69316C38
:100E1000281C0DF02CF803990DF012F8716C03905A
:100E2000281C0DF024F80D990DF00AF8B16C0D9006
:100E3000281C0DF01CF805990DF002F8F16C0590D6
:100E4000281C0DF014F809990CF0FAFF09907D693F
:100E5000316D281C0DF00BF806990CF0F1FF716D47
:100E60000690281C0DF003F807990CF0E9FFB16D0E
:100E70000790281C0CF0FBFF08990CF0E1FFF16DC6
:100E80000890281C0CF0F3FF02990CF0D9FF149085
:100E9000BD69316E281C0CF0EAFF03990CF0D0FFFD
:100EA000716E0390281C0CF0E2FF0D990CF0C8FF46
:100EB000B16E0290281C0CF0DAFF05990CF0C0FF0F
:100EC000F16E0590281C0CF0D2FF09990CF0B8FFC8
:100ED0000990FD69316F281C0CF0C9FF06990CF0D0
:100EE000AFFF716F0690281C0CF0C1FF07990CF042
:100EF000A7FFB16F0790281C0CF0B9FF08990CF000
:100F00009FFFF16F0890281C0CF0B1FF14990CF0B2
:100F100097FF051C803620370B9B009A08330B93F4
:100F20009A4200DDECE6019B139E9C4603990698CD
:100F300066440CF085FF0299039007980CF080FF3F
:100F40000599029008980CF07BFF0999071C281C52
:100F50000CF076FF129B051C0593249A009B9A4285
:100F60002FDD0693059B316804CB101C0593079277
:100F70000CF07DFF011C03980CF062FF7168039078
:100F800007980CF074FF011C02980CF059FFB1682F
:100F9000029007980CF06BFF011C381C0CF050FFFE
:100FA000F168071C07980CF062FF011C281C0CF06C
:100FB00047FF051C069B249A0133103606939A427C
:100FC000D0D14B46029918680CF037FF534603996D
:100FD000061C18680CF031FF534618604B461E6023
:100FE0005B46291C18680CF028FF4346051C391C79
:100FF00018680CF022FF4346119A18605B4694462D
:101000001D60019B0434634401930C9BA34200DDEB
:101010004AE61A00259B934200DCC7E00F9F0E9A18
:10102000049B944663440293199B0C9E98463B0094
:1010300037004646984643460A9A5B6894464246BD
:101040007B43146863449B00E418009B3500002B2D
:1010500000DCA0E0049B994600239A4600239B46AF
:101060004B46296818680CF002FF59460CF0E8FE60
:1010700083464B46696858680CF0F9FE59460CF0F7
:10108000DFFE83464B46A96898680CF0F0FE59468F
:101090000CF0D6FE83464B46E968D8680CF0E7FEB4
:1010A00059460CF0CDFE83464B46296918690CF071
:1010B000DEFE59460CF0C4FE83464B46696958690A
:1010C0000CF0D5FE59460CF0BBFE83464B46A96991
:1010D00098690CF0CCFE59460CF0B2FE83464B46A4
:1010E000E969D8690CF0C3FE59460CF0A9FE8346A5
:1010F00020239C462035E144183B9C46009BE2445B
:10110000534500DDACE70E9B9D19029B0193249A89
:10111000009B9A4217DD9A46002399464B464A4661
:10112000E958019B98580CF0A2FE011C58460CF09F
:1011300087FE834601239C460333E2449C46249B5E
:10114000E1445345EAD1206859460CF076FE109BE5
:1011500001379C46259B20606644BB4200D06AE76D
:1011600047461699049A8C460A9B62440492159A43
:1011700001330A939A4200D086E51BB0F0BCBB460F
:10118000B246A946A046F0BD0025049B2F1C05933E
:1011900002950395E1E6049B019300239B46B6E785
:1011A0001A00259B934200DD39E7DAE71699049A85
:1011B0008C460A9B62440492159A01330A939A4220
:1011C00000D069E5D9E7C046F0B55746DE464E4641
:1011D0004546E0B513689BB006AF9A46786339621E
:1011E000002B00D10CE15668002E00D112E1954D84
:1011F000280011F02DFC944C002800D017E160214C
:1012000060680BF09FFF83109B00042B00DA04231F
:101210000622554693461C0000227E615B463B63D6
:10122000A34500DD3C6353009B185900B9617969FF
:10123000DB008C469C4461467962396A0626894601
:1012400099443B6B3C619C46944463463B645B46DB
:101250003400AB46FB60BA62BC63042C00DC91E056
:101260000423BB634B46A046FB614346BA6B9C1A02
:101270009B00043B99464346551E7A6B5B009246A1
:101280003A6A434494465B00063B1B199B009A4410
:10129000BB694E461B199B006344FB62A3005B4283
:1012A000FB635B46BB604346AB467B603C60FE2015
:1012B0007A6BF3009B1BD15880050CF0C4FDBD6A0E
:1012C000B1462E00FC6A7864FB6B4A469846A044FF
:1012D0004346786C99580CF0CAFD43464A469850EC
:1012E0005B46051C002B22DD534619680CF0BFFD40
:1012F000011C20680CF0A1FD5B462060012B16D07C
:101300005346281C59680CF0B2FD011C60680CF0B3
:1013100094FD5B466060022B09D05346281C9968F7
:101320000CF0A5FD011CA0680CF087FDA0603B6CD3
:1013300001361834B342C7DC18235B429C464E4644
:101340005B46043EE244013B01D39B46AFE7BB68EA
:1013500048219B467B683C689846FB6A7918BB64C9
:101360000623FB64019400933B6BBA6B786AFFF72A
:1013700075F9002C0ADC4346022B2FD00223984635
:10138000BB6372E74B46A046FB616EE726007A6BB3
:10139000FB699446BA6B4821062599464446904617
:1013A00073009B19DB0063445846BB647918330013
:1013B000FD64FFF7F7F9434649464820B964FD64E8
:1013C0000293049603953A6B0093019233005946B9
:1013D0007A6A3818FFF718FC043C3DE73C69FB6863
:1013E000BA6A1B1B12195D469B46052A00DC15E7ED
:1013F000BD4615B0F0BCBB46B246A946A046F0BDFE
:101400000F21A8B027336B4456688B439A46002EB1
:1014100000D0ECE60F220B4DA8B0273628006E4412
:10142000964311F015FB084C002800D1E7E6802315
:10143000DB012360802328001B036360A36011F09D
:1014400023FBDCE6D425032030260320F0B55746E5
:10145000DE464E464546E0B5136897B006AFF861E4
:10146000B9617B62002B00D1E1E053689846002B04
:1014700000D1E7E0834D280011F0EAFA824C002801
:1014800000D0EDE0602160680BF05CFE8510AD00DF
:10149000042D00DA042506239A46002356467E636F
:1014A000AE4200DD7D635A00D2185100D20039618E
:1014B000110041443962796BBD608946B96999442C
:1014C0008C4662443A6300229246424654469A460B
:1014D000FA607E6006231B1B1E007B61042B00DD6F
:1014E0000426731E9B46FB69E2009846121B92007D
:1014F00090443A6B3C605B4615005446002B3DDD42
:10150000B2462600FC62BA6243462C685968201C29
:101510000CF0ADFC011C68680CF08FFC5B46686049
:10152000012B16D04346201C99680CF0A0FC011C2E
:10153000A8680CF082FC5B46A860022B09D04346E9
:10154000201CD9680CF093FC011CE8680CF075FCB9
:10155000E86001361835B145D6DCFB6A56469A4636
:1015600001235B429C461D33E3449C465B46BA6ABA
:10157000544604321500E044002BC1DC013B00D38B
:1015800079E07B6938219D1B3B6B3C68BB6306237C
:10159000FB630194009332007B6B386A7918FFF784
:1015A0005DF8002D2ADDA3199846FA696300944678
:1015B0001B195B0043449B006344BB633821062333
:1015C000786A3200FB6379182B008346FFF7EAF84C
:1015D0003A69382042449300BA69594694466344B4
:1015E000BB630623FB630494039302967B6B009614
:1015F00001933A6A2B003818FFF706FB3B6B103358
:101600003B63002C01D1042464E7FB68BD68984665
:1016100053467E685B19761B052B00DC3FE7BD4611
:1016200011B0F0BCBB46B246A946A046F0BD0F21A2
:10163000A8B027336B448B437B6253689846002BDA
:1016400000D017E70F220F4DA8B027336B44934308
:101650002800984611F0FCF90B4C002800D111E746
:101660008023DB012360802328001B036360A360C9
:1016700011F00AFA06E79B461C239C460432E0441C
:1016800039E7C046D425032030260320F0B5DE46D6
:1016900057464E464546E0B5E04AE14B8BB01768E9
:1016A00018600C1CDF4B51681F605960DE4B884688
:1016B0009B460890594658461E684D68DB4B896822
:1016C000C0681E605D609960D860D94B0692059035
:1016D0005A6898680491019019680092DB68381C78
:1016E000029303910CF0C3FB0199814640460CF034
:1016F000BEFB011C48460CF0A3FBCE4B814619688B
:10170000201C9A460CF0B3FB011C48460CF098FBD9
:10171000C94B009918600790381C99460CF0A7FB3C
:101720000299071C40460CF0A2FB011C381C0CF06F
:1017300087FB5346071C5968201C0CF098FB011CC2
:10174000381C0CF07DFB4F46039909907860301CE3
:101750000CF08DFB019F041C391C281C0CF087FB2E
:10176000011C201C0CF06CFB009A041C111C301C8A
:1017700091460CF07CFB029A061C111C281C90461A
:101780000CF075FB011C301C0CF05AFB03998246CF
:1017900004980CF06CFB391C051C05980CF067FBD9
:1017A000011C281C0CF04CFB4D463E1C291C071C40
:1017B00004980CF05CFB4246051C111C05980CF0CB
:1017C00056FB011C281C0CF03BFB80460398211C97
:1017D00081460CF04CFB391C051C301C0CF047FBFF
:1017E000011C281C0CF02CFB944E31680CF028FBDB
:1017F000934D51460390286048460CF038FB414613
:10180000814601980CF033FB011C48460CF018FB94
:1018100071680CF015FB211C0190686000980CF0B9
:1018200026FB391C029F041C381C0CF020FB011CF9
:10183000201C0CF005FBB1680CF002FB5146041CA7
:10184000A86000980CF013FBB9464146071C4846B7
:101850000CF00DFB011C381C0CF0F2FAF1680CF0D6
:10186000EFFAE860774D071C2E680398311C0CF0E6
:10187000FEFA6D688146291C381C00970CF0F7FAB7
:10188000291C804601980CF0F2FA49460CF0D8FA6F
:10189000311C0CF0ECFA311C071C201C0CF0E7FA90
:1018A00041460CF0CDFA291C0CF0E1FA011C381C61
:1018B0000CF0C6FA644B19680CF0C2FA634B071CB3
:1018C0001860291C201C0CF0D2FA49460CF0B8FA1A
:1018D000391C0CF0B8FA5E4981468A4608600198C6
:1018E000311C0CF0C4FA41460CF0AAFA391C0CF079
:1018F000AAFA5146804648600798311C0CF0B7FAA6
:10190000099B071C291C181C9A460CF0B0FA011CF4
:10191000381C0CF095FA011C08980CF08EFA494618
:10192000071C0CF0A4FA07990CF08AFA069A4146B3
:101930001060381C0CF09BFA51460CF081FA069AA4
:1019400082465060311C48460CF091FA414F011C10
:1019500038680CF072FA311C029040460CF087FA9D
:10196000011C78680CF069FA291C061C48460CF02A
:101970007EFA011CB8680CF060FA291C81464046CA
:101980000CF075FA011CF8680CF057FA0299051C66
:1019900003980CF06CFA019F80464946381C0CF005
:1019A00066FA011C40460CF04BFA5A46311C106096
:1019B00003980CF05CFA291C8046381C0CF057FA8E
:1019C000011C40460CF03CFA5B4602995860201C12
:1019D0000CF04DFA009B4946071C181C98460CF069
:1019E00046FA011C381C0CF02BFA5B46311C98603F
:1019F000201C0CF03CFA291C041C40460CF037FA61
:101A0000011C201C0CF01CFA5B46D86050460BB041
:101A1000F0BCBB46B246A946A046F0BD343C03200C
:101A2000444803200C32032080290020C0290020D4
:101A3000E0290020442D0320443C0320D02800202E
:101A4000A0290020583C0320182403200032032042
:101A500060360020002A0020F0B5DE4657464E468C
:101A60004546E0B56A4B85B0596898460CF0E5F9F3
:101A7000684B041C1860684B99461B689B46674B73
:101A800059461D680CF0DCF9291C0CF0F0F9644B88
:101A9000061C1868011C0CF0D3F9011C301C0CF05A
:101AA000D2F9604E31680CF0CBF95F4B0190306099
:101AB0001868011C0CF0C4F95C4B02901F68391CBB
:101AC0000CF0D5F98246011C281C0CF0B9F9291C30
:101AD000061C50460CF0B1F9554A116892460CF0BC
:101AE000C6F9311C0CF0AFF9391C0390381C0CF00E
:101AF000A7F95946071C201C0CF09FF9011C381C43
:101B00000CF0B5F9311C0CF09EF9011C03980CF097
:101B100097F9524601991060061C201C0CF090F9B0
:101B2000311C0CF08DF9434B19680CF0A0F9424BB5
:101B30001860424B18604B461C60434619680CF015
:101B40007CF93F4B041C18603E4B99461B68191CDE
:101B50009A460CF075F9291C0CF089F93A4B071CD0
:101B60001868011C0CF06CF9011C381C0CF06BF9A6
:101B7000364B984619680CF063F943461860344BAD
:101B8000071C1B680298191C98460CF070F901900C
:101B9000011C281C0CF054F94146834640460CF0C9
:101BA0004FF951468046201C0CF047F9011C404675
:101BB0000CF05DF959460CF046F9291C8046019855
:101BC0000CF03BF9311C0CF052F959460CF03BF982
:101BD000011C40460CF034F91E4B051C1860391CE2
:101BE000201C0CF02DF9291C0CF02AF91A4B19684D
:101BF0000CF03DF9194B1860194B18604B461C60EE
:101C000005B0F0BCBB46B246A946A046F0BDC046F2
:101C1000343C0320BC2D032004320320DC210020AF
:101C2000E8210020F8310320D02100207836002060
:101C3000A02D0320EC2100209C4703208C4703208B
:101C4000C02D032008320320E0210020FC310320B6
:101C50007C360020A42D0320E4210020A04703208F
:101C6000CC470320F8B5FE250024194BAD051D60B7
:101C70009C605C60DD60174B174F1D609C605C6072
:101C8000DD60164B1E68164B301C19680CF0DBF833
:101C9000144B38601D605C609C60DD60124B7C60A2
:101CA0001D605E609C60DD60104B1C605D60104BD1
:101CB000104D1868011C0CF0DAF80F4A0F4B12682F
:101CC00028601A600E4A9C6012685C60DA60F8BD99
:101CD00080290020A0290020442D0320DC210020A1
:101CE000D8210020002A0020E0290020583C0320B1
:101CF000D42100201824032008240320D028002009
:101D000004240320F0B5DE4657464E464546E0B56E
:101D10000E0001688DB08946416887688B46056969
:101D2000C1680893436980690491079011685068FD
:101D3000926809910A90291C30680B9206930595C8
:101D40000CF07BF80699824670680CF076F80799DB
:101D5000051CB0680CF071F8804608980CF00CF97E
:101D600080231B06534400900191180059460CF043
:101D70007EF8391C061C281C03970CF078F8011C0F
:101D8000301C0CF05AF80499061C40460CF06FF811
:101D9000011C301C0CF051F80CF0EEF80022684BDE
:101DA000169C0BF03AFC009A019B0BF036FC0600E7
:101DB00048460F000CF0E0F802000B00300039003C
:101DC0000BF004FC0BF0E0FC4946206050460CF0A0
:101DD0004EF80399061C40460CF049F8011C301CD3
:101DE0000CF02EF80499061C281C0CF040F8011C7D
:101DF000301C0CF022F80CF0BFF80022504B0BF016
:101E00000CFC009A019B0BF008FC060058460F00E2
:101E10000CF0B2F802000B00300039000BF0D6FBDA
:101E20000BF0B2FC49466060281C0CF020F85946C3
:101E3000061C40460CF01BF8011C301C0BF0FDFF8B
:101E40000499061C50460CF012F8011C301C0BF0D3
:101E5000F7FF0CF091F80022394B0BF0DEFB009AF3
:101E6000019B0BF0DAFB060003980F000CF084F8DE
:101E700002000B00300039000BF0A8FB0BF084FCD3
:101E80004946A06040460BF0F2FF5946061C281C4C
:101E90000BF0EDFF011C301C0BF0D2FF0399051C69
:101EA00050460BF0E4FF011C281C0BF0C6FF0CF0A1
:101EB00063F80022224B0BF0B0FB009A019B0BF061
:101EC000ACFB060004980F000CF056F802000B0063
:101ED000300039000BF07AFB0BF056FC059B09999A
:101EE000E060181C98460BF0C2FF089D291C0BF0FF
:101EF000BEFF011C40460BF0A0FF069F0A9920611F
:101F0000381C0BF0B4FF291C0BF0B1FF011C381C6E
:101F10000BF093FF079E0B996061301C0BF0A7FF3D
:101F2000291C0BF0A4FF011C301C0BF086FFA061E4
:101F300000200DB0F0BCBB46B246A946A046F0BD9D
:101F40000000E03FF0B5DE4657464E464546E0B558
:101F5000C568466893B0046887688846301C291CA9
:101F6000934602930BF083FF8146391C201C0BF033
:101F70007EFF4A460890011C101C05920BF05DFF85
:101F80000BF0FAFF02000B000BF020FB069007910C
:101F900058460BF0F1FF02000B00069807990092DB
:101FA00001930BF03AFB0BF0EFFB4346291C186042
:101FB000381C0BF05CFF8146311C201C0BF057FFD6
:101FC0004B460C90011C181C09930BF039FF0BF0C9
:101FD000D3FF02000B000BF0F9FA02000B0000988F
:101FE00001990A920B930BF018FB0BF0CDFB4346C3
:101FF000211C5860201C0BF03AFF8146311C301C1C
:102000000BF035FF4B460E90011C181C0D930BF086
:1020100014FF391C0F90381C0BF029FF291C824635
:10202000281C0BF024FF814651460F980BF005FF4A
:1020300049460BF005FF594610900BF018FF434638
:10204000391C9860301C0BF012FF291C8346201CA1
:102050000BF00DFF11901C980BF08EFF06001D98E1
:102060000F000BF089FF009001910E990D980BF075
:10207000E7FE51460BF0E1FE49460BF0DEFE029909
:102080000BF0F5FE0BF078FF04000D005846119997
:102090000BF0D6FE0BF070FF02000B000BF096FA6F
:1020A00032003B000BF0B9FA02000B0020002900BF
:1020B0000BF08CFA009A019B04000D00069807991A
:1020C0000BF0ABFA02000B00200029000BF07EFAA7
:1020D0000BF05AFB4346D86002980BF04DFF04000A
:1020E0000D00584611990BF0A8FE0BF045FF0200B9
:1020F0000B000BF06BFA22002B00029403950BF0FF
:102100008CFA04000D000F9851460BF099FE4946D9
:102110000BF093FE1C990BF0AAFE0BF02DFF0200B2
:102120000B00200029000BF051FA009A019B0400DB
:102130000D000A980B990BF070FA02000B002000BA
:1021400029000BF043FA0BF01FFB43460899186176
:1021500005980BF075FE0BF00FFF02000B000BF063
:1021600035FA029A039B0BF058FA04000D00099807
:102170000C990BF062FE0BF0FFFE02000B000BF05F
:1021800025FA32003B000BF048FA02000B00200059
:1021900029000BF01BFA04000D0010981D990BF09C
:1021A00066FE0BF0E9FE02000B00200029000BF098
:1021B0000DFA0BF0E9FA43465861002013B0F0BC69
:1021C000BB46B246A946A046F0BDC046F0B5DE46C5
:1021D00057464E464546E0B50700101C4A689946EA
:1021E00090460B688A688BB0CE68934606930BF0D6
:1021F000C3FE040058460D000BF0BEFEC0230022B3
:102200001B060BF00AFA22002B000BF006FA0090D6
:1022100001910BF0B9FA07903860301C0BF0ACFE5E
:1022200002000B000BF0D2F922002B000BF0F5F9A5
:102230000BF0AAFA8246B86106980BF09DFEC02307
:1022400000221B060BF0E9F922002B000BF0E5F948
:1022500002000B00029203930BF096FA386340469B
:102260000BF08AFE02000B000BF0B0F922002B00ED
:102270000BF0D3F980250C0003002D060493059480
:1022800000240BF081FA9023AC46039AB8643C66B4
:10229000BC67FC50029B62441100786018000BF090
:1022A00073FA009B051CF8611800802352461B0638
:1022B0009C467A63019A624411000BF065FA9423FC
:1022C000F8647C66FC67FC50BD6080252D06AC463A
:1022D000059A049B6244110018000BF055FA079B05
:1022E0005246BB6380233A653862BC66FC501833A3
:1022F000FC50069B4946181C9A460BF0B8FD1499F1
:102300000290301C0BF0B3FD1599049058460BF069
:10231000AEFD0499051C02980BF092FD291C07954F
:102320000BF08BFD011C0BF08BFD49460890F8600B
:1023300040460BF09CFD1499051C58460BF097FD88
:10234000011C281C0BF07CFD1599051C301C0BF0A2
:102350008EFD011C281C0BF073FD8025011C0BF069
:102360006FFD2D065D4449460090786228000BF011
:102370007EFD1499051C40460BF079FD53468346BB
:102380001599181C0BF073FD82465946281C0995B7
:102390000BF056FD51460BF050FD8025011C0BF053
:1023A0004FFD2D064946F86370190BF060FD149936
:1023B000051C06980BF05BFD1599814640460BF015
:1023C00056FD4946061C281C0BF03AFD311C0BF04B
:1023D00037FD011C0BF034FD84237865FC66FC504E
:1023E0001833FC503861802000068446099A59460B
:1023F000624410000BF021FD51460BF021FD011C41
:102400000BF01EFD802212069446009B8246B862A5
:1024100002983B64604404990BF00FFD07990BF0A0
:102420000FFD011C0BF00CFD88238021B865504680
:102430003C670906FC501833FC507861681849461F
:102440000BF0FBFC311C0BF0F8FC011C0BF0F8FC52
:10245000009BF862FB658C230020089A7C677A64F5
:10246000FC501833FC500BB0F0BCBB46B246A9463A
:10247000A046F0BDF0B557464E46DE464546E0B5AF
:10248000EFB00B000AA98C46D7226244120915014D
:102490009A685E680D920EAA9246C4229446B4448D
:1024A00062460192942293460C329146524603951D
:1024B000554682461F6802920493F168B86C0BF08F
:1024C000D6FC3169041C386E0BF0D1FC011C201CB9
:1024D0000BF0B6FC7169041CB86F0BF0C8FC9023BC
:1024E000B1698046F8580BF0C2FC011C40460BF065
:1024F000A7FC011C201C0BF0A3FC7168041CB8692C
:102500000BF0B5FCB1688046386B0BF0B0FC011CD9
:1025100040460BF095FC3168804638680BF0A7FC0C
:10252000011C40460BF08CFC011C201C0BF088FCAD
:102530002860F168F86C0BF09AFC3169041C786E25
:102540000BF095FC011C201C0BF07AFC7169041C3B
:10255000F86F0BF08CFC5B46B1698046F8580BF0C5
:1025600086FC011C40460BF06BFC011C201C0BF090
:1025700067FC7168041CF8690BF079FCB16880464F
:10258000786B0BF074FC011C40460BF059FC316871
:10259000804678680BF06BFC011C40460BF050FC49
:1025A000011C201C0BF04CFC6860F168386D0BF0CE
:1025B0005EFC3169041CB86E0BF059FC011C201C38
:1025C0000BF03EFC80237169041CF8580BF04FFCA3
:1025D0009823B1698046F8580BF049FC011C40462D
:1025E0000BF02EFC011C201C0BF02AFC7168041C53
:1025F000386A0BF03CFCB1688046B86B0BF037FCD6
:10260000011C40460BF01CFC31688046B8680BF09A
:102610002EFC011C40460BF013FC011C201C0BF08F
:102620000FFCA860F168786D0BF021FC3169041C87
:10263000F86E0BF01CFC011C201C0BF001FC842329
:102640007169041CF8580BF012FC9C23B169804698
:10265000F8580BF00CFC011C40460BF0F1FB011C80
:10266000201C0BF0EDFB7168041C786A0BF0FFFB7B
:10267000B1688046F86B0BF0FAFB011C40460BF08A
:10268000DFFB31688046F8680BF0F1FB011C404627
:102690000BF0D6FB011C201C0BF0D2FBE860F168AC
:1026A000B86D0BF0E4FB3169041C386F0BF0DFFBF5
:1026B000011C201C0BF0C4FB88237169041CF85812
:1026C0000BF0D5FB4B46B1698046F8580BF0CFFBB9
:1026D000011C40460BF0B4FB011C201C0BF0B0FBAE
:1026E0007168041CB86A0BF0C2FBB1688046386C94
:1026F0000BF0BDFB011C40460BF0A2FB316880468D
:1027000038690BF0B4FB011C40460BF099FB011C2F
:10271000201C0BF095FB2861F168F86D0BF0A7FB0E
:102720003169041C786F0BF0A2FB011C201C0BF01C
:1027300087FB8C237169041CF8580BF098FBA423C9
:10274000B1698046F8580BF092FB011C40460BF033
:1027500077FB011C201C0BF073FB7168041CF86AEA
:102760000BF085FBB1688046786C0BF080FB011C98
:1027700040460BF065FB3168804678690BF077FBCB
:10278000011C40460BF05CFB011C201C0BF058FBAD
:10279000019B1C3668611835B34200D08DE62022BB
:1027A000029B914654469A46039D0894A944079576
:1027B00054464D4632AA049B0D9E059214AA3896A3
:1027C00006920993A06C236881460193206E059BB5
:1027D0008046216B01CBA26903910490B16C4846FD
:1027E000029205930BF043FB316E824640460BF09C
:1027F0003EFB011C50460BF023FBA76F8246B16FD6
:10280000381C0BF034FB90238346F15804980BF0EE
:102810002EFB011C58460BF013FB011C50460BF01D
:102820000FFBB169824602980BF021FB316B8346A6
:1028300003980BF01CFB011C58460BF001FB3168A0
:10284000834601980BF013FB011C58460BF0F8FA75
:10285000011C50460BF0F4FA2860F16C48460BF06E
:1028600006FB716E824640460BF001FB011C504690
:102870000BF0E6FAF16F8246381C0BF0F8FA94235D
:102880008346F15804980BF0F2FA011C58460BF0FD
:10289000D7FA011C50460BF0D3FAF1698246029830
:1028A0000BF0E5FA716B834603980BF0E0FA011C1C
:1028B00058460BF0C5FA7168834601980BF0D7FAB9
:1028C000011C58460BF0BCFA011C50460BF0B8FA3C
:1028D0006860316D48460BF0CAFAB16E82464046D8
:1028E0000BF0C5FA011C50460BF0AAFA8023824671
:1028F000F158381C0BF0BBFA98238346F158049822
:102900000BF0B5FA011C58460BF09AFA011C504620
:102910000BF096FA316A824602980BF0A8FAB16B76
:10292000834603980BF0A3FA011C58460BF088FA73
:10293000B168834601980BF09AFA011C58460BF0D7
:102940007FFA011C50460BF07BFAA860716D484677
:102950000BF08DFAF16E824640460BF088FA011CAE
:1029600050460BF06DFA84238246F158381C0BF068
:102970007EFA9C238346F15804980BF078FA011CE8
:1029800058460BF05DFA011C50460BF059FA716A7B
:10299000824602980BF06BFAF16B834603980BF0BA
:1029A00066FA011C58460BF04BFAF1688346019811
:1029B0000BF05DFA011C58460BF042FA011C504620
:1029C0000BF03EFAE860B16D48460BF050FA316FFB
:1029D000824640460BF04BFA011C50460BF030FA91
:1029E00088238246F158381C0BF041FAA023834615
:1029F000F15804980BF03BFA011C58460BF020FAF2
:102A0000011C50460BF01CFAB16A824602980BF08A
:102A10002EFA316C834603980BF029FA011C5846B4
:102A20000BF00EFA3169834601980BF020FA011C75
:102A300058460BF005FA011C50460BF001FA2861CC
:102A4000F16D48460BF013FA716F814640460BF06A
:102A50000EFA011C48460BF0F3F98C238046F1581E
:102A6000381C0BF004FAA423071CF15804989B4669
:102A70000BF0FDF9011C381C0BF0E2F9011C40467B
:102A80000BF0DEF9F16A071C02980BF0F0F9716C9B
:102A9000804603980BF0EBF9011C40460BF0D0F98F
:102AA0007169804601980BF0E2F9011C40460BF079
:102AB000C7F9011C381C0BF0C3F9069B043468618C
:102AC00018359C4200D07DE6099B079DDE68296A87
:102AD00030680BF0B5F9089CA96B206070680BF0AA
:102AE000AFF96060B068296D0BF0AAF9A060F068DA
:102AF000A96E0BF0A5F98027E0603069E9590BF069
:102B00009FF998232061E95870690BF099F9606189
:102B1000B069696A0BF094F9A061F069E96B0BF098
:102B20008FF9E061306A696D0BF08AF92062E96E15
:102B3000706A0BF085F984236062E958B06A0BF083
:102B40007FF99C22A062F06AA9580BF079F9E06243
:102B5000306BA96A0BF074F92063706B296C0BF071
:102B60006FF96063B06BA96D0BF06AF9A063F06B4D
:102B7000296F0BF065F98822E063A958306C0BF0DF
:102B80005FF9A0212064706C69580BF059F96064FA
:102B9000E96AB06C0BF054F9A064696CF06C0BF04E
:102BA0004FF9E064306DE96D0BF04AF92065716D05
:102BB000686F0BF045F960658C20B16D28580BF0FB
:102BC0003FF95B46A065F16DE8580BF039F9E06517
:102BD000316E286B0BF034F92066716EA86C0BF027
:102BE0002FF96066B16E286E0BF02AF9A066F16EBF
:102BF000A86F0BF025F99023E066316FE8580BF0D1
:102C00001FF9A8232067716FE8580BF019F9606766
:102C1000B16F686B0BF014F9A067F16FE86C0BF003
:102C20000FF9E067F159686E0BF00AF9E0510437CB
:102C3000F159E86F0BF004F99423E0510437F1598E
:102C4000E8580BF0FDF8AC23E0510437F159E8588F
:102C50000BF0F6F8E0516FB0F0BCBB46B246A946A7
:102C6000A046F0BDF0B5DE4657464E464546040048
:102C7000E0B5006961694000490089B04908400831
:102C80000BF0DEF8E168490049080BF0D9F86368F9
:102C9000A1685B004900051C490858080BF0D0F8F2
:102CA0002168490049080BF0CBF8011C281C0BF0E7
:102CB000C7F8E16A071CA06A4900400049084008BB
:102CC0000BF0BEF8616A490049080BF0B9F8216AB7
:102CD000051CE06949004000490840080BF0B0F8C5
:102CE000A169490049080BF0ABF8011C281C0BF046
:102CF000A7F8616C061C206C490040004908400898
:102D00000BF09EF8E16B490049080BF099F8A16BB4
:102D1000051C606B49004000490840080BF090F822
:102D2000216B490049080BF08BF8011C281C0BF0A3
:102D300087F8051C011C301C0BF0D0F8002800D1CE
:102D4000351C291C381C0BF0C9F82E1C002800D19A
:102D50003E1CA06DE16D40004900490840080BF0A1
:102D60006FF8616D490049080BF06AF8216D051C88
:102D7000E06C49004000490840080BF061F8A16C84
:102D8000490049080BF05CF8011C281C0BF058F8AE
:102D9000616F071C206F49004000490840080BF094
:102DA0004FF8E16E490049080BF04AF8A16E051C86
:102DB000606E49004000490840080BF041F8216E60
:102DC000490049080BF03CF8011C281C0BF038F8AE
:102DD00088238046E0580433E15840004900490800
:102DE00040080BF02DF88423E158490049080BF006
:102DF00027F88023051CE158E06F4900400049088E
:102E000040080BF01DF8A16F490049080BF018F8B5
:102E1000011C281C0BF014F8051C011C40460BF08B
:102E20005DF8002800D14546291C381C0BF056F8E7
:102E3000002800D13D1C291C301C0BF04FF8002845
:102E400000D1351CC0232100E55003AABA3B04A8D9
:102E5000A83106930494FDF7CBFC01239B465A4608
:102E6000C4200025982659469C27039B1340013B0C
:102E700001321340013B23543438255094356151BD
:102E8000A2510132E2519D32944661469C3A625011
:102E9000A03291469F3A90464A4641462300A150AF
:102EA0001832A258903392009918019109688A4605
:102EB000494652466250424601990A60B332A258CE
:102EC0006146920092469A4452466158884611687B
:102ED000894661464A466250424651460A60B422DB
:102EE000E159A2588C4692009A181168E151614646
:102EF0001160B022A258A75992009A181168A151E6
:102F00001760AC22A258665992009A181768675148
:102F10001660A822A25892009B181D6822582550BE
:102F20001A60C5235A46E25409B0F0BCBB46B2460B
:102F3000A946A046F0BDC046C023002210B5C2502D
:102F400000220433C2520B68040003604B684360E4
:102F50008B688360CB68C3600B6903614B69436115
:102F60008B698361CB69C3610B6A03624B6A4362FD
:102F70008B6A8362CB6AC3620B6B03634B6B4363E5
:102F80008B6B8363CB6BC3630B6C03644B6C4364CD
:102F90008B6C8364CB6CC3640B6D03654B6D4365B5
:102FA0008B6D8365CB6DC3650B6E03664B6E43669D
:102FB0008B6E8366CB6EC3660B6F03674B6F436785
:102FC0008B6F8367CB6FC3678023CA58C2500433AB
:102FD000CA58C2500433CA58C2500433CA58C250E7
:102FE000FFF740FE200010BDF0B5DE464E465746C6
:102FF0004546E0B5214C1500A5443EAA94460A007A
:1030000036931F4B359063441B091E011B910A9692
:10301000A1AB13CA13C313CA13C3126819491A60A8
:103020000A68194B3891194937931B6801920A684D
:1030300046AC894620000092A1A9154AFFF7C6F8C0
:103040003EABEB229C463E95A295D200862562447B
:10305000B4461268ED0065442800A492A1A970AAA4
:10306000A194A394FFF706FA4B460B953500270071
:1030700034946AAA3E9C09920C930BE0DCF7FFFFA4
:103080006F020000CC220320D4220320D022032090
:103090000AE81C413B68B86C02938146099B386E74
:1030A000396B804601CBBA690993A8230691E15890
:1030B000049208900AF0DBFE8C23BE6FE158824632
:1030C000301C0AF0D4FE011C50460AF0B9FE216FF4
:1030D000824640460AF0CBFE616D834648460AF0C0
:1030E000C6FE011C58460AF0ABFE011C50460AF011
:1030F000A7FEA16B824606980AF0B9FEE1698346F5
:1031000004980AF0B4FE011C58460AF099FE2168A2
:10311000834602980AF0ABFE011C58460AF090FE66
:10312000011C50460AF08CFEAC232860E158089838
:103130000AF09DFE90238246E158301C0AF097FE6B
:10314000011C50460AF07CFE616F824640460AF040
:103150008EFEA16D834648460AF089FE011C584642
:103160000AF06EFE011C50460AF06AFEE16B8246D0
:1031700006980AF07CFE216A834604980AF077FEDE
:10318000011C58460AF05CFE6168834602980AF00A
:103190006EFE011C58460AF053FE011C50460AF010
:1031A0004FFEB0236860E15808980AF060FE94234F
:1031B0008246E158301C0AF05AFE011C50460AF0C3
:1031C0003FFEA16F824640460AF051FEE16D834604
:1031D00048460AF04CFE011C58460AF031FE011C1C
:1031E00050460AF02DFE216C824606980AF03FFEFA
:1031F000616A834604980AF03AFE011C58460AF0B8
:103200001FFEA168834602980AF031FE011C584651
:103210000AF016FE011C50460AF012FEB423A86004
:10322000E15808980AF023FE98238246E158301CA2
:103230000AF01DFE011C50460AF002FEE16F8246B4
:1032400040460AF014FE216E834648460AF00FFEFF
:10325000011C58460AF0F4FD011C50460AF0F0FD2E
:10326000616C824606980AF002FEA16A83460498C1
:103270000AF0FDFD011C58460AF0E2FDE1688346B4
:1032800002980AF0F4FD011C58460AF0D9FD011C11
:1032900050460AF0D5FDB823E860E15808980AF0D6
:1032A000E6FD9C238246E158301C0AF0E0FD011C3B
:1032B00050460AF0C5FD80238246E15840460AF098
:1032C000D6FD616E834648460AF0D1FD011C584682
:1032D0000AF0B6FD011C50460AF0B2FDA16C824610
:1032E00006980AF0C4FDE16A834604980AF0BFFD1F
:1032F000011C58460AF0A4FD2169834602980AF091
:10330000B6FD011C58460AF09BFD011C50460AF010
:1033100097FDBC232861E15808980AF0A8FDA02376
:103320008246E158301C0AF0A2FD011C50460AF00A
:1033300087FD84238246E15840460AF098FDA16E3D
:10334000834648460AF093FD011C58460AF078FD72
:10335000011C50460AF074FDE16C824606980AF0A2
:1033600086FD216B834604980AF081FD011C5846B6
:103370000AF066FD6169834602980AF078FD011C37
:1033800058460AF05DFD011C50460AF059FDE16EF9
:10339000686148460AF06BFD88238146E158404643
:1033A0009B460AF064FD011C48460AF049FDA4232F
:1033B0008046E158301C0AF05AFDC023061CE15833
:1033C00008980AF054FD011C301C0AF039FD011C5C
:1033D00040460AF035FD616B061C04980AF047FD73
:1033E000216D804606980AF042FD011C40460AF015
:1033F00027FDA169804602980AF039FD011C40466C
:103400000AF01EFD011C301C0AF01AFD04374CABFB
:10341000A8611C359F4200D03CE60C9B0A9E994651
:10342000D8239B009C4634000B9D64442900200057
:10343000FFF782FDA42292009446330063442100EA
:10344000902218009A460AF08BFFC8239B009C46E6
:103450003400D033644431009C461822614420007B
:103460000AF07EFFCE239B009C463000D033310013
:1034700060449C46182261440AF072FFD4228421E1
:10348000920094463300C900634432008C46624483
:1034900012687A491A60D5229200944633003200AD
:1034A00063448C4630006244B03012888446FE216A
:1034B000C9251A8000232268890592006244AD0064
:1034C000116093611363936413669367AC46320093
:1034D000CA25624484461268AD00920062441360BB
:1034E00091611363936413669367AC463200CB25F6
:1034F000624484461268AD00920062441360936196
:103500001163936413669367AC463200CC25624422
:1035100084461268AD00920062441360AC46936129
:1035200013639164136693673200CD256244844629
:103530001268AD0092006244136093611363936458
:1035400011669367AC4632006244844634001268C8
:10355000A82692006244916721001360936113636F
:10356000936413660622062376000F008025A419B3
:103570008C46A260E36006237137AD006544FF37D7
:10358000236122008F510A9165600100029050462C
:103590009846FDF75BFF06220623A260E3604246E1
:1035A0000A9B22619F5122006560029C50462100C7
:1035B000FDF70AFE0A9BA1AF1A680692DA69089223
:1035C0009A6B09925A6D0A921A6F0B928C229A5832
:1035D0000C925A680D921A6A0E92DA6B0F929A6DDB
:1035E00010925A6F119290229A5812929A681692DB
:1035F0005A6A14921A6C1792DA6D18929A6F19928D
:1036000094229A581A92DA681C929A6A1D925A6CFD
:103610001E921A6E1F92DA6F209298229A58219267
:103620001A692292DA6A23929A6C24925A6E25922F
:1036300080229A5826929C229A5827925A69289258
:103640001A6B2992DA6C2A929A6E2B9284229A58DB
:103650002C92A0229A582D929A692E925A6B2F92F0
:103660001A6D3092DA6E31925A469A583292A422EA
:103670009B5833934B46399302E0C0462404000024
:10368000636862699946A36849469846E368089862
:10369000029304920AF0EBFB4146824609980AF035
:1036A000E6FB011C50460AF0CBFB26688246311C23
:1036B00006980AF0DCFB011C50460AF0C1FB2569A4
:1036C0008246291C0B980AF0D2FB049983460C9879
:1036D0000AF0CDFB011C58460AF0B2FB0299834662
:1036E0000A980AF0C4FB011C58460AF0A9FB011C09
:1036F00050460AF0A5FB0E99386048460AF0B7FB21
:103700000F99824640460AF0B2FB011C50460AF06F
:1037100097FB0D998246301C0AF0A9FB011C50460C
:103720000AF08EFB11998246281C0AF0A0FB129920
:10373000834604980AF09BFB011C58460AF080FB64
:103740001099834602980AF092FB011C58460AF031
:1037500077FB011C50460AF073FB149978604846C9
:103760000AF085FB1799824640460AF080FB011C4F
:1037700050460AF065FB16998246301C0AF077FB2A
:10378000011C50460AF05CFB19998246281C0AF07D
:103790006EFB1A99834604980AF069FB011C58468F
:1037A0000AF04EFB1899834602980AF060FB011C50
:1037B00058460AF045FB011C50460AF041FBB86030
:1037C0001D9948460AF053FB1E99824640460AF06E
:1037D0004EFB011C50460AF033FB1C998246301CFC
:1037E0000AF045FB011C50460AF02AFB209982464C
:1037F000281C0AF03CFB2199834604980AF037FB09
:10380000011C58460AF01CFB1F99834602980AF0D7
:103810002EFB011C58460AF013FB011C50460AF00F
:103820000FFB2399F86048460AF021FB2499824651
:1038300040460AF01CFB011C50460AF001FB22998D
:103840008246301C0AF013FB011C50460AF0F8FABD
:1038500026998246281C0AF00AFB27998346049879
:103860000AF005FB011C58460AF0EAFA259983463E
:1038700002980AF0FCFA011C58460AF0E1FA011C11
:1038800050460AF0DDFA2999386148460AF0EFFA05
:103890002A99824640460AF0EAFA011C50460AF08C
:1038A000CFFA28998246301C0AF0E1FA011C5046F2
:1038B0000AF0C6FA2C998246281C0AF0D8FA2D99EB
:1038C000834604980AF0D3FA011C58460AF0B8FA65
:1038D0002B99834602980AF0CAFA011C58460AF04E
:1038E000AFFA011C50460AF0ABFA2F9978614846AE
:1038F0000AF0BDFA3099814640460AF0B8FA011C38
:1039000048460AF09DFA2E998046301C0AF0AFFA1C
:10391000011C40460AF094FA3299061C281C0AF051
:10392000A6FA3399051C04980AF0A1FA011C281C78
:103930000AF086FA3199051C02980AF098FA011CDF
:10394000281C0AF07DFA011C301C0AF079FACBAB76
:10395000B8611C3718349F4200D091E6399BA29A77
:103960009946A19BA399A49CA59DA69EA79F06935B
:103970000892A89BA99A09910A94AA99AB9C0B95C5
:103980000C96AC9DAD9E0D970E93AE9FAF9B0F9284
:10399000B09A109111941295169614971793189245
:1039A000B199B29CB39DB49EB59FB69BB79A19913D
:1039B0001A94B899B99C1C951D96BA9DBB9E1E97EA
:1039C0001F93BC9FBD9B20922191BE9ABF992294C8
:1039D000C09C249625972693279228912994239575
:1039E000C19DC29EC39FC69AC49BC799C89C2A9575
:1039F0002B96C99DCA9E2C97C59F2E921B9A2D93DC
:103A000033972F91309431953296A1AB13CA13C3DB
:103A100013CA13C31268A1AC1A603899379B0A689D
:103A200049461B6801920A682000009240A9FE4A9C
:103A3000FEF788FA369E409930680AF0FEF94199FF
:103A4000834670680AF0F9F942998246B0680AF034
:103A5000F4F943998146F0680AF0EFF94499041C9F
:103A600030690AF0EAF94599051C70690AF0E5F930
:103A7000061C011C381C0AF0FAF9291C071C27989F
:103A80000AF0F5F9011C381C0AF0DAF9211C071CB0
:103A900020980AF0ECF9011C381C0AF0D1F94946CB
:103AA000071C18980AF0E3F9514680460F980AF06F
:103AB000DEF9011C40460AF0C3F9594680460898D1
:103AC0000AF0D5F9011C40460AF0BAF9011C381C6D
:103AD0000AF0B6F91B9A51680AF0B2F9311C02904B
:103AE0002E980AF0C4F9291C071C28980AF0BFF97F
:103AF000011C381C0AF0A4F9211C071C21980AF0AB
:103B0000B6F9011C381C0AF09BF94946071C1998A4
:103B10000AF0ADF95146804610980AF0A8F9011C48
:103B200040460AF08DF95946804609980AF09FF9F7
:103B3000011C40460AF084F9011C381C0AF080F987
:103B40001B9A91680AF07CF9311C04902F980AF0B6
:103B50008EF9291C071C29980AF089F9011C381CC8
:103B60000AF06EF9211C071C22980AF080F9011C4A
:103B7000381C0AF065F94946071C1A980AF077F9CB
:103B80005146804611980AF072F9011C40460AF02D
:103B900057F9594680460A980AF069F9011C4046CF
:103BA0000AF04EF9011C381C0AF04AF91B9AD16838
:103BB0000AF046F9311C369030980AF058F9291C61
:103BC000071C2A980AF053F9011C381C0AF038F92E
:103BD000211C071C23980AF04AF9011C381C0AF022
:103BE0002FF94946071C1C980AF041F951468046B6
:103BF00012980AF03CF9011C40460AF021F9594696
:103C000080460B980AF033F9011C40460AF018F977
:103C1000011C381C0AF014F91B9A11690AF010F9FA
:103C2000311C379031980AF022F9291C071C2B9877
:103C30000AF01DF9011C381C0AF002F9211C071CAE
:103C400024980AF014F9011C381C0AF0F9F84946C6
:103C5000071C1D980AF00BF95146804616980AF089
:103C600006F9011C40460AF0EBF8594680460C98CC
:103C70000AF0FDF8011C40460AF0E2F8011C381C6D
:103C80000AF0DEF81B9A51690AF0DAF851463890CA
:103C900014980AF0ECF84946071C1E980AF0E7F859
:103CA000011C381C0AF0CCF85946071C0D980AF084
:103CB000DEF8011C381C0AF0C3F8291C071C2C98DC
:103CC0000AF0D5F8311C804632980AF0D0F8011C71
:103CD00040460AF0B5F8211C804625980AF0C7F83E
:103CE000011C40460AF0ACF8011C381C0AF0A8F888
:103CF0001B9A91690AF0A4F8311C071C2D980AF050
:103D0000B6F8291C061C26980AF0B1F8011C301CD4
:103D10000AF096F8211C051C1F980AF0A8F8011C4F
:103D2000281C0AF08DF84946041C17980AF09FF8E1
:103D30005146051C0E980AF09AF8011C281C0AF03E
:103D40007FF85946051C06980AF091F8011C281CBA
:103D50000AF076F8011C201C0AF072F81B9AA1AC3C
:103D600011680AF06DF8359B1860029A9F615A60DD
:103D7000049A9A60369ADA60379A1A61389A5A61C8
:103D80003E9A136870935368719393687293D368E3
:103D90007393136974935369759393697693D36995
:103DA0007793136A7893536A7993936A7A93D36A71
:103DB0007B93136B7C93536B7D93936B7E93D36B4D
:103DC0007F93136C8093536C8193936C8293D36C29
:103DD0008393136D8493536D8593936D8693D36D05
:103DE0008793136E8893536E8993936E8A93D36EE1
:103DF0008B93136F8C93536F8D93936F8E93D36FBD
:103E00008F938023D35890938423D35891938823FE
:103E1000D35892938C23D35893939023D35894934D
:103E20009423D358959301E00AE81C419823D35872
:103E300096939C23D3589793A023D3589893A42365
:103E4000D3589993A823D358349D9A93AC23D3582D
:103E50009B93B023D3589C93B423D3589D93B823FA
:103E6000D3589E93BC23D3589F93C023D358A09379
:103E70006B686A699946AB6849469846EB680E9844
:103E80000293049209F0F3FF41468246179809F025
:103E9000EEFF011C504609F0D3FF2F688246391C03
:103EA000069809F0E4FF011C504609F0C9FF2E698D
:103EB0008246311C269809F0DAFF049983462D9832
:103EC00009F0D5FF011C584609F0BAFF0299834654
:103ED0001F9809F0CCFF011C584609F0B1FF011CE6
:103EE000504609F0ADFF494620600F9809F0BFFF2A
:103EF00041468246189809F0BAFF011C504609F065
:103F00009FFF391C8246089809F0B1FF011C5046FA
:103F100009F096FF311C8246279809F0A8FF049902
:103F20008346339809F0A3FF011C584609F088FF27
:103F300002998346209809F09AFF011C584609F01F
:103F40007FFF011C504609F07BFF494660601098D6
:103F500009F08DFF41468246199809F088FF011C3F
:103F6000504609F06DFF391C8246099809F07FFF21
:103F7000011C504609F064FF311C8246289809F064
:103F800076FF049983462E9809F071FF011C58466C
:103F900009F056FF02998346219809F068FF011C39
:103FA000584609F04DFF011C504609F049FF4946AB
:103FB000A060119809F05BFF414682461A9809F00B
:103FC00056FF011C504609F03BFF391C82460A98F7
:103FD00009F04DFF011C504609F032FF311C8246AA
:103FE000299809F044FF049983462F9809F03FFF70
:103FF000011C584609F024FF02998346229809F0D3
:1040000036FF011C584609F01BFF011C504609F001
:1040100017FF4946E060129809F029FF41468246A1
:104020001C9809F024FF011C504609F009FF391CB7
:1040300082460B9809F01BFF011C504609F000FF57
:10404000311C82462A9809F012FF04998346309861
:1040500009F00DFF011C584609F0F2FE0299834653
:10406000239809F004FF011C584609F0E9FE011CE1
:10407000504609F0E5FE49462061169809F0F7FE22
:10408000414682461D9809F0F2FE011C504609F097
:10409000D7FE391C82460C9809F0E9FE011C5046F7
:1040A00009F0CEFE311C82462B9809F0E0FE0499FF
:1040B0008346319809F0DBFE011C584609F0C0FE2A
:1040C00002998346249809F0D2FE011C584609F053
:1040D000B7FE011C504609F0B3FE494660611498D2
:1040E00009F0C5FE414681461E9809F0C0FE011C3C
:1040F000484609F0A5FE391C80460D9809F0B7FE28
:10410000011C404609F09CFE311C071C2C9809F04C
:10411000AEFE0499061C329809F0A9FE011C301C61
:1041200009F08EFE0299061C259809F0A0FE011CDC
:10413000301C09F085FE011C381C09F081FED2AB51
:10414000A0611C3418359C4200D091E63E9C70AFB3
:104150002300C4330993A19B3F943D93A89B3C93B8
:10416000AF9B3B93B69B3A93BD9B3993C49B3893CB
:10417000CB9B3793A29B3693A99B3493B09B3393ED
:10418000B79B3293BE9B3193C59B3093CC9B2F93AF
:10419000A39B2E93AA9B2D93B19B2C93B89B2B93FF
:1041A000BF9B2A93C69B2993CD9B2893A49B2793BF
:1041B000AB9B2693B29B2593B99B2493C09B2393DF
:1041C000C79B2293CE9B2193A59B2093AC9B1F93CF
:1041D000B39B1E93BA9B1D93C19B1C93C89B1A93C0
:1041E000CF9B1993A69B1893AD9B1793B49B1493E5
:1041F000BB9B1693C29B1293C99B1193D09B1093A8
:10420000A79B0893AE9B0A93B59B0B93BC9B0C9307
:10421000C39B0D93CA9B0E93D19B0F93E068A56936
:104220008146A16820692368626880460691281C3F
:1042300037990293049209F01AFE6669824638990A
:10424000301C09F014FE011C504609F0F9FD3999A3
:104250008246404609F00BFE3A998346484609F0EB
:1042600006FE011C584609F0EBFD011C504609F002
:10427000E7FD3B998246069809F0F9FD3C99834693
:10428000049809F0F4FD011C584609F0D9FD3D9948
:104290008346029809F0EBFD011C584609F0D0FD59
:1042A000011C504609F0CCFD011C386809F0C5FD21
:1042B00038602F99281C09F0DAFD30998246301CAD
:1042C00009F0D5FD011C504609F0BAFD319982462E
:1042D000404609F0CCFD32998346484609F0C7FDB7
:1042E000011C584609F0ACFD011C504609F0A8FD20
:1042F00033998246069809F0BAFD349983460498AA
:1043000009F0B5FD011C584609F09AFD369983461F
:10431000029809F0ACFD011C584609F091FD011C02
:10432000504609F08DFD011C786809F086FD28993A
:104330007860281C09F09BFD29998246301C09F001
:1043400096FD011C504609F07BFD2A9982464046A5
:1043500009F08DFD2B998346484609F088FD011C24
:10436000584609F06DFD011C504609F069FD2C9975
:104370008246069809F07BFD2D998346049809F042
:1043800076FD011C584609F05BFD2E998346029884
:1043900009F06DFD011C584609F052FD011C504604
:1043A00009F04EFD011CB86809F047FD2199B8607D
:1043B000281C09F05CFD22998246301C09F057FD4B
:1043C000011C504609F03CFD23998246404609F005
:1043D0004EFD24998346484609F049FD011C584684
:1043E00009F02EFD011C504609F02AFD2599824650
:1043F000069809F03CFD26998346049809F037FD9C
:10440000011C584609F01CFD27998346029809F0C3
:104410002EFD011C584609F013FD011C504609F001
:104420000FFD011CF86809F008FD1999F860281CB7
:1044300009F01DFD1A998246301C09F018FD011C77
:10444000504609F0FDFC1C998246404609F00FFDDC
:104450001D998346484609F00AFD011C584609F09B
:10446000EFFC011C504609F0EBFC1E9982460698B1
:1044700009F0FDFC1F998346049809F0F8FC011C23
:10448000584609F0DDFC20998346029809F0EFFCBC
:10449000011C584609F0D4FC011C504609F0D0FC20
:1044A000011C386909F0C9FC10993861281C09F011
:1044B000DEFC11998246301C09F0D9FC011C5046E3
:1044C00009F0BEFC12998246404609F0D0FC1699CC
:1044D0008346484609F0CBFC011C584609F0B0FC65
:1044E000011C504609F0ACFC14998246069809F06C
:1044F000BEFC17998346049809F0B9FC011C584684
:1045000009F09EFC18998346029809F0B0FC011C42
:10451000584609F095FC011C504609F091FC011C1D
:10452000786909F08AFC494678610C9809F09FFC8B
:10453000414681460D9809F09AFC011C484609F055
:104540007FFC311C80460E9809F091FC291C061C4A
:104550000F9809F08CFC011C301C09F071FC011C47
:10456000404609F06DFC0499051C0A9809F07FFC8F
:104570000699061C0B9809F07AFC011C301C09F006
:104580005FFC0299061C089809F071FC011C301CA4
:1045900009F056FC011C281C09F052FC011CB869EA
:1045A00009F04BFC099B1C34B8611C379C4200D0BD
:1045B00034E63E99709B0B60719B4B60729B8B60E5
:1045C000739BCB60749B0B61759B4B61769B8B617E
:1045D000779BCB61789B0B62799B4B627A9B8B625A
:1045E0007B9BCB627C9B0B637D9B4B637E9B8B6336
:1045F0007F9BCB63809B0B64819B4B64829B8B6412
:10460000839BCB64849B0B65859B4B65869B8B65ED
:10461000879BCB65889B0B66899B4B668A9B8B66C9
:104620008B9BCB668C9B0B678D9B4B678E9B8B67A5
:104630008F9BCB678023909ACA50919A0433CA50BB
:10464000929A0433CA50939A0433CA50949A04330A
:10465000CA50959A0433CA50969A0433CA50979A0E
:104660000433CA50989A0433CA50999A0433CA50F2
:104670009A9A0433CA509B9A0433CA509C9A0433C2
:10468000CA509D9A0433CA509E9A0433CA509F9AC6
:104690000433CA50A09A0433CA503EAAEA2394466F
:1046A000DB0063441B6870AA13CB13C2EC23DB004E
:1046B00063441B68A1AA13CB13C21B9B359C0093B8
:1046C0008F4B200063441B68A1AA70A9FDF71AFB59
:1046D0003EAA94468A4B6344186809F04DFC3EAAF2
:1046E000EA23944606000F00DB0063441B6821693F
:1046F000186809F0A2FB09F03FFC0022814B08F08A
:104700008CFF32003B0008F088FF0290039109F013
:104710003BF83EAAEA239446DB0063441B686169C8
:104720000A90586809F089FB09F026FC0022754BB5
:1047300008F073FF32003B0008F06FFF0490059112
:1047400009F022F83EABEA229C46D200624412688D
:10475000A1690B909068359409F06FFB09F00CFC8F
:104760000022684B08F059FF32003B0008F055FF6B
:104770000D00040009F008F8359B0C90586809F00A
:10478000FBFB0022604B08F048FF32003B0008F0C2
:1047900044FF0690079108F0F7FF359B0D9098684D
:1047A00009F0EAFB0022584B08F037FF32003B00CB
:1047B00008F033FF02000B001292139308F0E4FF9D
:1047C000359B0E90D86809F0D7FB00224E4B08F0BD
:1047D00024FF32003B0008F020FF0B00020014927F
:1047E000159308F0D1FF029B0F90180080231B0641
:1047F0009C46039A6244110008F0C6FF802212060C
:10480000A9181090200008F0BFFF359B1190186880
:1048100009F0B2FB00223B4B08F0FFFE3B00802773
:10482000320008F0FAFE3F0608F0AEFF129C139D1E
:10483000BC462B00634419000890200008F0A4FF38
:10484000049E059F1690300080263606B4463B0035
:104850006344190008F098FF149D159E80221206EB
:1048600094463300634419001290280008F08CFF2E
:10487000069C079D8022120694462B006344190073
:104880001490200008F080FF3EAAEC239446DB0041
:10489000634417901B681968194B6344186809F042
:1048A000E6FA011CFE20800509F0C7FA3EAAEC23B7
:1048B0009446DB0063441B6818905968104B6344AE
:1048C000186809F0D4FA011CFE20800509F0B5FA39
:1048D0003EAAEC239446DB0063441B681990996858
:1048E000074B6344186809F0C2FA011CFE208005DA
:1048F00009F0A3FAA1AB1C003F9D1A901D9305E09F
:10490000640700000000E0BF0000E03F2B682A6958
:104910009B46AB68A9699846EB680F98069302928C
:10492000049109F0A4FA6E698146311C0E9809F0D1
:104930009EFA011C484609F083FA029981460D98B7
:1049400009F095FA069982460C9809F090FA011C34
:10495000504609F075FA011C484609F071FA4146C3
:1049600081460B9809F083FA6F688246391C0A98D1
:1049700009F07DFA011C504609F062FA594609F027
:104980005FFA011C484609F05BFA0499206016980A
:1049900009F06DFA311C81460F9809F068FA011C84
:1049A000484609F04DFA02998146089809F05FFAE5
:1049B000069982460B9809F05AFA011C504609F0F4
:1049C0003FFA011C484609F03BFA414681461198DE
:1049D00009F04DFA391C09F033FA5946824610980D
:1049E00009F045FA011C504609F02AFA011C484614
:1049F00009F026FA049960600D9809F038FA311C24
:104A00008146089809F033FA011C484609F018FA63
:104A100002998146149809F02AFA0699824610985C
:104A200009F025FA011C504609F00AFA011C484613
:104A300009F006FA391C81460C9809F018FA41462B
:104A400009F0FEF959468246129809F010FA011C45
:104A5000504609F0F5F9011C484609F0F1F90499AE
:104A6000A060089809F003FA311C8146179809F0F4
:104A7000FEF9011C484609F0E3F9029981460E98B7
:104A800009F0F5F9069909F0DBF9011C484609F02F
:104A9000D7F9414681460A9809F0E9F9391C82465E
:104AA000129809F0E4F9011C504609F0C9F9594679
:104AB0008246119809F0DBF9011C504609F0C0F953
:104AC000011C484609F0BCF90021E060404609F0AD
:104AD000CEF900218046381C09F0C9F9011C404676
:104AE00009F0AEF90021071C584609F0C0F9011C75
:104AF000381C09F0A5F90021071C069809F0B7F940
:104B000000218246301C09F0B2F900218046049849
:104B100009F0ADF902998146189809F0A8F95146B3
:104B200009F08EF941468346484609F089F9011C8F
:104B3000584609F085F9391C09F082F900212061F5
:104B4000029809F094F9514609F07AF98246311C2D
:104B5000199809F08CF9494609F072F9514609F0A3
:104B60006FF9391C09F06CF9049960611A9809F021
:104B70007EF9414609F064F9514609F061F9391CA2
:104B800009F05EF9099B1C35A0611C349D4200D0E0
:104B9000BCE670ADA8AB1D9C3795C4AE1C932368D2
:104BA00031689B46E369F0699846636D226F049112
:104BB0000690191C0C980292099309F058F9029971
:104BC00081460D9809F053F9011C484609F038F95F
:104BD000049981460E9809F04AF9069982460F9881
:104BE00009F045F9011C504609F02AF9011C484614
:104BF00009F026F9414681460A9809F038F9A76B71
:104C00008246391C0B9809F032F9011C504609F014
:104C100017F9594609F014F9011C484609F010F932
:104C2000099928600B9809F022F9029981460898A1
:104C300009F01DF9011C484609F002F90499814662
:104C40000F9809F014F906998246169809F00FF9A1
:104C5000011C504609F0F4F8011C484609F0F0F830
:104C6000391C8146119809F002F9414609F0E8F82B
:104C700059468246109809F0FAF8011C504609F08E
:104C8000DFF8011C484609F0DBF8099968601098C4
:104C900009F0EDF802998146149809F0E8F8011C32
:104CA000484609F0CDF804998146089809F0DFF8E4
:104CB000069982460D9809F0DAF8011C504609F071
:104CC000BFF8011C484609F0BBF8414681460C98E4
:104CD00009F0CDF8391C09F0B3F85946824612980C
:104CE00009F0C5F8011C504609F0AAF8011C484615
:104CF00009F0A6F80499A860179809F0B8F8069981
:104D00008146089809F0B3F8011C484609F098F864
:104D1000029981460E9809F0AAF8099909F090F8CD
:104D2000011C484609F08CF841468146129809F06A
:104D30009EF8391C82460A9809F099F8011C5046E1
:104D400009F07EF859468246119809F090F8011C46
:104D5000504609F075F8011C484609F071F8002129
:104D6000E860404609F083F800218046381C09F0CD
:104D70007EF8011C404609F063F80021071C5846E4
:104D800009F075F8011C381C09F05AF80021071CBD
:104D9000099809F06CF800218246049809F067F838
:104DA00000218046069809F062F802998146189819
:104DB00009F05DF8514609F043F8494683464046FC
:104DC00009F03EF8011C584609F03AF8391C09F080
:104DD00037F800212861029809F049F8514609F096
:104DE0002FF882460499199809F041F8494609F0CC
:104DF00027F8514609F024F8391C09F021F80699E2
:104E000068611A9809F033F8414609F019F85146DB
:104E100009F016F8391C09F013F8A8611C9B04343A
:104E20001C3504369C4200D0B9E63EAA9446744B29
:104E3000734A63441B6862441B6812680893704B92
:104E4000A1AD63441B68DB6909936D4B63441B6828
:104E50009B6B0A936A4B63441B685B6D0B93684BB7
:104E600063441B681B6F0C938C23D358644A0D93C7
:104E7000634B624463441B685B680E93604B6344FE
:104E80001B681B6A0F935E4B63441B68DB6B1093BC
:104E90005B4B63441B689B6D1193594B63441B68C8
:104EA0005B6F129390231268D358554A1693544B54
:104EB000624463441B6812689B681493504B6344BC
:104EC0001B685B6A17934E4B63441B681B6C1893FB
:104ED0004B4B63441B68DB6D1993494B63441B6860
:104EE0009B6F1A939423D358454A1C93444B6244B6
:104EF00063441B68DB681D93414B63441B689B6ADA
:104F00001E933F4B63441B685B6C1F933C4B634495
:104F10001B681B6E20933A4B126863441B68DB6F5F
:104F200021939823D358364A2293354B62446344E5
:104F30001B6812681B692393314B63441B68DB6A4F
:104F400024932F4B63441B689B6C25932C4B634429
:104F50001B685B6E26938023D358294A27939C2392
:104F600062441268D358264A2893254B624463440E
:104F70001B685B692993224B63441B681B6B2A9354
:104F80001F4B63441B68DB6C2B931D4B12686344FF
:104F90001B689B6E2C938423D358194A2D93A0230E
:104FA00062441268D358164A2E93154B62446344E8
:104FB0001B6812689B692F93114B63441B685B6BE2
:104FC00030930F4B63441B681B6D31930C4B634450
:104FD0001B68DB6E32938823D358094A3393A4238A
:104FE00062441268D3583493064B63441F68A1ABE4
:104FF000389390239C46BC446346069304E0C04625
:105000005C070000540700007B687A699946BB681A
:1050100049469846FB6809980293049208F027FFD6
:10502000414682460A9808F022FF011C504608F0CB
:1050300007FF3E688246311C089808F018FF011CE3
:10504000504608F0FDFE3C698246211C0C9808F091
:105050000EFF049983460D9808F009FF011C58467D
:1050600008F0EEFE029983460B9808F000FF011C41
:10507000584608F0E5FE011C504608F0E1FE0F9985
:105080002860484608F0F3FE10998246404608F032
:10509000EEFE011C504608F0D3FE0E998246301CED
:1050A00008F0E5FE011C504608F0CAFE129982463F
:1050B000201C08F0DCFE16998346049808F0D7FE01
:1050C000011C584608F0BCFE11998346029808F06E
:1050D000CEFE011C584608F0B3FE011C504608F0F5
:1050E000AFFE17996860484608F0C1FE18998246DD
:1050F000404608F0BCFE011C504608F0A1FE149981
:105100008246301C08F0B3FE011C504608F098FEA1
:105110001A998246201C08F0AAFE1C99834604981E
:1051200008F0A5FE011C584608F08AFE199983462E
:10513000029808F09CFE011C584608F081FE011CF4
:10514000504608F07DFEA8601E99484608F08FFE84
:105150001F998246404608F08AFE011C504608F01E
:105160006FFE1D998246301C08F081FE011C5046DE
:1051700008F066FE21998246201C08F078FE2299EC
:105180008346049808F073FE011C584608F058FE48
:1051900020998346029808F06AFE011C584608F0E0
:1051A0004FFE011C504608F04BFE2499E86048462B
:1051B00008F05DFE25998246404608F058FE011C25
:1051C000504608F03DFE23998246301C08F04FFE01
:1051D000011C504608F034FE27998246201C08F036
:1051E00046FE28998346049808F041FE011C584663
:1051F00008F026FE26998346029808F038FE011C26
:10520000584608F01DFE011C504608F019FE2A9968
:105210002861484608F02BFE2B998246404608F04C
:1052200026FE011C504608F00BFE29998246301CD0
:1052300008F01DFE011C504608F002FE2D99824622
:10524000201C08F014FE2E998346049808F00FFEE7
:10525000011C584608F0F4FD2C998346029808F08A
:1052600006FE011C584608F0EBFD011C504608F0F4
:10527000E7FD30996861484608F0F9FD31998146AB
:10528000404608F0F4FD011C484608F0D9FD2F996E
:105290008046301C08F0EBFD011C404608F0D0FDB4
:1052A0003399061C201C08F0E2FD3499041C049874
:1052B00008F0DDFD011C201C08F0C2FD3299041C21
:1052C000029808F0D4FD011C201C08F0B9FD011C57
:1052D000301C08F0B5FD069B1837A8611C35BB4291
:1052E00000D091E6C4AB0693379CA8AB389D3693AB
:1052F000EB690D999946AB6B2E6F98466B6D2F68D5
:105300000493069B043504CB101C0292069308F00C
:10531000AEFD0C998246301C08F0A9FD011C5046D8
:1053200008F08EFD0B998246049808F0A0FD011C40
:10533000504608F085FD0A998246404608F097FDE0
:1053400009998346484608F092FD011C584608F02A
:1053500077FD08998346381C08F089FD011C5846E2
:1053600008F06EFD011C504608F06AFD011C206823
:1053700008F066FD10992060404608F078FD0F990E
:105380008246484608F073FD011C504608F058FD5F
:105390000E998246381C08F06AFD011C504608F040
:1053A0004FFD12998246301C08F061FD1699834624
:1053B000029808F05CFD011C584608F041FD119967
:1053C0008346049808F053FD011C584608F038FD48
:1053D000011C504608F034FD011C606808F030FDE7
:1053E00017996060484608F042FD18998246404689
:1053F00008F03DFD011C504608F022FD149982463C
:10540000381C08F034FD011C504608F019FD1A99AB
:105410008246301C08F02BFD1C998346029808F048
:1054200026FD011C584608F00BFD19998346049887
:1054300008F01DFD011C584608F002FD011C5046F5
:1054400008F0FEFC011CA06808F0FAFC1E99A060A0
:10545000484608F00CFD1F998246404608F007FDBB
:10546000011C504608F0ECFC1D998246381C08F0DF
:10547000FEFC011C504608F0E3FC21998246301CDA
:1054800008F0F5FC22998346029808F0F0FC011C14
:10549000584608F0D5FC20998346049808F0E7FCAC
:1054A000011C584608F0CCFC011C504608F0C8FC12
:1054B000011CE06808F0C4FC2499E060484608F04C
:1054C000D6FC25998246404608F0D1FC011C504686
:1054D00008F0B6FC23998246381C08F0C8FC011C71
:1054E000504608F0ADFC27998246301C08F0BFFCFE
:1054F00028998346029808F0BAFC011C584608F027
:105500009FFC26998346049808F0B1FC011C58467C
:1055100008F096FC011C504608F092FC011C206922
:1055200008F08EFC2A992061484608F0A0FC2B99CF
:105530008246404608F09BFC011C504608F080FC67
:1055400029998246381C08F092FC011C504608F04C
:1055500077FC2D998246301C08F089FC2E998346F1
:10556000029808F084FC011C584608F069FC2C994C
:105570008346049808F07BFC011C584608F060FC48
:10558000011C504608F05CFC011C606908F058FCE6
:1055900030996061484608F06AFC3199814640467E
:1055A00008F065FC011C484608F04AFC2F9980462B
:1055B000381C08F05CFC011C404608F041FC3399A3
:1055C000071C301C08F053FC3499061C029808F0A4
:1055D0004EFC011C301C08F033FC3299061C049868
:1055E00008F045FC011C301C08F02AFC011C381C8A
:1055F00008F026FC011CA06908F022FC369BA06183
:105600001C349D4200D073E63E99709B0B60779BE3
:105610004B607E9B8B60859BCB608C9B0B61939BCF
:105620004B619A9B8B61719BCB61789B0B627F9BDB
:105630004B62869B8B628D9BCB62949B0B639B9B87
:105640004B63729B8B63799BCB63809B0B64879BC3
:105650004B648E9B8B64959BCB649C9B0B65739B6F
:105660004B657A9B8B65819BCB65889B0B668F9B7B
:105670004B66969B8B669D9BCB66749B0B677B9B57
:105680004B67829B8B67899BCB678023909ACA501C
:10569000979A0433CA509E9A0433CA50759A0433B9
:1056A000CA507C9A0433CA50839A0433CA508A9AE7
:1056B0000433CA50919A0433CA50989A0433CA509A
:1056C0009F9A0433CA50769A0433CA507D9A0433A1
:1056D000CA50849A0433CA508B9A0433CA50929A9F
:1056E0000433CA50999A0433CA50A09A0433CA505A
:1056F000359B1A685F68111C101C90469E68DD6817
:1057000008F0B5FB391C041C381C08F0B0FB011C68
:10571000201C08F095FB311C041C301C08F0A7FB72
:10572000011C201C08F08CFB291C041C281C08F000
:105730009EFB011C201C08F083FB08F027FC041CC6
:10574000011C404608F07FFB359B211C1860381C6B
:1057500008F079FB359F211C7860301C08F073FB42
:10576000211CB860281C08F06EFB1B9BF8601A68AF
:105770005F68111C101C90469E68DD6808F077FB7E
:10578000391C041C381C08F072FB011C201C08F09A
:1057900057FB311C041C301C08F069FB011C201C49
:1057A00008F04EFB291C041C281C08F060FB011C9F
:1057B000201C08F045FB08F0E9FB041C011C4046D6
:1057C00008F041FB1B9B211C1860381C08F03BFBB8
:1057D0001B9F211C7860301C08F035FB211CB86031
:1057E000281C08F030FBF8600020044B9D44F0BCFE
:1057F000BB46B246A946A046F0BDC04624080000FC
:10580000F0B5D6464F464646C0B586B0A14B02AC71
:1058100000941A68A04D02929A882800A2809B7971
:105820006A46A3710723019300236946D3730DF0E1
:10583000B9FA0098A04203D00299013108F0A2FD04
:1058400028000DF0F7FA954E9C2431000122944D6A
:1058500001C1A400830F43406B439818013201C17A
:10586000A242F7D19C230024002000211B01F2500A
:105870008C4D00228C4B9C60DD60002418605960C8
:1058800018615961FE201A76884B80051C605C60A7
:105890009C60DC60864B1C605C609C60DC60854BBF
:1058A0001C605C60844B1C605C60844B1C605C60B2
:1058B000834B1C605C609C60DC60824B1C605C60A5
:1058C000814D9C60DC60814B29681C6008F0BBFA4C
:1058D0007F4E804B3060FE201C605C609C60DC6012
:1058E0007D4B80051C605C607C4B1C605C607C4B6D
:1058F0001C605C607B4B1C605C609C60DC607A4B75
:105900001C605C609C60DC60784B1C605C609C6030
:10591000DC60774B29681C605C60764B764E1C60BF
:105920005C60764B1C605C60754B1C605C609C60CE
:10593000DC60744B1C605C609C60DC60724B1C60C3
:1059400008F081FA714B30601C605C609C60DC6028
:105950006F4B1C605C606F4B1C605C606E4B1C602E
:105960005C606E4B1C605C609C60DC606C4B1C601F
:105970006C4B1C606C4B6D4C1868011C08F077FA7E
:105980006B4B206018686B4C011C08F070FA6A4B76
:1059900020601C68694B6A4D1868011C08F050FAB9
:1059A000684B196808F063FA211C08F060FA664B2E
:1059B000196808F048FA011CFE20800508F03DFA3D
:1059C000624B28601C60624B1E68301C08F0EEFAC7
:1059D000604B051C301C1F6808F0FAFA5E4B8246CB
:1059E0001E685E4B391C281C994608F040FA311C91
:1059F0008046504608F03BFA011C404608F020FA69
:105A0000211C08F034FA4B461860554B1B68984629
:105A1000544B41461B689946534B9A4680231B06BC
:105A2000F81808F024FA514B071C1968301C08F0CC
:105A30001EFA011C381C08F003FA4D4B071C1968AC
:105A4000281C08F014FA494608F011FA011C381C09
:105A500008F0F6F9211C08F00AFA802352461B06CA
:105A600010604946F01808F002FA211C08F0FFF90E
:105A7000404F41463860201C08F0F9F9291C08F015
:105A8000E2F93D4E306006B0E0BCBA46B146A846E9
:105A9000F0BDC046DC680110683D03207032032071
:105AA0006589076C0000F03FB02B00209029002092
:105AB000B0290020703C0320683C03204C2D0320BB
:105AC000102A0020F0290020683600201C24032022
:105AD00070360020D02900204C3C032014320320D3
