:020000041000EA
:1000000000B5324B212058609868022188439860DF
:10001000D860186158612E4B002199600221596106
:100020000121F02299502B49196001219960352056
:1000300000F044F80222904214D00621196600F024
:1000400034F8196E01211966002018661A6600F04E
:100050002CF8196E196E196E052000F02FF8012189
:100060000842F9D1002199601B49196000215960AB
:100070001A491B48016001219960EB211966A021F2
:10008000196600F012F800219960164914480160C1
:100090000121996001BC002800D000471248134993
:1000A000086003C880F30888084703B5996A0420EC
:1000B0000142FBD001200142F8D103BD02B5186610
:1000C0001866FFF7F2FF186E186E02BD00000240BE
:1000D000000000180000070000035F00212200005C
:1000E000F4000018222000A00001001008ED00E03C
:1000F00000000000000000000000000074B24E7A12
:1001000000200420F7010010CB010010CD010010E9
:10011000C9010010C9010010C9010010C901001077
:10012000C9010010C9010010C9010010CF01001061
:10013000C9010010C9010010D1010010D301001045
:10014000C1010010C1010010C1010010C101001067
:10015000C1010010C1010010C1010010C101001057
:10016000C1010010C1010010C1010010C101001047
:10017000C1010010C1010010C1010010C101001037
:10018000C1010010C1010010C1010010C101001027
:10019000C1010010C1010010C1010010C101001017
:1001A000C1010010C1010010C1010010C101001007
:1001B000C1010010C1010010C1010010C1010010F7
:1001C000EFF30580103800BE00BE00BE00BE00BECA
:1001D00000BE00BEF2EB887180700110A0700110AB
:1001E0003802001090A31AE71E481F49086006C88D
:1001F00081F3088810471D480068002801D019487D
:10020000F3E70DA40ECC002902D000F012F8F9E7B4
:100210001749184A002000E001C19142FCD116495B
:100220008847164988471649884700BEFDE701C937
:1002300001C29A42FBD37047A0700110C000002099
:10024000BC2700209C97011000000420000004201F
:100250009C970110001004200010042000000000F2
:10026000704700000000000008ED00E0000000D032
:10027000BC2700200448032091FF00104103001018
:1002800089FF0010F8B5C0460448054B10B58342FD
:1002900003D0044B002B00D0984710BDBC27002092
:1002A000BC2700200000000006480749091A8B10EF
:1002B000C90FC91810B5491003D0044B002B00D04A
:1002C000984710BDBC270020BC270020000000007C
:1002D00010B5074C2378002B09D1FFF7D5FF054B4C
:1002E000002B02D0044800E000BF0123237010BDA2
:1002F000502D002000000000145F0110054B10B5C8
:10030000002B03D00449054800E000BFFFF7CCFFF5
:1003100010BDC04600000000542D0020145F0110E5
:1003200010B504001F210BF0D9FA00222000002193
:100330000BF0EEFA002120000BF0FEFA10BDC046D3
:1003400070B519200BF00CFBD02380221B06920401
:100350005A622F480FF0E0FF0FF08EFF2D480FF08C
:10036000DBFF0CF07FFF1A20FFF7DAFF1B20FFF7FF
:10037000D7FF00F067F828480FF0CEFF06F0AAFD7F
:1003800026480FF0C9FF07F00DFC25480FF0C4FF09
:1003900007F040F801F0E8FB22480FF0BDFF09F03C
:1003A0008BFF00220524204B1A7006F055F91F48D8
:1003B0000FF0B2FF1E4D013C2100280010F034F870
:1003C000FA2080000CF0A2F8002CF4D10A200FF0E3
:1003D00057FF0122002117480BF0C0FC164812F00D
:1003E0006BFC0AF04BF90122144B154C1A700AF001
:1003F00061F92378012BFAD107F090FD2378012BC6
:10040000F5D107F08BFD2378012BF0D1F4E7C0463E
:10041000185F0110285F0110345F0110405F011068
:10042000505F0110605F0110E8470320705F01100A
:100430007C5F0110D046032065810010E747032050
:10044000EC470320092370B586B005930433049369
:10045000023B0393013B0293023B324D324C01932A
:10046000324B22003249334800932B0005F0A8FD9F
:10047000142005F0A1FDFA2080000CF047F82E4E64
:1004800021003200280005F0BDFF3378682B08D02A
:100490002A4C20000FF040FFFA2080000CF036F8C4
:1004A000F7E773783D2BF3D101222100280005F0F6
:1004B000CDFF234E32002100280006F001F83378EA
:1004C000002BF7D101222100280005F079FE01213F
:1004D000200005F057FE0321200005F0E3FD032175
:1004E000280005F017FF1321200006F057F812210D
:1004F000200006F091F80021200006F06FF803219B
:10050000200005F0F9FF0221200006F011F8552126
:10051000200005F0E5FD1821280005F091FE06B049
:1005200070BDC04658220320D435002040420F0041
:100530002C21002034210020A0470320905F0110CF
:10054000FF470320F0B5C646334C344E344D2200ED
:100550003100280000B505F067FF6378DB439B0797
:1005600020D023781B0702D480BCB846F0BD2D4CA8
:100570000622002120000EF005F92100280005F0D8
:1005800023FF0023E05E05F083FD274D2860022352
:10059000E05E05F07DFD68600423E05E05F078FD17
:1005A000A860E1E7214B06229846180000210EF0D2
:1005B000E9F81F4F0622002138000EF0E3F841460B
:1005C000300005F0E3FE3900300005F0C1FE43467F
:1005D0000020185E05F048FD4346164E30600220AC
:1005E000185E05F041FD434670600420185E05F07A
:1005F0003BFDB0600023F85E05F040FD0E4E30601C
:100600000223F85E05F03AFD70600423F85E05F001
:1006100035FDB060A5E7C046E43C0320D43500209A
:1006200058220320E02C0320EC310320D02C03209F
:10063000D82C0320682B0320782B0320F0B54E46DE
:10064000DE4657464546E0B58BB0049016000800DC
:1006500001920322D9170A40D21894100994A400D9
:10066000A146002C00DC89E0159C159DA400029495
:10067000149C0021621B921B920003924268B500F9
:100680001401A0469400A4465400A418D7000268A0
:10069000079092460692721E9200059200225544DF
:1006A000934600922A000026654608009446A4005E
:1006B0000893029B9A46019B5044002B18DD049935
:1006C00083008A4653448246069A5A441168196048
:1006D000B118485904325860C85998600959D9600E
:1006E00010336245F2D1059B50469A46043050447F
:1006F000039B42469A46009B504404330093C344F4
:100700004544B61A47444444C4449945D1DC0100E9
:10071000089B07984B452ADD05684268159C14988C
:10072000061B0198361A002821DD9400A446099C76
:10073000870062431201AD18020030000C009A4697
:1007400004994B469146159A6646884693468446D8
:1007500000225C44A0004044A95881500432BA42AF
:10076000FAD14C4401336444AD199A45F0D10BB031
:10077000F0BCBB46B246A946A046F0BD0021C9E781
:10078000F0B5CE4647469C4680B5002B1ADD002AC0
:1007900018DD9300984603000868002581464C68E0
:1007A000D2004344A400574241465E1A3100AA00D9
:1007B0004A441068121901C18B42FAD10135F31B6A
:1007C0006545F1D1C0BCB946B046F0BDF0B557465D
:1007D000DE464E464546E0B58BB0069109921100C3
:1007E00000220A6002680527059282680790049239
:1007F00000220392013A08920523049DDB1B5D430E
:100800009A46039BAD009C46059B65449C46654407
:100810002C686E686400760064087608211C301C21
:100820000DF07CFD002800D159E1341C01267B1C11
:100830009B46012F00D137E1AB68211C5B005B08B0
:10084000181C98460DF06AFD002800D049E15B466F
:10085000032B00D128E1A046EB6841465B005B0812
:10086000181C99460DF05AFD002800D048E15B465F
:10087000042B00D117E1C1462C6949466400640885
:10088000201C0DF04BFD002800D048E15B464C4693
:10089000062B00D008E16869211C400040080DF0DB
:1008A0003DFD002800D1FFE00521069B039A0526A7
:1008B0009950079B01259B68049301239946059A4B
:1008C000B3009446100063441968039C56461259BD
:1008D000A446015101001A60049A614492008918EB
:1008E0009B1808681C680C60186089189B180868B9
:1008F0001C680C60186089189B1808681C680C60DC
:10090000186089189B1808681C680C6018608918A2
:100910009B1818680A6808601A60099A13680133FE
:100920001360079B9B6804935E4353460598F31836
:100930009B001B589A46030098464E44B400A044BE
:100940004246514610680DF098FC42461060012F57
:1009500031D0059A231D9046984443465146186865
:100960000DF08BFC43461860022F24D0059A23001B
:100970009046083398444346514618680DF07DFC74
:1009800043461860032F16D0059A230090460C3377
:1009900098444346514618680DF06FFC4346186072
:1009A000052F08D1059B10349846444420685146D1
:1009B0000DF063FC2060049BB6001C009B000193BB
:1009C000039B6C439C46059BA5001A004C44914632
:1009D0009B4692469046331D6544A40099440433D7
:1009E0005D445C449A44B3440433103694469844BE
:1009F00033000026634402935B46296818680DF0B3
:100A000050FC011C20680DF032FC2060012F39D011
:100A10004B46286819680DF044FC011C60680DF015
:100A200026FC6060022F21D05346286819680DF01B
:100A300038FC011CA0680DF01AFCA060032F15D033
:100A40004346286819680DF02CFC011CE0680DF085
:100A50000EFCE060052F09D1029B296818680DF093
:100A600020FC011C20690DF002FC2061019B013675
:100A70009C4665446444B742BED1039B013F0433A6
:100A80000393B9E6019B01369C4665446444012EFC
:100A9000B2D10523069A53610BB0F0BCBB46B246F7
:100AA000A946A046F0BD4446069B039A56449E5074
:100AB00006230021DB1B201C99461D000DF020FCA5
:100AC000079B9B680493002838D056465E43089BDA
:100AD0004E44013300D06EE7534608936BE700267F
:100AE000A5E65B460226032B00D0B5E605260425C5
:100AF000069B039AA9469E50079B9B680493DEE6DB
:100B00005B460326042B00D0B6E605260325069B8C
:100B1000039AA9469E50079B9B680493CFE65B46C9
:100B20000426062B00D1B6E605260225069B039A6D
:100B3000A9469E50079B9B680493C0E6564500D08B
:100B4000BDE656465E435346059A9B199B009B584B
:100B50009A461300F0E6C046F0B557464546DE46D5
:100B60004E46E0B599B01500249A070014932698D4
:100B7000259B541C00D1229A5C1C00D1229B239CF3
:100B8000E61703243440239EB44607266444A41089
:100B9000A446A4000D94229CB443149E002E00DCB5
:100BA0008AE2920016921A01119202019346621E85
:100BB000D20801320591D10152010F929A00109290
:100BC000624653439B001B189B00EB1815930023B0
:100BD000AB440A935B46B8461391009417930D9B60
:100BE000002B00DCC2E10F9A059B944663441293EC
:100BF000179B019300231E0043460E9331000A9871
:100C00000E9B84460CCB59436144890051180B91CB
:100C1000711C5943614489008B46B11C594391466C
:100C2000614489008A46F11C4B4363449B00019F49
:100C30009944009B3C0093449244002B00DC42E228
:100C4000059B002598460023444607950495039587
:100C500006950995029508950C9323683968181C28
:100C600098460DF01EFB08990DF004FB796808907A
:100C700040460DF016FB02990DF0FCFAB96802909F
:100C800040460DF00EFB09990DF0F4FAF968099051
:100C900040460DF006FB06990DF0ECFA06906368ED
:100CA0003969181C98460DF0FCFA03990DF0E2FA28
:100CB0007969039040460DF0F4FA04990DF0DAFAE0
:100CC000B969049040460DF0ECFA07990DF0D2FA9C
:100CD000F969079040460DF0E4FA291C0DF0CAFAB4
:100CE0008046A568396A281C0DF0DBFA08990DF0DA
:100CF000C1FA796A0890281C0DF0D3FA02990DF018
:100D0000B9FAB96A0290281C0DF0CBFA09990DF0D6
:100D1000B1FAF96A0990281C0DF0C3FA06990DF092
:100D2000A9FA0690E568396B281C0DF0BAFA039908
:100D30000DF0A0FA796B0390281C0DF0B2FA04991B
:100D40000DF098FAB96B0490281C0DF0AAFA0799D7
:100D50000DF090FAF96B0790281C0DF0A2FA4146AD
:100D60000DF088FA80462569396C281C0DF099FA37
:100D700008990DF07FFA796C0890281C0DF091FA13
:100D800002990DF077FAB96C0290281C0DF089FADF
:100D900009990DF06FFAF96C0990281C0DF081FA91
:100DA00006990DF067FA06906569396D281C0DF0FB
:100DB00078FA03990DF05EFA796D0390281C0DF016
:100DC00070FA04990DF056FAB96D0490281C0DF0D4
:100DD00068FA07990DF04EFAF96D0790281C0DF08E
:100DE00060FA41460DF046FA8046A569396E281C26
:100DF0000DF057FA08990DF03DFA796E0890281C0D
:100E00000DF04FFA02990DF035FAB96E0290281CD8
:100E10000DF047FA09990DF02DFAF96E0990281C8A
:100E20000DF03FFA06990DF025FA0690E569396F45
:100E3000281C0DF036FA03990DF01CFA796F039017
:100E4000281C0DF02EFA04990DF014FAB96F0490D5
:100E5000281C0DF026FA07990DF00CFAF96F07908F
:100E6000281C0DF01EFA41460DF004FA051C8037CF
:100E700020340C9B009A08330C939A4200DDECE678
:100E8000139B019C9C460899039864440DF0F2F969
:100E90000299039004980DF0EDF9099902900798D2
:100EA0000DF0E8F906990490281C0DF0E3F9129B67
:100EB000051C0693229A009B9A422EDD9846069BBB
:100EC000216880CB381C06930DF0EBF9011C0398C8
:100ED0000DF0D0F961680390381C0DF0E2F9011CA7
:100EE00002980DF0C7F9A1680290381C0DF0D9F9ED
:100EF000011C04980DF0BEF9E1680490381C0DF057
:100F0000D0F9011C281C0DF0B5F9051C01239C46E5
:100F1000229BE04410344345D1D15B4602991868C6
:100F20000DF0A5F90B9F041C039938680DF09FF98B
:100F30005B4638601C604B46291C18680DF097F919
:100F40005346041C049918680DF091F95346119A00
:100F500018604B4694461C60019B04366344019321
:100F60000D9BB34200DD49E60E9B98460F9A059B08
:100F7000944663440D9A0293239B1600159D934259
:100F800000DC8DE043460A9A5B6894464246734310
:100F9000146863449B00E418009B2F00002B00DCC6
:100FA00098E000239A460023059F9B463B00A146FC
:100FB0002F001C00396820680DF073F959460DF0B8
:100FC00059F98346796860680DF06BF959460DF060
:100FD00051F98346B968A0680DF063F959460DF0E0
:100FE00049F98346F968E0680DF05BF959460DF060
:100FF00041F98346396920690DF053F959460DF0DE
:1010000039F98346796960690DF04BF959460DF05D
:1010100031F98346B969A0690DF043F959460DF0DD
:1010200029F98346F969E0690DF03BF959460DF05D
:1010300021F983462037203408239C46009BE24454
:101040005345B7DC4C460F9BEF18029B0193229A45
:10105000009B9A4217DD9A46002399464B464A4622
:10106000F958019B98580DF01CF9011C58460DF0D9
:1010700001F9834601239C460333E2449C46229BAC
:10108000E1445345EAD1206859460DF0F0F8109B31
:1010900001369C46239B20606544B34200D071E733
:1010A0001699059A8C460A9B62440592149A01335C
:1010B0000A939A4200D092E519B0F0BCBB46B24602
:1010C000A946A046F0BD0025059B04950693029510
:1010D0000395EFE6059B019300239B46B7E7C046C7
:1010E000F0B55746DE464E464546E0B513689BB020
:1010F00006AFB86339627B62002B00D1FEE0536813
:101100009846002B00D104E18E4D280011F000FE1E
:101110008D4C002800D00AE1602160680CF02CFAA8
:10112000801083009946042B01DA04239946062394
:101130009B4600239A4643464E46D1463B615B465A
:10114000FB62B34500DDFE624B465B004B445A0038
:101150007A613A69DB0094469C446246FA613A6AD5
:10116000FE6094466344BB61FB6A4B443B640623C8
:1011700098464B463B635B464446BB600223BB62DA
:10118000042C01DD0233BB62BA6AA300043B9A4619
:10119000531E984663001B195B00A61A063BBA6BE8
:1011A0009B199B00D5183A6A7B6994469B199B0052
:1011B00063447B633E60B300AB4656465B42FB63D1
:1011C0007C60FE20BA6BF3009B1BD15880050DF0AC
:1011D00054F83D6BB2462E007C6B7864FB6B524634
:1011E0009946A1444B46786C99580DF05AF84B46F5
:1011F000524698504346051C002B22DD5B46196879
:101200000DF04FF8011C20680DF031F843462060C6
:10121000012B16D05B46281C59680DF042F8011CC2
:1012200060680DF024F843466060022B09D05B46ED
:10123000281C99680DF035F8011CA0680DF017F80E
:10124000A0603B6C013618349E42C7DB18235B421A
:101250009C4656464346043EE344013B9846B0D282
:10126000062548217B6B3E68BB647C68FD64019663
:101270000095FB6ABA6AF86979189B4690468246DF
:10128000FFF7DCF9002E16DC043CA31C00D075E748
:101290003B6BFE689946BB68B1449B1B9B464B4623
:1012A000052B00DC4BE7BD4615B0F0BCBB46B24693
:1012B000A946A046F0BDB96B73008C4648219B1926
:1012C000DB006344786A4246BB6479183300814688
:1012D000FD64FFF755FABB69FD64BB6448205B46BB
:1012E00003954546019352463300494604960295BC
:1012F00000953818FFF730FC043C3FE70F21A8B0F9
:1013000027336B448B437B6253689846002B00D095
:10131000FAE60F220B4DA8B027336B449343280005
:10132000984611F0F5FC084C002800D1F4E6802323
:10133000DB012360802328001B036360A36011F09E
:1013400003FDE9E654250320AC250320F0B55746FC
:10135000DE464E464546E0B5136897B006AFB86125
:1013600079613B62002B00D1ECE05668002E00D181
:10137000F2E0854D280011F0CBFC844C002800D011
:10138000F7E0602160680CF0F7F880108300994660
:10139000042B01DA0423994606239B460023BE60F2
:1013A0005C464E463B63A046B44200DDB0463A6B15
:1013B000C3469446530063445900F960B968DB00A2
:1013C0008C469C446146F961796942448C46634489
:1013D0007B62002392461A007C60BB623E6006235B
:1013E0009B1A3B61FB62042B01DD0423FB62FB6A59
:1013F000BA6A013B9946D3009B1ABA699B00D5187B
:10140000C8462C007B6A4246002A38DD3D6BA14667
:101410001E002C007B634B4635685968281C0CF075
:1014200040FF011C70680CF022FF43467060012BE6
:1014300016D04B46281C99680CF033FF011CB0688D
:101440000CF015FF4346B060022B09D04B46281C18
:10145000D9680CF026FF011CF0680CF008FFF06062
:1014600001341836A245D6DC012252429446E044AB
:101470004C4642467B6B1C340433002AC6DC013ADE
:10148000904649D2062438213B69FA6ABD6A9E1A01
:101490007B6AFC63BB63019500945B46F86979182D
:1014A0009046FFF7CBF8002E2CDD4246AC461100EB
:1014B00061448846B9696B0063448C4638215B00FF
:1014C00043449B006344386ABB6379183300814608
:1014D000FC63FA62FFF754F97969FB688C46434470
:1014E0009B006344BB63FC6303945C463820049513
:1014F000FB6A01940293009349463300FA69381855
:10150000FFF72AFB7B6A10337B62BB6A042B06D091
:1015100004231A00BB6262E71C34043373E73B6B9D
:101520003E689C46B44463467C683B63A41B052B21
:1015300000DC38E7BD4611B0F0BCBB46B246A94658
:10154000A046F0BD0F21A8B027336B4456688B43EB
:101550003B62002E00D00CE70F220B4DA8B02736BF
:1015600028006E44964311F0D3FB084C002800D1AC
:1015700007E78023DB012360802328001B036360CF
:10158000A36011F0E1FBFCE654250320AC25032009
:10159000F0B5DE4657464E464546E14AE14BE0B5DA
:1015A0000C1C186017685168DF4B8BB01F605960C6
:1015B000DE4B88469B460890594658461E684D6843
:1015C000DB4B8968C0681E605D609960D860D94B4C
:1015D00005909868069204915A681968DB68019032
:1015E000381C0092029303910CF05BFE0199814636
:1015F00040460CF056FE011C48460CF03BFECE4B1C
:1016000081461968201C9A460CF04BFE011C484686
:101610000CF030FEC94B009918600790381C9946B1
:101620000CF03FFE0299071C40460CF03AFE011CEC
:10163000381C0CF01FFE5346071C5968201C0CF088
:1016400030FE011C381C0CF015FE4F460399099022
:101650007860301C0CF025FE019F041C391C281CEE
:101660000CF01FFE011C201C0CF004FE009A041C50
:10167000111C301C91460CF014FE029A061C111C21
:10168000281C90460CF00DFE011C301C0CF0F2FDE5
:101690000399824604980CF004FE391C051C059839
:1016A0000CF0FFFD011C281C0CF0E4FD3E1C49461B
:1016B000071C04980CF0F5FD4146051C05980CF03C
:1016C000F0FD011C281C0CF0D5FD039D8046211C5B
:1016D000281C0CF0E6FDA946391C051C301C0CF03A
:1016E000E0FD011C281C0CF0C5FD954E31680CF086
:1016F000C1FD944D51460390286048460CF0D1FD41
:101700004146814601980CF0CCFD011C48460CF086
:10171000B1FD71680CF0AEFD211C0190686000986D
:101720000CF0BFFD391C029F041C381C0CF0B9FDE5
:10173000011C201C0CF09EFDB1680CF09BFD514675
:10174000041CA86000980CF0ACFDB9464146071C8B
:1017500048460CF0A6FD011C381C0CF08BFDF1680E
:101760000CF088FDE860784D071C2E680398311C4A
:101770000CF097FD6D688146291C381C02970CF00F
:1017800090FD291C804601980CF08BFD49460CF019
:1017900071FD311C0CF085FD311C071C201C0CF068
:1017A00080FD41460CF066FD291C0CF07AFD011C01
:1017B000381C0CF05FFD654B19680CF05BFD644B49
:1017C000071C1860291C201C0CF06BFD49460CF00E
:1017D00051FD391C0CF051FD5E4981468A46086076
:1017E0000198311C0CF05DFD41460CF043FD391CA5
:1017F0000CF043FD5146804648600798311C0CF0C0
:1018000050FD099B071C291C181C9A460CF049FD29
:10181000011C381C0CF02EFD011C08980CF027FD53
:101820004946071C0CF03DFD07990CF023FD069A74
:1018300041461060381C0CF034FD51460CF01AFD86
:10184000069A82465060311C48460CF02AFD424FF1
:10185000011C38680CF00BFD311C009040460CF068
:1018600020FD011C78680CF002FD291C061C48466E
:101870000CF017FD011CB8680CF0F9FC291C81461E
:1018800040460CF00EFD011CF8680CF0F0FC0099CD
:10189000051C03980CF005FD019F80464946381C45
:1018A0000CF0FFFC011C40460CF0E4FC5A46311CD5
:1018B000106003980CF0F5FC291C8046381C0CF0D5
:1018C000F0FC011C40460CF0D5FC5B4658600099CA
:1018D000201C0CF0E6FC029B4946071C181C98468D
:1018E0000CF0DFFC011C381C0CF0C4FC5B46311C06
:1018F0009860201C0CF0D5FC291C041C40460CF000
:10190000D0FC011C201C0CF0B5FC5B46D860504696
:101910000BB0F0BCBB46B246A946A046F0BDC046DF
:10192000BC3B0320CC470320943103200029002036
:101930004029002060290020C02C0320CC3B03203C
:101940005028002020290020E03B0320982303207A
:1019500088310320E035002080290020F0B5DE46E4
:1019600057464E464546E0B56A4B85B0596898469D
:101970000CF07DFC684B041C1860684B99461B6892
:101980009B46674B59461D680CF074FC291C0CF0F3
:1019900088FC644B061C1868011C0CF06BFC011CD5
:1019A000301C0CF06AFC604E31680CF063FC5F4B3D
:1019B000019030601868011C0CF05CFC5C4B0290DC
:1019C0001F68391C0CF06DFC8246011C281C0CF0B1
:1019D00051FC291C061C50460CF049FC554A116864
:1019E00092460CF05EFC311C0CF047FC391C039055
:1019F000381C0CF03FFC5946071C201C0CF037FC2F
:101A0000011C381C0CF04DFC311C0CF036FC011C88
:101A100003980CF02FFC524601991060061C201C04
:101A20000CF028FC311C0CF025FC434B19680CF021
:101A300038FC424B1860424B18604B461C604346D2
:101A400019680CF014FC3F4B041C18603E4B99467F
:101A50001B68191C9A460CF00DFC291C0CF021FC8B
:101A60003A4B071C1868011C0CF004FC011C381CC4
:101A70000CF003FC364B984619680CF0FBFB434610
:101A80001860344B071C1B680298191C98460CF010
:101A900008FC0190011C281C0CF0ECFB414683461D
:101AA00040460CF0E7FB51468046201C0CF0DFFB63
:101AB000011C40460CF0F5FB59460CF0DEFB291CDE
:101AC000804601980CF0D3FB311C0CF0EAFB594620
:101AD0000CF0D3FB011C40460CF0CCFB1E4B051C4C
:101AE0001860391C201C0CF0C5FB291C0CF0C2FB33
:101AF0001A4B19680CF0D5FB194B1860194B18607C
:101B00004B461C6005B0F0BCBB46B246A946A04699
:101B1000F0BDC046BC3B0320382D03208C31032090
:101B2000602100206C2100208031032054210020FE
:101B3000F83500201C2D03207021002024470320AD
:101B4000144703203C2D0320903103206421002002
:101B500084310320FC350020202D03206821002043
:101B60002847032054470320F8B5FE250024194BCD
:101B7000AD051D609C605C60DD60174B174F1D60FC
:101B80009C605C60DD60164B1E68164B301C19684B
:101B90000CF073FB144B38601D605C609C60DD6072
:101BA000124B7C601D605E609C60DD60104B1C60B1
:101BB0005D60104B104D1868011C0CF072FB0F4A51
:101BC0000F4B126828601A600E4A9C6012685C60B5
:101BD000DA60F8BD0029002020290020C02C032055
:101BE000602100205C210020802900206029002045
:101BF000E03B032058210020982303208823032062
:101C00005028002084230320F0B5DE4657464E4678
:101C10004546E0B50E0001688DB089464168876889
:101C20008B460569C16807934369806903910690F3
:101C300011685068926809910A90291C30680B92CB
:101C4000059308950CF013FB0599824670680CF01B
:101C50000EFB0699051CB0680CF009FB804607983E
:101C60000CF0A4FB80231B06534400900191180044
:101C700059460CF016FB391C061C281C04970CF066
:101C800010FB011C301C0CF0F2FA0399061C4046B4
:101C90000CF007FB011C301C0CF0E9FA0CF086FB81
:101CA0000022684B0BF0D3FE009A019B0BF0CFFE95
:101CB000060048460F000CF079FB02000B003000D4
:101CC0003900169C0BF09CFE0BF078FF4946206013
:101CD00050460CF0E6FA0499061C40460CF0E1FA76
:101CE000011C301C0CF0C6FA0399061C281C0CF0D1
:101CF000D8FA011C301C0CF0BAFA0CF057FB002289
:101D0000504B0BF0A4FE009A019B0BF0A0FE0600C6
:101D100058460F000CF04AFB02000B00300039005F
:101D20000BF06EFE0BF04AFF49466060281C0CF079
:101D3000B8FA5946061C40460CF0B3FA011C301C98
:101D40000CF095FA0399061C50460CF0AAFA011CF7
:101D5000301C0CF08FFA0CF029FB0022394B0BF0F1
:101D600076FE009A019B0BF072FE060004980F00AD
:101D70000CF01CFB02000B00300039000BF040FEA1
:101D80000BF01CFF4946A06040460CF08AFA594609
:101D9000061C281C0CF085FA011C301C0CF06AFA99
:101DA0000499051C50460CF07CFA011C281C0CF010
:101DB0005EFA0CF0FBFA0022224B0BF048FE009A70
:101DC000019B0BF044FE060003980F000CF0EEFAA6
:101DD00002000B00300039000BF012FE0BF0EEFE9B
:101DE000089B0999E060181C98460CF05AFA079D68
:101DF000291C0CF056FA011C40460CF038FA059FDD
:101E00000A992061381C0CF04CFA291C0CF049FA94
:101E1000011C381C0CF02BFA069E0B996061301CDB
:101E20000CF03FFA291C0CF03CFA011C301C0CF0A1
:101E30001EFAA06100200DB0F0BCBB46B246A94618
:101E4000A046F0BD0000E03FF0B5DE4657464E46E6
:101E50004546E0B5C568466893B00468876888461B
:101E6000301C291C934602930CF01BFA8146391C46
:101E7000201C0CF016FA4A460A90011C48460992AA
:101E80000CF0F5F90CF092FA02000B000BF0B8FD23
:101E90000490059158460CF089FA02000B00049852
:101EA0000599009201930BF0D2FD0BF087FE43469B
:101EB000291C1860381C0CF0F4F98146311C201CD8
:101EC0000CF0EFF94A460E90011C48460B920CF0BC
:101ED000D1F90CF06BFA02000B000BF091FD02003F
:101EE0000B00009801990C920D930BF0B0FD0BF0D4
:101EF00065FE4346211C5860201C0CF0D2F9814637
:101F0000311C301C0CF0CDF94A461090011C48469B
:101F10000F920CF0ACF9391C0790381C0CF0C1F989
:101F2000291C8246281C0CF0BCF9814651460798B2
:101F30000CF09DF949460CF09DF9594611900CF0B2
:101F4000B0F94346391C9860301C0CF0AAF9291CE2
:101F50008346201C0CF0A5F908901C980CF026FA7A
:101F600006001D980F000CF021FA009001911099C5
:101F70000F980CF07FF951460CF079F949460CF0B6
:101F800076F902990CF08DF90CF010FA04000D00AE
:101F9000584608990CF06EF90CF008FA02000B0094
:101FA0000BF02EFD32003B000BF051FD02000B0048
:101FB000200029000BF024FD009A019B04000D0075
:101FC000049805990BF043FD02000B002000290046
:101FD0000BF016FD0BF0F2FD4346D86002980CF0B2
:101FE000E5F904000D00584608990CF040F90CF092
:101FF000DDF902000B000BF003FD22002B00029420
:1020000003950BF024FD04000D00079851460CF0D9
:1020100031F949460CF02BF91C990CF042F90CF0FF
:10202000C5F902000B00200029000BF0E9FC009A22
:10203000019B04000D000C980D990BF008FD0200A7
:102040000B00200029000BF0DBFC0BF0B7FD434632
:102050000A99186109980CF00DF90CF0A7F9020023
:102060000B000BF0CDFC029A039B0BF0F0FC04007C
:102070000D000B980E990CF0FAF80CF097F902008D
:102080000B000BF0BDFC32003B000BF0E0FC02004B
:102090000B00200029000BF0B3FC04000D00119888
:1020A0001D990CF0FEF80CF081F902000B002000E5
:1020B00029000BF0A5FC0BF081FD43465861002080
:1020C00013B0F0BCBB46B246A946A046F0BDC04620
:1020D000F0B5DE4657464E464546E0B54D6895B0EC
:1020E00007950D690400AB464D690868A946156857
:1020F0008E68AA4655689268A8465D68CF680E95B6
:10210000FE258969AD0506921A689B680C902560CA
:102110001E980D920F9308960A9702910CF046F9BB
:1021200006000F00504659460CF0A1F80CF03EF99D
:102130000022964B0BF08BFC32003B000BF087FC2F
:102140000B000200009201930BF038FD4946059008
:10215000E06140460CF08BF80CF028F900228B4B24
:102160000BF075FC32003B000BF071FC0B00020021
:10217000109211930BF022FD02998046A0630698FD
:102180000CF075F80CF012F90022804B0BF05FFC9C
:102190003B0032000BF05BFC0A000100029103924D
:1021A00011000BF00BFD0690606507980CF0FEF82F
:1021B0000022774B0BF04BFC32003B000BF047FC4E
:1021C00002000B00129213930BF0F8FC814620677B
:1021D00008980CF0EBF800226D4B0BF038FC3B003C
:1021E00032000BF034FC0A00010008910992110042
:1021F0000BF0E4FC8C230790E0500A980CF0D6F822
:102200000022634B0BF023FC3B0032000BF01FFC61
:102210000A0001000A910B9211000BF0CFFC802202
:10222000A82312069446E050009B83461800019BA9
:10223000634419000BF0C2FC802212069446029BF4
:10224000824660601800039B2562634419000BF00E
:10225000B5FC42460090E063A2650C980CF0A6F82D
:1022600000224A4B0BF0F3FB32003B000BF0EFFB7C
:102270000BF0A4FC5F46902380466067E750089E01
:10228000099F300080263606B446674439000BF0BB
:1022900095FC109E119FAC23E0503000802636063E
:1022A000B446674439000BF089FCA060069F834662
:1022B00067625746E7650A9E0B9F30008026360608
:1022C000B4466744390025640BF078FC47469423F4
:1022D000A067E7504F461C33E750129E139F300013
:1022E0008026059B00996364079B3606B446E36726
:1022F0003B00E16059466344A162256619000BF07A
:102300005DFC982300264146E0501C33E1500D98B7
:102310001E992661E662A66466660BF0C2FF011C88
:10232000281C0BF0A4FF8023E0501C33E6501C3324
:10233000E650343B1E9966612663E664A6660E98F5
:10234000E6500BF0AEFF011C281C0BF090FFA02301
:10235000E0501C33E650343BA66166632665E666B2
:10236000E6501C33E6501E990F980BF09AFF011CA3
:10237000281C0BF07CFFC023E050002015B0F0BCFF
:10238000BB46B246A946A046F0BDC0460000E0BF2D
:102390000000E03FF0B5DE4657464E464546E0B504
:1023A0000700101C4A68994690460B688A688BB0F3
:1023B000CE68934606930BF0F9FF040058460D00D3
:1023C0000BF0F4FFC02300221B060BF040FB2200A1
:1023D0002B000BF03CFB009001910BF0EFFB079002
:1023E0003860301C0BF0E2FF02000B000BF008FB22
:1023F00022002B000BF02BFB0BF0E0FB8246B861B8
:1024000006980BF0D3FFC02300221B060BF01FFB26
:1024100022002B000BF01BFB02000B000292039327
:102420000BF0CCFB386340460BF0C0FF02000B0002
:102430000BF0E6FA22002B000BF009FB80250C00C4
:1024400003002D06049305940BF0B8FB00249023A1
:10245000AC46039AB8643C66BC67FC50029B62447D
:102460001100786018000BF0A9FB009B051CF861B7
:102470001800802352461B069C467A63019A6244E8
:1024800011000BF09BFB9423F8647C66FC67FC5006
:10249000BD6080252D06AC46059A049B6244110060
:1024A00018000BF08BFB079B5246BB6380233A65F9
:1024B0003862BC66FC501833FC50069B4946181C19
:1024C0009A460BF0EEFE14990090301C0BF0E9FEDA
:1024D0001599029058460BF0E4FE0299051C0098ED
:1024E0000BF0C8FE291C07950BF0C1FE011C0BF078
:1024F000C1FE49460890F86040460BF0D2FE1499A0
:10250000051C58460BF0CDFE011C281C0BF0B2FE3A
:102510001599051C301C0BF0C4FE011C281C0BF087
:10252000A9FE8025011C0BF0A5FE2D065D44494641
:102530000490786228000BF0B4FE1499051C404604
:102540000BF0AFFE1599834650460BF0AAFE82466B
:102550005946281C09950BF08DFE51460BF087FE5D
:102560008025011C0BF086FE2D064946F863701984
:102570000BF097FE1499051C06980BF092FE159926
:10258000814640460BF08DFE4946061C281C0BF088
:1025900071FE311C0BF06EFE011C0BF06BFE8423F0
:1025A0007865FC66FC501833FC50386180200006CA
:1025B0008446099A5946624410000BF058FE514671
:1025C0000BF058FE011C0BF055FE802212069446BB
:1025D000049B8246B86200983B64604402990BF009
:1025E00046FE07990BF046FE011C0BF043FE8823C4
:1025F0008021B86550463C670906FC501833FC50F2
:102600007861681849460BF032FE311C0BF02FFE42
:10261000011C0BF02FFE049BF862FB658C2300204D
:10262000089A7C677A64FC501833FC500BB0F0BCFD
:10263000BB46B246A946A046F0BDC046F0B55746D7
:102640004E46DE464546E0B5EFB00B000AA98C4683
:10265000D7226244120915019A685E680D920EAA8B
:102660009246C4229446B444624601929422934610
:102670000C32914652460395554682461F68029297
:102680000493F168B86C0BF00CFE3169041C386ED1
:102690000BF007FE011C201C0BF0ECFD7169041C03
:1026A000B86F0BF0FEFD9023B1698046F8580BF02F
:1026B000F8FD011C40460BF0DDFD011C201C0BF059
:1026C000D9FD7168041CB8690BF0EBFDB168804658
:1026D000386B0BF0E6FD011C40460BF0CBFD31687A
:1026E000804638680BF0DDFD011C40460BF0C2FD52
:1026F000011C201C0BF0BEFD2860F168F86C0BF08B
:10270000D0FD3169041C786E0BF0CBFD011C201C40
:102710000BF0B0FD7169041CF86F0BF0C2FD5B4655
:10272000B1698046F8580BF0BCFD011C40460BF027
:10273000A1FD011C201C0BF09DFD7168041CF869B3
:102740000BF0AFFDB1688046786B0BF0AAFD011C61
:1027500040460BF08FFD3168804678680BF0A1FD94
:10276000011C40460BF086FD011C201C0BF082FD75
:102770006860F168386D0BF094FD3169041CB86E27
:102780000BF08FFD011C201C0BF074FD8023716980
:10279000041CF8580BF085FD9823B1698046F85861
:1027A0000BF07FFD011C40460BF064FD011C201C5A
:1027B0000BF060FD7168041C386A0BF072FDB168A3
:1027C0008046B86B0BF06DFD011C40460BF052FDCE
:1027D00031688046B8680BF064FD011C40460BF080
:1027E00049FD011C201C0BF045FDA860F168786DC7
:1027F0000BF057FD3169041CF86E0BF052FD011C03
:10280000201C0BF037FD84237169041CF8580BF071
:1028100048FD9C23B1698046F8580BF042FD011C2D
:1028200040460BF027FD011C201C0BF023FD7168B6
:10283000041C786A0BF035FDB1688046F86B0BF02C
:1028400030FD011C40460BF015FD31688046F868EC
:102850000BF027FD011C40460BF00CFD011C201C59
:102860000BF008FDE860F168B86D0BF01AFD3169F6
:10287000041C386F0BF015FD011C201C0BF0FAFC3A
:1028800088237169041CF8580BF00BFD4B46B169A5
:102890008046F8580BF005FD011C40460BF0EAFCA1
:1028A000011C201C0BF0E6FC7168041CB86A0BF0DC
:1028B000F8FCB1688046386C0BF0F3FC011C404614
:1028C0000BF0D8FC3168804638690BF0EAFC011C3B
:1028D00040460BF0CFFC011C201C0BF0CBFC286108
:1028E000F168F86D0BF0DDFC3169041C786F0BF0BA
:1028F000D8FC011C201C0BF0BDFC8C237169041C4E
:10290000F8580BF0CEFCA423B1698046F8580BF0C0
:10291000C8FC011C40460BF0ADFC011C201C0BF058
:10292000A9FC7168041CF86A0BF0BBFCB168804616
:10293000786C0BF0B6FC011C40460BF09BFC316838
:10294000804678690BF0ADFC011C40460BF092FC10
:10295000011C201C0BF08EFC019B1C366861183595
:10296000B34200D08DE62022029B914654469A46FF
:10297000039D0894A944079554464D4632AA049BEA
:102980000D9E059214AA389606920993A06C2368AE
:1029900081460193206E059B8046216B01CBA26985
:1029A00003910490B16C4846029205930BF079FCB8
:1029B000316E824640460BF074FC011C50460BF011
:1029C00059FCA76F8246B16F381C0BF06AFC90234C
:1029D0008346F15804980BF064FC011C58460BF038
:1029E00049FC011C50460BF045FCB1698246029837
:1029F0000BF057FC316B834603980BF052FC011C23
:102A000058460BF037FC3168834601980BF049FCBF
:102A1000011C58460BF02EFC011C50460BF02AFC02
:102A20002860F16C48460BF03CFC716E82464046D3
:102A30000BF037FC011C50460BF01CFCF16F82467A
:102A4000381C0BF02EFC94238346F15804980BF0AD
:102A500028FC011C58460BF00DFC011C50460BF0E5
:102A600009FCF169824602980BF01BFC716B8346EE
:102A700003980BF016FC011C58460BF0FBFB716829
:102A8000834601980BF00DFC011C58460BF0F2FB3D
:102A9000011C50460BF0EEFB6860316D48460BF0B0
:102AA00000FCB16E824640460BF0FBFB011C504619
:102AB0000BF0E0FB80238246F158381C0BF0F1FB51
:102AC00098238346F15804980BF0EBFB011C584601
:102AD0000BF0D0FB011C50460BF0CCFB316A824658
:102AE00002980BF0DEFBB16B834603980BF0D9FB29
:102AF000011C58460BF0BEFBB168834601980BF0F1
:102B0000D0FB011C58460BF0B5FB011C50460BF0E6
:102B1000B1FBA860716D48460BF0C3FBF16E8246B5
:102B200040460BF0BEFB011C50460BF0A3FB842378
:102B30008246F158381C0BF0B4FB9C238346F158B5
:102B400004980BF0AEFB011C58460BF093FB011CE4
:102B500050460BF08FFB716A824602980BF0A1FB86
:102B6000F16B834603980BF09CFB011C58460BF05D
:102B700081FBF168834601980BF093FB011C5846DA
:102B80000BF078FB011C50460BF074FBE860B16D54
:102B900048460BF086FB316F824640460BF081FBC6
:102BA000011C50460BF066FB88238246F158381C06
:102BB0000BF077FBA0238346F15804980BF071FBD0
:102BC000011C58460BF056FB011C50460BF052FB03
:102BD000B16A824602980BF064FB316C834603981D
:102BE0000BF05FFB011C58460BF044FB3169834638
:102BF00001980BF056FB011C58460BF03BFB011CE7
:102C000050460BF037FB2861F16D48460BF049FB4D
:102C1000716F814640460BF044FB011C48460BF0A7
:102C200029FB8C238046F158381C0BF03AFBA42377
:102C3000071CF15804989B460BF033FB011C381C11
:102C40000BF018FB011C40460BF014FBF16A071C4B
:102C500002980BF026FB716C804603980BF021FB69
:102C6000011C40460BF006FB7169804601980BF091
:102C700018FB011C40460BF0FDFA011C381C0BF040
:102C8000F9FA069B0434686118359C4200D07DE651
:102C9000099B079DDE68296A30680BF0EBFA089CF7
:102CA000A96B206070680BF0E5FA6060B068296D70
:102CB0000BF0E0FAA060F068A96E0BF0DBFA802759
:102CC000E0603069E9590BF0D5FA98232061E958A2
:102CD00070690BF0CFFA6061B069696A0BF0CAFAEB
:102CE000A061F069E96B0BF0C5FAE061306A696DCB
:102CF0000BF0C0FA2062E96E706A0BF0BBFA842315
:102D00006062E958B06A0BF0B5FA9C22A062F06AE2
:102D1000A9580BF0AFFAE062306BA96A0BF0AAFA7F
:102D20002063706B296C0BF0A5FA6063B06BA96D22
:102D30000BF0A0FAA063F06B296F0BF09BFA8822CE
:102D4000E063A958306C0BF095FAA0212064706CF8
:102D500069580BF08FFA6064E96AB06C0BF08AFA7C
:102D6000A064696CF06C0BF085FAE064306DE96D7D
:102D70000BF080FA2065716D686F0BF07BFA60656F
:102D80008C20B16D28580BF075FA5B46A065F16D8B
:102D9000E8580BF06FFAE065316E286B0BF06AFAB9
:102DA0002066716EA86C0BF065FA6066B16E286ED5
:102DB0000BF060FAA066F16EA86F0BF05BFA90233F
:102DC000E066316FE8580BF055FAA8232067716F61
:102DD000E8580BF04FFA6067B16F686B0BF04AFA76
:102DE000A067F16FE86C0BF045FAE067F159686E87
:102DF0000BF040FAE0510437F159E86F0BF03AFA62
:102E00009423E0510437F159E8580BF033FAAC231E
:102E1000E0510437F159E8580BF02CFAE0516FB04B
:102E2000F0BCBB46B246A946A046F0BDF0B5DE46B2
:102E300057464E4645460400E0B5006961694000CA
:102E4000490089B0490840080BF014FAE1684900CC
:102E500049080BF00FFA6368A1685B004900051C84
:102E6000490858080BF006FA2168490049080BF098
:102E700001FA011C281C0BF0FDF9E16A051CA06A8F
:102E800049004000490840080BF0F4F9616A490024
:102E900049080BF0EFF9216A061CE069490040007F
:102EA000490840080BF0E6F9A169490049080BF010
:102EB000E1F9011C301C0BF0DDF9616C061C206C83
:102EC00049004000490840080BF0D4F9E16B490083
:102ED00049080BF0CFF9A16B071C606B490040005B
:102EE000490840080BF0C6F9216B490049080BF06E
:102EF000C1F9011C381C0BF0BDF9071C011C301C6A
:102F00000BF006FA002800D03E1C311C281C0BF0E8
:102F1000FFF9002800D0351CA06DE16D400049008C
:102F2000490840080BF0A6F9616D490049080BF00B
:102F3000A1F9216D061CE06C4900400049084008D9
:102F40000BF098F9A16C490049080BF093F9011CAA
:102F5000301C0BF08FF9616F061C206F4900400098
:102F6000490840080BF086F9E16E490049080BF06A
:102F700081F9A16E071C606E4900400049084008B5
:102F80000BF078F9216E490049080BF073F9011C28
:102F9000381C0BF06FF98823071CE0580433E15804
:102FA00040004900490840080BF064F98423E158C7
:102FB000490049080BF05EF980238046E158E06F34
:102FC00049004000490840080BF054F9A16F49003E
:102FD00049080BF04FF9011C40460BF04BF98046B5
:102FE000011C381C0BF094F9002800D04746391C0E
:102FF000301C0BF08DF9002800D03E1C311C281C21
:103000000BF086F9002800D0351CC0232100E550C4
:1030100003AABA3B04A8A83106930494FDF7D6FB93
:1030200001239B465A46C4200025982659469C27D2
:10303000039B1340013B01321340013B23543438BE
:10304000255094356151A2510132E2519D3294468E
:1030500061469C3A6250A03291469F3A90464A4659
:1030600041462300A1501832A2589033920099187B
:10307000019109688A464946524662504246019982
:103080000A60B332A2586146920092469A44524670
:10309000615888461168894661464A4662504246F0
:1030A00051460A60B422E159A2588C4692009A18FF
:1030B0001168E15161461160B022A258A7599200EF
:1030C0009A181168A1511760AC22A2586659920053
:1030D0009A18176867511660A822A25892009B1888
:1030E0001D68225825501A60C5235A46E25409B07B
:1030F000F0BCBB46B246A946A046F0BDC0230022A4
:1031000010B5C25000220433C2520B6804000360A1
:103110004B6843608B688360CB68C3600B69036155
:103120004B6943618B698361CB69C3610B6A03623D
:103130004B6A43628B6A8362CB6AC3620B6B036325
:103140004B6B43638B6B8363CB6BC3630B6C03640D
:103150004B6C43648B6C8364CB6CC3640B6D0365F5
:103160004B6D43658B6D8365CB6DC3650B6E0366DD
:103170004B6E43668B6E8366CB6EC3660B6F0367C5
:103180004B6F43678B6F8367CB6FC3678023CA58CE
:10319000C2500433CA58C2500433CA58C250043310
:1031A000CA58C250FFF742FE200010BDF0B5DE46FF
:1031B0004E4657464546E0B5214C1500A5443B9286
:1031C0003CAA94460A0030931E4B3A9063441B0974
:1031D0001E0138910896D3AB13CA13C313CA13C385
:1031E000126819491A600A68184B329118493193CC
:1031F0001B6801920A6889460092D3A9154A47A81C
:10320000FFF7C8F83CAA944647ABD393D593124B2B
:10321000D4952C0086256344B446ED0065441B68B4
:103220002800A2AAD3A9D693FFF708FA6BAB07939D
:103230004B460995350047AF2F970A930EE0C046DD
:1032400014F7FFFF3F0300004C2203205422032009
:10325000502203200AE81C41280800003B68B86C93
:1032600003938146079B386E396B804601CBBA6960
:103270000793A8230591E158049206900BF011F8EA
:103280008C23BE6FE1588246301C0BF00AF8011CFB
:1032900050460AF0EFFF216F824640460BF001F8DE
:1032A000616D834648460AF0FCFF011C58460AF04F
:1032B000E1FF011C50460AF0DDFFA16B8246059834
:1032C0000AF0EFFFE169834604980AF0EAFF011C67
:1032D00058460AF0CFFF2168834603980AF0E1FFC1
:1032E000011C58460AF0C6FF011C50460AF0C2FFF6
:1032F000AC232860E15806980AF0D3FF9023824659
:10330000E158301C0AF0CDFF011C50460AF0B2FF14
:10331000616F824640460AF0C4FFA16D834648466D
:103320000AF0BFFF011C58460AF0A4FF011C5046DA
:103330000AF0A0FFE16B824605980AF0B2FF216A0D
:10334000834604980AF0ADFF011C58460AF092FF2C
:103350006168834603980AF0A4FF011C58460AF0EE
:1033600089FF011C50460AF085FFB0236860E158D0
:1033700006980AF096FF94238246E158301C0AF022
:1033800090FF011C50460AF075FFA16F824640462F
:103390000AF087FFE16D834648460AF082FF011C70
:1033A00058460AF067FF011C50460AF063FF216C83
:1033B000824605980AF075FF616A834604980AF010
:1033C00070FF011C58460AF055FFA1688346039818
:1033D0000AF067FF011C58460AF04CFF011C5046DA
:1033E0000AF048FFB423A860E15806980AF059FF94
:1033F00098238246E158301C0AF053FF011C5046C6
:103400000AF038FFE16F824640460AF04AFF216E1B
:10341000834648460AF045FF011C58460AF02AFF39
:10342000011C50460AF026FF616C824605980AF09E
:1034300038FFA16A834604980AF033FF011C5846FE
:103440000AF018FFE168834603980AF02AFF011C7E
:1034500058460AF00FFF011C50460AF00BFFB82334
:10346000E860E15806980AF01CFF9C238246E15868
:10347000301C0AF016FF011C50460AF0FBFE8023A8
:103480008246E15840460AF00CFF616E834648468A
:103490000AF007FF011C58460AF0ECFE011C5046DA
:1034A0000AF0E8FEA16C824605980AF0FAFEE16A8D
:1034B000834604980AF0F5FE011C58460AF0DAFE2D
:1034C0002169834603980AF0ECFE011C58460AF075
:1034D000D1FE011C50460AF0CDFEBC232861E15804
:1034E00006980AF0DEFEA0238246E158301C0AF05E
:1034F000D8FE011C50460AF0BDFE84238246E158E6
:1035000040460AF0CEFEA16E834648460AF0C9FE48
:10351000011C58460AF0AEFE011C50460AF0AAFEF5
:10352000E16C824605980AF0BCFE216B8346049844
:103530000AF0B7FE011C58460AF09CFE61698346FA
:1035400003980AF0AEFE011C58460AF093FE011CD7
:1035500050460AF08FFEE16E686148460AF0A1FE0F
:1035600088238146E15840469B460AF09AFE011C9A
:1035700048460AF07FFEA4238046E158301C0AF03A
:1035800090FEC023061CE15806980AF08AFE011C32
:10359000301C0AF06FFE011C40460AF06BFE616BA6
:1035A000061C04980AF07DFE216D804605980AF0FD
:1035B00078FE011C40460AF05DFEA1698046039832
:1035C0000AF06FFE011C40460AF054FE011C301C3C
:1035D0000AF050FE04374DABA8611C359F4200D065
:1035E0003CE60A9B089E9946D8239B009C463400E3
:1035F000099D644429002000FFF780FDA422920069
:103600009446330063442100902218009A460BF040
:10361000BFF8C8239B009C463400D033644431007B
:103620009C461822614420000BF0B2F8CE239B0088
:103630009C463000D033310060449C4618226144DF
:103640000BF0A6F8D4228421920094463300C900DE
:10365000634432008C46624412687A491A60D5226B
:10366000920094463300320063448C46300062443A
:10367000B03012888446FE21C9251A8000232268B2
:10368000890592006244AD001160936113639364F5
:1036900013669367AC463200CA25624484461268BA
:1036A000AD009200624413609161136393641366EA
:1036B0009367AC463200CB25624484461268AD0065
:1036C000920062441360936111639364136693677D
:1036D000AC463200CC25624484461268AD009200AC
:1036E00062441360AC4693611363916413669367FD
:1036F0003200CD25624484461268AD0092006244D7
:10370000136093611363936411669367AC46320050
:103710006244844634001268A8269200624491678D
:1037200021001360936113639364136606220623DA
:1037300076000F008025A4198C46A260E360062362
:103740007137AD006544FF37236122008F51089126
:1037500065600100039050469846FDF7F7FD06228C
:103760000623A260E3604246089B22619F5122002B
:103770006560039C50462100FDF7B2FC089BD3AF67
:103780001A680592DA6906929A6B07925A6D089246
:103790001A6F09928C229A580A925A680B921A6AE6
:1037A0000C92DA6B0D929A6D0E925A6F0F929022D4
:1037B0009A5810929A6811925A6A12921A6C13923D
:1037C000DA6D14929A6F159294229A581692DA68CA
:1037D00017929A6A18925A6C19921A6E1A92DA6FA4
:1037E0001B9298229A581C921A691D92DA6A1E92AC
:1037F0009A6C1F925A6E209280229A5821929C2293
:103800009A5822925A6923921A6B2492DA6C259262
:103810009A6E269284229A582792A0229A58289229
:103820009A6929925A6B2A921A6D2B92DA6E2C920F
:103830005A469A582D92A4229B582E934B46339366
:1038400002E0C04624040000636862699946A368E8
:1038500049469846E3680698039304920AF021FDCE
:103860004146824607980AF01CFD011C50460AF0AA
:1038700001FD26688246311C05980AF012FD011CE4
:1038800050460AF0F7FC25698246291C09980AF07F
:1038900008FD049983460A980AF003FD011C584666
:1038A0000AF0E8FC0399834608980AF0FAFC011C28
:1038B00058460AF0DFFC011C50460AF0DBFC0C996C
:1038C000386048460AF0EDFC0D99824640460AF001
:1038D000E8FC011C50460AF0CDFC0B998246301CD6
:1038E0000AF0DFFC011C50460AF0C4FC0F99824626
:1038F000281C0AF0D6FC1099834604980AF0D1FCE3
:10390000011C58460AF0B6FC0E99834603980AF04B
:10391000C8FC011C58460AF0ADFC011C50460AF0D8
:10392000A9FC1299786048460AF0BBFC13998246BC
:1039300040460AF0B6FC011C50460AF09BFC119967
:103940008246301C0AF0ADFC011C50460AF092FC85
:1039500015998246281C0AF0A4FC169983460498FF
:103960000AF09FFC011C58460AF084FC1499834617
:1039700003980AF096FC011C58460AF07BFC011CD7
:1039800050460AF077FCB860189948460AF089FC5E
:103990001999824640460AF084FC011C50460AF000
:1039A00069FC17998246301C0AF07BFC011C5046CA
:1039B0000AF060FC1B998246281C0AF072FC1C99D4
:1039C000834604980AF06DFC011C58460AF052FC2C
:1039D0001A99834603980AF064FC011C58460AF0C1
:1039E00049FC011C50460AF045FC1E99F860484607
:1039F0000AF057FC1F99824640460AF052FC011C0F
:103A000050460AF037FC1D998246301C0AF049FCEA
:103A1000011C50460AF02EFC21998246281C0AF00F
:103A200040FC2299834604980AF03BFC011C58464E
:103A30000AF020FC2099834603980AF032FC011C0E
:103A400058460AF017FC011C50460AF013FC249952
:103A5000386148460AF025FC2599824640460AF01E
:103A600020FC011C50460AF005FC23998246301CBC
:103A70000AF017FC011C50460AF0FCFB279982460D
:103A8000281C0AF00EFC2899834604980AF009FCC9
:103A9000011C58460AF0EEFB2699834603980AF06B
:103AA00000FC011C58460AF0E5FB011C50460AF0D8
:103AB000E1FB2A99786148460AF0F3FB2B9981468D
:103AC00040460AF0EEFB011C48460AF0D3FB299958
:103AD0008046301C0AF0E5FB011C40460AF0CAFB98
:103AE0002D99061C281C0AF0DCFB2E99051C049855
:103AF0000AF0D7FB011C281C0AF0BCFB2C99051C02
:103B000003980AF0CEFB011C281C0AF0B3FB011C31
:103B1000301C0AF0AFFBFDABB8611C3718349F4274
:103B200000D091E6339BD49A9946D39BD599D69CE5
:103B3000D79DD89ED99F05930692DA9BDB9A079171
:103B40000894DC99DD9C09950A96DE9DDF9E0B9713
:103B50000C93E09FE19B0D92E29A0E910F941095C9
:103B60001196129713931492E399E49CE59DE69EB7
:103B7000E79FE89BE99A15911694EA99EB9C1795B3
:103B80001896EC9DED9E19971A93EE9FEF9B1B9252
:103B90001C91F09AF1991D94F29C1F962097219305
:103BA0002292239124941E95F39DF49EF59FF89AFA
:103BB000F69BF999FA9C25952696FB9DFC9E2797E6
:103BC000F79F2992389A28932E972A912B942C9517
:103BD0002D96D3AB13CA13C313CA13C31268D3AC45
:103BE0001A603299319B0A6849461B6801920A683B
:103BF0002000009241A9FE4AFEF726F9309E419925
:103C000030680AF034FB4299834670680AF02FFB53
:103C100043998246B0680AF02AFB44998146F068CD
:103C20000AF025FB4599041C30690AF020FB4699EF
:103C3000051C70690AF01BFB061C011C381C0AF0ED
:103C400030FB291C071C22980AF02BFB011C381C96
:103C50000AF010FB211C071C1B980AF022FB011C18
:103C6000381C0AF007FB4946071C14980AF019FB98
:103C7000514680460D980AF014FB011C40460AF09C
:103C8000F9FA5946804606980AF00BFB011C40469B
:103C90000AF0F0FA011C381C0AF0ECFA389A516864
:103CA0000AF0E8FA311C039029980AF0FAFA291C64
:103CB000071C23980AF0F5FA011C381C0AF0DAFAFE
:103CC000211C071C1C980AF0ECFA011C381C0AF095
:103CD000D1FA4946071C15980AF0E3FA5146804686
:103CE0000E980AF0DEFA011C40460AF0C3FA594663
:103CF000804607980AF0D5FA011C40460AF0BAFA45
:103D0000011C381C0AF0B6FA389A91680AF0B2FA27
:103D1000311C04902A980AF0C4FA291C071C249824
:103D20000AF0BFFA011C381C0AF0A4FA211C071C77
:103D30001D980AF0B6FA011C381C0AF09BFA494695
:103D4000071C16980AF0ADFA514680460F980AF003
:103D5000A8FA011C40460AF08DFA59468046089898
:103D60000AF09FFA011C40460AF084FA011C381C34
:103D70000AF080FA389AD1680AF07CFA311C309047
:103D80002B980AF08EFA291C071C25980AF089FA4C
:103D9000011C381C0AF06EFA211C071C1E980AF040
:103DA00080FA011C381C0AF065FA4946071C17986E
:103DB0000AF077FA5146804610980AF072FA011C10
:103DC00040460AF057FA5946804609980AF069FABF
:103DD000011C40460AF04EFA011C381C0AF04AFA4F
:103DE000389A11690AF046FA311C31902C980AF081
:103DF00058FA291C071C26980AF053FA011C381C93
:103E00000AF038FA211C071C1F980AF04AFA011C14
:103E1000381C0AF02FFA4946071C18980AF041FA94
:103E20005146804611980AF03CFA011C40460AF0BF
:103E300021FA594680460A980AF033FA011C404696
:103E40000AF018FA011C381C0AF014FA389A516961
:103E50000AF010FA5146329012980AF022FA4946B6
:103E6000071C19980AF01DFA011C381C0AF002FA06
:103E70005946071C0B980AF014FA011C381C0AF06A
:103E8000F9F9291C071C27980AF00BFA311C804607
:103E90002D980AF006FA011C40460AF0EBF9211CA5
:103EA000804620980AF0FDF9011C40460AF0E2F92C
:103EB000011C381C0AF0DEF9389A91690AF0DAF927
:103EC000311C071C28980AF0ECF9291C061C2198C3
:103ED0000AF0E7F9011C301C0AF0CCF9211C051C82
:103EE0001A980AF0DEF9011C281C0AF0C3F94946A9
:103EF000041C13980AF0D5F95146051C0C980AF0D9
:103F0000D0F9011C281C0AF0B5F95946051C059882
:103F10000AF0C7F9011C281C0AF0ACF9011C201C8E
:103F20000AF0A8F9389AD3AC11680AF0A3F93A9BC1
:103F30001860039A9F615A60049A9A60309ADA6016
:103F4000319A1A61329A5A613B9A1368A293536864
:103F5000A3939368A493D368A5931369A693536915
:103F6000A7939369A893D369A993136AAA93536AF1
:103F7000AB93936AAC93D36AAD93136BAE93536BCD
:103F8000AF93936BB093D36BB193136CB293536CA9
:103F9000B393936CB493D36CB593136DB693536D85
:103FA000B793936DB893D36DB993136EBA93536E61
:103FB000BB93936EBC93D36EBD93136FBE93536F3D
:103FC000BF93936FC093D36FC1938023D358C29391
:103FD0008423D358C3938823D358C4938C23D358B2
:103FE000C5939023D358C6939423D358C79301E025
:103FF0000AE81C419823D358C8939C23D358C993EB
:10400000A023D358CA93A423D358CB93A823D3581F
:104010002F9DCC93AC23D358CD93B023D358CE93BC
:10402000B423D358CF93B823D358D093BC23D358B9
:10403000D193C023D358D2936B686A699946AB6811
:1040400049469846EB680C98039304920AF029F9C4
:104050004146824613980AF024F9011C50460AF0A2
:1040600009F92F688246391C05980AF01AF9011CD3
:1040700050460AF0FFF82E698246311C21980AF05A
:1040800010F90499834628980AF00BF9011C584648
:104090000AF0F0F8039983461A980AF002F9011C15
:1040A00058460AF0E7F8011C50460AF0E3F8494682
:1040B00020600D980AF0F5F84146824614980AF0FF
:1040C000F0F8011C50460AF0D5F8391C82460698D3
:1040D0000AF0E7F8011C50460AF0CCF8311C824681
:1040E00022980AF0DEF8049983462E980AF0D9F84F
:1040F000011C58460AF0BEF8039983461B980AF043
:10410000D0F8011C58460AF0B5F8011C50460AF0D8
:10411000B1F8494660600E980AF0C3F841468246FD
:1041200015980AF0BEF8011C50460AF0A3F8391C95
:10413000824607980AF0B5F8011C50460AF09AF832
:10414000311C824623980AF0ACF8049983462998DA
:104150000AF0A7F8011C58460AF08CF80399834628
:104160001C980AF09EF8011C58460AF083F8011CBE
:1041700050460AF07FF84946A0600F980AF091F87F
:104180004146824616980AF08CF8011C50460AF007
:1041900071F8391C824608980AF083F8011C5046D1
:1041A0000AF068F8311C824624980AF07AF80499DB
:1041B00083462A980AF075F8011C58460AF05AF806
:1041C000039983461D980AF06CF8011C58460AF0C2
:1041D00051F8011C50460AF04DF84946E06010982D
:1041E0000AF05FF84146824617980AF05AF8011C17
:1041F00050460AF03FF8391C824609980AF051F8F7
:10420000011C50460AF036F8311C824625980AF007
:1042100048F8049983462B980AF043F8011C584645
:104220000AF028F8039983461E980AF03AF8011C10
:1042300058460AF01FF8011C50460AF01BF8494680
:10424000206111980AF02DF84146824618980AF02C
:1042500028F8011C50460AF00DF8391C82460A98CD
:104260000AF01FF8011C50460AF004F8311C82467F
:1042700026980AF016F8049983462C980AF011F84B
:10428000011C584609F0F6FF039983461F980AF06F
:1042900008F8011C584609F0EDFF011C504609F0D2
:1042A000E9FF49466061129809F0FBFF41468146EB
:1042B000199809F0F6FF011C484609F0DBFF391C8C
:1042C00080460B9809F0EDFF011C404609F0D2FF33
:1042D000311C071C279809F0E4FF0499061C2D984F
:1042E00009F0DFFF011C301C09F0C4FF0399061C14
:1042F000209809F0D6FF011C301C09F0BBFF011CFF
:10430000381C09F0B7FFFFABA06114331C3418351B
:10431000A34200D090E63B9CA2AF2300C433069397
:10432000D39B39943793DA9B3693E19B3593E89B83
:104330003493EF9B3393F69B3293FD9B3193D49B45
:104340003093DB9B2F93E29B2E93E99B2D93F09B65
:104350002C93F79B2B93FE9B2A93D59B2993DC9B55
:104360002893E39B2793EA9B2693F19B2593F89B45
:104370002493FF9B2393D69B2293DD9B2193E49B65
:104380002093EB9B1F93F29B1E93F99B1D93FFAB16
:1043900004331B681C93D79B1B93DE9B1A93E59BEE
:1043A0001993EC9B1893F39B1793FA9B1693FFAB0F
:1043B00008331B681593D89B1493DF9B1393E69BDC
:1043C0001293ED9B1193F49B1093FB9B0F93FFAB08
:1043D0000C331B680E93D99B0793E09B0893E79BD4
:1043E0000993EE9B0A93F59B0B93FC9B0C93FFABFD
:1043F00010331B680D93E068A5698146A1682069A8
:104400002368626880460591281C319903930492C1
:1044100009F047FF666982463299301C09F041FF76
:10442000011C504609F026FF33998246404609F0A8
:1044300038FF34998346484609F033FF011C58463B
:1044400009F018FF011C504609F014FF3599824607
:10445000059809F026FF36998346049809F021FF54
:10446000011C584609F006FF37998346039809F066
:1044700018FF011C584609F0FDFE011C504609F0CA
:10448000F9FE011C386809F0F2FE38602A99281CF0
:1044900009F007FF2B998246301C09F002FF011C2E
:1044A000504609F0E7FE2C998246404609F0F9FE95
:1044B0002D998346484609F0F4FE011C584609F040
:1044C000D9FE011C504609F0D5FE2E99824605986A
:1044D00009F0E7FE2F998346049809F0E2FE011CDB
:1044E000584609F0C7FE30998346039809F0D9FE73
:1044F000011C584609F0BEFE011C504609F0BAFEE8
:10450000011C786809F0B3FE23997860281C09F033
:10451000C8FE24998246301C09F0C3FE011C504697
:1045200009F0A8FE25998246404609F0BAFE269970
:104530008346484609F0B5FE011C584609F09AFE2C
:10454000011C504609F096FE27998246059809F00D
:10455000A8FE28998346049809F0A3FE011C58463A
:1045600009F088FE29998346039809F09AFE011CF8
:10457000584609F07FFE011C504609F07BFE011CE5
:10458000B86809F074FE1C99B860281C09F089FE0F
:104590001D998246301C09F084FE011C504609F02A
:1045A00069FE1E998246404609F07BFE1F998346AC
:1045B000484609F076FE011C584609F05BFE011CD6
:1045C000504609F057FE20998246059809F069FE89
:1045D00021998346049809F064FE011C584609F0AD
:1045E00049FE22998346039809F05BFE011C584658
:1045F00009F040FE011C504609F03CFE011CF86821
:1046000009F035FE1599F860281C09F04AFE169944
:104610008246301C09F045FE011C504609F02AFE76
:1046200017998246404609F03CFE18998346484651
:1046300009F037FE011C584609F01CFE011C5046CB
:1046400009F018FE19998246059809F02AFE1A9970
:104650008346049809F025FE011C584609F00AFE1D
:104660001B998346039809F01CFE011C584609F06B
:1046700001FE011C504609F0FDFD011C386909F0DE
:10468000F6FD0E993861281C09F00BFE0F99824641
:10469000301C09F006FE011C504609F0EBFD109994
:1046A0008246404609F0FDFD11998346484609F0CF
:1046B000F8FD011C584609F0DDFD011C504609F0CB
:1046C000D9FD12998246059809F0EBFD13998346AE
:1046D000049809F0E6FD011C584609F0CBFD149939
:1046E0008346039809F0DDFD011C584609F0C2FD20
:1046F000011C504609F0BEFD011C786909F0B7FDA8
:10470000494678610A9809F0CCFD414681460B98EC
:1047100009F0C7FD011C484609F0ACFD311C80467C
:104720000C9809F0BEFD291C061C0D9809F0B9FD76
:10473000011C301C09F09EFD011C404609F09AFD49
:104740000499051C089809F0ACFD0599061C099808
:1047500009F0A7FD011C301C09F08CFD0399061C13
:10476000079809F09EFD011C301C09F083FD011C17
:10477000281C09F07FFD011CB86909F078FD069B33
:104780001C34B8611C379C4200D034E63B99A29B94
:104790000B60A39B4B60A49B8B60A59BCB60A69BEF
:1047A0000B61A79B4B61A89B8B61A99BCB61AA9BCB
:1047B0000B62AB9B4B62AC9B8B62AD9BCB62AE9BA7
:1047C0000B63AF9B4B63B09B8B63B19BCB63B29B83
:1047D0000B64B39B4B64B49B8B64B59BCB64B69B5F
:1047E0000B65B79B4B65B89B8B65B99BCB65BA9B3B
:1047F0000B66BB9B4B66BC9B8B66BD9BCB66BE9B17
:104800000B67BF9B4B67C09B8B67C19BCB678023AC
:10481000C29ACA50C39A0433CA50C49A0433CA50C5
:10482000C59A0433CA50C69A0433CA50C79A04338F
:10483000CA50C89A0433CA50C99A0433CA50CA9A93
:104840000433CA50CB9A0433CA50CC9A0433CA50AA
:10485000CD9A0433CA50CE9A0433CA50CF9A043347
:10486000CA50D09A0433CA50D19A0433CA50D29A4B
:104870000433CA503CAA822394461B0163441B683C
:10488000A2AA13CB13C283231B0163441B68D3ACBE
:1048900007CB07C4389B3A9D0093484B28006344DC
:1048A000A2A91B68D3AAFDF7AFF92B00D3AA23CB8B
:1048B00023C223CB23C21B683CA9136082238C46EE
:1048C0003EAA11001B0163441B6831CB31C1832315
:1048D0001B0163441B68A2A931CB31C1374BD3A95B
:1048E00063441B6871A80093A2ABFDF7F1FBD3AB47
:1048F0003C93719BD3AC0F93789B07937F9B37932B
:10490000869B36938D9B3593949B34939B9B3393DB
:10491000729B3293799B3193809B3093879B2F932B
:104920008E9B2E93959B2D939C9B2C93739B2B93EB
:104930007A9B2A93819B2993889B28938F9B27930B
:10494000969B26939D9B2593749B24937B9B2393FB
:10495000829B2293899B2193909B2093979B1F93EB
:104960009E9B1E93759B1D937C9B1C93839B1B930B
:104970008A9B1A93919B1993989B18939F9B1793CB
:10498000769B16937D9B1593849B14938B9B13931B
:10499000929B1293999B1193A09B1093779B0893E2
:1049A0007E9B0993859B0A938C9B0B93939B0C9303
:1049B0009A9B0D93A19B399D0E9301E03408000052
:1049C000E9682B6889462969AA688846A96903931A
:1049D000081C33990492059009F063FC6F698246C4
:1049E0003499381C09F05DFC011C504609F042FC6A
:1049F00035998246404609F054FC3699834648462C
:104A000009F04FFC011C584609F034FC011C5046CB
:104A100009F030FC37998246049809F042FC6E6830
:104A20008346311C079809F03CFC011C584609F0EC
:104A300021FC0F998346039809F033FC011C58466A
:104A400009F018FC011C504609F014FC2C99206058
:104A5000059809F026FC2D998246381C09F021FCA6
:104A6000011C504609F006FC2E998246404609F08A
:104A700018FC2F998346484609F013FC011C584640
:104A800009F0F8FB011C504609F0F4FB309982460E
:104A9000049809F006FC31998346301C09F001FCAA
:104AA000011C584609F0E6FB32998346039809F049
:104AB000F8FB011C584609F0DDFB011C504609F0CB
:104AC000D9FB25996060059809F0EBFB2699824691
:104AD000381C09F0E6FB011C504609F0CBFB279976
:104AE0008246404609F0DDFB28998346484609F096
:104AF000D8FB011C584609F0BDFB011C504609F0CB
:104B0000B9FB29998246049809F0CBFB2A99834680
:104B1000301C09F0C6FB011C584609F0ABFB2B9971
:104B20008346039809F0BDFB011C584609F0A2FB1F
:104B3000011C504609F09EFB1E99A060059809F0E3
:104B4000B0FB1F998246381C09F0ABFB011C504694
:104B500009F090FB20998246404609F0A2FB21997A
:104B60008346484609F09DFB011C584609F082FB2C
:104B7000011C504609F07EFB22998246049809F0F8
:104B800090FB23998346301C09F08BFB011C58468F
:104B900009F070FB24998346039809F082FB011CFD
:104BA000584609F067FB011C504609F063FB179952
:104BB000E060059809F075FB18998246381C09F0E9
:104BC00070FB011C504609F055FB1999824640467E
:104BD00009F067FB1A998346484609F062FB011CFD
:104BE000584609F047FB011C504609F043FB1B994E
:104BF0008246049809F055FB1C998346301C09F045
:104C000050FB011C584609F035FB1D99834603985B
:104C100009F047FB011C584609F02CFB011C5046CB
:104C200009F028FB10992061059809F03AFB1199C9
:104C30008246381C09F035FB011C504609F01AFB6E
:104C400012998246404609F02CFB13998346484648
:104C500009F027FB011C584609F00CFB011C5046CB
:104C600009F008FB14998246049809F01AFB15997B
:104C70008346301C09F015FB011C584609F0FAFA6E
:104C800016998346039809F00CFB011C584609F05D
:104C9000F1FA011C504609F0EDFA494660610B98A3
:104CA00009F0FFFA414681460C9809F0FAFA011C16
:104CB000484609F0DFFA391C80460D9809F0F1FAF0
:104CC0000599071C0E9809F0ECFA011C381C09F034
:104CD000D1FA011C404609F0CDFA311C071C099895
:104CE00009F0DFFA0499061C0A9809F0DAFA011CA7
:104CF000301C09F0BFFA0399061C089809F0D1FA94
:104D0000011C301C09F0B6FA011C381C09F0B2FA7B
:104D1000069B1C35A0611C349D4200D050E6F6ABCA
:104D2000A2AD06933C9CDAAB3D953993626DA36BC3
:104D300091460393069B226FD96990461A684846AC
:104D400005913699049209F0ACFA359982464046AD
:104D500009F0A7FA011C504609F08CFA34998246F2
:104D6000049809F09EFA33998346059809F099FA58
:104D7000011C584609F07EFA011C504609F07AFAE7
:104D8000E7698246391C079809F08BFA3799834600
:104D9000039809F086FA011C584609F06BFA266858
:104DA0008346311C0F9809F07CFA011C584609F023
:104DB00061FA011C504609F05DFA28602F994846B7
:104DC00009F06FFA2E998246404609F06AFA011CF2
:104DD000504609F04FFA2D998246049809F061FA7D
:104DE0002C998346059809F05CFA011C584609F095
:104DF00041FA011C504609F03DFA31998246381CAF
:104E000009F04FFA30998346039809F04AFA011CD9
:104E1000584609F02FFA32998346301C09F041FABE
:104E2000011C584609F026FA011C504609F022FAE6
:104E300028996860484609F034FA27998246404626
:104E400009F02FFA011C504609F014FA26998246FF
:104E5000049809F026FA25998346059809F021FA65
:104E6000011C584609F006FA011C504609F002FAE6
:104E70002A998246381C09F014FA29998346039826
:104E800009F00FFA011C584609F0F4F92B998346F2
:104E9000301C09F006FA011C584609F0EBF9011C18
:104EA000504609F0E7F92199A860484609F0F9F958
:104EB00020998246404609F0F4F9011C504609F059
:104EC000D9F91F998246049809F0EBF91E99834697
:104ED000059809F0E6F9011C584609F0CBF9011CC8
:104EE000504609F0C7F923998246381C09F0D9F9D0
:104EF00022998346039809F0D4F9011C584609F019
:104F0000B9F924998346301C09F0CBF9011C5846A5
:104F100009F0B0F9011C504609F0ACF91A99E860A3
:104F2000484609F0BEF919998246404609F0B9F998
:104F3000011C504609F09EF918998246049809F020
:104F4000B0F917998346059809F0ABF9011C58464A
:104F500009F090F9011C504609F08CF91C99824621
:104F6000381C09F09EF91B998346039809F099F9BA
:104F7000011C584609F07EF91D998346301C09F042
:104F800090F9011C584609F075F9011C504609F0CA
:104F900071F913992861484609F083F912998246FC
:104FA000404609F07EF9011C504609F063F9119959
:104FB0008246049809F075F910998346059809F01E
:104FC00070F9011C584609F055F9011C504609F0CA
:104FD00051F915998246381C09F063F914998346F2
:104FE000039809F05EF9011C584609F043F9169937
:104FF0008346301C09F055F9011C584609F03AF96E
:10500000011C504609F036F9494668610B9809F0D1
:1050100048F9414681460C9809F043F9011C48467D
:1050200009F028F9049980460D9809F03AF9059994
:1050300081460E9809F035F9011C484609F01AF925
:10504000011C404609F016F9391C8046099809F000
:1050500028F90399071C0A9809F023F9011C381C48
:1050600009F008F9311C071C089809F01AF9011C0D
:10507000381C09F0FFF8011C404609F0FBF8069BBC
:10508000043404330693399BA8611C359C4200D03C
:105090004CE63CAA9446744B734A63441B686244D2
:1050A0001B6812680693704BD3AD63441B68DB69C1
:1050B00007936D4B63441B689B6B08936A4B634477
:1050C0001B685B6D0993684B63441B681B6F0A93F5
:1050D0008C23D358644A0B93634B624463441B682C
:1050E0005B680C93604B63441B681B6A0D935E4BBB
:1050F00063441B68DB6B0E935B4B63441B689B6DC7
:105100000F93594B63441B685B6F10939023126895
:10511000D358554A1193544B624463441B68126838
:105120009B681293504B63441B685B6A13934E4B0E
:1051300063441B681B6C14934B4B63441B68DB6D0F
:105140001593494B63441B689B6F16939423D35864
:10515000454A1793444B624463441B68DB681893C9
:10516000414B63441B689B6A19933F4B63441B6824
:105170005B6C1A933C4B63441B681B6E1B933A4B4E
:10518000126863441B68DB6F1C939823D358364A1C
:105190001D93354B624463441B6812681B691E9360
:1051A000314B63441B68DB6A1F932F4B63441B68BE
:1051B0009B6C20932C4B63441B685B6E2193802374
:1051C000D358294A22939C2362441268D358264A12
:1051D0002393254B624463441B685B692493224BF1
:1051E00063441B681B6B25931F4B63441B68DB6C7C
:1051F00026931D4B126863441B689B6E2793842380
:10520000D358194A2893A02362441268D358164AE7
:105210002993154B624463441B6812689B692A9367
:10522000114B63441B685B6B2B930F4B63441B68F0
:105230001B6D2C930C4B63441B68DB6E2D938823F2
:10524000D358094A2E93A42362441268D3582F934B
:10525000064B63441F68D3AB319390239C46BC44F8
:105260006346059304E0C0462C08000024080000B3
:105270007B687A699946BB6849469846FB680798F7
:105280000393049209F00DF841468246089809F00C
:1052900008F8011C504608F0EDFF3E688246311CBC
:1052A000069808F0FEFF011C504608F0E3FF3C6939
:1052B0008246211C0A9808F0F4FF049983460B9853
:1052C00008F0EFFF011C584608F0D4FF039983460D
:1052D000099808F0E6FF011C584608F0CBFF011CB6
:1052E000504608F0C7FF0D992860484608F0D9FFDE
:1052F0000E998246404608F0D4FF011C504608F043
:10530000B9FF0C998246301C08F0CBFF011C5046B7
:1053100008F0B0FF10998246201C08F0C2FF1199D6
:105320008346049808F0BDFF011C584608F0A2FF10
:105330000F998346039808F0B4FF011C584608F003
:1053400099FF011C504608F095FF13996860484684
:1053500008F0A7FF14998246404608F0A2FF011CFE
:10536000504608F087FF12998246301C08F099FFDA
:10537000011C504608F07EFF16998246201C08F05A
:1053800090FF17998346049808F08BFF011C58463C
:1053900008F070FF15998346039808F082FF011CFE
:1053A000584608F067FF011C504608F063FFA860EC
:1053B0001999484608F075FF1A998246404608F048
:1053C00070FF011C504608F055FF18998246301CAA
:1053D00008F067FF011C504608F04CFF1C998246FC
:1053E000201C08F05EFF1D998346049808F059FFC1
:1053F000011C584608F03EFF1B998346039808F0AD
:1054000050FF011C584608F035FF011C504608F0BB
:1054100031FF1F99E860484608F043FF2099824613
:10542000404608F03EFF011C504608F023FF1E993D
:105430008246301C08F035FF011C504608F01AFF68
:1054400022998246201C08F02CFF23998346049859
:1054500008F027FF011C584608F00CFF21998346ED
:10546000039808F01EFF011C584608F003FF011CBA
:10547000504608F0FFFE25992861484608F011FFC4
:1054800026998246404608F00CFF011C504608F061
:10549000F1FE24998246301C08F003FF011C50469F
:1054A00008F0E8FE28998246201C08F0FAFE2999A7
:1054B0008346049808F0F5FE011C584608F0DAFE11
:1054C00027998346039808F0ECFE011C584608F023
:1054D000D1FE011C504608F0CDFE2B99686148466C
:1054E00008F0DFFE2C998146404608F0DAFE011CE8
:1054F000484608F0BFFE2A998046301C08F0D1FECD
:10550000011C404608F0B6FE2E99061C201C08F02F
:10551000C8FE2F99041C049808F0C3FE011C201C2F
:1055200008F0A8FE2D99041C039808F0BAFE011C8F
:10553000201C08F09FFE011C301C08F09BFE059B00
:105540001837A8611C35BB4200D091E6F6AB059335
:105550003D9CDAAB319D3093EB6907999946AB6B73
:10556000484698466B6D2F680493059B2E6F04CBBD
:1055700004350392059308F094FE0899824640464C
:1055800008F08FFE011C504608F074FE0699824612
:10559000381C08F086FE011C504608F06BFE0A9984
:1055A0008246301C08F07DFE0B998346039808F074
:1055B00078FE011C584608F05DFE09998346049860
:1055C00008F06FFE011C584608F054FE011C5046BE
:1055D00008F050FE011C206808F04CFE0E99206077
:1055E000404608F05EFE0D998246484608F059FE96
:1055F000011C504608F03EFE0C998246381C08F00B
:1056000050FE011C504608F035FE10998246301CB1
:1056100008F047FE11998346039808F042FE011CEA
:10562000584608F027FE0F998346049808F039FE83
:10563000011C584608F01EFE011C504608F01AFED8
:10564000011C606808F016FE13996060484608F077
:1056500028FE14998246404608F023FE011C50465D
:1056600008F008FE12998246381C08F01AFE011C48
:10567000504608F0FFFD16998246301C08F011FED6
:1056800017998346039808F00CFE011C584608F051
:10569000F1FD15998346049808F003FE011C584655
:1056A00008F0E8FD011C504608F0E4FD011CA0686C
:1056B00008F0E0FD1999A060484608F0F2FD1A993B
:1056C0008246404608F0EDFD011C504608F0D2FD30
:1056D00018998246381C08F0E4FD011C504608F079
:1056E000C9FD1C998246301C08F0DBFD1D998346DC
:1056F000039808F0D6FD011C584608F0BBFD1B9925
:105700008346049808F0CDFD011C584608F0B2FD10
:10571000011C504608F0AEFD011CE06808F0AAFD2F
:105720001F99E060484608F0BCFD2099824640463B
:1057300008F0B7FD011C504608F09CFD1E998246FA
:10574000381C08F0AEFD011C504608F093FD22996C
:105750008246301C08F0A5FD23998346039808F083
:10576000A0FD011C584608F085FD21998346049848
:1057700008F097FD011C584608F07CFD011C5046BE
:1057800008F078FD011C206908F074FD259920615E
:10579000484608F086FD26998246404608F081FD7D
:1057A000011C504608F066FD24998246381C08F01A
:1057B00078FD011C504608F05DFD28998246301C9A
:1057C00008F06FFD29998346039808F06AFD011CD3
:1057D000584608F04FFD27998346049808F061FD6C
:1057E000011C584608F046FD011C504608F042FDD9
:1057F000011C606908F03EFD2B996061484608F085
:1058000050FD2C998146404608F04BFD011C48464E
:1058100008F030FD2A998046381C08F042FD011C32
:10582000404608F027FD2E99071C301C08F039FD72
:105830002F99061C039808F034FD011C301C08F059
:1058400019FD2D99061C049808F02BFD011C301C35
:1058500008F010FD011C381C08F00CFD011CA069AB
:1058600008F008FD309BA0611C349D4200D073E617
:105870003B99A29B0B60A99B4B60B09B8B60B79B35
:10588000CB60BE9B0B61C59B4B61CC9B8B61A39B8B
:10589000CB61AA9B0B62B19B4B62B89B8B62BF9B97
:1058A000CB62C69B0B63CD9B4B63A49B8B63AB9B73
:1058B000CB63B29B0B64B99B4B64C09B8B64C79B4F
:1058C000CB64CE9B0B65A59B4B65AC9B8B65B39B5B
:1058D000CB65BA9B0B66C19B4B66C89B8B66CF9B07
:1058E000CB66A69B0B67AD9B4B67B49B8B67BB9B43
:1058F000CB678023C29ACA50C99A0433CA50D09A3F
:105900000433CA50A79A0433CA50AE9A0433CA501B
:10591000B59A0433CA50BC9A0433CA50C39A0433AC
:10592000CA50CA9A0433CA50D19A0433CA50A89AAA
:105930000433CA50AF9A0433CA50B69A0433CA50DB
:10594000BD9A0433CA50C49A0433CA50CB9A043364
:10595000CA50D29A0433CA503A9B1A685F68111C25
:10596000101C90469E68DD6808F09BFC391C041CE6
:10597000381C08F096FC011C201C08F07BFC311C34
:10598000041C301C08F08DFC011C201C08F072FC6B
:10599000291C041C281C08F084FC011C201C08F095
:1059A00069FC08F00DFD041C011C404608F065FC74
:1059B0003A9B211C1860381C08F05FFC3A9F211CA0
:1059C0007860301C08F059FC211CB860281C08F0D5
:1059D00054FC389BF8601A685F68111C101C9046D4
:1059E0009E68DD6808F05DFC391C041C381C08F05A
:1059F00058FC011C201C08F03DFC311C041C301C10
:105A000008F04FFC011C201C08F034FC291C041C6D
:105A1000281C08F046FC011C201C08F02BFC08F098
:105A2000CFFC041C011C404608F027FC389B211CBD
:105A30001860381C08F021FC389F211C7860301C4D
:105A400008F01BFC211CB860281C08F016FCF8604C
:105A50000020044B9D44F0BCBB46B246A946A0467C
:105A6000F0BDC046EC080000F0B5D6464F464646AD
:105A7000C0B586B0A14B02AC00941A68A04D02924A
:105A80009A882800A2809B796A46A3710723019314
:105A900000236946D3730DF033FA0098A04203D077
:105AA0000299013108F086FE28000DF06FFA954E3C
:105AB0009C2431000122944D01C1A400830F434076
:105AC0006B439818013201C1A242F7D19C230024F4
:105AD000002000211B01F2508C4D00228C4B9C6059
