:020000041000EA
:1000000000B5324B212058609868022188439860DF
:10001000D860186158612E4B002199600221596106
:100020000121F02299502B49196001219960352056
:1000300000F044F80222904214D00621196600F024
:1000400034F8196E01211966002018661A6600F04E
:100050002CF8196E196E196E052000F02FF8012189
:100060000842F9D1002199601B49196000215960AB
:100070001A491B48016001219960EB211966A021F2
:10008000196600F012F800219960164914480160C1
:100090000121996001BC002800D000471248134993
:1000A000086003C880F30888084703B5996A0420EC
:1000B0000142FBD001200142F8D103BD02B5186610
:1000C0001866FFF7F2FF186E186E02BD00000240BE
:1000D000000000180000070000035F00212200005C
:1000E000F4000018222000A00001001008ED00E03C
:1000F00000000000000000000000000074B24E7A12
:1001000000200420F7010010C3010010C5010010F9
:10011000C1010010C1010010C1010010C101001097
:10012000C1010010C1010010C1010010C701001081
:10013000C1010010C1010010C9010010CB01001065
:10014000CD010010CD010010CD010010CD01001037
:10015000CD010010CD010010CD010010CD01001027
:10016000CD010010CD010010CD010010CD01001017
:10017000CD010010CD010010CD010010CD01001007
:10018000CD010010CD010010CD010010CD010010F7
:10019000CD010010CD010010CD010010CD010010E7
:1001A000CD010010CD010010CD010010CD010010D7
:1001B000CD010010CD010010CD010010CD010010C7
:1001C00000BE00BE00BE00BE00BE00BEEFF3058054
:1001D000103800BEF2EB88714448051064480510E1
:1001E0003402001090A31AE700201F49086006C8D7
:1001F00081F3088810471D48006800282FD10DA4FE
:100200000ECC002902D000F012F8F9E71849194A7B
:10021000002000E001C19142FCD1174988471749ED
:1002200088471749884700BEFDE701C901C29A42C5
:10023000FBD3704764480510C0000020B02C00209C
:1002400054740510000004200000042054740510AC
:10025000001004200010042000000000704709482E
:100260000DF00CFF0047000008ED00E0000000D09A
:10027000B02C00202C59032071C800107503001009
:10028000A5C900105756000006005250ABB360538A
:1002900018A4041006005250861C030228A404105F
:1002A000060052505422A29D34A40410050052505E
:1002B000DE65F46854740510F8B5C0460448054B73
:1002C00010B5834203D0044B002B00D0984710BDDB
:1002D000B02C0020B02C0020000000000648074988
:1002E000091A8B10C90FC91810B5491003D0044B57
:1002F000002B00D0984710BDB02C0020B02C00205F
:100300000000000010B5074C2378002B09D1FFF73F
:10031000D5FF054B002B02D0044800E000BF0123AD
:10032000237010BDB831002000000000009F0410B1
:10033000054B10B5002B03D00449054800E000BF71
:10034000FFF7CCFF10BDC04600000000BC3100200C
:10035000009F041010B504001F210AF0F5FC0022D4
:10036000200000210AF008FD002120000AF01CFDF9
:1003700010BDC04670B519200AF02AFDD023802296
:100380001B0692045A6228480FF0FCF90FF05AFB42
:1003900026480FF0F7F90CF04FFA1A20FFF7DAFFB2
:1003A0001B20FFF7D7FF00F05FF821480FF0EAF9B4
:1003B00007F066F81F480FF0E5F907F003FD1E4847
:1003C0000FF0E0F907F09AFA0AF014F80022052479
:1003D0001A4B1A7006F064FB19480FF0D3F9194D47
:1003E000013C210028000FF021FBFA2080000BF0D7
:1003F000FFFA002CF4D10A200FF078F90122002135
:1004000011480AF0BDFF114811F0CCFC0122104B3D
:10041000104C1A702378012BFCD107F08FFE237843
:10042000012BFAD0F6E7C046009F0410109F04107D
:100430001C9F0410289F0410389F04101259032099
:10044000489F0410549F0410FC5703208183001020
:10045000115903201659032010B5024811F0CAFFA4
:1004600010BDC04604380320092370B586B005933B
:1004700004330493023B0393013B0293023B324D4E
:10048000324C0193324B22003249334800932B0007
:1004900005F0C4FF142005F0BDFFFA2080000BF02A
:1004A000A7FA2E4E21003200280006F0CFF933784B
:1004B000682B08D02A4C20000FF064F9FA20800045
:1004C0000BF096FAF7E773783D2BF3D10122210068
:1004D000280006F0DFF9234E32002100280006F044
:1004E00013FA3378002BF7D101222100280006F0FF
:1004F0008FF80121200006F06DF80321200005F09F
:10050000FFFF0321280006F029F91321200006F03F
:1005100069FA1221200006F0A3FA0021200006F05B
:1005200081FA0321200006F00BFA0221200006F0D8
:1005300023FA5521200006F001F81821280006F0C2
:10054000A7F806B070BDC046B01F0320403300209E
:1005500040420F009C20002094200020D45803200B
:10056000689F041028590320F0B5C646334C344D1B
:10057000344E22002900300000B506F079F9637886
:10058000DB439B0720D023781B0702D480BCB846EE
:10059000F0BD2D4C0622002120000EF075FF210039
:1005A000300006F035F90023E05E05F09FFF274D8F
:1005B00028600223E05E05F099FF68600423E05E96
:1005C00005F094FFA860E1E7214B06229846180049
:1005D00000210EF059FF1F4F0622002138000EF0B7
:1005E00053FF4146280006F0F5F83900280006F0D0
:1005F000D3F843460020185E05F064FF4346164DCD
:1006000028600220185E05F05DFF43466860042004
:10061000185E05F057FFA8600023F85E05F05CFF48
:100620000E4D28600223F85E05F056FF6860042333
:10063000F85E05F051FFA860A5E7C046104E032004
:1006400040330020B01F0320003E03201843032046
:10065000F03D0320F83D0320803C0320A03C032014
:10066000F0B55746DE464E464546E0B58BB008919C
:100670009246190005900993DA1703238C4613401C
:1006800063449B109B009846002B00DC90E0524690
:10069000159B00249B000193149B9B1A159A9B1A8F
:1006A000089A9B00029353681268190194460491BA
:1006B000069251469A00039252468D000021013A5B
:1006C00092000792002289465900DE00CB189B0059
:1006D0009B461300424665440092019A94469C440E
:1006E000039B1A199F195346002B1EDD069B059884
:1006F00019196346804600989B0043448046009445
:10070000086818600098081A845804315C6084599D
:100710009C60C059D86010338D42F1D1434607998F
:10072000009363468C4604339C440421029B5A4444
:1007300063448C461400049A3E00E1449446009AB7
:100740005E4465444A45C8DC1A00009B9846099BF4
:10075000434526DD1499159C089B0D1B514609CB7A
:100760006D1A00291DDD41469E004B439B00C018B9
:1007700053469C00059B47469C46099BAB469846C2
:10078000159B994600234A4491006144C558CD50B9
:1007900004339C42FAD1524401375A448019B84577
:1007A000F0D10BB0F0BCBB46B246A946A046F0BDA6
:1007B0000022CCE7F0B54746CE4680B51F00002B9F
:1007C0001DDD002A1BDD9300C0180B68002498462D
:1007D0004B689100D200494252428C4691469B00A0
:1007E000614645182900A20042441668D21840C14B
:1007F0008142FAD14A460134A81AA742F0D1C0BCBE
:10080000B946B046F0BDC046F0B5DE464E46574646
:1008100045460023E0B5136083688BB0049305233D
:100820009B4600235E46099202680293013B0790B3
:100830000691039208930523049C9B1B5C439846F6
:10084000029BA4009C46039B64449C46644423682A
:100850005D0063686D085F007F08291C381C0EF07E
:10086000CFFB002800D1CCE03D1C0127731C9A4629
:10087000022B37D9A368291C5B005B08181C99461A
:100880000EF0BEFB002801D04D4602275346032B35
:1008900028D0E368291C5B005B08181C99460EF001
:1008A000AFFB002801D04D4603275346042B19D037
:1008B0002369281C5B005B08191C99460EF092FB0B
:1008C000002801D04D4604275346062B0AD16469FF
:1008D000281C64006408211C0EF084FB002801D051
:1008E0000527251C069B029A474400219F50281C7F
:1008F0000EF070FB002800D185E0089B013300D189
:10090000FEE0062347469B1B9C46079A0593926888
:10091000574367440492BF000599049B0C009A005A
:100920005C43029B00929C46039BA5001A00654411
:100930008C4691469B46924690463B1D6444A400DB
:10094000994404335D445C449A44BB4404331037F7
:10095000944698443B000027634401935B46296812
:1009600018680EF008FB011C20680EF0EAFA2060FF
:10097000012E2DD94B46286819680EF0FCFA011C8F
:1009800060680EF0DEFA6060022E21D053462868BF
:1009900019680EF0F0FA011CA0680EF0D2FAA060FF
:1009A000032E15D04346286819680EF0E4FA011C9E
:1009B000E0680EF0C6FAE060052E09D1019B2968B7
:1009C00018680EF0D8FA011C20690EF0BAFA2061FE
:1009D000009B01379C4665446444BE42BED1029BE5
:1009E000013E04330293059B052B00D023E71A0038
:1009F000069B5A610BB0F0BCBB46B246A946A04666
:100A0000F0BD002732E7474530D0039902988C4665
:100A1000BF0067448446079A3C6892680B5892006E
:100A20000C5061443B608918BB1808681C680C6056
:100A3000186089189B1808681C680C601860891871
:100A40009B1808681C680C60186089189B18086857
:100A50001C680C60186089189B1818680A68086080
:100A60001A60099A13680093013313604746079B85
:100A7000039A9B685F4304930623991B43468C4665
:100A8000FB189B0067449C58BF00D5192868059146
:100A9000211C0EF05CFA2860012E00D83CE7039B75
:100AA0003D1D9C4665442868211C0EF050FA2860C4
:100AB000022E00D130E7039B3D009C46083565447B
:100AC0002868211C0EF043FA2860032E00D123E78A
:100AD000039B3D009C460C3565442868211C0EF0A4
:100AE00036FA2860042E00D116E7039A3D0094469A
:100AF000103565442868211C0EF029FA28600BE7A0
:100B0000062347469B1B9C4605934346079A08933A
:100B10009268574367440492BF00FDE6F0B557461C
:100B2000DE464E464546E0B599B01493249B824676
:100B3000259C26985D1C00D1229B651C00D1229C1F
:100B4000239DEE1703253540239EB4466544AD1022
:100B5000AF000725229E0E97AE4335000096149EE7
:100B6000002E00DC88E29B00169323011093030102
:100B7000D31817936B1EDB0801330391D9015B0176
:100B80000F93A3007C432018800011931318159332
:100B90000023D346139108930E9B002B00DCC2E187
:100BA0000F9A039B944663441293179BD846019374
:100BB000002302930298434601000CCB089C594342
:100BC000A4466144890051180991411C594361446C
:100BD000890051180A91811C5943614489005118B8
:100BE0000B91C11C4B4363449B00D318019E0C9393
:100BF000009B3400002B00DC45E2039B0025994656
:100C000000234C46AA46AB46A946069504952F1CE0
:100C1000059507950D9325683168281C0EF0ABF9F2
:100C200059460EF091F971688346281C0EF0A3F91D
:100C300051460EF089F9B1688246281C0EF09BF9E6
:100C400007990EF081F9F1680790281C0EF093F9CE
:100C500005990EF079F9059065683169281C0EF048
:100C60008AF9391C0EF070F97169071C281C0EF006
:100C700082F904990EF068F9B1690490281C0EF00D
:100C80007AF906990EF060F9F1690690281C0EF0C9
:100C900072F949460EF058F98146A568316A281C58
:100CA0000EF069F959460EF04FF9716A8346281C17
:100CB0000EF061F951460EF047F9B16A8246281CE0
:100CC0000EF059F907990EF03FF9F16A0790281CC8
:100CD0000EF051F905990EF037F90590E568316B82
:100CE000281C0EF048F9391C0EF02EF9716B071C08
:100CF000281C0EF040F904990EF026F9B16B04900F
:100D0000281C0EF038F906990EF01EF9F16B0690CA
:100D1000281C0EF030F949460EF016F98146256977
:100D2000316C281C0EF027F959460EF00DF9716C44
:100D30008346281C0EF01FF951460EF005F9B16CE0
:100D40008246281C0EF017F907990EF0FDF8F16C99
:100D50000790281C0EF00FF905990EF0F5F8059094
:100D60006569316D281C0EF006F9391C0EF0ECF89F
:100D7000716D071C281C0EF0FEF804990EF0E4F8C3
:100D8000B16D0490281C0EF0F6F806990EF0DCF810
:100D9000F16D0690281C0EF0EEF849460EF0D4F8DE
:100DA0008146A569316E281C0EF0E5F859460EF013
:100DB000CBF8716E8346281C0EF0DDF851460EF01C
:100DC000C3F8B16E8246281C0EF0D5F807990EF0D4
:100DD000BBF8F16E0790281C0EF0CDF805990EF0C7
:100DE000B3F80590E569316F281C0EF0C4F8391C82
:100DF0000EF0AAF8716F071C281C0EF0BCF80499BD
:100E00000EF0A2F8B16F0490281C0EF0B4F8069909
:100E10000EF09AF8F16F0690281C0EF0ACF84946D7
:100E20000EF092F88146803620340D9B009A0833EC
:100E30000D939A4200DDEEE6139B019C9C46051C37
:100E40005946381C64440EF07FF85146071C04983C
:100E50000EF07AF80799061C06980EF075F80599B9
:100E60008146281C0EF070F8129B051C9A46229AA7
:100E7000009B9A4230DDAB460493534620CB216859
:100E8000281C9A460EF077F8011C381C0EF05CF80E
:100E90006168071C281C0EF06EF8011C301C0EF057
:100EA00053F8A168061C281C0EF065F8011C484682
:100EB0000EF04AF8E1688146281C0EF05CF8011C2F
:100EC00058460EF041F88346049B229A01331034B1
:100ED00004939A42D1D1051C311C0A9E30680EF051
:100EE00030F8391C099F041C38680EF02AF8291CB8
:100EF0000C9D3860346028680EF023F80B9E49463C
:100F0000041C30680EF01DF81099019A8C46029B63
:100F1000624401920E9A0433306002932C609A422C
:100F200000DD47E6C3460F9A039B944663440E9A3E
:100F30000293239B9246159D934200DC90E05B4612
:100F40005C6853465C43089B2F009C465B461B68CD
:100F500064449C46009BA4006444002B00DC99E0A0
:100F60000023039F99463B00A04600262F001C004B
:100F7000396820680DF0FFFF311C0DF0E5FF061CFD
:100F8000796860680DF0F7FF311C0DF0DDFF061C7D
:100F9000B968A0680DF0EFFF311C0DF0D5FF061CFD
:100FA000F968E0680DF0E7FF311C0DF0CDFF061C7D
:100FB000396920690DF0DFFF311C0DF0C5FF061CFB
:100FC000796960690DF0D7FF311C0DF0BDFF061C7B
:100FD000B969A0690DF0CFFF311C0DF0B5FF061CFB
:100FE000F969E0690DF0C7FF311C0DF0ADFF061C7B
:100FF0002037203408239C46009BE1444B45B7DC56
:1010000044460F9BEF18029B0193229A009B9A4241
:1010100017DD99460023984643464246F958019BFE
:1010200098580DF0A8FF011C301C0DF08DFF061C18
:1010300001239C460333E1449C46229BE0444B45FC
:10104000EAD12068311C0DF07CFF01239C46119BE6
:10105000E2449C46239B20606544534500D06EE7E4
:101060001699039A8C46089B62440392149A0133A2
:1010700008939A4200D08FE519B0F0BCBB46B24647
:10108000A946A046F0BD0025039BA9469A462E1C02
:101090002F1CECE6039B00260193B6E7F0B55746FC
:1010A000DE464E4645469C24E0B5BDB006AF3C1931
:1010B000FB63842320609824BA6694225B003C1969
:1010C000FB1821601C68BA182369FB67A3681360CA
:1010D000834202DD9423FB18186094239821FB18A7
:1010E0007918FA6F1B680D68534355432268002A2C
:1010F00000D1DBE29B007B668C23FB181A609022F8
:101100000023BA1813606368AA003A66002B00D166
:10111000ECE28822BB670023BA181360C84D2B7815
:10112000BFF35B8FDB0700D4FDE2C64CA42204238F
:10113000BA1813609433FB181B686068002B18DD25
:101140009C237A1DFB18FF321B681268190093421A
:1011500000DAFFE209010CF0EBFF0323C217134092
:10116000A4221B189B109B00BA181360042B00DAF2
:10117000EBE29C23FB181C68002C00DC72E2FB6B8A
:10118000FD6F18006A425043F86118008021661B09
:101190007043F866180001335A4392007918BA6117
:1011A000621E0E601100594389008846B96E1B010A
:1011B0008C46E04441467964A90049423961A10066
:1011C0007C1CFF3424685B42A446A4246144396437
:1011D000791DFF313C1909682468FB606143B962DD
:1011E000B02183005B4279180B600300921B5043CF
:1011F000DB43AC229B00BA181360C4227B1DFF3373
:101200001B68BA189B0078611360A022FB6FBA18A4
:1012100013609C22BA181268934202DDA023FB18C7
:101220001A609823FB181B68002B00DC9FE1A023A9
:10123000FB181A68002A00DC99E19823FB181B6848
:10124000396C3B65A423FB181B6853439B00FB626E
:10125000BB6FFB649300CB1A79697B628C46FB6E93
:10126000B82163447B63002379180B60D021BB64F1
:101270003B679C33FB181B6879189B1ABB601300F3
:1012800079600321013B043A8B43D31A3B63A422C8
:10129000BA183B6D1268FB65934200DDFA65B8220F
:1012A000BA181268FB6D9446C8226344BA181360DA
:1012B0009C237A6AFB1894461B6884227B673B6FE9
:1012C000BA189B0063443B627B6B7B657B6CBB65A0
:1012D000A023FB181B6813608423B422FB181B682F
:1012E000BA181360042B03DDB4220423BA18136068
:1012F0008423FB181B68002B00DCA5E0B422C82067
:10130000B824BA187B6F116838183C190068246833
:101310005A1ABA63A04200DC9CE094464E1EB96E95
:101320009B008A46043B9B467B6D791C63449B0073
:10133000FF3109689A44BB6C63448C46A8219B002A
:10134000634479180B609300C0225B42BA181360A3
:10135000BC22BB6DBA181360BC23FE20FB181B68AF
:10136000800519680DF0F3FDCC23FB181860A82345
:10137000FB181C68B823FB181B68B1461E00C0236D
:10138000FB181B685A469846A04443469958CC23FC
:10139000FB1818680DF0EFFD43465A4698504B462F
:1013A000051C002B22DD534619680DF0E4FD011CDD
:1013B00020680DF0C6FD4B462060012B16D0534629
:1013C000281C59680DF0D7FD011C60680DF0B9FDAF
:1013D0004B466060022B09D05346281C99680DF0DB
:1013E000CAFD011CA0680DF0ACFDA060C423FB1871
:1013F0001B6801369C46C823FB181B6864449E4248
:10140000BDD1AC22BC23BA181268FB189446BC228A
:101410001B68BA18634413600423B0225B429C46E5
:10142000BA181268E3449446B4224E46BA181268B9
:10143000731EE244961BB2420CDD1E008CE7C046D0
:101440005422032018380320B422BA187B6F126884
:101450009B1ABB638423B422BD6BBA18AC46FB183D
:1014600010681B687A1CFF3212681C1A3B6F79687F
:10147000634494469B0063440B607B1DFF331B68F1
:1014800080464B60A0230194FB181E680200009662
:10149000FB6DF86C9B4689468246FFF7E1F8002C0D
:1014A0002ADD2B00BA6849469446FD6BBA6E6B4341
:1014B0008C20634494464D604D469B00381800686C
:1014C00063440B60424623008146FFF773F929000D
:1014D0007B1DFF333D6A1B680D604B600D005B4652
:1014E0000396464601935246230049462800049439
:1014F00002960096FFF712FB84238422F968FB18FA
:101500008C46B0211B68BA18043B13607A6F7918B7
:10151000043A09687A67BA6D62448C46BA657A6D96
:1015200062447A653A6B934200D0D5E6A422B82390
:10153000BA181268B8219446FB181B6879186344DE
:101540000B60396D8A1AF96A3A658C46FA6CB96A89
:1015500062448C46FA643A6F62443A67BA6C6244F9
:10156000BA649822BA1812689A4200DD8FE6802386
:101570009C22FB181B68BA181360002B72DD9423A1
:10158000FB181B68002B00DCFEE78023BA6EFB18FB
:1015900092461D68FB6E00249B009A44D023FE18DF
:1015A00000239B46013B99469423FB181B68A846E1
:1015B0009D4200DD9846CC22A300BA181360FA6B56
:1015C0008C207260A0225344BA1838183100126877
:1015D000006833604346FFF7EDF87A1CCC23FF32F6
:1015E0001268FB1894461B688C21634433607B1D92
:1015F000FF331B68791873605B4604934B46039373
:1016000002939823FB181B6830000193A023FB185A
:101610001B680093BA6F43460968FFF77FFA94236B
:10162000FB181B689C46ED1A8023FB181B6864445A
:10163000A342B9DCFA69FB6E9446BA6963449446E6
:10164000FB663A697B6C634494467B643B6CFA6F3F
:1016500063443B648023FB181B689B1A8022BA18E2
:101660001360D2E580233A6E9B029A4208D9882300
:10167000FB181B68002B03D0043B18680DF0ECFE30
:1016800080237A6E9B029A4208D99023FB181B682C
:10169000002B03D0043B18680DF0DEFEBD4637B0CA
:1016A000F0BCBB46B246A946A046F0BD9A008023D6
:1016B0007A669B029A424FD813006A461633DB08BB
:1016C000DB00D31A9D4627200F23684498438133BB
:1016D000FB18186090238C22FB181B68BA18136043
:1016E0006368AA003A66002B00D012E580239B02B3
:1016F0009A424FD813006A461633DB08DB00D31A30
:101700009D4627200F23684498437933FB181860BF
:101710008823FB181B682D4DBB672B78BFF35B8FAD
:10172000DB0700D501E5280010F062FB284C0028FB
:1017300000D1FBE48023DB01236080231B0328000E
:101740006360A36010F070FBF0E4A4220423BA18D5
:1017500013600EE51100FDE4100010300DF05EFE88
:101760009023FB18021E1860B4D00F230100994388
:101770000B0010218C468C209C446146DA60236863
:101780003818016058425841902340420140FB18EC
:101790001960B8E4100010300DF040FE8823FB18EB
:1017A00018600028B4D00F23010099430B001021CA
:1017B0008C46D86060689C44434258416146882307
:1017C0004042B967FB1801401960A7E45422032086
:1017D00018380320F0B55746DE464E464546E0B57C
:1017E000B3B006AF8C24BB62E023FA6288223C19B6
:1017F000FB1821601C68BA1823697865136084227D
:10180000A368BA181360834202DD8423FB181860B2
:10181000842388228C21FB18BA18791812681B6857
:101820000D68534355432268002A00D150E29B00C3
:10183000FA6780223B650023BA1813606368AA0028
:10184000FA64002B00D161E2FB660023BB67E74D21
:101850002B78BFF35B8FDB0700D470E2E44C90225F
:101860000423BA1813608833FB181B686068002BC8
:1018700016DDDC22BA187B6D12681900934200DA7B
:1018800074E209010CF054FC0323C21713409022A8
:101890001B189B109B00BA181360042B00DA60E23F
:1018A0007B6D002B00DCF1E18822B96ABA180800D0
:1018B0001268BB6350439B1AB86098207B634B1C33
:1018C00099001B01FB61DC234A43381801607A60F0
:1018D0009020DC22FB181B68BA189B009B46FB6A11
:1018E00038183B63002312680068BB6542437A6185
:1018F0000A1F3A627B679422BB6BBA181360882276
:10190000BA181268934202DD9423FB181A608C23E4
:10191000FB181B68002B00DC45E19423FB181A68B8
:10192000002A00DC3FE18C239021FB181B6879180A
:10193000BB6413000968DA464B43D821791809685B
:101940009B008C463B61FB6E9C21FB657B6F79188D
:101950009B006344FB6000230B60A8213B66791861
:10196000130039600321013B043A8B43D31ABB6156
:101970009022BA18BB6C1268BB66934200DDBA664F
:101980009C22BA181268BB6E9446FA686344944667
:101990009B463B6E9B006344FB633B6B3B647B6FEE
:1019A0007B66BB6D7B649423FB181B683B679423A9
:1019B000FB181A683B6FD21A7A62A022BA18136019
:1019C000042B03DDA0220423BA1813603B6F002B05
:1019D00058DD9C23FB181B689B4553DDA023A422E4
:1019E000FB181B68BA18013B9946FB6B13603B6CF4
:1019F00098464B46002B2EDDA423FB181C689C2325
:101A0000FB181E68434625685968281C0DF0B3FA78
:101A1000011C60680DF095FA4B466060012B16D0F2
:101A20004346281C99680DF0A6FA011CA0680DF029
:101A300088FA4B46A060022B09D04346281CD9687F
:101A40000DF099FA011CE0680DF07BFAE0600136B8
:101A500054445E45D6D14B465A1E9823FB181B684A
:101A6000A4219C46A423FB181B68791804330B603F
:101A7000A023FB1819684B46E044CB1A994201DDBC
:101A80009146B6E7A022BA181468D8223B6F796E47
:101A90003E6E8C461D1B3300BA18106863448446A2
:101AA00039689B0063440B60DC23FB181B68220031
:101AB0004B607B6A884601939423FB18186800905A
:101AC000BB6EF86DFEF7CCFD002D36DD7B6E41461A
:101AD0009C46786C220064440319F86A9B00844693
:101AE000B86A63444860A02038180260F86F0B6041
:101AF0002B00C1468046FEF75DFED822BA18331986
:101B000014689B00A4464C4663442360DC23FB1806
:101B100019687B6A616004939423FB181E68A023F4
:101B20000396FB181A6841460292BB6E009201931D
:101B300048462B00FA6DFEF7F1FF396A7A6C8C4645
:101B4000F96962448C467A647A6E3B6F04327A6635
:101B50003A6C043B62443A64FA6B3B671032FA63B6
:101B6000BA69934200D022E790229C23BA181268E7
:101B70009C219446FB181B68791863440B60B96C70
:101B80008A1A7969BA648C463A6E396962448C461D
:101B90003A66FA6D6244FA658C22BA1812689A4263
:101BA00000DDE5E6D3468822BA1812687B6F9446BA
:101BB0007A6D63447B67934268DA8423FB181B6861
:101BC000002B17DC8823B968FB188C46BA6B1B689E
:101BD000D21ABA63BA6D6244BA657A6BD31A7A685C
:101BE0007B6394463B6B63443B6384E6542203204F
:101BF00018380320FA6ABB6D92469B009A44A823CA
:101C0000FE18A93B99467D6B7C6F8423FB181B68EB
:101C1000A8469D4200DD9846A422A300BA1813608E
:101C2000BA6A534472609422BA1831001268F86F8D
:101C300033604346FEF7BEFDD822A423BA181268CB
:101C4000FB1894461B68300063443360DC23FB18A8
:101C50001B687360002304934B46039302938C2309
:101C6000FB181B6801939423FB181B680093FA6E02
:101C70004346F96FFEF752FF8423FB181B689C460E
:101C8000ED1A7B6D6444A342BFDC9BE78023FA6CB2
:101C90009B029A4206D9BB6F002B03D0043B186805
:101CA0000DF0DAFB80233A6D9B029A4208D980231B
:101CB000FB181B68002B03D0043B18680DF0CCFB0D
:101CC000BD462DB0F0BCBB46B246A946A046F0BD0D
:101CD0009A0080233A659B029A4249D813006A46CB
:101CE0001633DB08DB00D31A9D4627200F236844F8
:101CF00098437133FB1818608023FB181B68AA00F7
:101D0000FB676368FA64002B00D09DE580239B028B
:101D10009A4249D813006A461633DB08DB00D31A0F
:101D20009D4627200F2368449843B867BB6F2A4D10
:101D3000FB662B78BFF35B8FDB0700D58EE52800B1
:101D400010F056F8254C002800D188E58023DB01EF
:101D5000236080231B0328006360A36010F064F8F5
:101D60007DE590220423BA18136099E5110088E5F7
:101D7000100010300DF052FB8023FB181860002873
:101D8000BAD00F23010099430B0010218C46D86074
:101D90009C44236861465842584180234042F96779
:101DA000FB180140196049E5100010300DF036FBBA
:101DB000B8670028BAD00F23010099430B00102107
:101DC0008C46D86060689C4443425841614640421A
:101DD000F9660140B9673AE5542203201838032018
:101DE00030B587B00D4B02AD00951A686946029276
:101DF0009A880400AA809B796A46AB7107230193F5
:101E00000023D3732CF086FF0098A84203D00299D8
:101E100001310DF055FB200007B030BD7C9F041050
:101E2000F0B5DE4657464E464546E0B50E00016821
:101E3000C7688946416805698A4681688DB08B46C6
:101E4000416980690793069050681368926805910C
:101E50000A90291C30680B92099308950DF071F8CF
:101E60000599039070680DF06CF80699051CB06830
:101E70000DF067F880268046360607980DF014F9B5
:101E8000B446039B009001916344180051460DF045
:101E900072F85946061C281C0DF06DF8011C301C08
:101EA0000DF04FF8391C061C404604970DF063F8FE
:101EB000011C301C0DF045F80DF0F6F80022684BBF
:101EC0000CF0A1FB009A019B0CF09DFB060048461C
:101ED0000F000DF0E9F802000B0030003900169CED
:101EE0000CF06AFB0CF088FC4946206003980DF06A
:101EF00042F85946061C40460DF03DF8011C301CC6
:101F00000DF022F80499061C281C0DF034F8011C71
:101F1000301C0DF016F80DF0C7F80022504B0CF0F5
:101F200072FB009A019B0CF06EFB060050460F00FE
:101F30000DF0BAF802000B00300039000CF03CFB49
:101F40000CF05AFC49466060281C0DF014F851460C
:101F5000061C40460DF00FF8011C301C0CF0F1FF80
:101F60000499061C03980DF006F8011C301C0CF0B7
:101F7000EBFF0DF099F80022394B0CF044FB009A6E
:101F8000019B0CF040FB060058460F000DF08CF84A
:101F900002000B00300039000CF00EFB0CF02CFCA2
:101FA0004946A06040460CF0E6FF5146061C281C3E
:101FB0000CF0E1FF011C301C0CF0C6FF5946051C5B
:101FC00003980CF0D8FF011C281C0CF0BAFF0DF090
:101FD0006BF80022224B0CF016FB009A019B0CF0D0
:101FE00012FB060004980F000DF05EF802000B00D3
:101FF000300039000CF0E0FA0CF0FEFB089B099968
:10200000E060181C98460CF0B6FF079D291C0CF0E8
:10201000B2FF011C40460CF094FF059F0A99206115
:10202000381C0CF0A8FF291C0CF0A5FF011C381C63
:102030000CF087FF069E0B996061301C0CF09BFF33
:10204000291C0CF098FF011C301C0CF07AFFA061D9
:1020500000200DB0F0BCBB46B246A946A046F0BD7C
:102060000000E03FF0B5DE4657464E4645468A46FC
:102070004168E0B58846C768816891B006688946BE
:102080004046391C141C04930CF075FF4946051C8E
:10209000301C0CF070FF0A90011C281C09950CF0F4
:1020A00050FF0DF001F802000B000CF085FA0690CD
:1020B0000791201C02940CF0F7FF0B0002000400B3
:1020C0000D00069807990CF09EFA0CF095FB52460D
:1020D000391C106048460CF04EFF83464146301CC8
:1020E0000CF049FF5A460E90011C58460B920CF01A
:1020F0002BFF0CF0D9FF02000B000CF05DFA020080
:102100000B00200029000C920D930CF07CFA0CF0CF
:1021100073FB5446311C6060301C0CF02CFF4146B0
:10212000041C40460CF027FF051C011C201C0CF071
:1021300008FF4946089048460CF01DFF391C8346AD
:10214000381C0CF018FF5946019008980CF0F9FE65
:1021500001990CF0F9FE02990F900CF00CFF534618
:102160004946986040460CF006FF391C8046301CFA
:102170000CF001FF81461A980CF096FF06001B98A0
:102180000F000CF091FF02900391291C201C0CF011
:10219000DBFE59460CF0D5FE01990CF0D2FE0499F5
:1021A0000CF0E9FE0CF080FF04000D0040464946AB
:1021B0000CF0CAFE0CF078FF02000B000CF0FCF9EA
:1021C00032003B000CF01FFA02000B002000290037
:1021D0000CF0F2F9029A039B04000D00069807998F
:1021E0000CF011FA02000B00200029000CF0E4F9B9
:1021F0000CF002FB5346D86004980CF055FF040025
:102200000D00404649460CF09CFE0CF04DFF0200CC
:102210000B000CF0D1F922002B00049405950CF072
:10222000F2F904000D00089859460CF08DFE019952
:102230000CF087FE1A990CF09EFE0CF035FF0200A0
:102240000B00200029000CF0B7F9029A039B040050
:102250000D000C980D990CF0D6F902000B0020002F
:1022600029000CF0A9F90CF0C7FA53460A99186135
:1022700009980CF069FE0CF017FF02000B000CF03F
:102280009BF9049A059B0CF0BEF904000D000B9815
:102290000E990CF056FE0CF007FF02000B000CF03C
:1022A0008BF932003B000CF0AEF902000B0020006D
:1022B00029000CF081F904000D000F981B990CF017
:1022C0005AFE0CF0F1FE02000B00200029000CF079
:1022D00073F90CF091FA53465861002011B0F0BC2C
:1022E000BB46B246A946A046F0BDC046F0B50400C4
:1022F000DE4657464E4645460800E0B54568096843
:10230000AA46856895B0AB46C5684669876910914D
:102310000E950169556810689268049690461A688F
:10232000069711925A689B6812921393FE239B059D
:10233000236099460CF005FE0CF0B6FE009001916A
:102340001E980CF0B1FE06000F00009801990022C3
:10235000924B0CF058F932003B000CF054F90CF0A1
:102360004BFA04990390E061281C0CF0EAFD0CF094
:102370009BFE0022894B049005910CF044F9320039
:102380003B000CF040F90CF037FA0699051CA063ED
:1023900040460CF0D6FD0CF087FE00227F4B0690E5
:1023A00007910CF030F932003B000CF02CF90CF0E6
:1023B00023FA0A90606550460CF076FE0022784BB6
:1023C000089009910CF01FF932003B000CF01BF94A
:1023D0000CF012FA0B90206758460CF065FE0022B4
:1023E0006F4B0C900D910CF00EF932003B000CF08D
:1023F0000AF90CF001FA8C238246E0500E980CF09A
:1024000053FE0022664B0E900F910CF0FCF8320048
:102410003B000CF0F8F80CF0EFF9A8238346E050ED
:102420000022009801995E4B0CF0EDF832003B0061
:102430000CF0E9F80CF0E0F9494600906060216288
:10244000002206980799564B0CF0DDF832003B004D
:102450000CF0D9F80CF0D0F9A5658046E06310982F
:102460000CF022FE00224D4B0CF0CDF832003B0068
:102470000CF0C9F80CF0C0F959469023051C6067B0
:102480000022E1500C980D99444B0CF0BCF832003E
:102490003B000CF0B8F80CF0AFF9AC230022E05090
:1024A000049805993E4B0CF0AEF832003B000CF05E
:1024B000AAF80CF0A1F949460A9A83466262009A8A
:1024C000A0602164E2650E980F990022334B0CF056
:1024D0009AF832003B000CF096F80CF08DF994233A
:1024E0000B99A067E5501C33E1504146E160594625
:1024F000A162494621665146039BE16763640898DF
:1025000009990022254B0CF07EF832003B000CF0BC
:102510007AF80CF071F99823E0501C33E55000254F
:102520001E9911982561E562A56465660CF023FD8E
:10253000011C48460CF005FD8023E0501C33E5509B
:102540001C33E550343B1E99129865612563E564A0
:10255000A566E5500CF00FFD011C48460CF0F1FC9F
:10256000A023E0501C33E550343BA561656325652D
:10257000E566E5501C33E5501E9913980CF0FBFC02
:10258000011C48460CF0DDFCC023E050002015B0D3
:10259000F0BCBB46B246A946A046F0BD0000E0BF75
:1025A0000000E03FF0B5DE4657464E464546E0B5F2
:1025B0009A460B68141C8A689B464B68C9688BB0A6
:1025C0000500101C8846009301920CF06DFD0290EE
:1025D0000391201C0CF068FDC02306000F00029838
:1025E000039900221B060CF00EF832003B000CF0A1
:1025F0000AF80CF001F90890286040460CF054FDF0
:1026000002000B000BF0D8FF32003B000BF0FBFF89
:102610000CF0F2F8041CA86158460CF045FDC023EC
:1026200000221B06049005910BF0EDFF32003B00E9
:102630000BF0E9FF0CF0E0F8286300980CF034FD93
:1026400002000B00069007910BF0B6FF32003B0032
:102650000BF0D9FF0CF0D0F8002190238946A86434
:102660002966A967E95068600498059902000B0083
:102670000BF0A2FF32003B000BF0C5FF0CF0BCF8E2
:102680006C630490E8610298039902000B000BF060
:1026900093FF32003B000BF0B6FF0CF0ADF849465B
:1026A0009423E8646966E967E950C02306980799AE
:1026B000049A1B06AA6000220BF0A5FF32003B0023
:1026C0000BF0A1FF0CF098F8089B4946AB63802300
:1026D00028622C65A966E9501833E95040461499E0
:1026E0000CF049FC019F1599061C381C0CF043FCAA
:1026F0005146041C58460CF03EFC311C0CF024FCE6
:10270000211C06940CF01DFC011C0CF01DFC514614
:102710000990E86000980CF02EFC1499041C381CF9
:102720000CF029FC011C201C0CF00EFC1599041C5B
:1027300040460CF020FC011C201C0CF005FC011C88
:102740000CF002FC14990290686200980CF013FCE3
:102750001599089058460CF00EFC019A8024944676
:1027600024066444071C514620000CF004FC089920
:102770000CF0EAFB391C0CF0E4FB011C0CF0E4FB50
:102780001499E86358460CF0F6FB159904900098EC
:102790000CF0F1FB802212064244041C514610004A
:1027A0000CF0E9FB04990CF0CFFB211C0CF0CCFBE6
:1027B000011C0CF0C9FB4A468423EA666865EA50AE
:1027C0001833EA505146286101980CF0D4FB08995F
:1027D0000CF0B7FB391C0CF0B7FB011C0CF0B4FB80
:1027E000071CA8628020029B00062B6451465844B7
:1027F0000CF0C1FB311C0CF0A4FB06990CF0A4FBFF
:10280000011C0CF0A1FB8823A86548462867E85006
:102810001833E850514640466F610CF0ACFB049908
:102820000CF08FFB211C0CF08CFB011C0CF08CFBC2
:10283000099AE8626A64029B4A46EB654B466B67FD
:102840008C230020EA501833EA500BB0F0BCBB4692
:10285000B246A946A046F0BD0123F0B5E3214746A4
:10286000CE469C46294B804605009946284E80B5A9
:102870008900076846444144FA0F6F68D2077B001D
:102880005B08346813435A08624064461C4201D016
:102890004B465A4004C50436A942EDD1E3234246D3
:1028A0009B00C626D458194B01259C46F600464489
:1028B000E20F4C68D20763005B08076813435A08AD
:1028C0007A401D4201D063465A40043004C1B042F0
:1028D000EED14246C62140460E4BC900D35812687D
:1028E000DB0F52005208DB07415813435A084A4095
:1028F000DB0701D5054B5A404146064BCA50002222
:102900000433CA50C0BCB946B046F0BDDFB0089928
:1029100034060000BC090000F0B54546DE465746C7
:102920004E46E0B53B4CD723A54434AA94466344B5
:102930001B091B018A6805930B68019237921A687C
:10294000049006929A69339107921A6B38AC0892F8
:102950009A6C09921A6E0B929A6F0C9290229A5866
:102960000D925A680E92DA690F925A6B1092DA6CD5
:1029700011925A6E1292DA6F139294229A5814920C
:102980009A6815921A6A16929A6B17921A6D189293
:102990009A6E199280229A581A9298229A581B92EB
:1029A000DA681C925A6A1D92DA6B1E925A6D1F9257
:1029B000DA6E209284229A5821929C229A5822926E
:1029C0001A6923929A6A24921A6C25929A6D269219
:1029D0001A6F279288229A582892A0229A582992F0
:1029E0005A692A92DA6A2B925A6C2C92DA6D2D92DD
:1029F0005A6F2E928C229A582F92A4229B58309371
:102A00004B68984638AB3293C423454643440A93F7
:102A100002E0C0469CFDFFFFEA68A96991462A6969
:102A2000AB6890466A6909980391494601930292FE
:102A30000CF0A1FA414682460B980CF09CFA011C5E
:102A400050460CF081FA029982460C980CF093FAE9
:102A5000039983460D980CF08EFA011C58460CF031
:102A600073FA011C50460CF06FFA6F688246391CED
:102A700007980CF080FA0199834608980CF07BFACD
:102A8000011C58460CF060FA2E688346311C0698EB
:102A90000CF071FA011C58460CF056FA011C504615
:102AA0000CF052FA4946206011980CF064FA414645
:102AB000824612980CF05FFA011C50460CF044FA62
:102AC0000299824613980CF056FA0399834614989B
:102AD0000CF051FA011C58460CF036FA011C504615
:102AE0000CF032FA391C82460F980CF044FA019926
:102AF000834610980CF03FFA011C58460CF024FA5B
:102B0000311C83460E980CF036FA011C58460CF026
:102B10001BFA011C50460CF017FA494660601898E1
:102B20000CF029FA4146824619980CF024FA011C4F
:102B300050460CF009FA029982461A980CF01BFADA
:102B4000039983461B980CF016FA011C58460CF0AA
:102B5000FBF9011C50460CF0F7F9391C8246169817
:102B60000CF009FA0199834617980CF004FA011C3D
:102B700058460CF0E9F9311C834615980CF0FBF926
:102B8000011C58460CF0E0F9011C50460CF0DCF931
:102B90004946A0601F980CF0EEF941468246209805
:102BA0000CF0E9F9011C50460CF0CEF9029982466E
:102BB00021980CF0E0F90399834622980CF0DBF998
:102BC000011C58460CF0C0F9011C50460CF0BCF931
:102BD000391C82461D980CF0CEF9019983461E9847
:102BE0000CF0C9F9011C58460CF0AEF9311C8346B3
:102BF0001C980CF0C0F9011C58460CF0A5F9011CFA
:102C000050460CF0A1F94946E06026980CF0B3F963
:102C10004146824627980CF0AEF9011C50460CF054
:102C200093F90299824628980CF0A5F903998346F6
:102C300029980CF0A0F9011C58460CF085F9011CEC
:102C400050460CF081F9391C824624980CF093F917
:102C50000199834625980CF08EF9011C58460CF01A
:102C600073F9311C834623980CF085F9011C5846F2
:102C70000CF06AF9011C50460CF066F92D992061A0
:102C800048460CF078F92E99814640460CF073F9CD
:102C9000011C48460CF058F92F99804602980CF018
:102CA0006AF93099814603980CF065F9011C484691
:102CB0000CF04AF9011C40460CF046F9391C8046DC
:102CC0002B980CF058F92C99071C01980CF053F92B
:102CD000011C381C0CF038F9311C071C2A980CF028
:102CE0004AF9011C381C0CF02FF9011C40460CF06D
:102CF0002BF90A9B1C3560611834AB4200D08BE67F
:102D0000379B1A68629308929A6909921A6B0A9221
:102D10009A6C0B921A6E0C929A6F0D9290229A589E
:102D20000E925A680F92DA6910925A6B1192DA6C0D
:102D300012925A6E1392DA6F149294229A58159244
:102D40009A6816921A6A17929A6B18921A6D1992CB
:102D50009A6E1A9280229A581B9298229A581C9224
:102D6000DA681D925A6A1E92DA6B1F925A6D20928F
:102D7000DA6E219284229A5822929C229A582392A7
:102D80001A6924929A6A25921A6C26929A6D059C69
:102D900027921A6F2034289288229A58A1462992A5
:102DA000A0229A582A925A692B92DA6A2C925A6C6B
:102DB0002D92DA6D2E925A6F2F928C229A58309261
:102DC000A4229B5831935CAB06933EAB0793329B96
:102DD000984643464246414640461B6895690193E2
:102DE000069B146B096E926C40CB876F0291101C8E
:102DF0000B99039206930CF0BEF80C998246029848
:102E00000CF0B9F8011C50460CF09EF80D99824662
:102E1000381C0CF0B0F80E998346301C0CF0ABF85F
:102E2000011C58460CF090F8011C50460CF08CF830
:102E300009998246281C0CF09EF80A998346201CAA
:102E40000CF099F8011C58460CF07EF8089983465E
:102E500001980CF090F8011C58460CF075F8011C14
:102E600050460CF071F84B461299186003980CF01C
:102E700082F81399824602980CF07DF8011C5046A6
:102E80000CF062F814998246381C0CF074F815990D
:102E90008346301C0CF06FF8011C58460CF054F8B7
:102EA000011C50460CF050F810998246281C0CF07A
:102EB00062F811998346201C0CF05DF8011C5846FD
:102EC0000CF042F80F99834601980CF054F8011C5D
:102ED00058460CF039F8011C50460CF035F84B46BA
:102EE0001999586003980CF046F81A99824602988E
:102EF0000CF041F8011C50460CF026F81B99824654
:102F0000381C0CF038F81C998346301C0CF033F850
:102F1000011C58460CF018F8011C50460CF014F82F
:102F200017998246281C0CF026F818998346201C15
:102F30000CF021F8011C58460CF006F8169983464F
:102F400001980CF018F8011C58460BF0FDFF011C0D
:102F500050460BF0F9FF4B462099986003980CF00F
:102F60000AF82199824602980CF005F8011C504697
:102F70000BF0EAFF22998246381C0BF0FCFF2399E4
:102F80008346301C0BF0F7FF011C58460BF0DCFFAA
:102F9000011C50460BF0D8FF1E998246281C0BF0EE
:102FA000EAFF1F998346201C0BF0E5FF011C5846E1
:102FB0000BF0CAFF1D99834601980BF0DCFF011C42
:102FC00058460BF0C1FF011C50460BF0BDFF4B46AD
:102FD0002799D86003980BF0CEFF28998246029873
:102FE0000BF0C9FF011C50460BF0AEFF2999824639
:102FF000381C0BF0C0FF2A998346301C0BF0BBFF36
:10300000011C58460BF0A0FF011C50460BF09CFF22
:1030100025998246281C0BF0AEFF26998346201C7A
:103020000BF0A9FF011C58460BF08EFF2499834634
:1030300001980BF0A0FF011C58460BF085FF011C06
:1030400050460BF081FF4B462E99186103980BF008
:1030500092FF2F99824602980BF08DFF011C50467B
:103060000BF072FF30998246381C0BF084FF3199C7
:10307000071C301C0BF07FFF011C381C0BF064FF99
:10308000011C50460BF060FF2C99061C281C0BF00D
:1030900072FF2D99051C201C0BF06DFF011C281CD4
:1030A0000BF052FF2B99041C01980BF064FF011CDC
:1030B000201C0BF049FF011C301C0BF045FF4B4658
:1030C000586104239C461433E0449C46079BE1442A
:1030D000984500D07DE6339B059DDC68296A206811
:1030E0000BF032FF049EA96B306060680BF02CFF80
:1030F0007060A068296D0BF027FFB060E068A96ED2
:103100000BF022FF8023F0602069E95898460BF00D
:103110001BFF98233061E95860690BF015FF70615F
:10312000A069696A0BF010FFB061E069E96B0BF010
:103130000BFFF061206A696D0BF006FF3062E96EEB
:10314000606A0BF001FF84277062A06AE9590BF0F6
:10315000FBFE9C23B062E958E06A0BF0F5FEF062DA
:10316000206BA96A0BF0F0FE3063606B296C0BF0EA
:10317000EBFE7063A06BA96D0BF0E6FEB063E06B35
:10318000296F0BF0E1FEF0638826206CA9590BF043
:10319000DBFE049B1864A023606CE9580BF0D4FE9E
:1031A000049BE96A5864A06C0BF0CEFE049B696C2A
:1031B0009864E06C0BF0C8FE049BE96DD864206D48
:1031C0000BF0C2FE049B696F1865606D0BF0BCFECE
:1031D0008C25049A059B5065A06D59590BF0B4FEDF
:1031E000A423049A9065059AE06DD1580BF0ACFECB
:1031F000049B059AD865116B206E0BF0A5FE049B0D
:10320000059A1866916C606E0BF09EFE049B059A01
:103210005866A06E116E0BF097FE049B059A986697
:10322000E06E916F0BF090FE049B059AD866902398
:10323000206FD1580BF088FE049B059A1867A823CD
:10324000606FD1580BF080FE049B059A5867A16F00
:10325000506B0BF079FE049B059A9867E16FD06C78
:103260000BF072FE4146049B059AD8676158506E78
:103270000BF06AFE4146049B059A5850E159D06F05
:103280000BF062FE049BD8519423059FA159F85876
:103290000BF05AFE049B9851AC236159F8580BF07F
:1032A00053FE049B585199239B009D44F0BCBB46A0
:1032B000B246A946A046F0BDF0B5DE4657464E469A
:1032C00045460400E0B5036987B0580063694008CB
:1032D000590049080BF038FEE368590049080BF023
:1032E00033FE6368051C5800A3684008590049086C
:1032F0000BF02AFE2368590049080BF025FE011C3B
:10330000281C0BF021FEA36A051C5800E36A400844
:10331000590049080BF018FE636A590049080BF080
:1033200013FEE369061C5800236A40085900490847
:103330000BF00AFEA369590049080BF005FE011CB9
:10334000301C0BF001FE236C071C5800636C400816
:10335000590049080BF0F8FDE36B590049080BF0E0
:10336000F3FD636B061C5800A36B40085900490825
:103370000BF0EAFD236B590049080BF0E5FD011C39
:10338000301C0BF0E1FD061C011C381C0BF02AFE62
:10339000002800D13E1C311C281C0BF023FE002805
:1033A00000D12E1CA36D5800E36D40085900490858
:1033B0000BF0CAFD636D590049080BF0C5FDE36CC5
:1033C000051C5800236D4008590049080BF0BCFD4E
:1033D000A36C590049080BF0B7FD011C281C0BF029
:1033E000B3FD236F071C5800636F4008590049085C
:1033F0000BF0AAFDE36E590049080BF0A5FD636EC2
:10340000051C5800A36E4008590049080BF09CFDAC
:10341000236E590049080BF097FD011C281C0BF086
:1034200093FD88238046E0580433E158400049006A
:10343000490840080BF088FD8423E15849004908F9
:103440000BF082FDE36F051C58008023E158400813
:10345000490049080BF078FDA36F590049080BF0AB
:1034600073FD011C281C0BF06FFD051C011C404660
:103470000BF0B8FD002800D14546291C381C0BF084
:10348000B1FD002800D13D1C291C301C0BF0AAFD09
:10349000002800D1351CC0232100E55001AABA3B09
:1034A00002A8A83104930294FDF7AEF90121C422C9
:1034B000019B98260B405B428B430133A354343A63
:1034C0009246002250469C2722509432A1509346A7
:1034D000923AA2510132E2519D32944660469C3AA2
:1034E0002250A03291469F3A90464A4640462300D9
:1034F000A05048461832A258903392009A18156886
:103500002550404610606046B8222058A258804698
:10351000604692009A181568255040461060B42203
:10352000E059A258844692009A1810685D46E0510E
:1035300060461060B022A258A75992009A181068ED
:10354000A0511760AC225846A258265892009A18EB
:10355000106860511660A822A258554692009B1828
:1035600052461868A25860511A60C523E15407B04A
:10357000F0BCBB46B246A946A046F0BDC02300221F
:1035800010B5C25000220433C2520B68040003601D
:103590004B6843608B688360CB68C3600B690361D1
:1035A0004B6943618B698361CB69C3610B6A0362B9
:1035B0004B6A43628B6A8362CB6AC3620B6B0363A1
:1035C0004B6B43638B6B8363CB6BC3630B6C036489
:1035D0004B6C43648B6C8364CB6CC3640B6D036571
:1035E0004B6D43658B6D8365CB6DC3650B6E036659
:1035F0004B6E43668B6E8366CB6EC3660B6F036741
:103600004B6F43678B6F8367CB6FC3678023CA5849
:10361000C2500433CA58C2500433CA58C25004338B
:10362000CA58C250FFF748FE200010BDF0B5DE4674
:103630004E4645465746E0B5214C9146A5443AAA28
:1036400094460A0031931F4B3B9063441B091B01B6
:103650003A919846D3AB13CA13C313CA13C3126863
:10366000D3A91A60184B194A1B6847A80493184B32
:1036700047AC1B680193174B1B6805930093049B91
:10368000FEF790FF47ABD3934B46D49347ABD5930C
:103690003AAA8323944686201B0163441B68C0001A
:1036A0004044A2AAD3A9D6930990FFF735F96BAB92
:1036B000089343460A934B463094A1461C000BE006
:1036C00014F7FFFF47030000AC1F03200AE81C416A
:1036D000A41F0320A81F03204B464E461B68B76F4C
:1036E0000493089B494640CB48464A460893A82382
:1036F000896C006E9569126B06910790E158301C39
:1037000005920BF038FC8C238246E158381C0BF0F4
:1037100032FC011C50460BF017FC216F82460798C3
:103720000BF029FC616D834606980BF024FC011C0C
:1037300058460BF009FC011C50460BF005FCA16B30
:10374000824605980BF017FCE1698346281C0BF0B4
:1037500012FC011C58460BF0F7FB216883460498C5
:103760000BF009FC011C58460BF0EEFB011C504607
:103770000BF0EAFB43461860AC23301CE1580BF019
:10378000FAFB90238246E158381C0BF0F4FB011C35
:1037900050460BF0D9FB616F824607980BF0EBFBAC
:1037A000A16D834606980BF0E6FB011C58460BF012
:1037B000CBFB011C50460BF0C7FBE16B8246059822
:1037C0000BF0D9FB216A8346281C0BF0D4FB011CAB
:1037D00058460BF0B9FB6168834604980BF0CBFBAD
:1037E000011C58460BF0B0FB011C50460BF0ACFB23
:1037F00043465860B023301CE1580BF0BCFB9423C7
:103800008246E158381C0BF0B6FB011C50460BF009
:103810009BFBA16F824607980BF0ADFBE16D8346E1
:1038200006980BF0A8FB011C58460BF08DFB011C01
:1038300050460BF089FB216C824605980BF09BFBF0
:10384000616A8346281C0BF096FB011C58460BF05E
:103850007BFBA168834604980BF08DFB011C584646
:103860000BF072FB011C50460BF06EFB4346986058
:10387000B423301CE1580BF07EFB98238246E158BC
:10388000381C0BF078FB011C50460BF05DFBE16F20
:10389000824607980BF06FFB216E834606980BF06B
:1038A0006AFB011C58460BF04FFB011C50460BF005
:1038B0004BFB616C824605980BF05DFBA16A834669
:1038C000281C0BF058FB011C58460BF03DFBE1682F
:1038D000834604980BF04FFB011C58460BF034FB59
:1038E000011C50460BF030FB4346D860B823301C17
:1038F000E1580BF040FB9C238246E158381C0BF04A
:103900003AFB011C50460BF01FFB80238246E15816
:1039100007980BF030FB616E834606980BF02BFB8B
:10392000011C58460BF010FB011C50460BF00CFB21
:10393000A16C824605980BF01EFBE16A8346281CA9
:103940000BF019FB011C58460BF0FEFA2169834667
:1039500004980BF010FB011C58460BF0F5FA011C03
:1039600050460BF0F1FA43461861BC23301CE15875
:103970000BF001FBA0238246E158381C0BF0FBFA48
:10398000011C50460BF0E0FA84238246E158079868
:103990000BF0F1FAA16E834606980BF0ECFA011CCD
:1039A00058460BF0D1FA011C50460BF0CDFAE16CF1
:1039B000824605980BF0DFFA216B8346281C0BF03A
:1039C000DAFA011C58460BF0BFFA61698346049885
:1039D0000BF0D1FA011C58460BF0B6FA011C504608
:1039E0000BF0B2FA4346E16E586106980BF0C3FA49
:1039F00088238246E15807980BF0BDFA011C504617
:103A00000BF0A2FAA4238246E158381C0BF0B3FA5B
:103A1000C023071CE158301C0BF0ADFA011C381C08
:103A20000BF092FA011C50460BF08EFA616B061CEB
:103A3000281C0BF0A0FA216D051C05980BF09BFAD1
:103A4000011C281C0BF080FAA169051C04980BF0DE
:103A500092FA011C281C0BF077FA011C301C0BF0A9
:103A600073FA4346986104239C461833E1449C460C
:103A70004DABE0444B4500D02EE60A9BA146D8242E
:103A80009846A427A4004444BF0047442000099955
:103A9000FFF774FD210090223800C8240BF0FAFCD7
:103AA000FC21A400444489004144182220000BF06A
:103AB000F1FCCE2081218000C900414418224044FD
:103AC0000BF0E8FC8422D423D200424412689B000D
:103AD00043441A60D523874A4546424412889B00D6
:103AE0004344FE211A8000232268B0359200AA18B0
:103AF0008905116093611363936413669367C92208
:103B000092004244126844469200AA1813609161E0
:103B10001363936413669367CA2292004244126847
:103B200006269200AA1813609361116393641366CA
:103B30009367CB2292004244126806209200AA1892
:103B4000136093611363916413669367CC229200B0
:103B5000424412689200AA1813609361136393643D
:103B600011669367CD229200424412689200AA180F
:103B700013609361136393641366A8235B009B46F1
:103B8000916742465946E41820334344A660E660F4
:103B9000266153508022920042444B396260924623
:103BA00004933A0006230294FF3901960095FDF72D
:103BB00011FE42465946049BA660E66026615350BA
:103BC00053464B3963603A0006230294062001965F
:103BD0000095FF39FDF762FA43461B688C22079374
:103BE0004346DB69D3AC089343469B6B099343463A
:103BF0005B6D0A9343461B6F0B9343469B580432FD
:103C00000C9343465B68179343461B6A18934346DD
:103C1000DB6B0D9343469B6D0E9343465B6F0F9397
:103C200043469B580432109343469B681193434686
:103C30005B6A129343461B6C13934346DB6D1493EC
:103C400043469B6F159343469B5804321693434655
:103C5000DB68199343469B6A069343465B6C1A9351
:103C600043461B6E1B934346DB6F1C9343469B5896
:103C7000183A1D9343461B691E934346DB6A1F9304
:103C800043469B6C209343465B6E219343469B586F
:103C90001C32229343469B58183A239343465B6950
:103CA000249343461B6B25934346DB6C2693434684
:103CB0009B6E279343469B581C32289343469B5840
:103CC000183A299343469B692A9343465B6B2B938F
:103CD00043461B6D2C934346DB6E2D9343469B5806
:103CE0001C322E9343469B58A8462F934B46329343
:103CF00002E0C0462404000043461F685B68424659
:103D00009946434641469B68D2680E694D690898BA
:103D10004946049305920BF02EF9049982460998BE
:103D20000BF029F9011C50460BF00EF9391C8246A4
:103D300007980BF020F9011C50460BF005F9311CD7
:103D400082460B980BF017F9291C83460C980BF050
:103D500012F9011C58460BF0F7F8059983460A98AA
:103D60000BF009F9011C58460BF0EEF8011C504607
:103D70000BF0EAF84946206018980BF0FCF804991B
:103D800082460D980BF0F7F8011C50460BF0DCF85A
:103D9000391C824617980BF0EEF8011C50460BF0C8
:103DA000D3F8311C82460F980BF0E5F8291C8346A6
:103DB00010980BF0E0F8011C58460BF0C5F8059977
:103DC00083460E980BF0D7F8011C58460BF0BCF850
:103DD000011C50460BF0B8F84946606012980BF091
:103DE000CAF80499824613980BF0C5F8011C504696
:103DF0000BF0AAF8391C824611980BF0BCF8011C94
:103E000050460BF0A1F8311C824615980BF0B3F820
:103E1000291C834616980BF0AEF8011C58460BF08F
:103E200093F80599834614980BF0A5F8011C5846A1
:103E30000BF08AF8011C50460BF086F84946A0604A
:103E400006980BF098F8049982461A980BF093F8AC
:103E5000011C50460BF078F8391C824619980BF07B
:103E60008AF8011C50460BF06FF8311C82461C98F2
:103E70000BF081F8291C83461D980BF07CF8011C7F
:103E800058460BF061F8059983461B980BF073F8C0
:103E9000011C58460BF058F8011C50460BF054F822
:103EA0004946E0601F980BF066F804998246209816
:103EB0000BF061F8011C50460BF046F8391C8246A5
:103EC0001E980BF058F8011C50460BF03DF8311CC1
:103ED000824622980BF04FF8291C834623980BF05A
:103EE0004AF8011C58460BF02FF805998346219893
:103EF0000BF041F8011C58460BF026F8011C504607
:103F00000BF022F84946206125980BF034F804990B
:103F1000824626980BF02FF8011C50460BF014F83F
:103F2000391C824624980BF026F8011C50460BF0F1
:103F30000BF8311C824628980BF01DF8291C83468B
:103F400029980BF018F8011C58460AF0FDFF059956
:103F5000834627980BF00FF8011C58460AF0F4FF2F
:103F6000011C50460AF0F0FF494660612B980BF0A7
:103F700002F8049981462C980AF0FDFF011C48467E
:103F80000AF0E2FF391C81462A980AF0F4FF011C6E
:103F900048460AF0D9FF311C071C2E980AF0EBFFA7
:103FA000291C061C2F980AF0E6FF011C301C0AF0A1
:103FB000CBFF0599051C2D980AF0DDFF011C281C7C
:103FC0000AF0C2FF011C381C0AF0BEFF18239C46F1
:103FD000A061FDAB1C34E044A34200D08CE6329BD0
:103FE000D49A9946D39BD599D69CD79DD89ED99FD4
:103FF00006930792DA9BDB9A08910994DC99DD9C81
:104000000A950B96DE9DDF9E0C970D93E09FE19B3A
:104010000E92E29A0F9110941195129613971493A1
:104020001592E399E49CE59DE69EE79FE89BE99A5B
:1040300016911794EA99EB9C18951996EC9DED9EB4
:104040001A971B93EE9FEF9B1C921D91F09AF1998A
:104050001E94F29C209621972293239224912594DA
:104060001F95F39DF49EF59FF79AF69BF899F99C9E
:1040700026952796FA9DFB9E2897FC9F2A923A9AAE
:1040800029932B912C942D952E962F97D3AB32CA32
:1040900032C332CA32C31168D3AC1960FD49FE4B3A
:1040A00009681B680191FD49FD4A096820000091DB
:1040B00041A9FDF7D7FF319F419938680AF041FFC8
:1040C0004299834678680AF03CFF43998246B86873
:1040D0000AF037FF4499041CF8680AF032FF45994A
:1040E000051C38690AF02DFF4699061C78690AF00C
:1040F00028FF071C011C2A980AF03DFF311C80464E
:1041000023980AF038FF011C40460AF01DFF291CC5
:1041100080461C980AF02FFF011C40460AF014FF4D
:10412000211C804615980AF026FF514604900E98EF
:104130000AF021FF011C04980AF006FF594604907A
:1041400007980AF018FF011C04980AF0FDFE011CF4
:1041500040460AF0F9FE3A9A51680AF0F5FE391C19
:1041600004902B980AF007FF311C804624980AF02F
:1041700002FF011C40460AF0E7FE291C80461D98FC
:104180000AF0F9FE011C40460AF0DEFE211C8046C2
:1041900016980AF0F0FE514605900F980AF0EBFED3
:1041A000011C05980AF0D0FE5946059008980AF0BF
:1041B000E2FE011C05980AF0C7FE011C40460AF009
:1041C000C3FE3A9A91680AF0BFFE391C05902C98FC
:1041D0000AF0D1FE311C804625980AF0CCFE011C65
:1041E00040460AF0B1FE291C80461E980AF0C3FE24
:1041F000011C40460AF0A8FE211C804617980AF0D0
:10420000BAFE5146319010980AF0B5FE011C319863
:104210000AF09AFE5946319009980AF0ACFE011C4A
:1042200031980AF091FE011C40460AF08DFE3A9A40
:10423000D1680AF089FE391C31902D980AF09BFE56
:10424000311C804626980AF096FE011C40460AF072
:104250007BFE291C80461F980AF08DFE011C4046FB
:104260000AF072FE211C804618980AF084FE51461E
:10427000329011980AF07FFE011C32980AF064FE19
:10428000594632900A980AF076FE011C32980AF0DC
:104290005BFE011C40460AF057FE3A9A11690AF08B
:1042A00053FE391C32902E980AF065FE311C804670
:1042B00027980AF060FE011C40460AF045FE291CC2
:1042C000804620980AF057FE011C40460AF03CFE4A
:1042D000211C804619980AF04EFE514633901298E0
:1042E0000AF049FE011C33980AF02EFE594633901D
:1042F0000B980AF040FE011C33980AF025FE011CC1
:1043000040460AF021FE3A9A51690AF01DFE5146D4
:10431000339013980AF02FFE211C80461A980AF059
:104320002AFE011C40460AF00FFE594680460C98B2
:104330000AF021FE011C40460AF006FE311C8046B0
:1043400028980AF018FE391C34902F980AF013FEB2
:10435000011C34980AF0F8FD291C349021980AF0C9
:104360000AFE011C34980AF0EFFD011C40460AF0D9
:10437000EBFD3A9A91690AF0E7FD391C80462998CD
:104380000AF0F9FD311C071C22980AF0F4FD011C0B
:10439000381C0AF0D9FD291C061C1B980AF0EBFDFD
:1043A000011C301C0AF0D0FD211C051C14980AF0D9
:1043B000E2FD5146041C0D980AF0DDFD011C201C95
:1043C0000AF0C2FD5946041C06980AF0D4FD011CEF
:1043D000201C0AF0B9FD011C281C0AF0B5FD3A9A10
:1043E000D3AC11680AF0B0FD3B9B049A18605A6088
:1043F000059A9A60319ADA60329A1A61339A5A6150
:1044000042469A614B461B684A46A2934B465B68FC
:10441000A3934B469B68A4934B46DB68A5934B46FE
:104420001B69A6934B465B69A7934B469B69A89370
:104430004B46DB69A9934B461B6AAA934B465B6AC2
:10444000AB934B469B6AAC934B46DB6AAD934B46B2
:104450001B6BAE934B465B6BAF934B469B6BB09322
:104460004B46DB6BB1934B461B6CB2934B465B6C7C
:10447000B3934B469B6CB4934B46DB6CB5934B4666
:104480001B6DB6934B465B6DB7934B469B6DB893D4
:104490004B4607E0A41F0320AC1F0320A81F0320E6
:1044A0000AE81C41DB6DB9934B461B6EBA934B4631
:1044B0005B6EBB934B469B6EBC934B46DB6EBD93D2
:1044C0004B461B6FBE934B465B6FBF934B469B6F38
:1044D000C0934B46DB6FC1938023D358C293842390
:1044E000D358C3938823D358C4938C23D358C593EC
:1044F0009023D358C6939423D358C7939823D35863
:10450000C8939C23D358C993A023D358CA93A423F8
:10451000D358CB93A823D358CC93AC23D358CD9363
:10452000B023D358CE93B423D358CF93B823D358C2
:10453000D093BC23D358D193C023D358D293309B6C
:104540003092984643461F685B6842469946434608
:1045500041469B68D2680E694D690D98494604939F
:1045600005920AF008FD0499824614980AF003FDAA
:10457000011C50460AF0E8FC391C824606980AF0F5
:10458000FAFC011C50460AF0DFFC311C82462298DE
:104590000AF0F1FC291C834629980AF0ECFC011C66
:1045A00058460AF0D1FC059983461B980AF0E3FCB3
:1045B000011C58460AF0C8FC011C50460AF0C4FC15
:1045C000494620600E980AF0D6FC04998246159858
:1045D0000AF0D1FC011C50460AF0B6FC391C824698
:1045E00007980AF0C8FC011C50460AF0ADFC311CCB
:1045F000824623980AF0BFFC291C83462A980AF0B9
:10460000BAFC011C58460AF09FFC059983461C9889
:104610000AF0B1FC011C58460AF096FC011C5046F9
:104620000AF092FC494660600F980AF0A4FC0499D5
:10463000824616980AF09FFC011C50460AF084FC42
:10464000391C824608980AF096FC011C50460AF074
:104650007BFC311C824624980AF08DFC291C834681
:104660002B980AF088FC011C58460AF06DFC05994D
:1046700083461D980AF07FFC011C58460AF064FC32
:10468000011C50460AF060FC4946A06010980AF0F0
:1046900072FC0499824617980AF06DFC011C504682
:1046A0000AF052FC391C824609980AF064FC011C8D
:1046B00050460AF049FC311C824625980AF05BFC02
:1046C000291C83462C980AF056FC011C58460AF017
:1046D0003BFC059983461E980AF04DFC011C584688
:1046E0000AF032FC011C50460AF02EFC4946E060FC
:1046F00011980AF040FC0499824618980AF03BFC95
:10470000011C50460AF020FC391C82460A980AF027
:1047100032FC011C50460AF017FC311C82462698D8
:104720000AF029FC291C83462D980AF024FC011C60
:1047300058460AF009FC059983461F980AF01BFCAD
:10474000011C58460AF000FC011C50460AF0FCFB14
:104750004946206112980AF00EFC04998246199885
:104760000AF009FC011C50460AF0EEFB391C824697
:104770000B980AF000FC011C50460AF0E5FB311CC6
:10478000824627980AF0F7FB291C83462E980AF0E8
:10479000F2FB011C58460AF0D7FB05998346209886
:1047A0000AF0E9FB011C58460AF0CEFB011C5046FA
:1047B0000AF0CAFB4946606113980AF0DCFB0499D1
:1047C00081461A980AF0D7FB011C48460AF0BCFB48
:1047D000391C81460C980AF0CEFB011C48460AF0B1
:1047E000B3FB311C071C28980AF0C5FB291C061CCA
:1047F0002F980AF0C0FB011C301C0AF0A5FB05999C
:10480000051C21980AF0B7FB011C281C0AF09CFB30
:10481000011C381C0AF098FB18239C46FFABA061D2
:1048200014331C34E044A34200D08BE6309BA2AD8D
:1048300099463C93C4234C46C8464B44089307947E
:104840004246D26843464146914642469E694C687C
:10485000096892685F691B690491301CFD99069391
:1048600005920AF088FBF6998246381C0AF083FB11
:10487000011C50460AF068FBEF99824606980AF040
:104880007AFBE899834648460AF075FB011C5846B6
:104890000AF05AFB011C50460AF056FBE199824689
:1048A00005980AF068FBDA998346201C0AF063FB3E
:1048B000011C58460AF048FBD399834604980AF035
:1048C0005AFB011C58460AF03FFB011C50460AF0F7
:1048D0003BFB011C28680AF034FB2860FE99301C61
:1048E0000AF049FBF7998246381C0AF044FB011C88
:1048F00050460AF029FBF099824606980AF03BFBE5
:10490000E999834648460AF036FB011C58460AF0EE
:104910001BFB011C50460AF017FBE29982460598E2
:104920000AF029FBDB998346201C0AF024FB011CBA
:1049300058460AF009FBD499834604980AF01BFBF9
:10494000011C58460AF000FB011C50460AF0FCFA14
:10495000011C68680AF0F5FAFF996860301C0AF0DB
:104960000AFBF8998246381C0AF005FB011C5046E8
:104970000AF0EAFAF199824606980AF0FCFAEA99F6
:10498000834648460AF0F7FA011C58460AF0DCFA5A
:10499000011C50460AF0D8FAE399824605980AF0BD
:1049A000EAFADC998346201C0AF0E5FA011C584615
:1049B0000AF0CAFAD599834604980AF0DCFA011C79
:1049C00058460AF0C1FA011C50460AF0BDFA011C13
:1049D000A8680AF0B6FAFFAB5968A860301C043327
:1049E0000AF0C9FAF9998246381C0AF0C4FA011C87
:1049F00050460AF0A9FAF299824606980AF0BBFAE4
:104A0000EB99834648460AF0B6FA011C58460AF06C
:104A10009BFA011C50460AF097FAE49982460598E1
:104A20000AF0A9FADD998346201C0AF0A4FA011CB9
:104A300058460AF089FAD699834604980AF09BFAF8
:104A4000011C58460AF080FA011C50460AF07CFA14
:104A5000011CE8680AF075FAFFAB9968E860301C41
:104A600008330AF088FAFA998246381C0AF083FA69
:104A7000011C50460AF068FAF399824606980AF03B
:104A80007AFAEC99834648460AF075FA011C5846B2
:104A90000AF05AFA011C50460AF056FAE599824685
:104AA00005980AF068FADE998346201C0AF063FA3A
:104AB000011C58460AF048FAD799834604980AF030
:104AC0005AFA011C58460AF03FFA011C50460AF0F7
:104AD0003BFA011C28690AF034FAFFABD968286157
:104AE000301C0C330AF047FAFB998246381C0AF056
:104AF00042FA011C50460AF027FAF49982460698B9
:104B00000AF039FAED99834648460AF034FA011C56
:104B100058460AF019FA011C50460AF015FAE699AF
:104B2000824605980AF027FADF998346201C0AF08E
:104B300022FA011C58460AF007FAD89983460498CD
:104B40000AF019FA011C58460AF0FEF9011C5046F9
:104B50000AF0FAF9011C68690AF0F3F9EE99686144
:104B600048460AF008FAF599814606980AF003FAD1
:104B7000011C48460AF0E8F9FC998146381C0AF005
:104B8000FAF9FFAB1969071C301C10330AF0F3F96E
:104B9000011C381C0AF0D8F9011C48460AF0D4F967
:104BA000E099061C201C0AF0E6F9E799041C059818
:104BB0000AF0E1F9011C201C0AF0C6F9D999041C7D
:104BC00004980AF0D8F9011C201C0AF0BDF9011C58
:104BD000301C0AF0B9F9011CA8690AF0B2F91C23CB
:104BE0009C46089BE044A8611C35984500D027E608
:104BF000079BA29A99461A60A39A5A60A49A9A604F
:104C0000A59ADA60A69A1A61A79A5A61A89A9A6137
:104C1000A99ADA61AA9A1A62AB9A5A62AC9A9A6213
:104C2000AD9ADA62AE9A1A63AF9A5A63B09A9A63EF
:104C3000B19ADA63B29A1A64B39A5A64B49A9A64CB
:104C4000B59ADA64B69A1A65B79A5A65B89A9A65A7
:104C5000B99ADA65BA9A1A66BB9A5A66BC9A9A6683
:104C6000BD9ADA66BE9A1A67BF9A5A67C09A9A675F
:104C7000C19ADA674A468023C299D150C399043356
:104C8000D150C4990433D150C5990433D150C69939
:104C90000433D150C7990433D150C8990433D1504B
:104CA000C9990433D150CA990433D150CB990433F4
:104CB000D150CC990433D150CD990433D150CE99F1
:104CC0000433D150CF990433D150D0990433D1500B
:104CD000D1990433D150D2990433D1503AAA944691
:104CE0004F4BA2AA63441B6813CB13C24D4BD3ACEA
:104CF00063441B6807CB07C43A9B3B9D00934A4B18
:104D000028006344A2A91B68D3AAFDF789F82B00E9
:104D1000D3AA23CB23C213CB13C23AA91B688C4658
:104D200013603EAA11003E4B63441B6831CB31C176
:104D30003C4BA2A963441B6831CB31C13A4BD3A988
:104D400063441B6871A80093A2ABFDF7CFFAD3AB05
:104D500007931C00719B0993789B10937F9B17937B
:104D6000869B1E938D9B2593949B2C939B9B3393A7
:104D7000729B0A93799B1193809B1893879B1F9337
:104D80008E9B2693959B2D939C9B3493739B0B93A7
:104D90007A9B1293819B1993889B20938F9B2793D7
:104DA000969B2E939D9B3593749B0C937B9B1393A7
:104DB000829B1A93899B2193909B2893979B2F9377
:104DC0009E9B3693759B0D937C9B1493839B1B93A7
:104DD0008A9B2293919B2993989B30939F9B379317
:104DE000769B0E937D9B1593849B1C938B9B2393A7
:104DF000929B2A93999B3193A09B3893779B0F9317
:104E00007E9B1693859B1D938C9B2493939B2B9346
:104E10009A9B3293A19B3C9D39934B463C9305E072
:104E200028080000380800003C080000E868AE6967
:104E30008146A96828692B686A6880460691301CFB
:104E40003399049305920AF096F86F6982462C997B
:104E5000381C0AF090F8011C50460AF075F82599A4
:104E6000824640460AF087F81E99834648460AF073
:104E700082F8011C58460AF067F8011C50460AF0F7
:104E800063F81799824606980AF075F810998346D8
:104E900005980AF070F8011C58460AF055F809996F
:104EA000834604980AF067F8011C58460AF04CF84B
:104EB000011C50460AF048F834992060301C0AF072
:104EC0005AF82D998246381C0AF055F8011C5046B4
:104ED0000AF03AF82699824640460AF04CF81F99A3
:104EE000834648460AF047F8011C58460AF02CF859
:104EF000011C50460AF028F81899824606980AF0D4
:104F00003AF81199834605980AF035F8011C58467D
:104F10000AF01AF80A99834604980AF02CF8011C42
:104F200058460AF011F8011C50460AF00DF8359960
:104F30006060301C0AF01FF82E998246381C0AF077
:104F40001AF8011C504609F0FFFF27998246404697
:104F50000AF011F82099834648460AF00CF8011C23
:104F6000584609F0F1FF011C504609F0EDFF199970
:104F70008246069809F0FFFF12998346059809F0CA
:104F8000FAFF011C584609F0DFFF0B99834604988D
:104F900009F0F1FF011C584609F0D6FF011C5046EC
:104FA00009F0D2FF3699A060301C09F0E4FF2F9978
:104FB0008246381C09F0DFFF011C504609F0C4FF8F
:104FC00028998246404609F0D6FF219983464846F3
:104FD00009F0D1FF011C584609F0B6FF011C5046EC
:104FE00009F0B2FF1A998246069809F0C4FF139996
:104FF0008346059809F0BFFF011C584609F0A4FF3D
:105000000C998346049809F0B6FF011C584609F034
:105010009BFF011C504609F097FF3799E060301C58
:1050200009F0A9FF30998246381C09F0A4FF011C41
:10503000504609F089FF29998246404609F09BFFB6
:1050400022998346484609F096FF011C584609F00C
:105050007BFF011C504609F077FF1B99824606989A
:1050600009F089FF14998346059809F084FF011C13
:10507000584609F069FF0D998346049809F07BFFB3
:10508000011C584609F060FF011C504609F05CFF06
:1050900038992061301C09F06EFF31998246381C26
:1050A00009F069FF011C504609F04EFF2A9982461B
:1050B000404609F060FF23998346484609F05BFFAC
:1050C000011C584609F040FF011C504609F03CFF06
:1050D0001C998246069809F04EFF1599834605985B
:1050E00009F049FF011C584609F02EFF0E9983462E
:1050F000049809F040FF011C584609F025FF011CE7
:10510000504609F021FF49466061249809F033FFB9
:10511000414681462B9809F02EFF011C484609F0B4
:1051200013FF391C8046329809F025FF311C071CFB
:10513000399809F020FF011C381C09F005FF011CFB
:10514000404609F001FF0599061C169809F013FF67
:105150000699071C1D9809F00EFF011C381C09F068
:10516000F3FE0499071C0F9809F005FF011C381C79
:1051700009F0EAFE011C301C09F0E6FE089B1C3514
:10518000A0611C349D4200D050E63C9BA2AC9946E5
:10519000F6AB0693DAAB08934B463C943D93079BE2
:1051A000586D1A688146996B186F0492069A80466A
:1051B000059148461E99DD691768D66909F0DBFE3E
:1051C00025998246404609F0D6FE011C504609F05A
:1051D000BBFE2C998246381C09F0CDFE33998346DC
:1051E000301C09F0C8FE011C584609F0ADFE011C38
:1051F000504609F0A9FE10998246281C09F0BBFE12
:1052000017998346059809F0B6FE011C584609F027
:105210009BFE09998346049809F0ADFE011C58468F
:1052200009F092FE011C504609F08EFE20601F9985
:10523000484609F0A0FE26998246404609F09BFEAA
:10524000011C504609F080FE2D998246381C09F059
:1052500092FE34998346301C09F08DFE011C58469D
:1052600009F072FE011C504609F06EFE119982464B
:10527000281C09F080FE18998346059809F07BFEEA
:10528000011C584609F060FE0A998346049809F00B
:1052900072FE011C584609F057FE011C504609F0E9
:1052A00053FE20996060484609F065FE27998246C2
:1052B000404609F060FE011C504609F045FE2E995B
:1052C0008246381C09F057FE35998346301C09F098
:1052D00052FE011C584609F037FE011C504609F0E9
:1052E00033FE12998246281C09F045FE199983461F
:1052F000059809F040FE011C584609F025FE0B995F
:105300008346049809F037FE011C584609F01CFE3C
:10531000011C504609F018FE2199A060484609F08A
:105320002AFE28998246404609F025FE011C504677
:1053300009F00AFE2F998246381C09F01CFE3699A6
:105340008346301C09F017FE011C584609F0FCFD8D
:10535000011C504609F0F8FD13998246281C09F0FB
:105360000AFE1A998346059809F005FE011C584665
:1053700009F0EAFD0C998346049809F0FCFD011C34
:10538000584609F0E1FD011C504609F0DDFD229967
:10539000E060484609F0EFFD29998246404609F051
:1053A000EAFD011C504609F0CFFD30998246381CB9
:1053B00009F0E1FD37998346301C09F0DCFD011C42
:1053C000584609F0C1FD011C504609F0BDFD149975
:1053D0008246281C09F0CFFD1B998346059809F0E9
:1053E000CAFD011C584609F0AFFD0D99834604988B
:1053F00009F0C1FD011C584609F0A6FD011C5046EC
:1054000009F0A2FD23992061484609F0B4FD2A99CC
:105410008246404609F0AFFD011C504609F094FD5C
:1054200031998246381C09F0A6FD38998346301C14
:1054300009F0A1FD011C584609F086FD011C5046EB
:1054400009F082FD15998246281C09F094FD1C99EB
:105450008346059809F08FFD011C584609F074FD3C
:105460000E998346049809F086FD011C584609F000
:105470006BFD011C504609F067FD494660612498A8
:1054800009F079FD414681462B9809F074FD011C15
:10549000484609F059FD391C8046329809F06BFDE9
:1054A000311C071C399809F066FD011C381C09F0F5
:1054B0004BFD011C404609F047FD291C061C1698AF
:1054C00009F059FD0599051C1D9809F054FD011CB2
:1054D000281C09F039FD0499051C0F9809F04BFDB3
:1054E000011C281C09F030FD011C301C09F02CFDAA
:1054F000069A079B04320692089A0433A061079328
:105500001C34934200D04AE63AAA94463D9B764A20
:105510009946754B624463441B6812681B68D3ACA0
:105520000793714B63441B68DB6908936E4B6344BC
:105530001B689B6B09936C4B63441B685B6D0A9300
:10554000694B63441B681B6F0B938C23D358664ACB
:105550000C93654B624463441B685B680D93624B1C
:1055600063441B681B6A0E935F4B63441B68DB6BD1
:105570000F935D4B63441B689B6D10935A4B6344C0
:105580001B685B6F126811939023D358564A12938D
:10559000554B624463441B6812689B681393524BDB
:1055A00063441B685B6A14934F4B63441B681B6C1A
:1055B00015934D4B63441B68DB6D16934A4B634454
:1055C0001B689B6F17939423D358474A1893464BF5
:1055D000624463441B68DB681993434B63441B6854
:1055E0009B6A1A93404B63441B685B6C1B933E4B56
:1055F00063441B6812681B6E1C933B4B63441B681F
:10560000DB6F1D939823D358374A1E93364B624461
:1056100063441B6812681B691F93334B63441B6808
:10562000DB6A2093304B63441B689B6C21932E4BA9
:1056300063441B685B6E22938023D3582A4A2393CA
:105640009C2362441268D358274A2493264B624411
:1056500063441B685B692593234B63441B681B6B86
:105660002693214B126863441B68DB6C27931E4B07
:1056700063441B689B6E28938423D3581A4A29934A
:10568000A02362441268D358174A2A93164B6244E7
:1056900063441B6812689B692B93134B63441B681C
:1056A0005B6B2C93104B63441B681B6D2D930E4B4F
:1056B00063441B68DB6E2E938823D3580A4A2F93CA
:1056C000A42362441268D35822003093074B6344EA
:1056D0001B689846D3AB06939023434431934B46C3
:1056E00044469046329303E0340800002C08000042
:1056F0006368E2689946A36808994846049305924E
:1057000009F039FC09998246049809F034FC011C1F
:10571000504609F019FC276882460799381C09F0A1
:105720002AFC011C504609F00FFC266982460B99A1
:10573000301C09F020FC656983460C99281C09F08F
:105740001AFC011C584609F0FFFB0A99834605988C
:1057500009F011FC011C584609F0F6FB011C5046EB
:1057600009F0F2FB414608600E99484609F003FC37
:105770000F998246049809F0FEFB011C504609F07F
:10578000E3FB0D998246381C09F0F5FB011C5046DD
:1057900009F0DAFB11998246301C09F0ECFB1299F2
:1057A0008346281C09F0E7FB011C584609F0CCFB96
:1057B00010998346059809F0DEFB011C584609F054
:1057C000C3FB011C504609F0BFFB414648601499D9
:1057D000484609F0D0FB15998246049809F0CBFBA6
:1057E000011C504609F0B0FB13998246381C09F0A1
:1057F000C2FB011C504609F0A7FB17998246301CDA
:1058000009F0B9FB18998346281C09F0B4FB011C68
:10581000584609F099FB16998346059809F0ABFBA9
:10582000011C584609F090FB011C504609F08CFB06
:10583000414688601A99484609F09DFB1B998246AB
:10584000049809F098FB011C504609F07DFB19995A
:105850008246381C09F08FFB011C504609F074FB8E
:105860001D998246301C09F086FB1E998346281C30
:1058700009F081FB011C584609F066FB1C99834620
:10588000059809F078FB011C584609F05DFB011CE6
:10589000504609F059FB4146C8602099484609F036
:1058A0006AFB21998246049809F065FB011C504669
:1058B00009F04AFB1F998246381C09F05CFB011C69
:1058C000504609F041FB23998246301C09F053FBF6
:1058D00024998346281C09F04EFB011C584609F008
:1058E00033FB22998346059809F045FB011C584675
:1058F00009F02AFB011C504609F026FB41460861CD
:105900002699484609F037FB27998246049809F002
:1059100032FB011C504609F017FB25998246381CC2
:1059200009F029FB011C504609F00EFB299982461B
:10593000301C09F020FB2A998346281C09F01BFB28
:10594000011C584609F000FB28998346059809F088
:1059500012FB011C584609F0F7FA011C504609F0E9
:10596000F3FA43462C995861484609F004FB2D99F7
:105970008146049809F0FFFA011C484609F0E4FA50
:105980002B998146381C09F0F6FA011C484609F0AB
:10599000DBFA2F99071C301C09F0EDFA3099061C30
:1059A000281C09F0E8FA011C301C09F0CDFA2E99E8
:1059B000051C059809F0DFFA011C281C09F0C4FA3F
:1059C000011C381C09F0C0FA434698611C239C4610
:1059D000319B1834E044A34200D089E6F6AB05932E
:1059E0003C9CDAAB3193069B0899DA691F689146B3
:1059F0009A6B484690465A6D1E6F0492059A20CACB
:105A0000059209F0B8FA09998246404609F0B3FABE
:105A1000011C504609F098FA07998246381C09F093
:105A2000AAFA011C504609F08FFA0B998246301CE5
:105A300009F0A1FA0C998346281C09F09CFA011C74
:105A4000584609F081FA0A998346049809F093FAB6
:105A5000011C584609F078FA011C504609F074FA06
:105A6000011C206809F070FA0F992060404609F087
:105A700082FA0E998246484609F07DFA011C50468A
:105A800009F062FA0D998246381C09F074FA011C7B
:105A9000504609F059FA11998246301C09F06BFA08
:105AA00012998346281C09F066FA011C584609F031
:105AB0004BFA10998346049809F05DFA011C584688
:105AC00009F042FA011C504609F03EFA011C6068D8
:105AD00009F03AFA14996060484609F04CFA1599B1
