:020000041000EA
:1000000000B5324B212058609868022188439860DF
:10001000D860186158612E4B002199600221596106
:100020000121F02299502B49196001219960352056
:1000300000F044F80222904214D00621196600F024
:1000400034F8196E01211966002018661A6600F04E
:100050002CF8196E196E196E052000F02FF8012189
:100060000842F9D1002199601B49196000215960AB
:100070001A491B48016001219960EB211966A021F2
:10008000196600F012F800219960164914480160C1
:100090000121996001BC002800D000471248134993
:1000A000086003C880F30888084703B5996A0420EC
:1000B0000142FBD001200142F8D103BD02B5186610
:1000C0001866FFF7F2FF186E186E02BD00000240BE
:1000D000000000180000070000035F00212200005C
:1000E000F4000018222000A00001001008ED00E03C
:1000F00000000000000000000000000074B24E7A12
:1001000000200420F7010010CB010010CD010010E9
:10011000C9010010C9010010C9010010C901001077
:10012000C9010010C9010010C9010010CF01001061
:10013000C9010010C9010010D1010010D301001045
:10014000C1010010C1010010C1010010C101001067
:10015000C1010010C1010010C1010010C101001057
:10016000C1010010C1010010C1010010C101001047
:10017000C1010010C1010010C1010010C101001037
:10018000C1010010C1010010C1010010C101001027
:10019000C1010010C1010010C1010010C101001017
:1001A000C1010010C1010010C1010010C101001007
:1001B000C1010010C1010010C1010010C1010010F7
:1001C000EFF30580103800BE00BE00BE00BE00BECA
:1001D00000BE00BEF2EB887138860110588601100F
:1001E0003802001090A31AE71E481F49086006C88D
:1001F00081F3088810471D480068002801D019487D
:10020000F3E70DA40ECC002902D000F012F8F9E7B4
:100210001749184A002000E001C19142FCD116495B
:100220008847164988471649884700BEFDE701C937
:1002300001C29A42FBD3704758860110C0000020CB
:1002400034280020CCAD0110000004200000042060
:10025000CCAD0110001004200010042000000000AC
:10026000704700000000000008ED00E0000000D032
:10027000342800207448032055FD0010410300106D
:100280004DFD0010F8B5C0460448054B10B583423B
:1002900003D0044B002B00D0984710BD3428002019
:1002A000342800200000000006480749091A8B1076
:1002B000C90FC91810B5491003D0044B002B00D04A
:1002C000984710BD3428002034280020000000008A
:1002D00010B5074C2378002B09D1FFF7D5FF054B4C
:1002E000002B02D0044800E000BF0123237010BDA2
:1002F000D02D002000000000A8680110054B10B5AB
:10030000002B03D00449054800E000BFFFF7CCFFF5
:1003100010BDC04600000000D42D0020A8680110C8
:1003200010B504001F210BF0E5F800222000002189
:100330000BF0FAF8002120000BF00AF910BDC046BE
:10034000F0B5DE46454657464E46E0B5192089B021
:100350000BF012F9D02380221B0692045A624E48F9
:100360000FF0C6FE0FF076FE4C480FF0C1FE0CF009
:100370008DFD1A20FFF7D4FF1B20FFF7D1FF00F0FF
:10038000B3F847480FF0B4FE06F06EFC45480FF096
:10039000AFFE08F013FA44480FF0AAFE06F00AFF79
:1003A00001F0A2FC41480FF0A3FE09F019FD002264
:1003B00005243F4B1A7006F047F83E480FF098FEB0
:1003C0003D4D013C210028000FF016FFFA2080006F
:1003D0000BF03CFE002CF4D10A200FF03FFE01226E
:1003E000002136480BF0C6FA354812F033FB09F00D
:1003F000D9FE0122334B344D1A7006AB9C1D334B92
:10040000334E9B46334B344F9A46344B0493344B14
:10041000059300239846334B994609F0DFFE434687
:100420002000238009F0E8FEBA6A2B68D31A4B45F6
:100430001FD92A6000282AD05A46238810680193C1
:100440000DF0E2FD5246029010680DF0DDFD0390C4
:1004500001980DF07CFD02990DF037FD03990DF028
:1004600034FD0DF0B7FD02000B00049801990FF068
:10047000C3FE3378012BD0D108F04CFB3378012B2D
:10048000CBD108F047FB3378012BC6D1F4E70598B0
:100490000FF02EFEEDE7C046A8680110B868011005
:1004A000C4680110D0680110E0680110F068011004
:1004B0005C480320006901100C69011048470320C3
:1004C0005D8D00105B4803202C260320E0230320D1
:1004D000604803205024032000400540206901109B
:1004E0004869011040420F00092370B586B005939A
:1004F00004330493023B0393013B0293023B324DCE
:10050000324C0193324B22003249334800932B0086
:1005100005F054FC142005F04DFCFA2080000BF08F
:1005200095FD2E4E21003200280005F065FE33783F
:10053000682B08D02A4C20000FF0DAFDFA2080004A
:100540000BF084FDF7E773783D2BF3D101222100F6
:10055000280005F075FE234E32002100280005F02A
:10056000A7FE3378002BF7D101222100280005F0E7
:1005700025FD0121200005F003FD0321200005F0E9
:100580008FFC0321280005F0C5FD1321200005F094
:10059000FDFE1221200005F037FF0021200005F0AC
:1005A00015FF0321200005F09FFE0221200005F029
:1005B000B7FE5521200005F091FC1821280005F018
:1005C0003FFD06B070BDC046D8220320543600203F
:1005D00040420F00A8210020B02100201048032035
:1005E0005869011071480320F0B5C646334C344EAB
:1005F000344D22003100280000B505F00FFE63786D
:10060000DB439B0720D023781B0702D480BCB8466D
:10061000F0BD2D4C0622002120000DF0C9FE210066
:10062000280005F0CDFD0023E05E05F02FFC274DEE
:1006300028600223E05E05F029FC68600423E05E88
:1006400005F024FCA860E1E7214B0622984618003B
:1006500000210DF0ADFE1F4F0622002138000DF0E5
:10066000A7FE4146300005F08FFD3900300005F04F
:100670006FFD43460020185E05F0F4FB4346164E1E
:1006800030600220185E05F0EDFB434670600420E8
:10069000185E05F0E7FBB0600023F85E05F0ECFBA8
:1006A0000E4E30600223F85E05F0E6FB7060042316
:1006B000F85E05F0E1FBB060A5E7C0465C3D0320B5
:1006C00054360020D8220320642D032064320320F6
:1006D000542D03205C2D0320EC2B0320FC2B032046
:1006E000F0B54546DE4657464E46E0B58BB0049021
:1006F0001500080001920321DC172140C9188A1057
:1007000091008946002900DC8CE01599159C890030
:100710008A4614990892091B491B89008C46416836
:1007200052460C01A0468C0007944C006418CF0080
:10073000A90005680591AB4659440E0000210292BC
:1007400062460695B4460025079E8B460790CA462A
:100750000800A400009103920993029B9946019B13
:100760004844002B17DD0499830089464B44814699
:10077000069A5A4411681960A918885904325860B9
:10078000C85998600959D96010336245F2D1059B68
:10079000484699464844039B42469946009B484434
:1007A00004330093C3444644AD1A47444444C4440C
:1007B0009A45D2DCD1460100089A0798099B4B451F
:1007C00029DD149C159D0668671B019C40683F1B32
:1007D000002C20DD850050430001AC463618A200F5
:1007E00020003C000D0004996746884615999A46FA
:1007F0008B464B46A446814600215D44AC004444F0
:100800007058605004319142FAD14D44013365442F
:10081000F6199A45F0D10BB0F0BCBB46B246A946DA
:10082000A046F0BD0021CAE7F0B5CE4647469C463B
:1008300080B5002B1ADD002A18DD930098460300CE
:100840000868002581464C68D2004344A400574202
:1008500041465E1A3100AA004A441068121901C1CB
:100860008B42FAD10135F31B6545F1D1C0BCB946C5
:10087000B046F0BDF0B557464E46DE464546E0B5BB
:1008800091B00D910F92110000220A6002680C9045
:100890000B9282680A920022089205329146CA465B
:1008A000063A0E92052352469F1A089B0A9C9C46C4
:1008B0007C430B9BA40064449C46644426686568A2
:1008C00076006D0076086D08311C281C0DF03AFB8F
:1008D000012353449946002800D15AE153462E1C67
:1008E0000125012B00D1A4E1A368311C5B005B084A
:1008F000181C98460DF026FB002800D169E14B46F4
:1009000046460225032B00DCA2E1E368311C5B00B4
:100910005B08181C98460DF015FB002800D15DE11E
:100920004B4646460325042B00D19FE12369301C2A
:100930005B005B08191C98460DF0FEFA002800D1F8
:1009400051E14B4646460425062B00D096E16069EE
:10095000311C400040080DF0F5FA002800D11DE1DF
:100960000A2352469C1A0D9B089A9C500623524615
:100970009D1AA8460C9B9B680A930B9AA300944669
:10098000100063441968089C1259A44601510100E3
:100990001A600A9A6144920089189B1808681C68BA
:1009A0000C60186089189B1808681C680C60186037
:1009B00089189B1808681C680C60186089189B18B7
:1009C00008681C680C60186089189B1818680A6809
:1009D00008601A600F9A1368013313600C9B0B9A1E
:1009E0009B680A937B43DF19BF005B19BE589C00CC
:1009F00017193868311C0DF054FA53463860012B32
:100A00002CD00B9B27009C4667447868311C0DF066
:100A100048FA53467860022B20D00B9B27009C4657
:100A20006744B868311C0DF03CFA5346B860032B9C
:100A300014D00B9B27009C466744F868311C0DF0CE
:100A400030FA5346F860052B08D10B9A27009446DC
:100A500067443869311C0DF024FA386147460A9A18
:100A60000899574392008C4605920B9ABB00914619
:100A70006344EF19BF009C460693231D99443B1D18
:100A800001932300904608331600984408236644D7
:100A90009C46BC4463460293230094460C33634453
:100AA00007930C239C46BC446346934694460393A9
:100AB0001023A344103464449C46BC44634604930E
:100AC0005B46306819681500099414000DF0FDF9B3
:100AD000011CE8590DF0DFF95346E851012B00D114
:100AE00086E00025BA462F001D000DE0069B306809
:100AF000F41A5B4619680DF0E8F95346011CE058FA
:100B00000DF0C9F95346E0504B46306819680DF0B6
:100B1000DCF9019B011CE0580DF0BDF9019BE05090
:100B2000022D27D04346306819680DF0CEF9029B9C
:100B3000011CE0580DF0AFF9029BE050032D19D0D5
:100B4000079B306819680DF0C0F9039B011CE05841
:100B50000DF0A1F9039BE050052D0BD1099B3168E5
:100B600018680DF0B2F9049B011CE0580DF093F9E0
:100B7000049BE050059B01379C466644BD42B5D1BD
:100B800001235B429C46AA46089BE2440433089337
:100B900088E653460025012B00D0A5E60D9B089A58
:100BA0007C199C50062352469D1A0C9B00219B6881
:100BB000301CA8460A930DF0B7F9002844D00A9BD0
:100BC0007B435B199C000E9B013300D046E70E97D8
:100BD00044E74B46032B00DD97E6DFE74B46042B4B
:100BE00000D0A3E6DAE74B46062B00D1AFE6D5E707
:100BF000069BD1469A46059B002498460BE0534637
:100C0000F51A5B46306819680DF05FF9011CE85968
:100C10000DF041F9E85101344644A145EFD10523D7
:100C20000D9A536111B0F0BCBB46B246A946A0462E
:100C3000F0BD05210D9B089A052499500C9B0435A5
:100C40009B680A9305239846BC4200D1C6E694E609
:100C500053460724089AE41A0D9B04359C505346CA
:100C6000ED1A0C9BA8469B680A93EDE753460824AF
:100C7000089AE41A0D9B03359C50F0E7534609246B
:100C8000089AE41A0D9B02359C50E8E7F0B55746E8
:100C9000DE464E464546E0B59BB0070026981593C4
:100CA000279B451C00D124985D1C00D1249B032563
:100CB000259CA446E617354007266544AD10AC00D8
:100CC0000C94249CB443159E002E00DC97E2049102
:100CD0001901119128998000090151181791611E7D
:100CE000C9081690480183469800109028986B43D5
:100CF00084469B0063449B00D518002301310A936E
:100D0000CB0113935B46009418931995189B2033DD
:100D10000E930C9B002B00DC84E20F97049A0024B6
:100D200094460E9B63441293179B019321000A98EB
:100D30000F9B84460CCB5943614489008A46611C51
:100D40005943614489008946A11C59439346614433
:100D500089008846E11C4B4363449B009B44009BF5
:100D6000019E924491449044002B00DC4EE2002509
:100D70000023049F0895079506950995059502950A
:100D800003950B933B683168181C0D930DF09DF88B
:100D900003990DF083F8716803900D980DF095F8A4
:100DA00002990DF07BF8B16814900D980DF08DF854
:100DB00005990DF073F8F16805900D980DF085F820
:100DC00009990DF06BF809907B683169181C029342
:100DD0000DF07BF806990DF061F8716906900298A4
:100DE0000DF073F807990DF059F8B1690790029862
:100DF0000DF06BF808990DF051F8F1690890029820
:100E00000DF063F8291C0DF049F80290BD68316AB5
:100E1000281C0DF05AF803990DF040F8716A039000
:100E2000281C0DF052F814990DF038F8B16A0D90A5
:100E3000281C0DF04AF805990DF030F8F16A05907C
:100E4000281C0DF042F809990DF028F80990FD686A
:100E5000316B281C0DF039F806990DF01FF8716BF5
:100E60000690281C0DF031F807990DF017F8B16BBA
:100E70000790281C0DF029F808990DF00FF8F16B78
:100E80000890281C0DF021F802990DF007F8029047
:100E90003D69316C281C0DF018F803990CF0FEFF29
:100EA000716C0390281C0DF010F80D990CF0F6FFF2
:100EB000B16C0D90281C0DF008F805990CF0EEFFB0
:100EC000F16C0590281C0DF000F809990CF0E6FF74
:100ED00009907D69316D281C0CF0F7FF06990CF024
:100EE000DDFF716D0690281C0CF0EFFF07990CF0E8
:100EF000D5FFB16D0790281C0CF0E7FF08990CF0A6
:100F0000CDFFF16D0890281C0CF0DFFF02990CF06A
:100F1000C5FF1490BD69316E281C0CF0D6FF0399F3
:100F20000CF0BCFF716E0390281C0CF0CEFF0D99E5
:100F30000CF0B4FFB16E0290281C0CF0C6FF0599AE
:100F40000CF0ACFFF16E0590281C0CF0BEFF099967
:100F50000CF0A4FF0990FD69316F281C0CF0B5FF5F
:100F600006990CF09BFF716F0690281C0CF0ADFFEA
:100F700007990CF093FFB16F0790281C0CF0A5FFA8
:100F800008990CF08BFFF16F0890281C0CF09DFF66
:100F900014990CF083FF051C803620370B9B009AB8
:100FA00008330B939A4200DDECE6019B139E9C46AE
:100FB0000399069866440CF071FF02990390079814
:100FC0000CF06CFF0599029008980CF067FF0999E6
:100FD000071C281C0CF062FF129B051C0593249A29
:100FE000009B9A422FDD0693059B316804CB101CB1
:100FF000059307920CF069FF011C03980CF04EFF5B
:101000007168039007980CF060FF011C02980CF0C7
:1010100045FFB168029007980CF057FF011C381C7F
:101020000CF03CFFF168071C07980CF04EFF011C08
:10103000281C0CF033FF051C069B249A0133103644
:1010400006939A42D0D14B46029918680CF023FFC0
:1010500053460399061C18680CF01DFF5346186090
:101060004B461E605B46291C18680CF014FF434673
:10107000051C391C18680CF00EFF4346119A1860C5
:101080005B4694461D60019B0434634401930C9BB2
:10109000A34200DD4AE61A00259B934200DCC7E02C
:1010A0000F9F0E9A049B944663440293199B0C9ED7
:1010B00098463B0037004646984643460A9A5B6886
:1010C000944642467B43146863449B00E418009BAB
:1010D0003500002B00DCA0E0049B994600239A46D3
:1010E00000239B464B46296818680CF0EEFE5946D3
:1010F0000CF0D4FE83464B46696858680CF0E5FE58
:1011000059460CF0CBFE83464B46A96898680CF014
:10111000DCFE59460CF0C2FE83464B46E968D868AF
:101120000CF0D3FE59460CF0B9FE83464B462969B4
:1011300018690CF0CAFE59460CF0B0FE83464B46C7
:10114000696958690CF0C1FE59460CF0A7FE834648
:101150004B46A96998690CF0B8FE59460CF09EFE02
:1011600083464B46E969D8690CF0AFFE59460CF04E
:1011700095FE834620239C462035E144183B9C463F
:10118000009BE244534500DDACE70E9B9D19029B9A
:101190000193249A009B9A4217DD9A4600239946B0
:1011A0004B464A46E958019B98580CF08EFE011CAC
:1011B00058460CF073FE834601239C460333E244F9
:1011C0009C46249BE1445345EAD1206859460CF0E3
:1011D00062FE109B01379C46259B20606644BB4203
:1011E00000D06AE747461699049A8C460A9B6244E7
:1011F0000492159A01330A939A4200D086E51BB0F7
:10120000F0BCBB46B246A946A046F0BD0025049BF3
:101210002F1C059302950395E1E6049B019300239F
:101220009B46B6E71A00259B934200DD39E7DAE7D3
:101230001699049A8C460A9B62440492159A0133CB
:101240000A939A4200D069E5D9E7C046F0B55746FF
:10125000DE464E464546E0B513689BB006AF9A465B
:1012600078633962002B00D10CE15668002E00D162
:1012700012E1954D280011F019FC944C002800D083
:1012800017E1602160680BF08BFF83109B00042B3B
:1012900000DA04230622554693461C0000227E6194
:1012A0005B463B63A34500DD3C6353009B1859003C
:1012B000B9617969DB008C469C4461467962396A80
:1012C0000626894699443B6B3C619C4694446346A0
:1012D0003B645B463400AB46FB60BA62BC63042CE3
:1012E00000DC91E00423BB634B46A046FB61434610
:1012F000BA6B9C1A9B00043B99464346551E7A6B79
:101300005B0092463A6A434494465B00063B1B19D5
:101310009B009A44BB694E461B199B006344FB62C9
:10132000A3005B42FB635B46BB604346AB467B600E
:101330003C60FE207A6BF3009B1BD15880050CF0BB
:10134000B0FDBD6AB1462E00FC6A7864FB6B4A466C
:101350009846A0444346786C99580CF0B6FD434635
:101360004A4698505B46051C002B22DD53461968FF
:101370000CF0ABFD011C20680CF08DFD5B4620607D
:10138000012B16D05346281C59680CF09EFD011CF9
:1013900060680CF080FD5B466060022B09D053460C
:1013A000281C99680CF091FD011CA0680CF073FDDD
:1013B000A0603B6C01361834B342C7DC18235B4293
:1013C0009C464E465B46043EE244013B01D39B46AD
:1013D000AFE7BB6848219B467B683C689846FB6A40
:1013E0007918BB640623FB64019400933B6BBA6BD2
:1013F000786AFFF775F9002C0ADC4346022B2FD0E0
:1014000002239846BB6372E74B46A046FB616EE73A
:1014100026007A6BFB699446BA6B482106259946EB
:101420004446904673009B19DB0063445846BB64F6
:1014300079183300FD64FFF7F7F943464946482021
:10144000B964FD640293049603953A6B009301928C
:10145000330059467A6A3818FFF718FC043C3DE718
:101460003C69FB68BA6A1B1B12195D469B46052A3C
:1014700000DC15E7BD4615B0F0BCBB46B246A94638
:10148000A046F0BD0F21A8B027336B4456688B43AC
:101490009A46002E00D0ECE60F220B4DA8B027365E
:1014A00028006E44964311F001FB084C002800D13F
:1014B000E7E68023DB012360802328001B036360B1
:1014C000A36011F00FFBDCE6D425032030260320B7
:1014D000F0B55746DE464E464546E0B5136897B030
:1014E00006AFF861B9617B62002B00D1E1E053687F
:1014F0009846002B00D1E7E0834D280011F0D6FA82
:10150000824C002800D0EDE0602160680BF048FEBE
:101510008510AD00042D00DA042506239A46002329
:1015200056467E63AE4200DD7D635A00D2185100FC
:10153000D2003961110041443962796BBD6089463E
:10154000B96999448C4662443A6300229246424605
:1015500054469A46FA607E6006231B1B1E007B6180
:10156000042B00DD0426731E9B46FB69E2009846AF
:10157000121B920090443A6B3C605B461500544647
:10158000002B3DDDB2462600FC62BA6243462C6861
:101590005968201C0CF099FC011C68680CF07BFC5D
:1015A0005B466860012B16D04346201C99680CF0FE
:1015B0008CFC011CA8680CF06EFC5B46A860022B3A
:1015C00009D04346201CD9680CF07FFC011CE86858
:1015D0000CF061FCE86001361835B145D6DCFB6AD9
:1015E00056469A4601235B429C461D33E3449C4683
:1015F0005B46BA6A544604321500E044002BC1DC55
:10160000013B00D379E07B6938219D1B3B6B3C6833
:10161000BB630623FB630194009332007B6B386A43
:101620007918FFF75DF8002D2ADDA3199846FA69AD
:10163000630094461B195B0043449B006344BB63F7
:1016400038210623786A3200FB6379182B00834621
:10165000FFF7EAF83A69382042449300BA695946DC
:1016600094466344BB630623FB630494039302968E
:101670007B6B009601933A6A2B003818FFF706FB44
:101680003B6B10333B63002C01D1042464E7FB68FF
:10169000BD68984653467E685B19761B052B00DCB7
:1016A0003FE7BD4611B0F0BCBB46B246A946A046D6
:1016B000F0BD0F21A8B027336B448B437B62536886
:1016C0009846002B00D017E70F220F4DA8B0273304
:1016D0006B4493432800984611F0E8F90B4C00281E
:1016E00000D111E78023DB012360802328001B0346
:1016F0006360A36011F0F6F906E79B461C239C4645
:101700000432E04439E7C046D425032030260320C4
:10171000F0B5DE4657464E464546E0B5E04AE14B59
:101720008BB0176818600C1CDF4B51681F60596044
:10173000DE4B88469B460890594658461E684D68C1
:10174000DB4B8968C0681E605D609960D860D94BCA
:10175000069205905A689868049101901968009261
:10176000DB68381C029303910CF0AFFB01998146B2
:1017700040460CF0AAFB011C48460CF08FFBCE4BF8
:1017800081461968201C9A460CF09FFB011C4846B4
:101790000CF084FBC94B009918600790381C9946DF
:1017A0000CF093FB0299071C40460CF08EFB011CC9
:1017B000381C0CF073FB5346071C5968201C0CF0B6
:1017C00084FB011C381C0CF069FB4F4603990990FF
:1017D0007860301C0CF079FB019F041C391C281C1C
:1017E0000CF073FB011C201C0CF058FB009A041C2D
:1017F000111C301C91460CF068FB029A061C111C4F
:10180000281C90460CF061FB011C301C0CF046FBC0
:101810000399824604980CF058FB391C051C059866
:101820000CF053FB011C281C0CF038FB4D463E1CF1
:10183000291C071C04980CF048FB4246051C111C8F
:1018400005980CF042FB011C281C0CF027FB80467D
:101850000398211C81460CF038FB391C051C301CF8
:101860000CF033FB011C281C0CF018FB944E316863
:101870000CF014FB934D51460390286048460CF041
:1018800024FB4146814601980CF01FFB011C484691
:101890000CF004FB71680CF001FB211C01906860E6
:1018A00000980CF012FB391C029F041C381C0CF031
:1018B0000CFB011C201C0CF0F1FAB1680CF0EEFAE4
:1018C0005146041CA86000980CF0FFFAB946414646
:1018D000071C48460CF0F9FA011C381C0CF0DEFA23
:1018E000F1680CF0DBFAE860774D071C2E6803986E
:1018F000311C0CF0EAFA6D688146291C381C0097EF
:101900000CF0E3FA291C804601980CF0DEFA4946F7
:101910000CF0C4FA311C0CF0D8FA311C071C201C46
:101920000CF0D3FA41460CF0B9FA291C0CF0CDFAB0
:10193000011C381C0CF0B2FA644B19680CF0AEFABA
:10194000634B071C1860291C201C0CF0BEFA49468A
:101950000CF0A4FA391C0CF0A4FA5E4981468A46C0
:1019600008600198311C0CF0B0FA41460CF096FA70
:10197000391C0CF096FA5146804648600798311C95
:101980000CF0A3FA099B071C291C181C9A460CF0A2
:101990009CFA011C381C0CF081FA011C08980CF010
:1019A0007AFA4946071C0CF090FA07990CF076FA7F
:1019B000069A41461060381C0CF087FA51460CF02C
:1019C0006DFA069A82465060311C48460CF07DFA4A
:1019D000414F011C38680CF05EFA311C0290404601
:1019E0000CF073FA011C78680CF055FA291C061CDF
:1019F00048460CF06AFA011CB8680CF04CFA291C35
:101A0000814640460CF061FA011CF8680CF043FA7C
:101A10000299051C03980CF058FA019F804649462C
:101A2000381C0CF052FA011C40460CF037FA5A46AA
:101A3000311C106003980CF048FA291C8046381CB1
:101A40000CF043FA011C40460CF028FA5B46029960
:101A50005860201C0CF039FA009B4946071C181CE2
:101A600098460CF032FA011C381C0CF017FA5B4651
:101A7000311C9860201C0CF028FA291C041C4046DC
:101A80000CF023FA011C201C0CF008FA5B46D8600D
:101A900050460BB0F0BCBB46B246A946A046F0BDCE
:101AA000343C03203C4803200C32032080290020D2
:101AB000C0290020E0290020442D0320443C0320BD
:101AC000D0280020A0290020583C032018240320FF
:101AD0000032032060360020002A0020F0B5DE46E8
:101AE00057464E464546E0B56A4B85B0596898461C
:101AF0000CF0D1F9684B041C1860684B99461B68C0
:101B00009B46674B59461D680CF0C8F9291C0CF020
:101B1000DCF9644B061C1868011C0CF0BFF9011CB1
:101B2000301C0CF0BEF9604E31680CF0B7F95F4B19
:101B3000019030601868011C0CF0B0F95C4B029009
:101B40001F68391C0CF0C1F98246011C281C0CF0DE
:101B5000A5F9291C061C50460CF09DF9554A116840
:101B600092460CF0B2F9311C0CF09BF9391C039031
:101B7000381C0CF093F95946071C201C0CF08BF90B
:101B8000011C381C0CF0A1F9311C0CF08AF9011C65
:101B900003980CF083F9524601991060061C201C32
:101BA0000CF07CF9311C0CF079F9434B19680CF0FE
:101BB0008CF9424B1860424B18604B461C60434600
:101BC00019680CF068F93F4B041C18603E4B9946AD
:101BD0001B68191C9A460CF061F9291C0CF075F968
:101BE0003A4B071C1868011C0CF058F9011C381CF2
:101BF0000CF057F9364B984619680CF04FF94346EC
:101C00001860344B071C1B680298191C98460CF08E
:101C10005CF90190011C281C0CF040F941468346F8
:101C200040460CF03BF951468046201C0CF033F93D
:101C3000011C40460CF049F959460CF032F9291CB8
:101C4000804601980CF027F9311C0CF03EF95946FA
:101C50000CF027F9011C40460CF020F91E4B051C26
:101C60001860391C201C0CF019F9291C0CF016F90D
:101C70001A4B19680CF029F9194B1860194B1860A8
:101C80004B461C6005B0F0BCBB46B246A946A04618
:101C9000F0BDC046343C0320BC2D03200432032099
:101CA000DC210020E8210020F8310320D021002091
:101CB00078360020A02D0320EC2100209C47032033
:101CC0008C470320C02D032008320320E021002090
:101CD000FC3103207C360020A42D0320E4210020C9
:101CE000A0470320CC470320F8B5FE250024194B5C
:101CF000AD051D609C605C60DD60174B174F1D607B
:101D00009C605C60DD60164B1E68164B301C1968C9
:101D10000CF0C7F8144B38601D605C609C60DD609F
:101D2000124B7C601D605E609C60DD60104B1C602F
:101D30005D60104B104D1868011C0CF0C6F80F4A7E
:101D40000F4B126828601A600E4A9C6012685C6033
:101D5000DA60F8BD80290020A0290020442D03204E
:101D6000DC210020D8210020002A0020E0290020CA
:101D7000583C0320D42100201824032008240320E9
:101D8000D028002004240320F0B5DE4657464E46F6
:101D90004546E0B50E0001688DB089464168876808
:101DA0008B460569C168089343698069049107906F
:101DB00011685068926809910A90291C30680B924A
:101DC000069305950CF067F80699824670680CF04A
:101DD00062F80799051CB0680CF05DF88046089819
:101DE0000CF0F8F880231B06534400900191180072
:101DF00059460CF06AF8391C061C281C03970CF095
:101E000064F8011C301C0CF046F80499061C40468E
:101E10000CF05BF8011C301C0CF03DF80CF0DAF80B
:101E20000022684B169C0BF026FC009A019B0BF0DD
:101E300022FC060048460F000CF0CCF802000B0014
:101E4000300039000BF0F0FB0BF0CCFC4946206071
:101E500050460CF03AF80399061C40460CF035F851
:101E6000011C301C0CF01AF80499061C281C0CF0FC
:101E70002CF8011C301C0CF00EF80CF0ABF8002212
:101E8000504B0BF0F8FB009A019B0BF0F4FB0600A3
:101E900058460F000CF09EF802000B00300039008D
:101EA0000BF0C2FB0BF09EFC49466060281C0CF056
:101EB0000CF85946061C40460CF007F8011C301C73
:101EC0000BF0E9FF0499061C50460BF0FEFF011CC5
:101ED000301C0BF0E3FF0CF07DF80022394B0BF0C7
:101EE000CAFB009A019B0BF0C6FB060003980F008B
:101EF0000CF070F802000B00300039000BF094FB7E
:101F00000BF070FC4946A06040460BF0DEFF5946DE
:101F1000061C281C0BF0D9FF011C301C0BF0BEFF67
:101F20000399051C50460BF0D0FF011C281C0BF038
:101F3000B2FF0CF04FF80022224B0BF09CFB009AF2
:101F4000019B0BF098FB060004980F000CF042F880
:101F500002000B00300039000BF066FB0BF042FC76
:101F6000059B0999E060181C98460BF0AEFF089D90
:101F7000291C0BF0AAFF011C40460BF08CFF069FAA
:101F80000A992061381C0BF0A0FF291C0BF09DFF63
:101F9000011C381C0BF07FFF079E0B996061301C01
:101FA0000BF093FF291C0BF090FF011C301C0BF071
:101FB00072FFA06100200DB0F0BCBB46B246A9463E
:101FC000A046F0BD0000E03FF0B5DE4657464E4665
:101FD0004546E0B5C568466893B00468876888469A
:101FE000301C291C934602930BF06FFF8146391C6D
:101FF000201C0BF06AFF4A460890011C101C059239
:102000000BF049FF0BF0E6FF02000B000BF00CFB9E
:102010000690079158460BF0DDFF02000B00069872
:102020000799009201930BF026FB0BF0DBFB434674
:10203000291C1860381C0BF048FF8146311C201CFD
:102040000BF043FF4B460C90011C181C09930BF03E
:1020500025FF0BF0BFFF02000B000BF0E5FA0200BA
:102060000B00009801990A920B930BF004FB0BF004
:10207000B9FB4346211C5860201C0BF026FF81460B
:10208000311C301C0BF021FF4B460E90011C181C1C
:102090000D930BF000FF391C0F90381C0BF015FF4F
:1020A000291C8246281C0BF010FF814651460F98D0
:1020B0000BF0F1FE49460BF0F1FE594610900BF083
:1020C00004FF4346391C9860301C0BF0FEFE291CAF
:1020D0008346201C0BF0F9FE11901C980BF07AFF40
:1020E00006001D980F000BF075FF009001910E99EE
:1020F0000D980BF0D3FE51460BF0CDFE49460BF088
:10210000CAFE02990BF0E1FE0BF064FF04000D0023
:10211000584611990BF0C2FE0BF05CFF02000B0059
:102120000BF082FA32003B000BF0A5FA02000B0024
:10213000200029000BF078FA009A019B04000D00A2
:10214000069807990BF097FA02000B00200029006F
:102150000BF06AFA0BF046FB4346D86002980BF08E
:1021600039FF04000D00584611990BF094FE0BF056
:1021700031FF02000B000BF057FA22002B000294F3
:1021800003950BF078FA04000D000F9851460BF000
:1021900085FE49460BF07FFE1C990BF096FE0BF076
:1021A00019FF02000B00200029000BF03DFA009AF5
:1021B000019B04000D000A980B990BF05CFA0200D9
:1021C0000B00200029000BF02FFA0BF00BFB43460D
:1021D0000899186105980BF061FE0BF0FBFE0200F8
:1021E0000B000BF021FA029A039B0BF044FA040057
:1021F0000D0009980C990BF04EFE0BF0EBFE02005F
:102200000B000BF011FA32003B000BF034FA020025
:102210000B00200029000BF007FA04000D001098B5
:102220001D990BF052FE0BF0D5FE02000B002000B2
:1022300029000BF0F9F90BF0D5FA4346586100205C
:1022400013B0F0BCBB46B246A946A046F0BDC0469E
:10225000F0B5DE4657464E464546E0B50700101C31
:102260004A68994690460B688A688BB0CE68934658
:1022700006930BF0AFFE040058460D000BF0AAFECB
:10228000C02300221B060BF0F6F922002B000BF0F6
:10229000F2F9009001910BF0A5FA07903860301C1C
:1022A0000BF098FE02000B000BF0BEF922002B0091
:1022B0000BF0E1F90BF096FA8246B86106980BF044
:1022C00089FEC02300221B060BF0D5F922002B004B
:1022D0000BF0D1F902000B00029203930BF082FA8B
:1022E000386340460BF076FE02000B000BF09CF9C1
:1022F00022002B000BF0BFF980250C0003002D06F7
:102300000493059400240BF06DFA9023AC46039AD5
:10231000B8643C66BC67FC50029B62441100786064
:1023200018000BF05FFA009B051CF8611800802371
:1023300052461B069C467A63019A624411000BF0D8
:1023400051FA9423F8647C66FC67FC50BD608025DC
:102350002D06AC46059A049B6244110018000BF050
:1023600041FA079B5246BB6380233A653862BC66DC
:10237000FC501833FC50069B4946181C9A460BF03B
:10238000A4FD14990290301C0BF09FFD1599049048
:1023900058460BF09AFD0499051C02980BF07EFD3F
:1023A000291C07950BF077FD011C0BF077FD4946C2
:1023B0000890F86040460BF088FD1499051C5846BB
:1023C0000BF083FD011C281C0BF068FD1599051C02
:1023D000301C0BF07AFD011C281C0BF05FFD8025E2
:1023E000011C0BF05BFD2D065D44494600907862B0
:1023F00028000BF06AFD1499051C40460BF065FDA2
:10240000534683461599181C0BF05FFD82465946CA
:10241000281C09950BF042FD51460BF03CFD802530
:10242000011C0BF03BFD2D064946F86370190BF0BB
:102430004CFD1499051C06980BF047FD1599814633
:1024400040460BF042FD4946061C281C0BF026FDB9
:10245000311C0BF023FD011C0BF020FD842378655B
:10246000FC66FC501833FC5038618020000684461E
:10247000099A5946624410000BF00DFD51460BF0CD
:102480000DFD011C0BF00AFD802212069446009BF4
:102490008246B86202983B64604404990BF0FBFCEE
:1024A00007990BF0FBFC011C0BF0F8FC8823802142
:1024B000B86550463C670906FC501833FC507861FB
:1024C000681849460BF0E7FC311C0BF0E4FC011CDA
:1024D0000BF0E4FC009BF862FB658C230020089A5B
:1024E0007C677A64FC501833FC500BB0F0BCBB46E0
:1024F000B246A946A046F0BDF0B557464E46DE4668
:102500004546E0B5EFB00B000AA98C46D7226244DD
:10251000120915019A685E680D920EAA9246C422AD
:102520009446B44462460192942293460C329146FA
:1025300052460395554682461F6802920493F168FD
:10254000B86C0BF0C2FC3169041C386E0BF0BDFC9A
:10255000011C201C0BF0A2FC7169041CB86F0BF06D
:10256000B4FC9023B1698046F8580BF0AEFC011C16
:1025700040460BF093FC011C201C0BF08FFC716893
:10258000041CB8690BF0A1FCB1688046386B0BF0F5
:102590009CFC011C40460BF081FC31688046386889
:1025A0000BF093FC011C40460BF078FC011C201C36
:1025B0000BF074FC2860F168F86C0BF086FC316954
:1025C000041C786E0BF081FC011C201C0BF066FCD7
:1025D0007169041CF86F0BF078FC5B46B1698046AA
:1025E000F8580BF072FC011C40460BF057FC011C24
:1025F000201C0BF053FC7168041CF8690BF065FC9F
:10260000B1688046786B0BF060FC011C40460BF013
:1026100045FC3168804678680BF057FC011C404649
:102620000BF03CFC011C201C0BF038FC6860F168CE
:10263000386D0BF04AFC3169041CB86E0BF045FC98
:10264000011C201C0BF02AFC80237169041CF85823
:102650000BF03BFC9823B1698046F8580BF035FC31
:10266000011C40460BF01AFC011C201C0BF016FC50
:102670007168041C386A0BF028FCB1688046B86B9E
:102680000BF023FC011C40460BF008FC316880462F
:10269000B8680BF01AFC011C40460BF0FFFB011C54
:1026A000201C0BF0FBFBA860F168786D0BF00DFCB3
:1026B0003169041CF86E0BF008FC011C201C0BF0A7
:1026C000EDFB84237169041CF8580BF0FEFB9C237E
:1026D000B1698046F8580BF0F8FB011C40460BF03E
:1026E000DDFB011C201C0BF0D9FB7168041C786A0F
:1026F0000BF0EBFBB1688046F86B0BF0E6FB011CBE
:1027000040460BF0CBFB31688046F8680BF0DDFBF0
:10271000011C40460BF0C2FB011C201C0BF0BEFB51
:10272000E860F168B86D0BF0D0FB3169041C386FBC
:102730000BF0CBFB011C201C0BF0B0FB8823716954
:10274000041CF8580BF0C1FB4B46B1698046F858A1
:102750000BF0BBFB011C40460BF0A0FB011C201C36
:102760000BF09CFB7168041CB86A0BF0AEFBB168FF
:102770008046386C0BF0A9FB011C40460BF08EFB29
:102780003168804638690BF0A0FB011C40460BF015
:1027900085FB011C201C0BF081FB2861F168F86DA2
:1027A0000BF093FB3169041C786F0BF08EFB011C5E
:1027B000201C0BF073FB8C237169041CF8580BF080
:1027C00084FBA423B1698046F8580BF07EFB011C02
:1027D00040460BF063FB011C201C0BF05FFB716893
:1027E000041CF86A0BF071FBB1688046786C0BF042
:1027F0006CFB011C40460BF051FB31688046786948
:102800000BF063FB011C40460BF048FB011C201C35
:102810000BF044FB019B1C3668611835B34200D0B5
:102820008DE62022029B914654469A46039D0894C9
:10283000A944079554464D4632AA049B0D9E059225
:1028400014AA389606920993A06C236881460193D6
:10285000206E059B8046216B01CBA26903910490F9
:10286000B16C4846029205930BF02FFB316E824605
:1028700040460BF02AFB011C50460BF00FFBA76FE4
:102880008246B16F381C0BF020FB90238346F15831
:1028900004980BF01AFB011C58460BF0FFFA011CC0
:1028A00050460BF0FBFAB169824602980BF00DFB23
:1028B000316B834603980BF008FB011C58460BF064
:1028C000EDFA3168834601980BF0FFFA011C584677
:1028D0000BF0E4FA011C50460BF0E0FA2860F16CB2
:1028E00048460BF0F2FA716E824640460BF0EDFA64
:1028F000011C50460BF0D2FAF16F8246381C0BF0E7
:10290000E4FA94238346F15804980BF0DEFA011C94
:1029100058460BF0C3FA011C50460BF0BFFAF169A0
:10292000824602980BF0D1FA716B834603980BF044
:10293000CCFA011C58460BF0B1FA71688346019835
:102940000BF0C3FA011C58460BF0A8FA011C5046C4
:102950000BF0A4FA6860316D48460BF0B6FAB16E20
:10296000824640460BF0B1FA011C50460BF096FA35
:1029700080238246F158381C0BF0A7FA982383462F
:10298000F15804980BF0A1FA011C58460BF086FA96
:10299000011C50460BF082FA316A824602980BF015
:1029A00094FAB16B834603980BF08FFA011C5846DA
:1029B0000BF074FAB168834601980BF086FA011C9B
:1029C00058460BF06BFA011C50460BF067FAA860F2
:1029D000716D48460BF079FAF16E824640460BF075
:1029E00074FA011C50460BF059FA84238246F158C0
:1029F000381C0BF06AFA9C238346F15804980BF0BC
:102A000064FA011C58460BF049FA011C50460BF0C1
:102A100045FA716A824602980BF057FAF16B8346C9
:102A200003980BF052FA011C58460BF037FAF16884
:102A3000834601980BF049FA011C58460BF02EFA18
:102A4000011C50460BF02AFAE860B16D48460BF0C5
:102A50003CFA316F824640460BF037FA011C504673
:102A60000BF01CFA88238246F158381C0BF02DFA23
:102A7000A0238346F15804980BF027FA011C58460E
:102A80000BF00CFA011C50460BF008FAB16A8246B2
:102A900002980BF01AFA316C834603980BF015FA82
:102AA000011C58460BF0FAF93169834601980BF086
:102AB0000CFA011C58460BF0F1F9011C50460BF0C2
:102AC000EDF92861F16D48460BF0FFF9716F814611
:102AD00040460BF0FAF9011C48460BF0DFF98C2355
:102AE0008046F158381C0BF0F0F9A423071CF1586C
:102AF00004989B460BF0E9F9011C381C0BF0CEF949
:102B0000011C40460BF0CAF9F16A071C02980BF051
:102B1000DCF9716C804603980BF0D7F9011C404634
:102B20000BF0BCF97169804601980BF0CEF9011CDD
:102B300040460BF0B3F9011C381C0BF0AFF9069BB3
:102B40000434686118359C4200D07DE6099B079DDE
:102B5000DE68296A30680BF0A1F9089CA96B206037
:102B600070680BF09BF96060B068296D0BF096F906
:102B7000A060F068A96E0BF091F98027E0603069E1
:102B8000E9590BF08BF998232061E95870690BF033
:102B900085F96061B069696A0BF080F9A061F0693C
:102BA000E96B0BF07BF9E061306A696D0BF076F947
:102BB0002062E96E706A0BF071F984236062E95853
:102BC000B06A0BF06BF99C22A062F06AA9580BF076
:102BD00065F9E062306BA96A0BF060F92063706BF5
:102BE000296C0BF05BF96063B06BA96D0BF056F9C3
:102BF000A063F06B296F0BF051F98822E063A958AC
:102C0000306C0BF04BF9A0212064706C69580BF00C
:102C100045F96064E96AB06C0BF040F9A064696C36
:102C2000F06C0BF03BF9E064306DE96D0BF036F9B8
:102C30002065716D686F0BF031F960658C20B16DA6
:102C400028580BF02BF95B46A065F16DE8580BF0A6
:102C500025F9E065316E286B0BF020F92066716E66
:102C6000A86C0BF01BF96066B16E286E0BF016F9BC
:102C7000A066F16EA86F0BF011F99023E066316F3A
:102C8000E8580BF00BF9A8232067716FE8580BF098
:102C900005F96067B16F686B0BF000F9A067F16F21
:102CA000E86C0BF0FBF8E067F159686E0BF0F6F892
:102CB000E0510437F159E86F0BF0F0F89423E0513C
:102CC0000437F159E8580BF0E9F8AC23E051043728
:102CD000F159E8580BF0E2F8E0516FB0F0BCBB4698
:102CE000B246A946A046F0BDF0B5DE4657464E4670
:102CF00045460400E0B5006961694000490089B0BB
:102D0000490840080BF0CAF8E168490049080BF08F
:102D1000C5F86368A1685B004900051C49085808AC
:102D20000BF0BCF82168490049080BF0B7F8011C0A
:102D3000281C0BF0B3F8E16A071CA06A49004000A8
:102D4000490840080BF0AAF8616A490049080BF0ED
:102D5000A5F8216A051CE0694900400049084008BF
:102D60000BF09CF8A169490049080BF097F8011C89
:102D7000281C0BF093F8616C061C206C4900400085
:102D8000490840080BF08AF8E16B490049080BF04C
:102D900085F8A16B051C606B49004000490840089C
:102DA0000BF07CF8216B490049080BF077F8011C07
:102DB000281C0BF073F8051C011C301C0BF0BCF830
:102DC000002800D1351C291C381C0BF0B5F82E1C2E
:102DD000002800D13E1CA06DE16D4000490049086B
:102DE00040080BF05BF8616D490049080BF056F89C
:102DF000216D051CE06C49004000490840080BF0BB
:102E00004DF8A16C490049080BF048F8011C281C3A
:102E10000BF044F8616F071C206F4900400049081F
:102E200040080BF03BF8E16E490049080BF036F81A
:102E3000A16E051C606E49004000490840080BF077
:102E40002DF8216E490049080BF028F8011C281CB8
:102E50000BF024F888238046E0580433E158400002
:102E60004900490840080BF019F88423E15849004B
:102E700049080BF013F88023051CE158E06F490066
:102E80004000490840080BF009F8A16F49004908C3
:102E90000BF004F8011C281C0BF000F8051C011CA9
:102EA00040460BF049F8002800D14546291C381C43
:102EB0000BF042F8002800D13D1C291C301C0BF0FF
:102EC0003BF8002800D1351CC0232100E55003AA9F
:102ED000BA3B04A8A83106930494FDF7CBFC012368
:102EE0009B465A46C4200025982659469C27039B9A
:102EF0001340013B01321340013B23543438255029
:102F000094356151A2510132E2519D32944661469D
:102F10009C3A6250A03291469F3A90464A464146BA
:102F20002300A1501832A2589033920099180191B1
:102F300009688A46494652466250424601990A60EB
:102F4000B332A2586146920092469A445246615862
:102F500088461168894661464A4662504246514653
:102F60000A60B422E159A2588C4692009A1811685E
:102F7000E15161461160B022A258A75992009A18F7
:102F80001168A1511760AC22A258665992009A1894
:102F9000176867511660A822A25892009B181D68F6
:102FA000225825501A60C5235A46E25409B0F0BC95
:102FB000BB46B246A946A046F0BDC046C02300228B
:102FC00010B5C25000220433C2520B6804000360E3
:102FD0004B6843608B688360CB68C3600B69036197
:102FE0004B6943618B698361CB69C3610B6A03627F
:102FF0004B6A43628B6A8362CB6AC3620B6B036367
:103000004B6B43638B6B8363CB6BC3630B6C03644E
:103010004B6C43648B6C8364CB6CC3640B6D036536
:103020004B6D43658B6D8365CB6DC3650B6E03661E
:103030004B6E43668B6E8366CB6EC3660B6F036706
:103040004B6F43678B6F8367CB6FC3678023CA580F
:10305000C2500433CA58C2500433CA58C250043351
:10306000CA58C250FFF740FE200010BDF0B5DE4642
:103070004E4657464546E0B5214C1500A5443EAAAC
:1030800094460A0036931F4B359063441B091E017A
:103090001B910A96A1AB13CA13C313CA13C31268B8
:1030A00019491A600A68194B3891194937931B68F6
:1030B00001920A6846AC894620000092A1A9154AEF
:1030C000FFF7C6F83EABEB229C463E95A295D20098
:1030D00086256244B4461268ED0065442800A49237
:1030E000A1A970AAA194A394FFF706FA4B460B95E9
:1030F0003500270034946AAA3E9C09920C930BE099
:10310000DCF7FFFF6F020000CC220320D422032053
:10311000D02203200AE81C413B68B86C0293814628
:10312000099B386E396B804601CBBA690993A82395
:103130000691E158049208900AF0C7FE8C23BE6FF6
:10314000E1588246301C0AF0C0FE011C50460AF0CD
:10315000A5FE216F824640460AF0B7FE616D8346A8
:1031600048460AF0B2FE011C58460AF097FE011CC0
:1031700050460AF093FEA16B824606980AF0A5FE1F
:10318000E169834604980AF0A0FE011C58460AF043
:1031900085FE2168834602980AF097FE011C584676
:1031A0000AF07CFE011C50460AF078FEAC23286031
:1031B000E15808980AF089FE90238246E158301CB5
:1031C0000AF083FE011C50460AF068FE616F8246D9
:1031D00040460AF07AFEA16D834648460AF075FE25
:1031E000011C58460AF05AFE011C50460AF056FED1
:1031F000E16B824606980AF068FE216A83460498CD
:103200000AF063FE011C58460AF048FE61688346D6
:1032100002980AF05AFE011C58460AF03FFE011CB3
:1032200050460AF03BFEB0236860E15808980AF067
:103230004CFE94238246E158301C0AF046FE011CE5
:1032400050460AF02BFEA16F824640460AF03DFE32
:10325000E16D834648460AF038FE011C58460AF0E4
:103260001DFE011C50460AF019FE216C824606988C
:103270000AF02BFE616A834604980AF026FE011CC0
:1032800058460AF00BFEA168834602980AF01DFE1C
:10329000011C58460AF002FE011C50460AF0FEFDD1
:1032A000B423A860E15808980AF00FFE98238246DC
:1032B000E158301C0AF009FE011C50460AF0EEFDF0
:1032C000E16F824640460AF000FE216E8346484682
:1032D0000AF0FBFD011C58460AF0E0FD011C5046B7
:1032E0000AF0DCFD616C824606980AF0EEFDA16AE8
:1032F000834604980AF0E9FD011C58460AF0CEFD09
:10330000E168834602980AF0E0FD011C58460AF085
:10331000C5FD011C50460AF0C1FDB823E860E15824
:1033200008980AF0D2FD9C238246E158301C0AF02E
:10333000CCFD011C50460AF0B1FD80238246E158C5
:1033400040460AF0C2FD616E834648460AF0BDFD64
:10335000011C58460AF0A2FD011C50460AF09EFDD1
:10336000A16C824606980AF0B0FDE16A8346049893
:103370000AF0ABFD011C58460AF090FD2169834616
:1033800002980AF0A2FD011C58460AF087FD011CB4
:1033900050460AF083FDBC232861E15808980AF0E2
:1033A00094FDA0238246E158301C0AF08EFD011CDA
:1033B00050460AF073FD84238246E15840460AF0E5
:1033C00084FDA16E834648460AF07FFD011C5846E5
:1033D0000AF064FD011C50460AF060FDE16C824673
:1033E00006980AF072FD216B834604980AF06DFD81
:1033F000011C58460AF052FD6169834602980AF0A2
:1034000064FD011C58460AF049FD011C50460AF0B3
:1034100045FDE16E686148460AF057FD8823814604
:10342000E15840469B460AF050FD011C48460AF010
:1034300035FDA4238046E158301C0AF046FDC02328
:10344000061CE15808980AF040FD011C301C0AF0E7
:1034500025FD011C40460AF021FD616B061C049805
:103460000AF033FD216D804606980AF02EFD011CFE
:1034700040460AF013FDA169804602980AF025FD36
:10348000011C40460AF00AFD011C301C0AF006FD32
:1034900004374CABA8611C359F4200D03CE60C9B26
:1034A0000A9E9946D8239B009C4634000B9D644499
:1034B00029002000FFF782FDA422920094463300E9
:1034C00063442100902218009A460AF077FFC8232F
:1034D0009B009C463400D033644431009C46182243
:1034E000614420000AF06AFFCE239B009C46300016
:1034F000D033310060449C46182261440AF05EFFDC
:10350000D4228421920094463300C90063443200DF
:103510008C46624412687A491A60D5229200944619
:103520003300320063448C4630006244B03012886D
:103530008446FE21C9251A8000232268890592004D
:103540006244AD00116093611363936413669367E3
:10355000AC463200CA25624484461268AD0092002F
:103560006244136091611363936413669367AC467E
:103570003200CB25624484461268AD00920062445A
:10358000136093611163936413669367AC463200D2
:10359000CC25624484461268AD00920062441360F8
:1035A000AC46936113639164136693673200CD2533
:1035B000624484461268AD009200624413609361D5
:1035C0001363936411669367AC4632006244844689
:1035D00034001268A82692006244916721001360AB
:1035E00093611363936413660622062376000F002B
:1035F0008025A4198C46A260E36006237137AD00D4
:103600006544FF37236122008F510A9165600100F4
:10361000029050469846FDF75BFF06220623A26003
:10362000E36042460A9B22619F5122006560029C32
:1036300050462100FDF70AFE0A9BA1AF1A680692C8
:10364000DA6908929A6B09925A6D0A921A6F0B9274
:103650008C229A580C925A680D921A6A0E92DA6B62
:103660000F929A6D10925A6F119290229A5812925C
:103670009A6816925A6A14921A6C1792DA6D189216
:103680009A6F199294229A581A92DA681C929A6A3E
:103690001D925A6C1E921A6E1F92DA6F2092982217
:1036A0009A5821921A692292DA6A23929A6C249289
:1036B0005A6E259280229A5826929C229A582792D6
:1036C0005A6928921A6B2992DA6C2A929A6E2B9276
:1036D00084229A582C92A0229A582D929A692E925E
:1036E0005A6B2F921A6D3092DA6E31925A469A586E
:1036F0003292A4229B5833934B46399302E0C04642
:1037000024040000636862699946A36849469846A4
:10371000E3680898029304920AF0D7FB4146824678
:1037200009980AF0D2FB011C50460AF0B7FB266844
:103730008246311C06980AF0C8FB011C50460AF06C
:10374000ADFB25698246291C0B980AF0BEFB049943
:1037500083460C980AF0B9FB011C58460AF09EFB00
:10376000029983460A980AF0B0FB011C58460AF0F9
:1037700095FB011C50460AF091FB0E9938604846B3
:103780000AF0A3FB0F99824640460AF09EFB011CFB
:1037900050460AF083FB0D998246301C0AF095FBD7
:1037A000011C50460AF07AFB11998246281C0AF047
:1037B0008CFB1299834604980AF087FB011C58463B
:1037C0000AF06CFB1099834602980AF07EFB011CFC
:1037D00058460AF063FB011C50460AF05FFB14993F
:1037E000786048460AF071FB1799824640460AF015
:1037F0006CFB011C50460AF051FB16998246301CA6
:103800000AF063FB011C50460AF048FB19998246F6
:10381000281C0AF05AFB1A99834604980AF055FBB3
:10382000011C58460AF03AFB1899834602980AF0A0
:103830004CFB011C58460AF031FB011C50460AF0B3
:103840002DFBB8601D9948460AF03FFB1E99824641
:1038500040460AF03AFB011C50460AF01FFB1C9937
:103860008246301C0AF031FB011C50460AF016FB60
:1038700020998246281C0AF028FB21998346049847
:103880000AF023FB011C58460AF008FB1F998346E7
:1038900002980AF01AFB011C58460AF0FFFA011CB4
:1038A00050460AF0FBFA2399F86048460AF00DFBEF
:1038B0002499824640460AF008FB011C50460AF053
:1038C000EDFA22998246301C0AF0FFFA011C50469C
:1038D0000AF0E4FA26998246281C0AF0F6FA27999B
:1038E000834604980AF0F1FA011C58460AF0D6FA09
:1038F0002599834602980AF0E8FA011C58460AF016
:10390000CDFA011C50460AF0C9FA29993861484697
:103910000AF0DBFA2A99824640460AF0D6FA011CE0
:1039200050460AF0BBFA28998246301C0AF0CDFABC
:10393000011C50460AF0B2FA2C998246281C0AF063
:10394000C4FA2D99834604980AF0BFFA011C584620
:103950000AF0A4FA2B99834602980AF0B6FA011CE1
:1039600058460AF09BFA011C50460AF097FA2F9924
:10397000786148460AF0A9FA3099814640460AF033
:10398000A4FA011C48460AF089FA2E998046301C98
:103990000AF09BFA011C40460AF080FA3299061C94
:1039A000281C0AF092FA3399051C04980AF08DFA43
:1039B000011C281C0AF072FA3199051C02980AF0C1
:1039C00084FA011C281C0AF069FA011C301C0AF058
:1039D00065FACBABB8611C3718349F4200D091E632
:1039E000399BA29A9946A19BA399A49CA59DA69EAA
:1039F000A79F06930892A89BA99A09910A94AA994D
:103A0000AB9C0B950C96AC9DAD9E0D970E93AE9F07
:103A1000AF9B0F92B09A109111941295169614972D
:103A200017931892B199B29CB39DB49EB59FB69B63
:103A3000B79A19911A94B899B99C1C951D96BA9D7C
:103A4000BB9E1E971F93BC9FBD9B20922191BE9A47
:103A5000BF992294C09C249625972693279228915B
:103A600029942395C19DC29EC39FC69AC49BC799A2
:103A7000C89C2A952B96C99DCA9E2C97C59F2E92AD
:103A80001B9A2D9333972F91309431953296A1AB99
:103A900013CA13C313CA13C31268A1AC1A603899AE
:103AA000379B0A6849461B6801920A682000009209
:103AB00040A9FE4AFEF788FA369E409930680AF01F
:103AC000EAF94199834670680AF0E5F9429982461D
:103AD000B0680AF0E0F943998146F0680AF0DBF932
:103AE0004499041C30690AF0D6F94599051C70699F
:103AF0000AF0D1F9061C011C381C0AF0E6F9291C51
:103B0000071C27980AF0E1F9011C381C0AF0C6F9D5
:103B1000211C071C20980AF0D8F9011C381C0AF057
:103B2000BDF94946071C18980AF0CFF9514680465E
:103B30000F980AF0CAF9011C40460AF0AFF959463D
:103B4000804608980AF0C1F9011C40460AF0A6F91F
:103B5000011C381C0AF0A2F91B9A51680AF09EF960
:103B6000311C02902E980AF0B0F9291C071C2898E5
:103B70000AF0ABF9011C381C0AF090F9211C071C53
:103B800021980AF0A2F9011C381C0AF087F949466D
:103B9000071C19980AF099F95146804610980AF0C6
:103BA00094F9011C40460AF079F959468046099873
:103BB0000AF08BF9011C40460AF070F9011C381C10
:103BC0000AF06CF91B9A91680AF068F9311C0490AC
:103BD0002F980AF07AF9291C071C29980AF075F920
:103BE000011C381C0AF05AF9211C071C22980AF003
:103BF0006CF9011C381C0AF051F94946071C1A9847
:103C00000AF063F95146804611980AF05EF9011CEA
:103C100040460AF043F9594680460A980AF055F999
:103C2000011C40460AF03AF9011C381C0AF036F92A
:103C30001B9AD1680AF032F9311C369030980AF09C
:103C400044F9291C071C2A980AF03FF9011C381C6A
:103C50000AF024F9211C071C23980AF036F9011CEC
:103C6000381C0AF01BF94946071C1C980AF02DF96C
:103C70005146804612980AF028F9011C40460AF085
:103C80000DF9594680460B980AF01FF9011C404671
:103C90000AF004F9011C381C0AF000F91B9A11699A
:103CA0000AF0FCF8311C379031980AF00EF9291C03
:103CB000071C2B980AF009F9011C381C0AF0EEF8D1
:103CC000211C071C24980AF000F9011C381C0AF07A
:103CD000E5F84946071C1D980AF0F7F8514680465A
:103CE00016980AF0F2F8011C40460AF0D7F8594637
:103CF00080460C980AF0E9F8011C40460AF0CEF81C
:103D0000011C381C0AF0CAF81B9A51690AF0C6F85F
:103D10005146389014980AF0D8F84946071C1E9866
:103D20000AF0D3F8011C381C0AF0B8F85946071CF1
:103D30000D980AF0CAF8011C381C0AF0AFF8291CCB
:103D4000071C2C980AF0C1F8311C804632980AF002
:103D5000BCF8011C40460AF0A1F8211C80462598B9
:103D60000AF0B3F8011C40460AF098F8011C381C10
:103D70000AF094F81B9A91690AF090F8311C071C1C
:103D80002D980AF0A2F8291C061C26980AF09DF826
:103D9000011C301C0AF082F8211C051C1F980AF037
:103DA00094F8011C281C0AF079F84946041C17985D
:103DB0000AF08BF85146051C0E980AF086F8011C93
:103DC000281C0AF06BF85946051C06980AF07DF885
:103DD000011C281C0AF062F8011C201C0AF05EF885
:103DE0001B9AA1AC11680AF059F8359B1860029A29
:103DF0009F615A60049A9A60369ADA60379A1A611B
:103E0000389A5A613E9A1368709353687193936815
:103E10007293D36873931369749353697593936919
:103E20007693D3697793136A7893536A7993936AF5
:103E30007A93D36A7B93136B7C93536B7D93936BD1
:103E40007E93D36B7F93136C8093536C8193936CAD
:103E50008293D36C8393136D8493536D8593936D89
:103E60008693D36D8793136E8893536E8993936E65
:103E70008A93D36E8B93136F8C93536F8D93936F41
:103E80008E93D36F8F938023D35890938423D358EA
:103E900091938823D35892938C23D3589393902350
:103EA000D35894939423D358959301E00AE81C4186
:103EB0009823D35896939C23D3589793A023D358F1
:103EC0009893A423D3589993A823D358349D9A93B5
:103ED000AC23D3589B93B023D3589C93B423D3588B
:103EE0009D93B823D3589E93BC23D3589F93C0234C
:103EF000D358A0936B686A699946AB68494698465F
:103F0000EB680E980293049209F0DFFF4146824667
:103F1000179809F0DAFF011C504609F0BFFF2F681F
:103F20008246391C069809F0D0FF011C504609F062
:103F3000B5FF2E698246311C269809F0C6FF049908
:103F400083462D9809F0C1FF011C584609F0A6FFD1
:103F5000029983461F9809F0B8FF011C584609F0E2
:103F60009DFF011C504609F099FF494620600F98BB
:103F700009F0ABFF41468246189809F0A6FF011CE4
:103F8000504609F08BFF391C8246089809F09DFFC6
:103F9000011C504609F082FF311C8246279809F027
:103FA00094FF04998346339809F08FFF011C58460B
:103FB00009F074FF02998346209809F086FF011CDE
:103FC000584609F06BFF011C504609F067FF49464F
:103FD0006060109809F079FF41468246199809F00F
:103FE00074FF011C504609F059FF391C824609989C
:103FF00009F06BFF011C504609F050FF311C82464E
:10400000289809F062FF049983462E9809F05DFF15
:10401000011C584609F042FF02998346219809F095
:1040200054FF011C584609F039FF011C504609F0A5
:1040300035FF4946A060119809F047FF4146824686
:104040001A9809F042FF011C504609F027FF391C5D
:1040500082460A9809F039FF011C504609F01EFFFC
:10406000311C8246299809F030FF049983462F9825
:1040700009F02BFF011C584609F010FF02998346F6
:10408000229809F022FF011C584609F007FF011C85
:10409000504609F003FF4946E060129809F015FF09
:1040A000414682461C9809F010FF011C504609F059
:1040B000F5FE391C82460B9809F007FF011C50469B
:1040C00009F0ECFE311C82462A9809F0FEFE0499A4
:1040D0008346309809F0F9FE011C584609F0DEFECF
:1040E00002998346239809F0F0FE011C584609F016
:1040F000D5FE011C504609F0D1FE494620611698B4
:1041000009F0E3FE414682461D9809F0DEFE011CDF
:10411000504609F0C3FE391C82460C9809F0D5FEC2
:10412000011C504609F0BAFE311C82462B9809F05A
:10413000CCFE04998346319809F0C7FE011C58460D
:1041400009F0ACFE02998346249809F0BEFE011CDA
:10415000584609F0A3FE011C504609F09FFE49464F
:104160006061149809F0B1FE414681461E9809F03D
:10417000ACFE011C484609F091FE391C80460D98A2
:1041800009F0A3FE011C404609F088FE311C071C03
:104190002C9809F09AFE0499061C329809F095FEB5
:1041A000011C301C09F07AFE0299061C259809F0C2
:1041B0008CFE011C301C09F071FE011C381C09F03A
:1041C0006DFED2ABA0611C3418359C4200D091E644
:1041D0003E9C70AF2300C4330993A19B3F943D9351
:1041E000A89B3C93AF9B3B93B69B3A93BD9B399363
:1041F000C49B3893CB9B3793A29B3693A99B349354
:10420000B09B3393B79B3293BE9B3193C59B309346
:10421000CC9B2F93A39B2E93AA9B2D93B19B2C9366
:10422000B89B2B93BF9B2A93C69B2993CD9B289326
:10423000A49B2793AB9B2693B29B2593B99B249376
:10424000C09B2393C79B2293CE9B2193A59B209336
:10425000AC9B1F93B39B1E93BA9B1D93C19B1C9356
:10426000C89B1A93CF9B1993A69B1893AD9B17934A
:10427000B49B1493BB9B1693C29B1293C99B11933F
:10428000D09B1093A79B0893AE9B0A93B59B0B936F
:10429000BC9B0C93C39B0D93CA9B0E93D19B0F9316
:1042A000E068A5698146A168206923686268804644
:1042B0000691281C37990293049209F006FE66695C
:1042C00082463899301C09F000FE011C504609F066
:1042D000E5FD39998246404609F0F7FD3A99834653
:1042E000484609F0F2FD011C584609F0D7FD011CB3
:1042F000504609F0D3FD3B998246069809F0E5FD4A
:104300003C998346049809F0E0FD011C584609F0E9
:10431000C5FD3D998346029809F0D7FD011C58461A
:1043200009F0BCFD011C504609F0B8FD011C3868BD
:1043300009F0B1FD38602F99281C09F0C6FD3099AD
:104340008246301C09F0C1FD011C504609F0A6FD53
:1043500031998246404609F0B8FD32998346484675
:1043600009F0B3FD011C584609F098FD011C5046A8
:1043700009F094FD33998246069809F0A6FD349918
:104380008346049809F0A1FD011C584609F086FDFA
:1043900036998346029809F098FD011C584609F0A9
:1043A0007DFD011C504609F079FD011C786809F07B
:1043B00072FD28997860281C09F087FD29998246AA
:1043C000301C09F082FD011C504609F067FD2A9956
:1043D0008246404609F079FD2B998346484609F00C
:1043E00074FD011C584609F059FD011C504609F0A6
:1043F00055FD2C998246069809F067FD2D99834654
:10440000049809F062FD011C584609F047FD2E99F9
:104410008346029809F059FD011C584609F03EFDFB
:10442000011C504609F03AFD011CB86809F033FD43
:104430002199B860281C09F048FD22998246301C59
:1044400009F043FD011C504609F028FD23998246DE
:10445000404609F03AFD24998346484609F035FD67
:10446000011C584609F01AFD011C504609F016FDC2
:1044700025998246069809F028FD269983460498D6
:1044800009F023FD011C584609F008FD27998346D1
:10449000029809F01AFD011C584609F0FFFC011CA6
:1044A000504609F0FBFC011CF86809F0F4FC19996E
:1044B000F860281C09F009FD1A998246301C09F0A1
:1044C00004FD011C504609F0E9FC1C998246404657
:1044D00009F0FBFC1D998346484609F0F6FC011CD7
:1044E000584609F0DBFC011C504609F0D7FC1E9928
:1044F0008246069809F0E9FC1F998346049809F062
:10450000E4FC011C584609F0C9FC20998346029836
:1045100009F0DBFC011C584609F0C0FC011C5046A8
:1045200009F0BCFC011C386909F0B5FC1099386130
:10453000281C09F0CAFC11998246301C09F0C5FC00
:10454000011C504609F0AAFC12998246404609F027
:10455000BCFC16998346484609F0B7FC011C584636
:1045600009F09CFC011C504609F098FC1499824605
:10457000069809F0AAFC17998346049809F0A5FC4F
:10458000011C584609F08AFC18998346029809F0E4
:104590009CFC011C584609F081FC011C504609F0A6
:1045A0007DFC011C786909F076FC494678610C981D
:1045B00009F08BFC414681460D9809F086FC011CF0
:1045C000484609F06BFC311C80460E9809F07DFCD2
:1045D000291C061C0F9809F078FC011C301C09F0FE
:1045E0005DFC011C404609F059FC0499051C0A9821
:1045F00009F06BFC0699061C0B9809F066FC011C7F
:10460000301C09F04BFC0299061C089809F05DFC6F
:10461000011C301C09F042FC011C281C09F03EFC66
:10462000011CB86909F037FC099B1C34B8611C37C0
:104630009C4200D034E63E99709B0B60719B4B60AE
:10464000729B8B60739BCB60749B0B61759B4B6102
:10465000769B8B61779BCB61789B0B62799B4B62DE
:104660007A9B8B627B9BCB627C9B0B637D9B4B63BA
:104670007E9B8B637F9BCB63809B0B64819B4B6496
:10468000829B8B64839BCB64849B0B65859B4B6572
:10469000869B8B65879BCB65889B0B66899B4B664E
:1046A0008A9B8B668B9BCB668C9B0B678D9B4B672A
:1046B0008E9B8B678F9BCB678023909ACA50919A71
:1046C0000433CA50929A0433CA50939A0433CA509E
:1046D000949A0433CA50959A0433CA50969A043374
:1046E000CA50979A0433CA50989A0433CA50999A78
:1046F0000433CA509A9A0433CA509B9A0433CA505E
:104700009C9A0433CA509D9A0433CA509E9A04332B
:10471000CA509F9A0433CA50A09A0433CA503EAA82
:10472000EA239446DB0063441B6870AA13CB13C2D0
:10473000EC23DB0063441B68A1AA13CB13C21B9BB1
:10474000359C00938F4B200063441B68A1AA70A97D
:10475000FDF71AFB3EAA94468A4B6344186809F099
:1047600039FC3EAAEA23944606000F00DB006344AE
:104770001B682169186809F08EFB09F02BFC0022E8
:10478000814B08F078FF32003B0008F074FF029084
:10479000039109F027F83EAAEA239446DB0063441C
:1047A0001B6861690A90586809F075FB09F012FCF2
:1047B0000022754B08F05FFF32003B0008F05BFF02
:1047C0000490059109F00EF83EABEA229C46D20017
:1047D00062441268A1690B909068359409F05BFB04
:1047E00009F0F8FB0022684B08F045FF32003B005F
:1047F00008F041FF0D00040008F0F4FF359B0C9019
:10480000586809F0E7FB0022604B08F034FF3200E3
:104810003B0008F030FF0690079108F0E3FF359B5E
:104820000D90986809F0D6FB0022584B08F023FF42
:1048300032003B0008F01FFF02000B00129213939E
:1048400008F0D0FF359B0E90D86809F0C3FB00221A
:104850004E4B08F010FF32003B0008F00CFF0B003D
:1048600002001492159308F0BDFF029B0F901800F0
:1048700080231B069C46039A6244110008F0B2FF95
:1048800080221206A9181090200008F0ABFF359B7B
:104890001190186809F09EFB00223B4B08F0EBFEDC
:1048A0003B008027320008F0E6FE3F0608F09AFF42
:1048B000129C139DBC462B006344190008902000F5
:1048C00008F090FF049E059F169030008026360663
:1048D000B4463B006344190008F084FF149D159E04
:1048E0008022120694463300634419001290280077
:1048F00008F078FF069C079D8022120694462B0044
:10490000634419001490200008F06CFF3EAAEC23C9
:104910009446DB00634417901B681968194B634485
:10492000186809F0D2FA011CFE20800509F0B3FADC
:104930003EAAEC239446DB0063441B681890596838
:10494000104B6344186809F0C0FA011CFE20800572
:1049500009F0A1FA3EAAEC239446DB0063441B68ED
:1049600019909968074B6344186809F0AEFA011C66
:10497000FE20800509F08FFAA1AB1C003F9D1A9024
:104980001D9305E0640700000000E0BF0000E03F69
:104990002B682A699B46AB68A9699846EB680F9813
:1049A00006930292049109F090FA6E698146311CD7
:1049B0000E9809F08AFA011C484609F06FFA02992C
:1049C00081460D9809F081FA069982460C9809F003
:1049D0007CFA011C504609F061FA011C484609F0B6
:1049E0005DFA414681460B9809F06FFA6F6882467E
:1049F000391C0A9809F069FA011C504609F04EFA70
:104A0000594609F04BFA011C484609F047FA049947
:104A10002060169809F059FA311C81460F9809F068
:104A200054FA011C484609F039FA0299814608985F
:104A300009F04BFA069982460B9809F046FA011CD8
:104A4000504609F02BFA011C484609F027FA414666
:104A50008146119809F039FA391C09F01FFA5946B4
:104A60008246109809F031FA011C504609F016FAF6
:104A7000011C484609F012FA049960600D9809F08B
:104A800024FA311C8146089809F01FFA011C484697
:104A900009F004FA02998146149809F016FA069969
:104AA0008246109809F011FA011C504609F0F6F9F7
:104AB000011C484609F0F2F9391C81460C9809F0AE
:104AC00004FA414609F0EAF959468246129809F07B
:104AD000FCF9011C504609F0E1F9011C484609F0B7
:104AE000DDF90499A060089809F0EFF9311C8146BE
:104AF000179809F0EAF9011C484609F0CFF9029924
:104B000081460E9809F0E1F9069909F0C7F9011CF0
:104B1000484609F0C3F9414681460A9809F0D5F99B
:104B2000391C8246129809F0D0F9011C504609F050
:104B3000B5F959468246119809F0C7F9011C50464B
:104B400009F0ACF9011C484609F0A8F90021E06021
:104B5000404609F0BAF900218046381C09F0B5F941
:104B6000011C404609F09AF90021071C584609F03B
:104B7000ACF9011C381C09F091F90021071C0698BA
:104B800009F0A3F900218246301C09F09EF90021AA
:104B90008046049809F099F902998146189809F01D
:104BA00094F9514609F07AF941468346484609F09E
:104BB00075F9011C584609F071F9391C09F06EF9B4
:104BC00000212061029809F080F9514609F066F948
:104BD0008246311C199809F078F9494609F05EF9C6
:104BE000514609F05BF9391C09F058F904996061E4
:104BF0001A9809F06AF9414609F050F9514609F04E
:104C00004DF9391C09F04AF9099B1C35A0611C3487
:104C10009D4200D0BCE670ADA8AB1D9C3795C4AEDC
:104C20001C93236831689B46E369F0699846636D7D
:104C3000226F04910690191C0C980292099309F0B6
:104C400044F9029981460D9809F03FF9011C484644
:104C500009F024F9049981460E9809F036F906996D
:104C600082460F9809F031F9011C504609F016F9F7
:104C7000011C484609F012F9414681460A9809F09C
:104C800024F9A76B8246391C0B9809F01EF9011C08
:104C9000504609F003F9594609F000F9011C48464D
:104CA00009F0FCF8099928600B9809F00EF90299AF
:104CB0008146089809F009F9011C484609F0EEF808
:104CC000049981460F9809F000F9069982461698D2
:104CD00009F0FBF8011C504609F0E0F8011C4846B9
:104CE00009F0DCF8391C8146119809F0EEF84146CC
:104CF00009F0D4F859468246109809F0E6F8011CEC
:104D0000504609F0CBF8011C484609F0C7F809994C
:104D10006860109809F0D9F802998146149809F052
:104D2000D4F8011C484609F0B9F80499814608985E
:104D300009F0CBF8069982460D9809F0C6F8011CD7
:104D4000504609F0ABF8011C484609F0A7F8414667
:104D500081460C9809F0B9F8391C09F09FF85946BA
:104D60008246129809F0B1F8011C504609F096F8F5
:104D7000011C484609F092F80499A860179809F0B8
:104D8000A4F806998146089809F09FF8011C484646
:104D900009F084F8029981460E9809F096F809996D
:104DA00009F07CF8011C484609F078F84146814634
:104DB000129809F08AF8391C82460A9809F085F899
:104DC000011C504609F06AF859468246119809F0CC
:104DD0007CF8011C504609F061F8011C484609F0B6
:104DE0005DF80021E860404609F06FF80021804638
:104DF000381C09F06AF8011C404609F04FF8002100
:104E0000071C584609F061F8011C381C09F046F8E7
:104E10000021071C099809F058F8002182460498DF
:104E200009F053F800218046069809F04EF80299DF
:104E30008146189809F049F8514609F02FF849467B
:104E40008346404609F02AF8011C584609F026F826
:104E5000391C09F023F800212861029809F035F87F
:104E6000514609F01BF882460499199809F02DF86B
:104E7000494609F013F8514609F010F8391C09F0B9
:104E80000DF8069968611A9809F01FF8414609F073
:104E900005F8514609F002F8391C08F0FFFFA86137
:104EA0001C9B04341C3504369C4200D0B9E63EAA53
:104EB0009446744B734A63441B6862441B681268CF
:104EC0000893704BA1AD63441B68DB6909936D4B7C
:104ED00063441B689B6B0A936A4B63441B685B6D5E
:104EE0000B93684B63441B681B6F0C938C23D35844
:104EF000644A0D93634B624463441B685B680E9382
:104F0000604B63441B681B6A0F935E4B63441B68D2
:104F1000DB6B10935B4B63441B689B6D1193594B88
:104F200063441B685B6F129390231268D358554AF1
:104F30001693544B624463441B6812689B68149335
:104F4000504B63441B685B6A17934E4B63441B686A
:104F50001B6C18934B4B63441B68DB6D1993494BD7
:104F600063441B689B6F1A939423D358454A1C9340
:104F7000444B624463441B68DB681D93414B6344AC
:104F80001B689B6A1E933F4B63441B685B6C1F93BB
:104F90003C4B63441B681B6E20933A4B126863447E
:104FA0001B68DB6F21939823D358364A2293354BE5
:104FB000624463441B6812681B692393314B63444A
:104FC0001B68DB6A24932F4B63441B689B6C2593FF
:104FD0002C4B63441B685B6E26938023D358294A6D
:104FE00027939C2362441268D358264A2893254B62
:104FF000624463441B685B692993224B63441B68CA
:105000001B6B2A931F4B63441B68DB6C2B931D4B5C
:10501000126863441B689B6E2C938423D358194AEF
:105020002D93A02362441268D358164A2E93154B31
:10503000624463441B6812689B692F93114B63445D
:105040001B685B6B30930F4B63441B681B6D319384
:105050000C4B63441B68DB6E32938823D358094A98
:105060003393A42362441268D3583493064B6344A9
:105070001F68A1AB389390239C46BC4463460693BB
:1050800004E0C0465C070000540700007B687A69B2
:105090009946BB6849469846FB6809980293049272
:1050A00008F013FF414682460A9808F00EFF011CE3
:1050B000504608F0F3FE3E688246311C089808F01E
:1050C00004FF011C504608F0E9FE3C698246211CA1
:1050D0000C9808F0FAFE049983460D9808F0F5FE46
:1050E000011C584608F0DAFE029983460B9808F036
:1050F000ECFE011C584608F0D1FE011C504608F099
:10510000CDFE0F992860484608F0DFFE10998246D0
:10511000404608F0DAFE011C504608F0BFFE0E992A
:105120008246301C08F0D1FE011C504608F0B6FE45
:1051300012998246201C08F0C8FE169983460498EE
:1051400008F0C3FE011C584608F0A8FE11998346DA
:10515000029808F0BAFE011C584608F09FFE011C98
:10516000504608F09BFE17996860484608F0ADFE6F
:1051700018998246404608F0A8FE011C504608F0E7
:105180008DFE14998246301C08F09FFE011C50468B
:1051900008F084FE1A998246201C08F096FE1C999D
:1051A0008346049808F091FE011C584608F076FEEC
:1051B00019998346029808F088FE011C584608F0A9
:1051C0006DFE011C504608F069FEA8601E99484615
:1051D00008F07BFE1F998246404608F076FE011CCF
:1051E000504608F05BFE1D998246301C08F06DFEAB
:1051F000011C504608F052FE21998246201C08F0FE
:1052000064FE22998346049808F05FFE011C58460C
:1052100008F044FE20998346029808F056FE011CCF
:10522000584608F03BFE011C504608F037FE249912
:10523000E860484608F049FE25998246404608F055
:1052400044FE011C504608F029FE23998246301C7A
:1052500008F03BFE011C504608F020FE27998246CC
:10526000201C08F032FE28998346049808F02DFE91
:10527000011C584608F012FE26998346029808F051
:1052800024FE011C584608F009FE011C504608F097
:1052900005FE2A992861484608F017FE2B99824698
:1052A000404608F012FE011C504608F0F7FD29990F
:1052B0008246301C08F009FE011C504608F0EEFD45
:1052C0002D998246201C08F000FE2E9983460498F2
:1052D00008F0FBFD011C584608F0E0FD2C998346C0
:1052E000029808F0F2FD011C584608F0D7FD011C99
:1052F000504608F0D3FD30996861484608F0E5FD56
:1053000031998146404608F0E0FD011C484608F00E
:10531000C5FD2F998046301C08F0D7FD011C404682
:1053200008F0BCFD3399061C201C08F0CEFD349912
:10533000041C049808F0C9FD011C201C08F0AEFDF7
:105340003299041C029808F0C0FD011C201C08F0D2
:10535000A5FD011C301C08F0A1FD069B1837A861B3
:105360001C35BB4200D091E6C4AB0693379CA8AB7A
:10537000389D3693EB690D999946AB6B2E6F984625
:105380006B6D2F680493069B043504CB101C0292AE
:10539000069308F09AFD0C998246301C08F095FDA2
:1053A000011C504608F07AFD0B998246049808F0DB
:1053B0008CFD011C504608F071FD0A99824640465A
:1053C00008F083FD09998346484608F07EFD011CDC
:1053D000584608F063FD08998346381C08F075FDAF
:1053E000011C584608F05AFD011C504608F056FDB5
:1053F000011C206808F052FD10992060404608F01A
:1054000064FD0F998246484608F05FFD011C504636
:1054100008F044FD0E998246381C08F056FD011C28
:10542000504608F03BFD12998246301C08F04DFDB5
:1054300016998346029808F048FD011C584608F06A
:105440002DFD11998346049808F03FFD011C584634
:1054500008F024FD011C504608F020FD011C606886
:1054600008F01CFD17996060484608F02EFD189959
:105470008246404608F029FD011C504608F00EFD0A
:1054800014998246381C08F020FD011C504608F093
:1054900005FD1A998246301C08F017FD1C998346B9
:1054A000029808F012FD011C584608F0F7FC199903
:1054B0008346049808F009FD011C584608F0EEFCEC
:1054C000011C504608F0EAFC011CA06808F0E6FC4C
:1054D0001E99A060484608F0F8FC1F998246404695
:1054E00008F0F3FC011C504608F0D8FC1D998246D8
:1054F000381C08F0EAFC011C504608F0CFFC21994A
:105500008246301C08F0E1FC22998346029808F09C
:10551000DCFC011C584608F0C1FC20998346049825
:1055200008F0D3FC011C584608F0B8FC011C50469A
:1055300008F0B4FC011CE06808F0B0FC2499E060BD
:10554000484608F0C2FC25998246404608F0BDFC5A
:10555000011C504608F0A2FC23998246381C08F032
:10556000B4FC011C504608F099FC27998246301C77
:1055700008F0ABFC28998346029808F0A6FC011CB1
:10558000584608F08BFC26998346049808F09DFC49
:10559000011C584608F082FC011C504608F07EFCB5
:1055A000011C206908F07AFC2A992061484608F01D
:1055B0008CFC2B998246404608F087FC011C504623
:1055C00008F06CFC29998246381C08F07EFC011C0E
:1055D000504608F063FC2D998246301C08F075FC9B
:1055E0002E998346029808F070FC011C584608F07A
:1055F00055FC2C998346049808F067FC011C58461A
:1056000008F04CFC011C504608F048FC011C606985
:1056100008F044FC30996061484608F056FC319926
:105620008146404608F051FC011C484608F036FC13
:105630002F998046381C08F048FC011C404608F0B1
:105640002DFC3399071C301C08F03FFC3499061CD4
:10565000029808F03AFC011C301C08F01FFC32993B
:10566000061C049808F031FC011C301C08F016FCE4
:10567000011C381C08F012FC011CA06908F00EFC8B
:10568000369BA0611C349D4200D073E63E99709B0E
:105690000B60779B4B607E9B8B60859BCB608C9B6C
:1056A0000B61939B4B619A9B8B61719BCB61789B48
:1056B0000B627F9B4B62869B8B628D9BCB62949B24
:1056C0000B639B9B4B63729B8B63799BCB63809B30
:1056D0000B64879B4B648E9B8B64959BCB649C9BDC
:1056E0000B65739B4B657A9B8B65819BCB65889B18
:1056F0000B668F9B4B66969B8B669D9BCB66749BC4
:105700000B677B9B4B67829B8B67899BCB67802357
:10571000909ACA50979A0433CA509E9A0433CA503A
:10572000759A0433CA507C9A0433CA50839A04335E
:10573000CA508A9A0433CA50919A0433CA50989A2C
:105740000433CA509F9A0433CA50769A0433CA501D
:105750007D9A0433CA50849A0433CA508B9A043316
:10576000CA50929A0433CA50999A0433CA50A09AE4
:105770000433CA50359B1A685F68111C101C904690
:105780009E68DD6808F0A1FB391C041C381C08F079
:105790009CFB011C201C08F081FB311C041C301CEC
:1057A00008F093FB011C201C08F078FB291C041C4A
:1057B000281C08F08AFB011C201C08F06FFB08F075
:1057C00013FC041C011C404608F06BFB359B211C9C
:1057D0001860381C08F065FB359F211C7860301C70
:1057E00008F05FFB211CB860281C08F05AFB1B9BCB
:1057F000F8601A685F68111C101C90469E68DD688E
:1058000008F063FB391C041C381C08F05EFB011C0B
:10581000201C08F043FB311C041C301C08F055FB15
:10582000011C201C08F03AFB291C041C281C08F051
:105830004CFB011C201C08F031FB08F0D5FB041CBC
:10584000011C404608F02DFB1B9B211C1860381CD6
:1058500008F027FB1B9F211C7860301C08F021FBFF
:10586000211CB860281C08F01CFBF8600020044BC9
:105870009D44F0BCBB46B246A946A046F0BDC0461A
:1058800024080000F0B5D6464F464646C0B586B05F
:10589000A14B02AC00941A68A04D02929A8828008D
:1058A000A2809B796A46A37107230193002369466E
:1058B000D3730DF0A5FA0098A04203D002990131EC
:1058C00008F08EFD28000DF0E3FA954E9C2431007F
:1058D0000122944D01C1A400830F43406B439818EB
:1058E000013201C1A242F7D19C23002400200021F3
:1058F0001B01F2508C4D00228C4B9C60DD6000241B
:105900001860596018615961FE201A76884B80052D
:105910001C605C609C60DC60864B1C605C609C6012
:10592000DC60854B1C605C60844B1C605C60844B5D
:105930001C605C60834B1C605C609C60DC60824B24
:105940001C605C60814D9C60DC60814B29681C6040
:1059500008F0A7FA7F4E804B3060FE201C605C6030
:105960009C60DC607D4B80051C605C607C4B1C6037
:105970005C607C4B1C605C607B4B1C605C609C6072
:10598000DC607A4B1C605C609C60DC60784B1C6067
:105990005C609C60DC60774B29681C605C60764BC7
:1059A000764E1C605C60764B1C605C60754B1C60C6
:1059B0005C609C60DC60744B1C605C609C60DC60C4
:1059C000724B1C6008F06DFA714B30601C605C60BB
:1059D0009C60DC606F4B1C605C606F4B1C605C60AB
:1059E0006E4B1C605C606E4B1C605C609C60DC609D
:1059F0006C4B1C606C4B1C606C4B6D4C1868011C34
:105A000008F063FA6B4B206018686B4C011C08F0BF
:105A10005CFA6A4B20601C68694B6A4D1868011C6F
:105A200008F03CFA684B196808F04FFA211C08F09E
:105A30004CFA664B196808F034FA011CFE20800508
:105A400008F029FA624B28601C60624B1E68301C0B
:105A500008F0DAFA604B051C301C1F6808F0E6FA03
:105A60005E4B82461E685E4B391C281C994608F026
:105A70002CFA311C8046504608F027FA011C40469B
:105A800008F00CFA211C08F020FA4B461860554B20
:105A90001B689846544B41461B689946534B9A469F
:105AA00080231B06F81808F010FA514B071C1968E0
:105AB000301C08F00AFA011C381C08F0EFF94D4BB5
:105AC000071C1968281C08F000FA494608F0FDF97F
:105AD000011C381C08F0E2F9211C08F0F6F98023BB
