:020000041000EA
:1000000000B5324B212058609868022188439860DF
:10001000D860186158612E4B002199600221596106
:100020000121F02299502B49196001219960352056
:1000300000F044F80222904214D00621196600F024
:1000400034F8196E01211966002018661A6600F04E
:100050002CF8196E196E196E052000F02FF8012189
:100060000842F9D1002199601B49196000215960AB
:100070001A491B48016001219960EB211966A021F2
:10008000196600F012F800219960164914480160C1
:100090000121996001BC002800D000471248134993
:1000A000086003C880F30888084703B5996A0420EC
:1000B0000142FBD001200142F8D103BD02B5186610
:1000C0001866FFF7F2FF186E186E02BD00000240BE
:1000D000000000180000070000035F00212200005C
:1000E000F4000018222000A00001001008ED00E03C
:1000F00000000000000000000000000074B24E7A12
:1001000000200420F7010010CB010010CD010010E9
:10011000C9010010C9010010C9010010C901001077
:10012000C9010010C9010010C9010010CF01001061
:10013000C9010010C9010010D1010010D301001045
:10014000C1010010C1010010C1010010C101001067
:10015000C1010010C1010010C1010010C101001057
:10016000C1010010C1010010C1010010C101001047
:10017000C1010010C1010010C1010010C101001037
:10018000C1010010C1010010C1010010C101001027
:10019000C1010010C1010010C1010010C101001017
:1001A000C1010010C1010010C1010010C101001007
:1001B000C1010010C1010010C1010010C1010010F7
:1001C000EFF30580103800BE00BE00BE00BE00BECA
:1001D00000BE00BEF2EB8871B0890110D089011019
:1001E0003802001090A31AE71E481F49086006C88D
:1001F00081F3088810471D480068002801D019487D
:10020000F3E70DA40ECC002902D000F012F8F9E7B4
:100210001749184A002000E001C19142FCD116495B
:100220008847164988471649884700BEFDE701C937
:1002300001C29A42FBD37047D0890110C000002050
:100240003428002044B101100000042000000420E4
:1002500044B1011000100420001004200000000030
:10026000704700000000000008ED00E0000000D032
:100270003428002088480320F100011041030010B9
:10028000E9000110F8B5C0460448054B10B583429B
:1002900003D0044B002B00D0984710BD3428002019
:1002A000342800200000000006480749091A8B1076
:1002B000C90FC91810B5491003D0044B002B00D04A
:1002C000984710BD3428002034280020000000008A
:1002D00010B5074C2378002B09D1FFF7D5FF054B4C
:1002E000002B02D0044800E000BF0123237010BDA2
:1002F000D02D002000000000486C0110054B10B507
:10030000002B03D00449054800E000BFFFF7CCFFF5
:1003100010BDC04600000000D42D0020486C011024
:1003200010B504001F210BF0B3FA002220000021B9
:100330000BF0C8FA002120000BF0D8FA10BDC0461F
:10034000F8B5CE464746192080B50BF0E3FAD02326
:1003500080221B0692045A62394810F097F810F078
:1003600047F8384810F092F80CF05EFF1A20FFF7BB
:10037000D7FF1B20FFF7D4FF00F086F8324810F0BB
:1003800085F806F06FFC314810F080F807F0FEFAAF
:100390002F4810F07BF806F007FF01F075FC2D48A0
:1003A00010F074F809F0EAFE002205242A4B1A70B6
:1003B00006F01AF8294810F069F8294D013C21008F
:1003C000280010F0E7F8FA2080000CF00DF8002C5F
:1003D000F4D10A2010F010F80122002121480BF07E
:1003E00097FC214812F004FD0AF0AAF801221F4BE5
:1003F0001F4D1A701F4B204E9846204B204C99469B
:10040000204F0AF0B9F8A36A2A689B1ABB420ED89B
:100410003378012BF5D107F065FC3378012BFAD046
:100420000AF0AAF8A36A2A689B1ABB42F0D9A36A09
:1004300048462B6043465A8A198A10F0ABF8E7E722
:10044000486C0110586C0110646C0110706C011044
:10045000806C0110906C01106C480320A06C01109E
:10046000AC6C0110544703202D7F00106B48032013
:100470002C2603207435002070480320C06C011026
:100480000040054020A10700092370B586B0059300
:1004900004330493023B0393013B0293023B324D2E
:1004A000324C0193324B22003249334800932B00E7
:1004B00005F054FC142005F04DFCFA2080000BF0F0
:1004C00093FF2E4E21003200280005F065FE3378A0
:1004D000682B08D02A4C20000FF0D8FFFA208000AB
:1004E0000BF082FFF7E773783D2BF3D10122210057
:1004F000280005F075FE234E32002100280005F08B
:10050000A7FE3378002BF7D101222100280005F047
:1005100025FD0121200005F003FD0321200005F049
:100520008FFC0321280005F0C5FD1321200005F0F4
:10053000FDFE1221200005F037FF0021200005F00C
:1005400015FF0321200005F09FFE0221200005F089
:10055000B7FE5521200005F091FC1821280005F078
:100560003FFD06B070BDC046D8220320543600209F
:1005700040420F00A8210020B02100202448032081
:10058000D86C011083480320F0B5C646334C344E76
:10059000344D22003100280000B505F00FFE6378CD
:1005A000DB439B0720D023781B0702D480BCB846CE
:1005B000F0BD2D4C0622002120000EF0C7F82100CE
:1005C000280005F0CDFD0023E05E05F02FFC274D4F
:1005D00028600223E05E05F029FC68600423E05EE9
:1005E00005F024FCA860E1E7214B0622984618009C
:1005F00000210EF0ABF81F4F0622002138000EF04C
:10060000A5F84146300005F08FFD3900300005F0B7
:100610006FFD43460020185E05F0F4FB4346164E7E
:1006200030600220185E05F0EDFB43467060042048
:10063000185E05F0E7FBB0600023F85E05F0ECFB08
:100640000E4E30600223F85E05F0E6FB7060042376
:10065000F85E05F0E1FBB060A5E7C046683D032009
:1006600054360020D8220320642D0320703203204A
:10067000542D03205C2D0320EC2B0320FC2B0320A6
:10068000F0B54546DE4657464E46E0B58BB0049081
:100690001500080001920321DC172140C9188A10B7
:1006A00091008946002900DC8CE01599159C890091
:1006B0008A4614990892091B491B89008C46416897
:1006C00052460C01A0468C0007944C006418CF00E1
:1006D000A90005680591AB4659440E00002102921D
:1006E00062460695B4460025079E8B460790CA468B
:1006F0000800A400009103920993029B9946019B74
:100700004844002B17DD0499830089464B448146F9
:10071000069A5A4411681960A91888590432586019
:10072000C85998600959D96010336245F2D1059BC8
:10073000484699464844039B42469946009B484494
:1007400004330093C3444644AD1A47444444C4446C
:100750009A45D2DCD1460100089A0798099B4B457F
:1007600029DD149C159D0668671B019C40683F1B92
:10077000002C20DD850050430001AC463618A20055
:1007800020003C000D0004996746884615999A465A
:100790008B464B46A446814600215D44AC00444450
:1007A0007058605004319142FAD14D440133654490
:1007B000F6199A45F0D10BB0F0BCBB46B246A9463B
:1007C000A046F0BD0021CAE7F0B5CE4647469C469C
:1007D00080B5002B1ADD002A18DD9300984603002F
:1007E0000868002581464C68D2004344A400574263
:1007F00041465E1A3100AA004A441068121901C12C
:100800008B42FAD10135F31B6545F1D1C0BCB94625
:10081000B046F0BDF0B557464E46DE464546E0B51B
:1008200091B00D910F92110000220A6002680C90A5
:100830000B9282680A920022089205329146CA46BB
:10084000063A0E92052352469F1A089B0A9C9C4624
:100850007C430B9BA40064449C4664442668656802
:1008600076006D0076086D08311C281C0DF038FDEF
:10087000012353449946002800D15AE153462E1CC7
:100880000125012B00D1A4E1A368311C5B005B08AA
:10089000181C98460DF024FD002800D169E14B4654
:1008A00046460225032B00DCA2E1E368311C5B0015
:1008B0005B08181C98460DF013FD002800D15DE17F
:1008C0004B4646460325042B00D19FE12369301C8B
:1008D0005B005B08191C98460DF0FCFC002800D159
:1008E00051E14B4646460425062B00D096E160694F
:1008F000311C400040080DF0F3FC002800D11DE140
:100900000A2352469C1A0D9B089A9C500623524675
:100910009D1AA8460C9B9B680A930B9AA3009446C9
:10092000100063441968089C1259A4460151010043
:100930001A600A9A6144920089189B1808681C681A
:100940000C60186089189B1808681C680C60186097
:1009500089189B1808681C680C60186089189B1817
:1009600008681C680C60186089189B1818680A6869
:1009700008601A600F9A1368013313600C9B0B9A7E
:100980009B680A937B43DF19BF005B19BE589C002C
:1009900017193868311C0DF052FC53463860012B92
:1009A0002CD00B9B27009C4667447868311C0DF0C7
:1009B00046FC53467860022B20D00B9B27009C46B8
:1009C0006744B868311C0DF03AFC5346B860032BFD
:1009D00014D00B9B27009C466744F868311C0DF02F
:1009E0002EFC5346F860052B08D10B9A270094463D
:1009F00067443869311C0DF022FC386147460A9A79
:100A00000899574392008C4605920B9ABB00914679
:100A10006344EF19BF009C460693231D99443B1D78
:100A20000193230090460833160098440823664437
:100A30009C46BC4463460293230094460C336344B3
:100A400007930C239C46BC44634693469446039309
:100A50001023A344103464449C46BC44634604936E
:100A60005B46306819681500099414000DF0FBFB13
:100A7000011CE8590DF0DDFB5346E851012B00D174
:100A800086E00025BA462F001D000DE0069B306869
:100A9000F41A5B4619680DF0E6FB5346011CE0585A
:100AA0000DF0C7FB5346E0504B46306819680DF017
:100AB000DAFB019B011CE0580DF0BBFB019BE050F1
:100AC000022D27D04346306819680DF0CCFB029BFD
:100AD000011CE0580DF0ADFB029BE050032D19D036
:100AE000079B306819680DF0BEFB039B011CE058A2
:100AF0000DF09FFB039BE050052D0BD1099B316846
:100B000018680DF0B0FB049B011CE0580DF091FB40
:100B1000049BE050059B01379C466644BD42B5D11D
:100B200001235B429C46AA46089BE2440433089397
:100B300088E653460025012B00D0A5E60D9B089AB8
:100B40007C199C50062352469D1A0C9B00219B68E1
:100B5000301CA8460A930DF0B5FB002844D00A9B30
:100B60007B435B199C000E9B013300D046E70E9738
:100B700044E74B46032B00DD97E6DFE74B46042BAB
:100B800000D0A3E6DAE74B46062B00D1AFE6D5E767
:100B9000069BD1469A46059B002498460BE0534697
:100BA000F51A5B46306819680DF05DFB011CE859C9
:100BB0000DF03FFBE85101344644A145EFD1052338
:100BC0000D9A536111B0F0BCBB46B246A946A0468F
:100BD000F0BD05210D9B089A052499500C9B043506
:100BE0009B680A9305239846BC4200D1C6E694E66A
:100BF00053460724089AE41A0D9B04359C5053462B
:100C0000ED1A0C9BA8469B680A93EDE7534608240F
:100C1000089AE41A0D9B03359C50F0E753460924CB
:100C2000089AE41A0D9B02359C50E8E7F0B5574648
:100C3000DE464E464546E0B59BB007002698159324
:100C4000279B451C00D124985D1C00D1249B0325C3
:100C5000259CA446E617354007266544AD10AC0038
:100C60000C94249CB443159E002E00DC97E2049162
:100C70001901119128998000090151181791611EDD
:100C8000C9081690480183469800109028986B4335
:100C900084469B0063449B00D518002301310A93CE
:100CA000CB0113935B46009418931995189B20333E
:100CB0000E930C9B002B00DC84E20F97049A002417
:100CC00094460E9B63441293179B019321000A984C
:100CD0000F9B84460CCB5943614489008A46611CB2
:100CE0005943614489008946A11C59439346614494
:100CF00089008846E11C4B4363449B009B44009B56
:100D0000019E924491449044002B00DC4EE2002569
:100D10000023049F0895079506950995059502956A
:100D200003950B933B683168181C0D930DF09BFAEB
:100D300003990DF081FA716803900D980DF093FA04
:100D400002990DF079FAB16814900D980DF08BFAB4
:100D500005990DF071FAF16805900D980DF083FA80
:100D600009990DF069FA09907B683169181C0293A2
:100D70000DF079FA06990DF05FFA71690690029804
:100D80000DF071FA07990DF057FAB16907900298C2
:100D90000DF069FA08990DF04FFAF1690890029880
:100DA0000DF061FA291C0DF047FA0290BD68316A16
:100DB000281C0DF058FA03990DF03EFA716A039061
:100DC000281C0DF050FA14990DF036FAB16A0D9006
:100DD000281C0DF048FA05990DF02EFAF16A0590DD
:100DE000281C0DF040FA09990DF026FA0990FD68CB
:100DF000316B281C0DF037FA06990DF01DFA716B56
:100E00000690281C0DF02FFA07990DF015FAB16B1A
:100E10000790281C0DF027FA08990DF00DFAF16BD8
:100E20000890281C0DF01FFA02990DF005FA0290A7
:100E30003D69316C281C0DF016FA03990DF0FCF990
:100E4000716C0390281C0DF00EFA0D990DF0F4F959
:100E5000B16C0D90281C0DF006FA05990DF0ECF917
:100E6000F16C0590281C0DF0FEF909990DF0E4F9DC
:100E700009907D69316D281C0DF0F5F906990DF08A
:100E8000DBF9716D0690281C0DF0EDF907990DF056
:100E9000D3F9B16D0790281C0DF0E5F908990DF014
:100EA000CBF9F16D0890281C0DF0DDF902990DF0D9
:100EB000C3F91490BD69316E281C0DF0D4F9039963
:100EC0000DF0BAF9716E0390281C0DF0CCF90D9954
:100ED0000DF0B2F9B16E0290281C0DF0C4F905991D
:100EE0000DF0AAF9F16E0590281C0DF0BCF90999D6
:100EF0000DF0A2F90990FD69316F281C0DF0B3F9CE
:100F000006990DF099F9716F0690281C0DF0ABF958
:100F100007990DF091F9B16F0790281C0DF0A3F916
:100F200008990DF089F9F16F0890281C0DF09BF9D4
:100F300014990DF081F9051C803620370B9B009A1F
:100F400008330B939A4200DDECE6019B139E9C460E
:100F50000399069866440DF06FF90299039007987B
:100F60000DF06AF90599029008980DF065F9099954
:100F7000071C281C0DF060F9129B051C0593249A90
:100F8000009B9A422FDD0693059B316804CB101C11
:100F9000059307920DF067F9011C03980DF04CF9C9
:100FA0007168039007980DF05EF9011C02980DF02E
:100FB00043F9B168029007980DF055F9011C381CEF
:100FC0000DF03AF9F168071C07980DF04CF9011C77
:100FD000281C0DF031F9051C069B249A01331036AC
:100FE00006939A42D0D14B46029918680DF021F928
:100FF00053460399061C18680DF01BF953461860F8
:101000004B461E605B46291C18680DF012F94346DA
:10101000051C391C18680DF00CF94346119A18602C
:101020005B4694461D60019B0434634401930C9B12
:10103000A34200DD4AE61A00259B934200DCC7E08C
:101040000F9F0E9A049B944663440293199B0C9E37
:1010500098463B0037004646984643460A9A5B68E6
:10106000944642467B43146863449B00E418009B0B
:101070003500002B00DCA0E0049B994600239A4633
:1010800000239B464B46296818680DF0ECF859463A
:101090000DF0D2F883464B46696858680DF0E3F8C6
:1010A00059460DF0C9F883464B46A96898680DF07B
:1010B000DAF859460DF0C0F883464B46E968D8681F
:1010C0000DF0D1F859460DF0B7F883464B46296923
:1010D00018690DF0C8F859460DF0AEF883464B4636
:1010E000696958690DF0BFF859460DF0A5F88346B7
:1010F0004B46A96998690DF0B6F859460DF09CF871
:1011000083464B46E969D8690DF0ADF859460DF0B4
:1011100093F8834620239C462035E144183B9C46A7
:10112000009BE244534500DDACE70E9B9D19029BFA
:101130000193249A009B9A4217DD9A460023994610
:101140004B464A46E958019B98580DF08CF8011C13
:1011500058460DF071F8834601239C460333E24460
:101160009C46249BE1445345EAD1206859460DF042
:1011700060F8109B01379C46259B20606644BB426B
:1011800000D06AE747461699049A8C460A9B624447
:101190000492159A01330A939A4200D086E51BB057
:1011A000F0BCBB46B246A946A046F0BD0025049B54
:1011B0002F1C059302950395E1E6049B0193002300
:1011C0009B46B6E71A00259B934200DD39E7DAE734
:1011D0001699049A8C460A9B62440492159A01332C
:1011E0000A939A4200D069E5D9E7C046F0B5574660
:1011F000DE464E464546E0B513689BB006AF9A46BC
:1012000078633962002B00D10CE15668002E00D1C2
:1012100012E1954D280011F017FE944C002800D0E3
:1012200017E1602160680CF089F983109B00042BA2
:1012300000DA04230622554693461C0000227E61F4
:101240005B463B63A34500DD3C6353009B1859009C
:10125000B9617969DB008C469C4461467962396AE0
:101260000626894699443B6B3C619C469444634600
:101270003B645B463400AB46FB60BA62BC63042C43
:1012800000DC91E00423BB634B46A046FB61434670
:10129000BA6B9C1A9B00043B99464346551E7A6BD9
:1012A0005B0092463A6A434494465B00063B1B1936
:1012B0009B009A44BB694E461B199B006344FB622A
:1012C000A3005B42FB635B46BB604346AB467B606F
:1012D0003C60FE207A6BF3009B1BD15880050CF01C
:1012E000AEFFBD6AB1462E00FC6A7864FB6B4A46CD
:1012F0009846A0444346786C99580CF0B4FF434696
:101300004A4698505B46051C002B22DD534619685F
:101310000CF0A9FF011C20680CF08BFF5B462060DD
:10132000012B16D05346281C59680CF09CFF011C59
:1013300060680CF07EFF5B466060022B09D053466C
:10134000281C99680CF08FFF011CA0680CF071FF3D
:10135000A0603B6C01361834B342C7DC18235B42F3
:101360009C464E465B46043EE244013B01D39B460D
:10137000AFE7BB6848219B467B683C689846FB6AA0
:101380007918BB640623FB64019400933B6BBA6B32
:10139000786AFFF775F9002C0ADC4346022B2FD040
:1013A00002239846BB6372E74B46A046FB616EE79B
:1013B00026007A6BFB699446BA6B4821062599464C
:1013C0004446904673009B19DB0063445846BB6457
:1013D00079183300FD64FFF7F7F943464946482082
:1013E000B964FD640293049603953A6B00930192ED
:1013F000330059467A6A3818FFF718FC043C3DE779
:101400003C69FB68BA6A1B1B12195D469B46052A9C
:1014100000DC15E7BD4615B0F0BCBB46B246A94698
:10142000A046F0BD0F21A8B027336B4456688B430C
:101430009A46002E00D0ECE60F220B4DA8B02736BE
:1014400028006E44964311F0FFFC084C002800D1A0
:10145000E7E68023DB012360802328001B03636011
:10146000A36011F00DFDDCE6D42503203026032017
:10147000F0B55746DE464E464546E0B5136897B090
:1014800006AFF861B9617B62002B00D1E1E05368DF
:101490009846002B00D1E7E0834D280011F0D4FCE2
:1014A000824C002800D0EDE0602160680CF046F826
:1014B0008510AD00042D00DA042506239A4600238A
:1014C00056467E63AE4200DD7D635A00D21851005D
:1014D000D2003961110041443962796BBD6089469F
:1014E000B96999448C4662443A6300229246424666
:1014F00054469A46FA607E6006231B1B1E007B61E1
:10150000042B00DD0426731E9B46FB69E20098460F
:10151000121B920090443A6B3C605B4615005446A7
:10152000002B3DDDB2462600FC62BA6243462C68C1
:101530005968201C0CF097FE011C68680CF079FEBD
:101540005B466860012B16D04346201C99680CF05E
:101550008AFE011CA8680CF06CFE5B46A860022B9A
:1015600009D04346201CD9680CF07DFE011CE868B8
:101570000CF05FFEE86001361835B145D6DCFB6A39
:1015800056469A4601235B429C461D33E3449C46E3
:101590005B46BA6A544604321500E044002BC1DCB5
:1015A000013B00D379E07B6938219D1B3B6B3C6894
:1015B000BB630623FB630194009332007B6B386AA4
:1015C0007918FFF75DF8002D2ADDA3199846FA690E
:1015D000630094461B195B0043449B006344BB6358
:1015E00038210623786A3200FB6379182B00834682
:1015F000FFF7EAF83A69382042449300BA6959463D
:1016000094466344BB630623FB63049403930296EE
:101610007B6B009601933A6A2B003818FFF706FBA4
:101620003B6B10333B63002C01D1042464E7FB685F
:10163000BD68984653467E685B19761B052B00DC17
:101640003FE7BD4611B0F0BCBB46B246A946A04636
:10165000F0BD0F21A8B027336B448B437B625368E6
:101660009846002B00D017E70F220F4DA8B0273364
:101670006B4493432800984611F0E6FB0B4C00287E
:1016800000D111E78023DB012360802328001B03A6
:101690006360A36011F0F4FB06E79B461C239C46A5
:1016A0000432E04439E7C046D42503203026032025
:1016B000F0B5DE4657464E464546E0B5E04AE14BBA
:1016C0008BB0176818600C1CDF4B51681F605960A5
:1016D000DE4B88469B460890594658461E684D6822
:1016E000DB4B8968C0681E605D609960D860D94B2B
:1016F000069205905A6898680491019019680092C2
:10170000DB68381C029303910CF0ADFD0199814612
:1017100040460CF0A8FD011C48460CF08DFDCE4B58
:1017200081461968201C9A460CF09DFD011C484614
:101730000CF082FDC94B009918600790381C99463F
:101740000CF091FD0299071C40460CF08CFD011C29
:10175000381C0CF071FD5346071C5968201C0CF016
:1017600082FD011C381C0CF067FD4F46039909905F
:101770007860301C0CF077FD019F041C391C281C7C
:101780000CF071FD011C201C0CF056FD009A041C8D
:10179000111C301C91460CF066FD029A061C111CAF
:1017A000281C90460CF05FFD011C301C0CF044FD21
:1017B0000399824604980CF056FD391C051C0598C7
:1017C0000CF051FD011C281C0CF036FD4D463E1C52
:1017D000291C071C04980CF046FD4246051C111CF0
:1017E00005980CF040FD011C281C0CF025FD8046DE
:1017F0000398211C81460CF036FD391C051C301C59
:101800000CF031FD011C281C0CF016FD944E3168C3
:101810000CF012FD934D51460390286048460CF0A1
:1018200022FD4146814601980CF01DFD011C4846F1
:101830000CF002FD71680CF0FFFC211C0190686047
:1018400000980CF010FD391C029F041C381C0CF091
:101850000AFD011C201C0CF0EFFCB1680CF0ECFC44
:101860005146041CA86000980CF0FDFCB9464146A6
:10187000071C48460CF0F7FC011C381C0CF0DCFC83
:10188000F1680CF0D9FCE860774D071C2E680398CE
:10189000311C0CF0E8FC6D688146291C381C00974F
:1018A0000CF0E1FC291C804601980CF0DCFC494658
:1018B0000CF0C2FC311C0CF0D6FC311C071C201CA7
:1018C0000CF0D1FC41460CF0B7FC291C0CF0CBFC11
:1018D000011C381C0CF0B0FC644B19680CF0ACFC1B
:1018E000634B071C1860291C201C0CF0BCFC4946EB
:1018F0000CF0A2FC391C0CF0A2FC5E4981468A4621
:1019000008600198311C0CF0AEFC41460CF094FCD0
:10191000391C0CF094FC5146804648600798311CF5
:101920000CF0A1FC099B071C291C181C9A460CF002
:101930009AFC011C381C0CF07FFC011C08980CF070
:1019400078FC4946071C0CF08EFC07990CF074FCDF
:10195000069A41461060381C0CF085FC51460CF08C
:101960006BFC069A82465060311C48460CF07BFCAA
:10197000414F011C38680CF05CFC311C0290404661
:101980000CF071FC011C78680CF053FC291C061C3F
:1019900048460CF068FC011CB8680CF04AFC291C95
:1019A000814640460CF05FFC011CF8680CF041FCDD
:1019B0000299051C03980CF056FC019F804649468D
:1019C000381C0CF050FC011C40460CF035FC5A460B
:1019D000311C106003980CF046FC291C8046381C12
:1019E0000CF041FC011C40460CF026FC5B460299C1
:1019F0005860201C0CF037FC009B4946071C181C43
:101A000098460CF030FC011C381C0CF015FC5B46B1
:101A1000311C9860201C0CF026FC291C041C40463C
:101A20000CF021FC011C201C0CF006FC5B46D8606D
:101A300050460BB0F0BCBB46B246A946A046F0BD2E
:101A4000403C032050480320183203208029002006
:101A5000C0290020E0290020442D0320503C032011
:101A6000D0280020A0290020643C03201824032053
:101A70000C32032060360020002A0020F0B5DE463C
:101A800057464E464546E0B56A4B85B0596898467C
:101A90000CF0CFFB684B041C1860684B99461B6820
:101AA0009B46674B59461D680CF0C6FB291C0CF081
:101AB000DAFB644B061C1868011C0CF0BDFB011C12
:101AC000301C0CF0BCFB604E31680CF0B5FB5F4B7A
:101AD000019030601868011C0CF0AEFB5C4B02906A
:101AE0001F68391C0CF0BFFB8246011C281C0CF03F
:101AF000A3FB291C061C50460CF09BFB554A1168A1
:101B000092460CF0B0FB311C0CF099FB391C039091
:101B1000381C0CF091FB5946071C201C0CF089FB6B
:101B2000011C381C0CF09FFB311C0CF088FB011CC5
:101B300003980CF081FB524601991060061C201C92
:101B40000CF07AFB311C0CF077FB434B19680CF05E
:101B50008AFB424B1860424B18604B461C60434660
:101B600019680CF066FB3F4B041C18603E4B99460D
:101B70001B68191C9A460CF05FFB291C0CF073FBC8
:101B80003A4B071C1868011C0CF056FB011C381C52
:101B90000CF055FB364B984619680CF04DFB43464C
:101BA0001860344B071C1B680298191C98460CF0EF
:101BB0005AFB0190011C281C0CF03EFB4146834659
:101BC00040460CF039FB51468046201C0CF031FB9E
:101BD000011C40460CF047FB59460CF030FB291C19
:101BE000804601980CF025FB311C0CF03CFB59465B
:101BF0000CF025FB011C40460CF01EFB1E4B051C87
:101C00001860391C201C0CF017FB291C0CF014FB6D
:101C10001A4B19680CF027FB194B1860194B186008
:101C20004B461C6005B0F0BCBB46B246A946A04678
:101C3000F0BDC046403C0320BC2D032010320320E1
:101C4000DC210020E821002004320320D0210020E4
:101C500078360020A02D0320EC210020A847032087
:101C600098470320C02D032014320320E0210020D8
:101C7000083203207C360020A42D0320E42100201C
:101C8000AC470320D8470320F8B5FE250024194BA4
:101C9000AD051D609C605C60DD60174B174F1D60DB
:101CA0009C605C60DD60164B1E68164B301C19682A
:101CB0000CF0C5FA144B38601D605C609C60DD6000
:101CC000124B7C601D605E609C60DD60104B1C6090
:101CD0005D60104B104D1868011C0CF0C4FA0F4ADF
:101CE0000F4B126828601A600E4A9C6012685C6094
:101CF000DA60F8BD80290020A0290020442D0320AF
:101D0000DC210020D8210020002A0020E02900202A
:101D1000643C0320D421002018240320082403203D
:101D2000D028002004240320F0B5DE4657464E4656
:101D30004546E0B50E0001688DB089464168876868
:101D40008B460569C16808934369806904910790CF
:101D500011685068926809910A90291C30680B92AA
:101D6000069305950CF065FA0699824670680CF0AA
:101D700060FA0799051CB0680CF05BFA8046089879
:101D80000CF0F6FA80231B065344009001911800D2
:101D900059460CF068FA391C061C281C03970CF0F5
:101DA00062FA011C301C0CF044FA0499061C4046EF
:101DB0000CF059FA011C301C0CF03BFA0CF0D8FA6C
:101DC0000022684B169C0BF024FE009A019B0BF03E
:101DD00020FE060048460F000CF0CAFA02000B0075
:101DE000300039000BF0EEFD0BF0CAFE49462060D2
:101DF00050460CF038FA0399061C40460CF033FAB2
:101E0000011C301C0CF018FA0499061C281C0CF05C
:101E10002AFA011C301C0CF00CFA0CF0A9FA002272
:101E2000504B0BF0F6FD009A019B0BF0F2FD060003
:101E300058460F000CF09CFA02000B0030003900ED
:101E40000BF0C0FD0BF09CFE49466060281C0CF0B6
:101E50000AFA5946061C40460CF005FA011C301CD3
:101E60000CF0E7F90499061C50460CF0FCF9011C33
:101E7000301C0CF0E1F90CF07BFA0022394B0BF02E
:101E8000C8FD009A019B0BF0C4FD060003980F00EB
:101E90000CF06EFA02000B00300039000BF092FDDE
:101EA0000BF06EFE4946A06040460CF0DCF9594646
:101EB000061C281C0CF0D7F9011C301C0CF0BCF9D6
:101EC0000399051C50460CF0CEF9011C281C0CF09F
:101ED000B0F90CF04DFA0022224B0BF09AFD009A5B
:101EE000019B0BF096FD060004980F000CF040FAE1
:101EF00002000B00300039000BF064FD0BF040FED7
:101F0000059B0999E060181C98460CF0ACF9089DF7
:101F1000291C0CF0A8F9011C40460CF08AF9069F18
:101F20000A992061381C0CF09EF9291C0CF09BF9D1
:101F3000011C381C0CF07DF9079E0B996061301C68
:101F40000CF091F9291C0CF08EF9011C301C0CF0DE
:101F500070F9A06100200DB0F0BCBB46B246A946A6
:101F6000A046F0BD0000E03FF0B5DE4657464E46C5
:101F70004546E0B5C568466893B0046887688846FA
:101F8000301C291C934602930CF06DF98146391CD4
:101F9000201C0CF068F94A460890011C101C0592A0
:101FA0000CF047F90CF0E4F902000B000BF00AFD0D
:101FB0000690079158460CF0DBF902000B000698DA
:101FC0000799009201930BF024FD0BF0D9FD4346D5
:101FD000291C1860381C0CF046F98146311C201C65
:101FE0000CF041F94B460C90011C181C09930CF0A5
:101FF00023F90CF0BDF902000B000BF0E3FC02002A
:102000000B00009801990A920B930BF002FD0BF064
:10201000B7FD4346211C5860201C0CF024F9814672
:10202000311C301C0CF01FF94B460E90011C181C83
:102030000D930CF0FEF8391C0F90381C0CF013F9BE
:10204000291C8246281C0CF00EF9814651460F9837
:102050000CF0EFF849460CF0EFF8594610900CF0F0
:1020600002F94346391C9860301C0CF0FCF8291C1E
:102070008346201C0CF0F7F811901C980CF078F9AE
:1020800006001D980F000CF073F9009001910E9955
:102090000D980CF0D1F851460CF0CBF849460CF0F5
:1020A000C8F802990CF0DFF80CF062F904000D009A
:1020B000584611990CF0C0F80CF05AF902000B00C8
:1020C0000BF080FC32003B000BF0A3FC02000B0085
:1020D000200029000BF076FC009A019B04000D0003
:1020E000069807990BF095FC02000B0020002900D0
:1020F0000BF068FC0BF044FD4346D86002980CF0EE
:1021000037F904000D00584611990CF092F80CF0C4
:102110002FF902000B000BF055FC22002B0002945B
:1021200003950BF076FC04000D000F9851460CF05F
:1021300083F849460CF07DF81C990CF094F80CF0EB
:1021400017F902000B00200029000BF03BFC009A5D
:10215000019B04000D000A980B990BF05AFC020039
:102160000B00200029000BF02DFC0BF009FD43466D
:102170000899186105980CF05FF80CF0F9F8020066
:102180000B000BF01FFC029A039B0BF042FC0400B7
:102190000D0009980C990CF04CF80CF0E9F80200CD
:1021A0000B000BF00FFC32003B000BF032FC020086
:1021B0000B00200029000BF005FC04000D00109816
:1021C0001D990CF050F80CF0D3F802000B00200021
:1021D00029000BF0F7FB0BF0D3FC434658610020BD
:1021E00013B0F0BCBB46B246A946A046F0BDC046FF
:1021F000F0B5DE4657464E464546E0B50700101C92
:102200004A68994690460B688A688BB0CE689346B8
:1022100006930CF0ADF8040058460D000CF0A8F839
:10222000C02300221B060BF0F4FB22002B000BF056
:10223000F0FB009001910BF0A3FC07903860301C7C
:102240000CF096F802000B000BF0BCFB22002B00F8
:102250000BF0DFFB0BF094FC8246B86106980CF0A3
:1022600087F8C02300221B060BF0D3FB22002B00B3
:102270000BF0CFFB02000B00029203930BF080FCEB
:10228000386340460CF074F802000B000BF09AFB28
:1022900022002B000BF0BDFB80250C0003002D0657
:1022A0000493059400240BF06BFC9023AC46039A36
:1022B000B8643C66BC67FC50029B624411007860C5
:1022C00018000BF05DFC009B051CF86118008023D2
:1022D00052461B069C467A63019A624411000BF039
:1022E0004FFC9423F8647C66FC67FC50BD6080253D
:1022F0002D06AC46059A049B6244110018000BF0B1
:102300003FFC079B5246BB6380233A653862BC663C
:10231000FC501833FC50069B4946181C9A460BF09B
:10232000A2FF14990290301C0BF09DFF15990490A8
:1023300058460BF098FF0499051C02980BF07CFF9F
:10234000291C07950BF075FF011C0BF075FF494622
:102350000890F86040460BF086FF1499051C58461B
:102360000BF081FF011C281C0BF066FF1599051C62
:10237000301C0BF078FF011C281C0BF05DFF802542
:10238000011C0BF059FF2D065D4449460090786210
:1023900028000BF068FF1499051C40460BF063FF02
:1023A000534683461599181C0BF05DFF824659462B
:1023B000281C09950BF040FF51460BF03AFF802591
:1023C000011C0BF039FF2D064946F86370190BF01C
:1023D0004AFF1499051C06980BF045FF1599814694
:1023E00040460BF040FF4946061C281C0BF024FF1A
:1023F000311C0BF021FF011C0BF01EFF84237865BC
:10240000FC66FC501833FC5038618020000684467E
:10241000099A5946624410000BF00BFF51460BF02D
:102420000BFF011C0BF008FF802212069446009B54
:102430008246B86202983B64604404990BF0F9FE4E
:1024400007990BF0F9FE011C0BF0F6FE88238021A2
:10245000B86550463C670906FC501833FC5078615B
:10246000681849460BF0E5FE311C0BF0E2FE011C3A
:102470000BF0E2FE009BF862FB658C230020089ABB
:102480007C677A64FC501833FC500BB0F0BCBB4640
:10249000B246A946A046F0BDF0B557464E46DE46C8
:1024A0004546E0B5EFB00B000AA98C46D72262443E
:1024B000120915019A685E680D920EAA9246C4220E
:1024C0009446B44462460192942293460C3291465B
:1024D00052460395554682461F6802920493F1685E
:1024E000B86C0BF0C0FE3169041C386E0BF0BBFEFB
:1024F000011C201C0BF0A0FE7169041CB86F0BF0CE
:10250000B2FE9023B1698046F8580BF0ACFE011C76
:1025100040460BF091FE011C201C0BF08DFE7168F3
:10252000041CB8690BF09FFEB1688046386B0BF055
:102530009AFE011C40460BF07FFE316880463868E9
:102540000BF091FE011C40460BF076FE011C201C96
:102550000BF072FE2860F168F86C0BF084FE3169B4
:10256000041C786E0BF07FFE011C201C0BF064FE37
:102570007169041CF86F0BF076FE5B46B16980460A
:10258000F8580BF070FE011C40460BF055FE011C84
:10259000201C0BF051FE7168041CF8690BF063FEFF
:1025A000B1688046786B0BF05EFE011C40460BF074
:1025B00043FE3168804678680BF055FE011C4046AA
:1025C0000BF03AFE011C201C0BF036FE6860F1682F
:1025D000386D0BF048FE3169041CB86E0BF043FEF9
:1025E000011C201C0BF028FE80237169041CF85884
:1025F0000BF039FE9823B1698046F8580BF033FE92
:10260000011C40460BF018FE011C201C0BF014FEB0
:102610007168041C386A0BF026FEB1688046B86BFE
:102620000BF021FE011C40460BF006FE316880468F
:10263000B8680BF018FE011C40460BF0FDFD011CB4
:10264000201C0BF0F9FDA860F168786D0BF00BFE13
:102650003169041CF86E0BF006FE011C201C0BF007
:10266000EBFD84237169041CF8580BF0FCFD9C23DE
:10267000B1698046F8580BF0F6FD011C40460BF09E
:10268000DBFD011C201C0BF0D7FD7168041C786A6F
:102690000BF0E9FDB1688046F86B0BF0E4FD011C1E
:1026A00040460BF0C9FD31688046F8680BF0DBFD51
:1026B000011C40460BF0C0FD011C201C0BF0BCFDB2
:1026C000E860F168B86D0BF0CEFD3169041C386F1D
:1026D0000BF0C9FD011C201C0BF0AEFD88237169B5
:1026E000041CF8580BF0BFFD4B46B1698046F85802
:1026F0000BF0B9FD011C40460BF09EFD011C201C97
:102700000BF09AFD7168041CB86A0BF0ACFDB1685F
:102710008046386C0BF0A7FD011C40460BF08CFD89
:102720003168804638690BF09EFD011C40460BF075
:1027300083FD011C201C0BF07FFD2861F168F86D02
:102740000BF091FD3169041C786F0BF08CFD011CBE
:10275000201C0BF071FD8C237169041CF8580BF0E0
:1027600082FDA423B1698046F8580BF07CFD011C62
:1027700040460BF061FD011C201C0BF05DFD7168F3
:10278000041CF86A0BF06FFDB1688046786C0BF0A2
:102790006AFD011C40460BF04FFD316880467869A8
:1027A0000BF061FD011C40460BF046FD011C201C96
:1027B0000BF042FD019B1C3668611835B34200D016
:1027C0008DE62022029B914654469A46039D08942A
:1027D000A944079554464D4632AA049B0D9E059286
:1027E00014AA389606920993A06C23688146019337
:1027F000206E059B8046216B01CBA269039104905A
:10280000B16C4846029205930BF02DFD316E824665
:1028100040460BF028FD011C50460BF00DFDA76F44
:102820008246B16F381C0BF01EFD90238346F15891
:1028300004980BF018FD011C58460BF0FDFC011C20
:1028400050460BF0F9FCB169824602980BF00BFD83
:10285000316B834603980BF006FD011C58460BF0C4
:10286000EBFC3168834601980BF0FDFC011C5846D7
:102870000BF0E2FC011C50460BF0DEFC2860F16C12
:1028800048460BF0F0FC716E824640460BF0EBFCC4
:10289000011C50460BF0D0FCF16F8246381C0BF047
:1028A000E2FC94238346F15804980BF0DCFC011CF5
:1028B00058460BF0C1FC011C50460BF0BDFCF16901
:1028C000824602980BF0CFFC716B834603980BF0A5
:1028D000CAFC011C58460BF0AFFC71688346019896
:1028E0000BF0C1FC011C58460BF0A6FC011C504625
:1028F0000BF0A2FC6860316D48460BF0B4FCB16E81
:10290000824640460BF0AFFC011C50460BF094FC95
:1029100080238246F158381C0BF0A5FC982383468F
:10292000F15804980BF09FFC011C58460BF084FCF6
:10293000011C50460BF080FC316A824602980BF075
:1029400092FCB16B834603980BF08DFC011C58463A
:102950000BF072FCB168834601980BF084FC011CFB
:1029600058460BF069FC011C50460BF065FCA86052
:10297000716D48460BF077FCF16E824640460BF0D5
:1029800072FC011C50460BF057FC84238246F15820
:10299000381C0BF068FC9C238346F15804980BF01C
:1029A00062FC011C58460BF047FC011C50460BF022
:1029B00043FC716A824602980BF055FCF16B83462A
:1029C00003980BF050FC011C58460BF035FCF168E5
:1029D000834601980BF047FC011C58460BF02CFC79
:1029E000011C50460BF028FCE860B16D48460BF026
:1029F0003AFC316F824640460BF035FC011C5046D4
:102A00000BF01AFC88238246F158381C0BF02BFC83
:102A1000A0238346F15804980BF025FC011C58466E
:102A20000BF00AFC011C50460BF006FCB16A824612
:102A300002980BF018FC316C834603980BF013FCE2
:102A4000011C58460BF0F8FB3169834601980BF0E6
:102A50000AFC011C58460BF0EFFB011C50460BF022
:102A6000EBFB2861F16D48460BF0FDFB716F814671
:102A700040460BF0F8FB011C48460BF0DDFB8C23B5
:102A80008046F158381C0BF0EEFBA423071CF158CC
:102A900004989B460BF0E7FB011C381C0BF0CCFBA9
:102AA000011C40460BF0C8FBF16A071C02980BF0B2
:102AB000DAFB716C804603980BF0D5FB011C404695
:102AC0000BF0BAFB7169804601980BF0CCFB011C3E
:102AD00040460BF0B1FB011C381C0BF0ADFB069B14
:102AE0000434686118359C4200D07DE6099B079D3F
:102AF000DE68296A30680BF09FFB089CA96B206098
:102B000070680BF099FB6060B068296D0BF094FB66
:102B1000A060F068A96E0BF08FFB8027E060306941
:102B2000E9590BF089FB98232061E95870690BF093
:102B300083FB6061B069696A0BF07EFBA061F0699C
:102B4000E96B0BF079FBE061306A696D0BF074FBA7
:102B50002062E96E706A0BF06FFB84236062E958B3
:102B6000B06A0BF069FB9C22A062F06AA9580BF0D6
:102B700063FBE062306BA96A0BF05EFB2063706B55
:102B8000296C0BF059FB6063B06BA96D0BF054FB23
:102B9000A063F06B296F0BF04FFB8822E063A9580C
:102BA000306C0BF049FBA0212064706C69580BF06D
:102BB00043FB6064E96AB06C0BF03EFBA064696C97
:102BC000F06C0BF039FBE064306DE96D0BF034FB19
:102BD0002065716D686F0BF02FFB60658C20B16D07
:102BE00028580BF029FB5B46A065F16DE8580BF007
:102BF00023FBE065316E286B0BF01EFB2066716EC7
:102C0000A86C0BF019FB6066B16E286E0BF014FB1C
:102C1000A066F16EA86F0BF00FFB9023E066316F9A
:102C2000E8580BF009FBA8232067716FE8580BF0F8
:102C300003FB6067B16F686B0BF0FEFAA067F16F82
:102C4000E86C0BF0F9FAE067F159686E0BF0F4FAF2
:102C5000E0510437F159E86F0BF0EEFA9423E0519C
:102C60000437F159E8580BF0E7FAAC23E051043788
:102C7000F159E8580BF0E0FAE0516FB0F0BCBB46F8
:102C8000B246A946A046F0BDF0B5DE4657464E46D0
:102C900045460400E0B5006961694000490089B01B
:102CA000490840080BF0C8FAE168490049080BF0F0
:102CB000C3FA6368A1685B004900051C490858080D
:102CC0000BF0BAFA2168490049080BF0B5FA011C6B
:102CD000281C0BF0B1FAE16A071CA06A4900400009
:102CE000490840080BF0A8FA616A490049080BF04E
:102CF000A3FA216A051CE069490040004908400820
:102D00000BF09AFAA169490049080BF095FA011CE9
:102D1000281C0BF091FA616C061C206C49004000E5
:102D2000490840080BF088FAE16B490049080BF0AC
:102D300083FAA16B051C606B4900400049084008FC
:102D40000BF07AFA216B490049080BF075FA011C67
:102D5000281C0BF071FA051C011C301C0BF0BAFA90
:102D6000002800D1351C291C381C0BF0B3FA2E1C8E
:102D7000002800D13E1CA06DE16D400049004908CB
:102D800040080BF059FA616D490049080BF054FAFC
:102D9000216D051CE06C49004000490840080BF01B
:102DA0004BFAA16C490049080BF046FA011C281C9B
:102DB0000BF042FA616F071C206F49004000490880
:102DC00040080BF039FAE16E490049080BF034FA7B
:102DD000A16E051C606E49004000490840080BF0D8
:102DE0002BFA216E490049080BF026FA011C281C19
:102DF0000BF022FA88238046E0580433E158400063
:102E00004900490840080BF017FA8423E1584900AB
:102E100049080BF011FA8023051CE158E06F4900C6
:102E20004000490840080BF007FAA16F4900490823
:102E30000BF002FA011C281C0BF0FEF9051C011C0A
:102E400040460BF047FA002800D14546291C381CA3
:102E50000BF040FA002800D13D1C291C301C0BF05F
:102E600039FA002800D1351CC0232100E55003AAFF
:102E7000BA3B04A8A83106930494FDF7CBFC0123C8
:102E80009B465A46C4200025982659469C27039BFA
:102E90001340013B01321340013B23543438255089
:102EA00094356151A2510132E2519D3294466146FE
:102EB0009C3A6250A03291469F3A90464A4641461B
:102EC0002300A1501832A258903392009918019112
:102ED00009688A46494652466250424601990A604C
:102EE000B332A2586146920092469A4452466158C3
:102EF00088461168894661464A46625042465146B4
:102F00000A60B422E159A2588C4692009A181168BE
:102F1000E15161461160B022A258A75992009A1857
:102F20001168A1511760AC22A258665992009A18F4
:102F3000176867511660A822A25892009B181D6856
:102F4000225825501A60C5235A46E25409B0F0BCF5
:102F5000BB46B246A946A046F0BDC046C0230022EB
:102F600010B5C25000220433C2520B680400036043
:102F70004B6843608B688360CB68C3600B690361F7
:102F80004B6943618B698361CB69C3610B6A0362DF
:102F90004B6A43628B6A8362CB6AC3620B6B0363C7
:102FA0004B6B43638B6B8363CB6BC3630B6C0364AF
:102FB0004B6C43648B6C8364CB6CC3640B6D036597
:102FC0004B6D43658B6D8365CB6DC3650B6E03667F
:102FD0004B6E43668B6E8366CB6EC3660B6F036767
:102FE0004B6F43678B6F8367CB6FC3678023CA5870
:102FF000C2500433CA58C2500433CA58C2500433B2
:10300000CA58C250FFF740FE200010BDF0B5DE46A2
:103010004E4657464546E0B5214C1500A5443EAA0C
:1030200094460A0036931F4B359063441B091E01DA
:103030001B910A96A1AB13CA13C313CA13C3126818
:1030400019491A600A68194B3891194937931B6856
:1030500001920A6846AC894620000092A1A9154A4F
:10306000FFF7C6F83EABEB229C463E95A295D200F8
:1030700086256244B4461268ED0065442800A49297
:10308000A1A970AAA194A394FFF706FA4B460B9549
:103090003500270034946AAA3E9C09920C930BE0F9
:1030A000DCF7FFFF6F020000CC220320D4220320B4
:1030B000D02203200AE81C413B68B86C0293814689
:1030C000099B386E396B804601CBBA690993A823F6
:1030D0000691E158049208900BF0C5F88C23BE6F5E
:1030E000E1588246301C0BF0BEF8011C50460BF034
:1030F000A3F8216F824640460BF0B5F8616D834618
:1031000048460BF0B0F8011C58460BF095F8011C2E
:1031100050460BF091F8A16B824606980BF0A3F88D
:10312000E169834604980BF09EF8011C58460BF0A9
:1031300083F82168834602980BF095F8011C5846E5
:103140000BF07AF8011C50460BF076F8AC2328609F
:10315000E15808980BF087F890238246E158301C1C
:103160000BF081F8011C50460BF066F8616F824647
:1031700040460BF078F8A16D834648460BF073F893
:10318000011C58460BF058F8011C50460BF054F83F
:10319000E16B824606980BF066F8216A8346049834
:1031A0000BF061F8011C58460BF046F86168834645
:1031B00002980BF058F8011C58460BF03DF8011C22
:1031C00050460BF039F8B0236860E15808980BF0CE
:1031D0004AF894238246E158301C0BF044F8011C55
:1031E00050460BF029F8A16F824640460BF03BF8A1
:1031F000E16D834648460BF036F8011C58460BF04B
:103200001BF8011C50460BF017F8216C82460698FB
:103210000BF029F8616A834604980BF024F8011C2E
:1032200058460BF009F8A168834602980BF01BF88A
:10323000011C58460BF000F8011C50460AF0FCFF38
:10324000B423A860E15808980BF00DF89823824643
:10325000E158301C0BF007F8011C50460AF0ECFF57
:10326000E16F824640460AF0FEFF216E83464846E3
:103270000AF0F9FF011C58460AF0DEFF011C504617
:103280000AF0DAFF616C824606980AF0ECFFA16A48
:10329000834604980AF0E7FF011C58460AF0CCFF69
:1032A000E168834602980AF0DEFF011C58460AF0E6
:1032B000C3FF011C50460AF0BFFFB823E860E15885
:1032C00008980AF0D0FF9C238246E158301C0AF08F
:1032D000CAFF011C50460AF0AFFF80238246E15826
:1032E00040460AF0C0FF616E834648460AF0BBFFC5
:1032F000011C58460AF0A0FF011C50460AF09CFF32
:10330000A16C824606980AF0AEFFE16A83460498F3
:103310000AF0A9FF011C58460AF08EFF2169834676
:1033200002980AF0A0FF011C58460AF085FF011C14
:1033300050460AF081FFBC232861E15808980AF042
:1033400092FFA0238246E158301C0AF08CFF011C3A
:1033500050460AF071FF84238246E15840460AF045
:1033600082FFA16E834648460AF07DFF011C584645
:103370000AF062FF011C50460AF05EFFE16C8246D3
:1033800006980AF070FF216B834604980AF06BFFE1
:10339000011C58460AF050FF6169834602980AF002
:1033A00062FF011C58460AF047FF011C50460AF014
:1033B00043FFE16E686148460AF055FF8823814665
:1033C000E15840469B460AF04EFF011C48460AF071
:1033D00033FFA4238046E158301C0AF044FFC02389
:1033E000061CE15808980AF03EFF011C301C0AF048
:1033F00023FF011C40460AF01FFF616B061C049866
:103400000AF031FF216D804606980AF02CFF011C5E
:1034100040460AF011FFA169804602980AF023FF96
:10342000011C40460AF008FF011C301C0AF004FF92
:1034300004374CABA8611C359F4200D03CE60C9B86
:103440000A9E9946D8239B009C4634000B9D6444F9
:1034500029002000FFF782FDA42292009446330049
:1034600063442100902218009A460BF075F9C82396
:103470009B009C463400D033644431009C461822A3
:10348000614420000BF068F9CE239B009C4630007D
:10349000D033310060449C46182261440BF05CF943
:1034A000D4228421920094463300C9006344320040
:1034B0008C46624412687A491A60D522920094467A
:1034C0003300320063448C4630006244B0301288CE
:1034D0008446FE21C9251A800023226889059200AE
:1034E0006244AD0011609361136393641366936744
:1034F000AC463200CA25624484461268AD00920090
:103500006244136091611363936413669367AC46DE
:103510003200CB25624484461268AD0092006244BA
:10352000136093611163936413669367AC46320032
:10353000CC25624484461268AD0092006244136058
:10354000AC46936113639164136693673200CD2593
:10355000624484461268AD00920062441360936135
:103560001363936411669367AC46320062448446E9
:1035700034001268A826920062449167210013600B
:1035800093611363936413660622062376000F008B
:103590008025A4198C46A260E36006237137AD0034
:1035A0006544FF37236122008F510A916560010055
:1035B000029050469846FDF75BFF06220623A26064
:1035C000E36042460A9B22619F5122006560029C93
:1035D00050462100FDF70AFE0A9BA1AF1A68069229
:1035E000DA6908929A6B09925A6D0A921A6F0B92D5
:1035F0008C229A580C925A680D921A6A0E92DA6BC3
:103600000F929A6D10925A6F119290229A581292BC
:103610009A6816925A6A14921A6C1792DA6D189276
:103620009A6F199294229A581A92DA681C929A6A9E
:103630001D925A6C1E921A6E1F92DA6F2092982277
:103640009A5821921A692292DA6A23929A6C2492E9
:103650005A6E259280229A5826929C229A58279236
:103660005A6928921A6B2992DA6C2A929A6E2B92D6
:1036700084229A582C92A0229A582D929A692E92BE
:103680005A6B2F921A6D3092DA6E31925A469A58CE
:103690003292A4229B5833934B46399302E0C046A2
:1036A00024040000636862699946A3684946984605
:1036B000E3680898029304920AF0D5FD41468246D9
:1036C00009980AF0D0FD011C50460AF0B5FD2668A5
:1036D0008246311C06980AF0C6FD011C50460AF0CD
:1036E000ABFD25698246291C0B980AF0BCFD0499A4
:1036F00083460C980AF0B7FD011C58460AF09CFD61
:10370000029983460A980AF0AEFD011C58460AF059
:1037100093FD011C50460AF08FFD0E993860484613
:103720000AF0A1FD0F99824640460AF09CFD011C5B
:1037300050460AF081FD0D998246301C0AF093FD37
:10374000011C50460AF078FD11998246281C0AF0A7
:103750008AFD1299834604980AF085FD011C58469B
:103760000AF06AFD1099834602980AF07CFD011C5C
:1037700058460AF061FD011C50460AF05DFD14999F
:10378000786048460AF06FFD1799824640460AF075
:103790006AFD011C50460AF04FFD16998246301C06
:1037A0000AF061FD011C50460AF046FD1999824657
:1037B000281C0AF058FD1A99834604980AF053FD14
:1037C000011C58460AF038FD1899834602980AF001
:1037D0004AFD011C58460AF02FFD011C50460AF014
:1037E0002BFDB8601D9948460AF03DFD1E998246A2
:1037F00040460AF038FD011C50460AF01DFD1C9998
:103800008246301C0AF02FFD011C50460AF014FDC0
:1038100020998246281C0AF026FD219983460498A7
:103820000AF021FD011C58460AF006FD1F99834647
:1038300002980AF018FD011C58460AF0FDFC011C14
:1038400050460AF0F9FC2399F86048460AF00BFD4F
:103850002499824640460AF006FD011C50460AF0B3
:10386000EBFC22998246301C0AF0FDFC011C5046FC
:103870000AF0E2FC26998246281C0AF0F4FC2799FB
:10388000834604980AF0EFFC011C58460AF0D4FC69
:103890002599834602980AF0E6FC011C58460AF076
:1038A000CBFC011C50460AF0C7FC299938614846F8
:1038B0000AF0D9FC2A99824640460AF0D4FC011C41
:1038C00050460AF0B9FC28998246301C0AF0CBFC1D
:1038D000011C50460AF0B0FC2C998246281C0AF0C4
:1038E000C2FC2D99834604980AF0BDFC011C584681
:1038F0000AF0A2FC2B99834602980AF0B4FC011C42
:1039000058460AF099FC011C50460AF095FC2F9984
:10391000786148460AF0A7FC3099814640460AF093
:10392000A2FC011C48460AF087FC2E998046301CF8
:103930000AF099FC011C40460AF07EFC3299061CF4
:10394000281C0AF090FC3399051C04980AF08BFCA3
:10395000011C281C0AF070FC3199051C02980AF021
:1039600082FC011C281C0AF067FC011C301C0AF0B8
:1039700063FCCBABB8611C3718349F4200D091E692
:10398000399BA29A9946A19BA399A49CA59DA69E0A
:10399000A79F06930892A89BA99A09910A94AA99AD
:1039A000AB9C0B950C96AC9DAD9E0D970E93AE9F68
:1039B000AF9B0F92B09A109111941295169614978E
:1039C00017931892B199B29CB39DB49EB59FB69BC4
:1039D000B79A19911A94B899B99C1C951D96BA9DDD
:1039E000BB9E1E971F93BC9FBD9B20922191BE9AA8
:1039F000BF992294C09C24962597269327922891BC
:103A000029942395C19DC29EC39FC69AC49BC79902
:103A1000C89C2A952B96C99DCA9E2C97C59F2E920D
:103A20001B9A2D9333972F91309431953296A1ABF9
:103A300013CA13C313CA13C31268A1AC1A6038990E
:103A4000379B0A6849461B6801920A682000009269
:103A500040A9FE4AFEF788FA369E409930680AF07F
:103A6000E8FB4199834670680AF0E3FB429982467D
:103A7000B0680AF0DEFB43998146F0680AF0D9FB92
:103A80004499041C30690AF0D4FB4599051C7069FF
:103A90000AF0CFFB061C011C381C0AF0E4FB291CB1
:103AA000071C27980AF0DFFB011C381C0AF0C4FB36
:103AB000211C071C20980AF0D6FB011C381C0AF0B8
:103AC000BBFB4946071C18980AF0CDFB51468046BF
:103AD0000F980AF0C8FB011C40460AF0ADFB59469E
:103AE000804608980AF0BFFB011C40460AF0A4FB80
:103AF000011C381C0AF0A0FB1B9A51680AF09CFBC1
:103B0000311C02902E980AF0AEFB291C071C289845
:103B10000AF0A9FB011C381C0AF08EFB211C071CB3
:103B200021980AF0A0FB011C381C0AF085FB4946CD
:103B3000071C19980AF097FB5146804610980AF026
:103B400092FB011C40460AF077FB594680460998D3
:103B50000AF089FB011C40460AF06EFB011C381C70
:103B60000AF06AFB1B9A91680AF066FB311C04900C
:103B70002F980AF078FB291C071C29980AF073FB80
:103B8000011C381C0AF058FB211C071C22980AF063
:103B90006AFB011C381C0AF04FFB4946071C1A98A7
:103BA0000AF061FB5146804611980AF05CFB011C4B
:103BB00040460AF041FB594680460A980AF053FBFA
:103BC000011C40460AF038FB011C381C0AF034FB8B
:103BD0001B9AD1680AF030FB311C369030980AF0FD
:103BE00042FB291C071C2A980AF03DFB011C381CCB
:103BF0000AF022FB211C071C23980AF034FB011C4D
:103C0000381C0AF019FB4946071C1C980AF02BFBCC
:103C10005146804612980AF026FB011C40460AF0E5
:103C20000BFB594680460B980AF01DFB011C4046D1
:103C30000AF002FB011C381C0AF0FEFA1B9A1169FB
:103C40000AF0FAFA311C379031980AF00CFB291C63
:103C5000071C2B980AF007FB011C381C0AF0ECFA31
:103C6000211C071C24980AF0FEFA011C381C0AF0DB
:103C7000E3FA4946071C1D980AF0F5FA51468046BA
:103C800016980AF0F0FA011C40460AF0D5FA594697
:103C900080460C980AF0E7FA011C40460AF0CCFA7C
:103CA000011C381C0AF0C8FA1B9A51690AF0C4FAC0
:103CB0005146389014980AF0D6FA4946071C1E98C7
:103CC0000AF0D1FA011C381C0AF0B6FA5946071C52
:103CD0000D980AF0C8FA011C381C0AF0ADFA291C2C
:103CE000071C2C980AF0BFFA311C804632980AF063
:103CF000BAFA011C40460AF09FFA211C804625981A
:103D00000AF0B1FA011C40460AF096FA011C381C70
:103D10000AF092FA1B9A91690AF08EFA311C071C7C
:103D20002D980AF0A0FA291C061C26980AF09BFA86
:103D3000011C301C0AF080FA211C051C1F980AF097
:103D400092FA011C281C0AF077FA4946041C1798BD
:103D50000AF089FA5146051C0E980AF084FA011CF3
:103D6000281C0AF069FA5946051C06980AF07BFAE5
:103D7000011C281C0AF060FA011C201C0AF05CFAE5
:103D80001B9AA1AC11680AF057FA359B1860029A89
:103D90009F615A60049A9A60369ADA60379A1A617B
:103DA000389A5A613E9A1368709353687193936876
:103DB0007293D3687393136974935369759393697A
:103DC0007693D3697793136A7893536A7993936A56
:103DD0007A93D36A7B93136B7C93536B7D93936B32
:103DE0007E93D36B7F93136C8093536C8193936C0E
:103DF0008293D36C8393136D8493536D8593936DEA
:103E00008693D36D8793136E8893536E8993936EC5
:103E10008A93D36E8B93136F8C93536F8D93936FA1
:103E20008E93D36F8F938023D35890938423D3584A
:103E300091938823D35892938C23D35893939023B0
:103E4000D35894939423D358959301E00AE81C41E6
:103E50009823D35896939C23D3589793A023D35851
:103E60009893A423D3589993A823D358349D9A9315
:103E7000AC23D3589B93B023D3589C93B423D358EB
:103E80009D93B823D3589E93BC23D3589F93C023AC
:103E9000D358A0936B686A699946AB6849469846BF
:103EA000EB680E98029304920AF0DDF941468246CF
:103EB00017980AF0D8F9011C50460AF0BDF92F688E
:103EC0008246391C06980AF0CEF9011C50460AF0C9
:103ED000B3F92E698246311C26980AF0C4F9049978
:103EE00083462D980AF0BFF9011C58460AF0A4F940
:103EF000029983461F980AF0B6F9011C58460AF049
:103F00009BF9011C50460AF097F9494620600F982A
:103F10000AF0A9F94146824618980AF0A4F9011C52
:103F200050460AF089F9391C824608980AF09BF934
:103F3000011C50460AF080F9311C824627980AF08D
:103F400092F90499834633980AF08DF9011C58467A
:103F50000AF072F90299834620980AF084F9011C4C
:103F600058460AF069F9011C50460AF065F94946BD
:103F7000606010980AF077F94146824619980AF075
:103F800072F9011C50460AF057F9391C824609980B
:103F90000AF069F9011C50460AF04EF9311C8246BC
:103FA00028980AF060F9049983462E980AF05BF984
:103FB000011C58460AF040F90299834621980AF0FC
:103FC00052F9011C58460AF037F9011C50460AF014
:103FD00033F94946A06011980AF045F941468246F6
:103FE0001A980AF040F9011C50460AF025F9391CCC
:103FF00082460A980AF037F9011C50460AF01CF96B
:10400000311C824629980AF02EF9049983462F988C
:104010000AF029F9011C58460AF00EF90299834664
:1040200022980AF020F9011C58460AF005F9011CF3
:1040300050460AF001F94946E06012980AF013F977
:10404000414682461C980AF00EF9011C50460AF0BF
:10405000F3F8391C82460B980AF005F9011C50460A
:104060000AF0EAF8311C82462A980AF0FCF8049912
:10407000834630980AF0F7F8011C58460AF0DCF83D
:104080000299834623980AF0EEF8011C58460AF07C
:10409000D3F8011C50460AF0CFF849462061169823
:1040A0000AF0E1F8414682461D980AF0DCF8011C4E
:1040B00050460AF0C1F8391C82460C980AF0D3F831
:1040C000011C50460AF0B8F8311C82462B980AF0C1
:1040D000CAF80499834631980AF0C5F8011C58467D
:1040E0000AF0AAF80299834624980AF0BCF8011C49
:1040F00058460AF0A1F8011C50460AF09DF84946BE
:10410000606114980AF0AFF8414681461E980AF0A3
:10411000AAF8011C48460AF08FF8391C80460D9811
:104120000AF0A1F8011C40460AF086F8311C071C71
:104130002C980AF098F80499061C32980AF093F823
:10414000011C301C0AF078F80299061C25980AF028
:104150008AF8011C301C0AF06FF8011C381C0AF0A8
:104160006BF8D2ABA0611C3418359C4200D091E6AC
:104170003E9C70AF2300C4330993A19B3F943D93B1
:10418000A89B3C93AF9B3B93B69B3A93BD9B3993C3
:10419000C49B3893CB9B3793A29B3693A99B3493B4
:1041A000B09B3393B79B3293BE9B3193C59B3093A7
:1041B000CC9B2F93A39B2E93AA9B2D93B19B2C93C7
:1041C000B89B2B93BF9B2A93C69B2993CD9B289387
:1041D000A49B2793AB9B2693B29B2593B99B2493D7
:1041E000C09B2393C79B2293CE9B2193A59B209397
:1041F000AC9B1F93B39B1E93BA9B1D93C19B1C93B7
:10420000C89B1A93CF9B1993A69B1893AD9B1793AA
:10421000B49B1493BB9B1693C29B1293C99B11939F
:10422000D09B1093A79B0893AE9B0A93B59B0B93CF
:10423000BC9B0C93C39B0D93CA9B0E93D19B0F9376
:10424000E068A5698146A1682069236862688046A4
:104250000691281C3799029304920AF004F86669C3
:1042600082463899301C09F0FEFF011C504609F0C7
:10427000E3FF39998246404609F0F5FF3A998346B3
:10428000484609F0F0FF011C584609F0D5FF011C13
:10429000504609F0D1FF3B998246069809F0E3FFAA
:1042A0003C998346049809F0DEFF011C584609F04A
:1042B000C3FF3D998346029809F0D5FF011C58467B
:1042C00009F0BAFF011C504609F0B6FF011C38681E
:1042D00009F0AFFF38602F99281C09F0C4FF30990E
:1042E0008246301C09F0BFFF011C504609F0A4FFB4
:1042F00031998246404609F0B6FF329983464846D6
:1043000009F0B1FF011C584609F096FF011C504608
:1043100009F092FF33998246069809F0A4FF349978
:104320008346049809F09FFF011C584609F084FF5A
:1043300036998346029809F096FF011C584609F009
:104340007BFF011C504609F077FF011C786809F0DB
:1043500070FF28997860281C09F085FF299982460A
:10436000301C09F080FF011C504609F065FF2A99B6
:104370008246404609F077FF2B998346484609F06C
:1043800072FF011C584609F057FF011C504609F006
:1043900053FF2C998246069809F065FF2D998346B4
:1043A000049809F060FF011C584609F045FF2E995A
:1043B0008346029809F057FF011C584609F03CFF5C
:1043C000011C504609F038FF011CB86809F031FFA4
:1043D0002199B860281C09F046FF22998246301CBA
:1043E00009F041FF011C504609F026FF239982463F
:1043F000404609F038FF24998346484609F033FFC8
:10440000011C584609F018FF011C504609F014FF22
:1044100025998246069809F026FF26998346049836
:1044200009F021FF011C584609F006FF2799834631
:10443000029809F018FF011C584609F0FDFE011C06
:10444000504609F0F9FE011CF86809F0F2FE1999CE
:10445000F860281C09F007FF1A998246301C09F001
:1044600002FF011C504609F0E7FE1C9982464046B7
:1044700009F0F9FE1D998346484609F0F4FE011C37
:10448000584609F0D9FE011C504609F0D5FE1E9988
:104490008246069809F0E7FE1F998346049809F0C2
:1044A000E2FE011C584609F0C7FE20998346029897
:1044B00009F0D9FE011C584609F0BEFE011C504609
:1044C00009F0BAFE011C386909F0B3FE1099386191
:1044D000281C09F0C8FE11998246301C09F0C3FE61
:1044E000011C504609F0A8FE12998246404609F088
:1044F000BAFE16998346484609F0B5FE011C584697
:1045000009F09AFE011C504609F096FE1499824665
:10451000069809F0A8FE17998346049809F0A3FEAF
:10452000011C584609F088FE18998346029809F044
:104530009AFE011C584609F07FFE011C504609F006
:104540007BFE011C786909F074FE494678610C987D
:1045500009F089FE414681460D9809F084FE011C50
:10456000484609F069FE311C80460E9809F07BFE32
:10457000291C061C0F9809F076FE011C301C09F05E
:104580005BFE011C404609F057FE0499051C0A9881
:1045900009F069FE0699061C0B9809F064FE011CDF
:1045A000301C09F049FE0299061C089809F05BFED0
:1045B000011C301C09F040FE011C281C09F03CFEC7
:1045C000011CB86909F035FE099B1C34B8611C3721
:1045D0009C4200D034E63E99709B0B60719B4B600F
:1045E000729B8B60739BCB60749B0B61759B4B6163
:1045F000769B8B61779BCB61789B0B62799B4B623F
:104600007A9B8B627B9BCB627C9B0B637D9B4B631A
:104610007E9B8B637F9BCB63809B0B64819B4B64F6
:10462000829B8B64839BCB64849B0B65859B4B65D2
:10463000869B8B65879BCB65889B0B66899B4B66AE
:104640008A9B8B668B9BCB668C9B0B678D9B4B678A
:104650008E9B8B678F9BCB678023909ACA50919AD1
:104660000433CA50929A0433CA50939A0433CA50FE
:10467000949A0433CA50959A0433CA50969A0433D4
:10468000CA50979A0433CA50989A0433CA50999AD8
:104690000433CA509A9A0433CA509B9A0433CA50BE
:1046A0009C9A0433CA509D9A0433CA509E9A04338C
:1046B000CA509F9A0433CA50A09A0433CA503EAAE3
:1046C000EA239446DB0063441B6870AA13CB13C231
:1046D000EC23DB0063441B68A1AA13CB13C21B9B12
:1046E000359C00938F4B200063441B68A1AA70A9DE
:1046F000FDF71AFB3EAA94468A4B6344186809F0FA
:1047000037FE3EAAEA23944606000F00DB0063440E
:104710001B682169186809F08CFD09F029FE002248
:10472000814B09F076F932003B0009F072F90290F2
:10473000039109F025FA3EAAEA239446DB0063447C
:104740001B6861690A90586809F073FD09F010FE52
:104750000022754B09F05DF932003B0009F059F970
:104760000490059109F00CFA3EABEA229C46D20077
:1047700062441268A1690B909068359409F059FD64
:1047800009F0F6FD0022684B09F043F932003B00C6
:1047900009F03FF90D00040009F0F2F9359B0C9087
:1047A000586809F0E5FD0022604B09F032F932004B
:1047B0003B0009F02EF90690079109F0E1F9359BCD
:1047C0000D90986809F0D4FD0022584B09F021F9AA
:1047D00032003B0009F01DF902000B001292139306
:1047E00009F0CEF9359B0E90D86809F0C1FD002282
:1047F0004E4B09F00EF932003B0009F00AF90B00AC
:1048000002001492159309F0BBF9029B0F90180057
:1048100080231B069C46039A6244110009F0B0F9FC
:1048200080221206A9181090200009F0A9F9359BE2
:104830001190186809F09CFD00223B4B09F0E9F843
:104840003B008027320009F0E4F83F0609F098F9B0
:10485000129C139DBC462B00634419000890200055
:1048600009F08EF9049E059F1690300080263606CA
:10487000B4463B006344190009F082F9149D159E6B
:1048800080221206944633006344190012902800D7
:1048900009F076F9069C079D8022120694462B00AB
:1048A000634419001490200009F06AF93EAAEC2331
:1048B0009446DB00634417901B681968194B6344E6
:1048C000186809F0D0FC011CFE20800509F0B1FC3D
:1048D0003EAAEC239446DB0063441B681890596899
:1048E000104B6344186809F0BEFC011CFE208005D3
:1048F00009F09FFC3EAAEC239446DB0063441B684E
:1049000019909968074B6344186809F0ACFC011CC6
:10491000FE20800509F08DFCA1AB1C003F9D1A9084
:104920001D9305E0640700000000E0BF0000E03FC9
:104930002B682A699B46AB68A9699846EB680F9873
:1049400006930292049109F08EFC6E698146311C37
:104950000E9809F088FC011C484609F06DFC02998C
:1049600081460D9809F07FFC069982460C9809F063
:104970007AFC011C504609F05FFC011C484609F016
:104980005BFC414681460B9809F06DFC6F688246DE
:10499000391C0A9809F067FC011C504609F04CFCD0
:1049A000594609F049FC011C484609F045FC0499A8
:1049B0002060169809F057FC311C81460F9809F0C9
:1049C00052FC011C484609F037FC029981460898C0
:1049D00009F049FC069982460B9809F044FC011C39
:1049E000504609F029FC011C484609F025FC4146C7
:1049F0008146119809F037FC391C09F01DFC594615
:104A00008246109809F02FFC011C504609F014FC56
:104A1000011C484609F010FC049960600D9809F0EB
:104A200022FC311C8146089809F01DFC011C4846F7
:104A300009F002FC02998146149809F014FC0699C9
:104A40008246109809F00FFC011C504609F0F4FB57
:104A5000011C484609F0F0FB391C81460C9809F00E
:104A600002FC414609F0E8FB59468246129809F0DB
:104A7000FAFB011C504609F0DFFB011C484609F017
:104A8000DBFB0499A060089809F0EDFB311C81461E
:104A9000179809F0E8FB011C484609F0CDFB029984
:104AA00081460E9809F0DFFB069909F0C5FB011C51
:104AB000484609F0C1FB414681460A9809F0D3FBFC
:104AC000391C8246129809F0CEFB011C504609F0B1
:104AD000B3FB59468246119809F0C5FB011C5046AC
:104AE00009F0AAFB011C484609F0A6FB0021E06082
:104AF000404609F0B8FB00218046381C09F0B3FBA2
:104B0000011C404609F098FB0021071C584609F09B
:104B1000AAFB011C381C09F08FFB0021071C06981A
:104B200009F0A1FB00218246301C09F09CFB00210A
:104B30008046049809F097FB02998146189809F07D
:104B400092FB514609F078FB41468346484609F0FE
:104B500073FB011C584609F06FFB391C09F06CFB14
:104B600000212061029809F07EFB514609F064FBA8
:104B70008246311C199809F076FB494609F05CFB26
:104B8000514609F059FB391C09F056FB0499606144
:104B90001A9809F068FB414609F04EFB514609F0AE
:104BA0004BFB391C09F048FB099B1C35A0611C34E8
:104BB0009D4200D0BCE670ADA8AB1D9C3795C4AE3D
:104BC0001C93236831689B46E369F0699846636DDE
:104BD000226F04910690191C0C980292099309F017
:104BE00042FB029981460D9809F03DFB011C4846A5
:104BF00009F022FB049981460E9809F034FB0699CE
:104C000082460F9809F02FFB011C504609F014FB57
:104C1000011C484609F010FB414681460A9809F0FC
:104C200022FBA76B8246391C0B9809F01CFB011C68
:104C3000504609F001FB594609F0FEFA011C4846AE
:104C400009F0FAFA099928600B9809F00CFB02990F
:104C50008146089809F007FB011C484609F0ECFA68
:104C6000049981460F9809F0FEFA06998246169833
:104C700009F0F9FA011C504609F0DEFA011C484619
:104C800009F0DAFA391C8146119809F0ECFA41462C
:104C900009F0D2FA59468246109809F0E4FA011C4C
:104CA000504609F0C9FA011C484609F0C5FA0999AD
:104CB0006860109809F0D7FA02998146149809F0B3
:104CC000D2FA011C484609F0B7FA049981460898BF
:104CD00009F0C9FA069982460D9809F0C4FA011C38
:104CE000504609F0A9FA011C484609F0A5FA4146C8
:104CF00081460C9809F0B7FA391C09F09DFA59461B
:104D00008246129809F0AFFA011C504609F094FA55
:104D1000011C484609F090FA0499A860179809F018
:104D2000A2FA06998146089809F09DFA011C4846A6
:104D300009F082FA029981460E9809F094FA0999CD
:104D400009F07AFA011C484609F076FA4146814694
:104D5000129809F088FA391C82460A9809F083FAF9
:104D6000011C504609F068FA59468246119809F02C
:104D70007AFA011C504609F05FFA011C484609F016
:104D80005BFA0021E860404609F06DFA0021804698
:104D9000381C09F068FA011C404609F04DFA002160
:104DA000071C584609F05FFA011C381C09F044FA48
:104DB0000021071C099809F056FA00218246049840
:104DC00009F051FA00218046069809F04CFA029940
:104DD0008146189809F047FA514609F02DFA4946DC
:104DE0008346404609F028FA011C584609F024FA87
:104DF000391C09F021FA00212861029809F033FAE0
:104E0000514609F019FA82460499199809F02BFACB
:104E1000494609F011FA514609F00EFA391C09F019
:104E20000BFA069968611A9809F01DFA414609F0D3
:104E300003FA514609F000FA391C09F0FDF9A8619E
:104E40001C9B04341C3504369C4200D0B9E63EAAB3
:104E50009446744B734A63441B6862441B6812682F
:104E60000893704BA1AD63441B68DB6909936D4BDC
:104E700063441B689B6B0A936A4B63441B685B6DBE
:104E80000B93684B63441B681B6F0C938C23D358A4
:104E9000644A0D93634B624463441B685B680E93E2
:104EA000604B63441B681B6A0F935E4B63441B6833
:104EB000DB6B10935B4B63441B689B6D1193594BE9
:104EC00063441B685B6F129390231268D358554A52
:104ED0001693544B624463441B6812689B68149396
:104EE000504B63441B685B6A17934E4B63441B68CB
:104EF0001B6C18934B4B63441B68DB6D1993494B38
:104F000063441B689B6F1A939423D358454A1C93A0
:104F1000444B624463441B68DB681D93414B63440C
:104F20001B689B6A1E933F4B63441B685B6C1F931B
:104F30003C4B63441B681B6E20933A4B12686344DE
:104F40001B68DB6F21939823D358364A2293354B45
:104F5000624463441B6812681B692393314B6344AA
:104F60001B68DB6A24932F4B63441B689B6C25935F
:104F70002C4B63441B685B6E26938023D358294ACD
:104F800027939C2362441268D358264A2893254BC2
:104F9000624463441B685B692993224B63441B682A
:104FA0001B6B2A931F4B63441B68DB6C2B931D4BBD
:104FB000126863441B689B6E2C938423D358194A50
:104FC0002D93A02362441268D358164A2E93154B92
:104FD000624463441B6812689B692F93114B6344BE
:104FE0001B685B6B30930F4B63441B681B6D3193E5
:104FF0000C4B63441B68DB6E32938823D358094AF9
:105000003393A42362441268D3583493064B634409
:105010001F68A1AB389390239C46BC44634606931B
:1050200004E0C0465C070000540700007B687A6912
:105030009946BB6849469846FB68099802930492D2
:1050400009F011F9414682460A9809F00CF9011C51
:10505000504609F0F1F83E688246311C089809F084
:1050600002F9011C504609F0E7F83C698246211C10
:105070000C9809F0F8F8049983460D9809F0F3F8B4
:10508000011C584609F0D8F8029983460B9809F09C
:10509000EAF8011C584609F0CFF8011C504609F007
:1050A000CBF80F992860484609F0DDF81099824640
:1050B000404609F0D8F8011C504609F0BDF80E9999
:1050C0008246301C09F0CFF8011C504609F0B4F8B4
:1050D00012998246201C09F0C6F816998346049856
:1050E00009F0C1F8011C584609F0A6F81199834649
:1050F000029809F0B8F8011C584609F09DF8011C07
:10510000504609F099F817996860484609F0ABF8DD
:1051100018998246404609F0A6F8011C504609F04D
:105120008BF814998246301C09F09DF8011C5046FA
:1051300009F082F81A998246201C09F094F81C990B
:105140008346049809F08FF8011C584609F074F85A
:1051500019998346029809F086F8011C584609F00F
:105160006BF8011C504609F067F8A8601E99484684
:1051700009F079F81F998246404609F074F8011C3D
:10518000504609F059F81D998246301C09F06BF819
:10519000011C504609F050F821998246201C09F064
:1051A00062F822998346049809F05DF8011C58467C
:1051B00009F042F820998346029809F054F8011C3E
:1051C000584609F039F8011C504609F035F8249981
:1051D000E860484609F047F825998246404609F0BC
:1051E00042F8011C504609F027F823998246301CEA
:1051F00009F039F8011C504609F01EF8279982463B
:10520000201C09F030F828998346049809F02BF8FF
:10521000011C584609F010F826998346029809F0B7
:1052200022F8011C584609F007F8011C504609F005
:1052300003F82A992861484609F015F82B99824607
:10524000404609F010F8011C504608F0F5FF299976
:105250008246301C09F007F8011C504608F0ECFFAC
:105260002D998246201C08F0FEFF2E998346049853
:1052700008F0F9FF011C584608F0DEFF2C99834620
:10528000029808F0F0FF011C584608F0D5FF011CF9
:10529000504608F0D1FF30996861484608F0E3FFB6
:1052A00031998146404608F0DEFF011C484608F06F
:1052B000C3FF2F998046301C08F0D5FF011C4046E3
:1052C00008F0BAFF3399061C201C08F0CCFF349973
:1052D000041C049808F0C7FF011C201C08F0ACFF58
:1052E0003299041C029808F0BEFF011C201C08F033
:1052F000A3FF011C301C08F09FFF069B1837A86114
:105300001C35BB4200D091E6C4AB0693379CA8ABDA
:10531000389D3693EB690D999946AB6B2E6F984685
:105320006B6D2F680493069B043504CB101C02920E
:10533000069308F098FF0C998246301C08F093FF02
:10534000011C504608F078FF0B998246049808F03B
:105350008AFF011C504608F06FFF0A9982464046BA
:1053600008F081FF09998346484608F07CFF011C3C
:10537000584608F061FF08998346381C08F073FF0F
:10538000011C584608F058FF011C504608F054FF15
:10539000011C206808F050FF10992060404608F07A
:1053A00062FF0F998246484608F05DFF011C504697
:1053B00008F042FF0E998246381C08F054FF011C89
:1053C000504608F039FF12998246301C08F04BFF16
:1053D00016998346029808F046FF011C584608F0CB
:1053E0002BFF11998346049808F03DFF011C584695
:1053F00008F022FF011C504608F01EFF011C6068E7
:1054000008F01AFF17996060484608F02CFF1899B9
:105410008246404608F027FF011C504608F00CFF6A
:1054200014998246381C08F01EFF011C504608F0F3
:1054300003FF1A998246301C08F015FF1C99834619
:10544000029808F010FF011C584608F0F5FE199963
:105450008346049808F007FF011C584608F0ECFE4C
:10546000011C504608F0E8FE011CA06808F0E4FEAC
:105470001E99A060484608F0F6FE1F9982464046F5
:1054800008F0F1FE011C504608F0D6FE1D99824638
:10549000381C08F0E8FE011C504608F0CDFE2199AA
:1054A0008246301C08F0DFFE22998346029808F0FD
:1054B000DAFE011C584608F0BFFE20998346049886
:1054C00008F0D1FE011C584608F0B6FE011C5046FB
:1054D00008F0B2FE011CE06808F0AEFE2499E0601E
:1054E000484608F0C0FE25998246404608F0BBFEBB
:1054F000011C504608F0A0FE23998246381C08F093
:10550000B2FE011C504608F097FE27998246301CD7
:1055100008F0A9FE28998346029808F0A4FE011C11
:10552000584608F089FE26998346049808F09BFEA9
:10553000011C584608F080FE011C504608F07CFE15
:10554000011C206908F078FE2A992061484608F07D
:105550008AFE2B998246404608F085FE011C504683
:1055600008F06AFE29998246381C08F07CFE011C6E
:10557000504608F061FE2D998246301C08F073FEFB
:105580002E998346029808F06EFE011C584608F0DA
:1055900053FE2C998346049808F065FE011C58467A
:1055A00008F04AFE011C504608F046FE011C6069E6
:1055B00008F042FE30996061484608F054FE319987
:1055C0008146404608F04FFE011C484608F034FE74
:1055D0002F998046381C08F046FE011C404608F012
:1055E0002BFE3399071C301C08F03DFE3499061C35
:1055F000029808F038FE011C301C08F01DFE32999C
:10560000061C049808F02FFE011C301C08F014FE44
:10561000011C381C08F010FE011CA06908F00CFEEB
:10562000369BA0611C349D4200D073E63E99709B6E
:105630000B60779B4B607E9B8B60859BCB608C9BCC
:105640000B61939B4B619A9B8B61719BCB61789BA8
:105650000B627F9B4B62869B8B628D9BCB62949B84
:105660000B639B9B4B63729B8B63799BCB63809B90
:105670000B64879B4B648E9B8B64959BCB649C9B3C
:105680000B65739B4B657A9B8B65819BCB65889B78
:105690000B668F9B4B66969B8B669D9BCB66749B24
:1056A0000B677B9B4B67829B8B67899BCB678023B8
:1056B000909ACA50979A0433CA509E9A0433CA509B
:1056C000759A0433CA507C9A0433CA50839A0433BF
:1056D000CA508A9A0433CA50919A0433CA50989A8D
:1056E0000433CA509F9A0433CA50769A0433CA507E
:1056F0007D9A0433CA50849A0433CA508B9A043377
:10570000CA50929A0433CA50999A0433CA50A09A44
:105710000433CA50359B1A685F68111C101C9046F0
:105720009E68DD6808F09FFD391C041C381C08F0D9
:105730009AFD011C201C08F07FFD311C041C301C4C
:1057400008F091FD011C201C08F076FD291C041CAA
:10575000281C08F088FD011C201C08F06DFD08F0D5
:1057600011FE041C011C404608F069FD359B211CFC
:105770001860381C08F063FD359F211C7860301CD0
:1057800008F05DFD211CB860281C08F058FD1B9B2B
:10579000F8601A685F68111C101C90469E68DD68EE
:1057A00008F061FD391C041C381C08F05CFD011C6C
:1057B000201C08F041FD311C041C301C08F053FD76
:1057C000011C201C08F038FD291C041C281C08F0B2
:1057D0004AFD011C201C08F02FFD08F0D3FD041C1D
:1057E000011C404608F02BFD1B9B211C1860381C37
:1057F00008F025FD1B9F211C7860301C08F01FFD60
:10580000211CB860281C08F01AFDF8600020044B29
:105810009D44F0BCBB46B246A946A046F0BDC0467A
:1058200024080000F0B5D6464F464646C0B586B0BF
:10583000A14B02AC00941A68A04D02929A882800ED
:10584000A2809B796A46A3710723019300236946CE
:10585000D3730DF0A3FC0098A04203D0029901314C
:1058600008F08CFF28000DF0E1FC954E9C243100DF
:105870000122944D01C1A400830F43406B4398184B
:10588000013201C1A242F7D19C2300240020002153
:105890001B01F2508C4D00228C4B9C60DD6000247B
:1058A0001860596018615961FE201A76884B80058E
:1058B0001C605C609C60DC60864B1C605C609C6073
:1058C000DC60854B1C605C60844B1C605C60844BBE
:1058D0001C605C60834B1C605C609C60DC60824B85
:1058E0001C605C60814D9C60DC60814B29681C60A1
:1058F00008F0A5FC7F4E804B3060FE201C605C6091
:105900009C60DC607D4B80051C605C607C4B1C6097
:105910005C607C4B1C605C607B4B1C605C609C60D2
:10592000DC607A4B1C605C609C60DC60784B1C60C7
:105930005C609C60DC60774B29681C605C60764B27
:10594000764E1C605C60764B1C605C60754B1C6026
:105950005C609C60DC60744B1C605C609C60DC6024
:10596000724B1C6008F06BFC714B30601C605C601B
:105970009C60DC606F4B1C605C606F4B1C605C600B
:105980006E4B1C605C606E4B1C605C609C60DC60FD
:105990006C4B1C606C4B1C606C4B6D4C1868011C94
:1059A00008F061FC6B4B206018686B4C011C08F020
:1059B0005AFC6A4B20601C68694B6A4D1868011CD0
:1059C00008F03AFC684B196808F04DFC211C08F0FF
:1059D0004AFC664B196808F032FC011CFE20800569
:1059E00008F027FC624B28601C60624B1E68301C6C
:1059F00008F0D8FC604B051C301C1F6808F0E4FC64
:105A00005E4B82461E685E4B391C281C994608F086
:105A10002AFC311C8046504608F025FC011C4046FB
:105A200008F00AFC211C08F01EFC4B461860554B80
:105A30001B689846544B41461B689946534B9A46FF
:105A400080231B06F81808F00EFC514B071C196840
:105A5000301C08F008FC011C381C08F0EDFB4D4B15
:105A6000071C1968281C08F0FEFB494608F0FBFBE0
:105A7000011C381C08F0E0FB211C08F0F4FB80231B
:105A800052461B0610604946F01808F0ECFB211C3A
:105A900008F0E9FB404F41463860201C08F0E3FB6A
:105AA000291C08F0CCFB3D4E306006B0E0BCBA4685
:105AB000B146A846F0BDC046EC6C0110743D032011
:105AC0007C3203206589076C0000F03FB02B00207A
:105AD00090290020B02900207C3C0320743C032046
